:020000040800F2
:10000000F0200020490300080B2500089523000874
:10001000092500080F0900085D35000800000000F0
:10002000000000000000000000000000890200083D
:10003000B509000800000000E5020008BB25000823
:1000400063030008630300086303000863030008F8
:1000500063030008630300086303000863030008E8
:1000600063030008630300086303000863030008D8
:1000700063030008630300086303000863030008C8
:1000800063030008630300086303000863030008B8
:1000900063030008630300086303000863030008A8
:1000A0006303000863030008630300084D2600088B
:1000B0006303000863030008630300086303000888
:1000C0006303000863030008630300086303000878
:1000D00063030008F53400086303000863030008A5
:1000E0006303000863030008630300086303000858
:1000F0006303000863030008630300086303000848
:100100006303000863030008630300086303000837
:100110006303000863030008630300086303000827
:100120006303000863030008630300086303000817
:100130006303000863030008630300086303000807
:1001400063030008630300086303000863030008F7
:1001500063030008630300086303000863030008E7
:1001600063030008630300086303000863030008D7
:1001700063030008630300086303000863030008C7
:1001800063030008630300086303000863030008B7
:100190006303000800000000630300086303000815
:1001A0006303000863030008630300086303000897
:1001B0006303000863030008630300086303000887
:1001C0006303000863030008630300086303000877
:1001D000630300086303000800F002F800F045F82C
:1001E0000AA090E8000C82448344AAF10107DA4592
:1001F00001D100F03AF8AFF2090EBAE80F0013F09F
:10020000010F18BFFB1A43F001031847604D0000AF
:10021000804D0000103A24BF78C878C1FAD8520740
:1002200024BF30C830C144BF04680C607047000070
:100230000023002400250026103A28BF78C1FBD8EF
:10024000520728BF30C148BF0B6070471FB504F08C
:10025000F7FD00F0F9FA04000020002104F0DAFDB7
:10026000401C60601FBD10B510BD00F0C8FA1146FB
:10027000FFF7ECFF03F084F900F0F8FA03B4FFF79E
:10028000F2FF03BC00F03CFB2C4B19680868B0E897
:10029000F04F80F30988BFF36F8F4FF0000080F3B9
:1002A000118870470000000008480068006880F36B
:1002B00008884FF0000080F3148862B661B6BFF37F
:1002C0004F8FBFF36F8F00DF00BF00BF08ED00E06E
:1002D000DFF80C00016841F470010160704700BF55
:1002E00088ED00E0EFF30980BFF36F8F134B1A68BE
:1002F0001EF0100F08BF20ED108A20E9F04F1060AB
:1003000009B44FF0500080F31188BFF34F8FBFF353
:100310006F8F04F051F84FF0000080F3118809BC92
:1003200019680868B0E8F04F1EF0100F08BFB0EC75
:10033000108A80F30988BFF36F8F70474000002058
:10034000EFF30580704700000948804709480047DF
:10035000FEE7FEE7FEE7FEE7FEE7FEE7FEE7FEE775
:10036000FEE7FEE704480549054A064B70470000D2
:100370003D260008D9010008F01A0020F0200020D6
:10038000F01C0020F01C002053EA020C00F06980F1
:100390002DE9F04B4FF00006002B1FBFB3FA83F599
:1003A00003FA05F424FA05F65E4012BF1643B2FACA
:1003B00082F502FA05F4C5F120051EBF22FA05FCFC
:1003C00044EA0C04203556EA044C4FEA144418BFA2
:1003D000641C4FF000084FF00009904271EB030CD1
:1003E00039D3002919BFB1FA81F701FA07F6B0FA3B
:1003F00080F700FA07F6C7F120071EBF20FA07FCB6
:1004000046EA0C062037B6FBF4FCA7EB0507103FC5
:1004100007F01F0BCBF120060CFA0BFB2CFA06F6AB
:1004200044BFB3460026202FA4BF5E464FF0000B0A
:100430005BEA060C08BF4FF0010B19EB0B09ABFB95
:10044000027C48EB0608C01B06FB02CC0BFB03CC6E
:1004500071EB0C01C1E70B46024641464846BDE838
:10046000F08B13B54FF000004FF00001AFF30080A8
:10047000BDE81C40704770B5064600F0D5F804682A
:10048000054630460A22002100F0D2F82C6070BDEB
:1004900030B505460B462A4613F8014B12F8010BFE
:1004A00008B1A042F8D01CB1002802D06D1CF1E7C1
:1004B000284630BD40EA0103024630B59B0710D103
:1004C0004FF0013400E008C208C91D1B9D4315EA26
:1004D000C41FF8D013F0FF0102F8011B0DD01B0A56
:1004E000F8E711F8013B002B02F8013B05D011F8A9
:1004F000013B002B02F8013BF3D130BD10B5431C8A
:1005000002E010F8011B71B18107FAD14FF00132FE
:1005100002C88C1A8C4314EAC211F9D0C01A0A0618
:1005200003D0C01E10BDC01A10BD0A0401D0801E29
:1005300010BD0902FCD0401E10BD032A40F23080DD
:1005400010F0030C00F0158011F8013BBCF1020F14
:10055000624498BF11F801CB00F8013B38BF11F895
:10056000013BA2F1040298BF00F801CB38BF00F8AC
:10057000013B11F0030300F09380083AC0F00880BB
:1005800051F8043B083A51F804CBA0E80810F5E70D
:10059000121D5CBF51F8043B40F8043BAFF30080F0
:1005A000D20724BF11F8013B11F801CB48BF11F865
:1005B000012B24BF00F8013B00F801CB48BF00F835
:1005C000012B704702F0FF0343EA032242EA024292
:1005D00000F09AB84FF0000200B5134694469646D4
:1005E000203922BFA0E80C50A0E80C50B1F1200146
:1005F000BFF4F7AF090728BFA0E80C5048BF0CC0F4
:100600005DF804EB890028BF40F8042B08BF704751
:1006100048BF20F8022B11F0804F18BF00F8012BC3
:10062000704770477047704700487047901A002025
:100630002DE9F04791460F4680460446002614F8FF
:10064000015B2DB100F084F80068405DC007F6D171
:100650002B2D02D02D2D18D0641E4A463946204637
:1006600000F07EF827B13968A14201D1C7F80080B7
:100670004FF0020471050BD54042002803DDFFF75F
:10068000D3FF0460A007BDE8F08746F48066E4E786
:100690000028F8DAFFF7C8FF04606FF00040F2E7C7
:1006A00010B5203AC0F00B80B1E81850203AA0E80D
:1006B0001850B1E81850A0E81850BFF4F5AF5FEA41
:1006C000027C24BFB1E81850A0E8185044BF18C9F4
:1006D00018C0BDE810405FEA827C24BF51F8043B9B
:1006E00040F8043B08BF7047D20728BF31F8023BEF
:1006F00048BF11F8012B28BF20F8023B48BF00F883
:10070000012B70474FF000020429C0F0128010F056
:10071000030C3FF461AFCCF1040CBCF1020F18BF25
:1007200000F8012BA8BF20F8022BA1EB0C01FFF76A
:1007300053BF5FEAC17C24BF00F8012B00F8012BF6
:1007400048BF00F8012B704700487047901A0020FE
:1007500010B500F079F8001D10BD00BFB9460000CB
:100760002DE9F05F824615468B4600270AF1010409
:10077000B9460078302801D09DB113E014F8010B80
:100780000127782803D0582801D045B10AE00DB1DF
:10079000102D07D1002714F8010B102502E00825C1
:1007A00000E00A250026B0460EE005FB080005FB28
:1007B00006F101271FFA80F801EB1046B6F5803FDD
:1007C00000D3B94614F8010B294600F041F800287F
:1007D000EBDABBF1000F05D00FB1641E00E0544608
:1007E000CBF80040B9F1000F06D0FFF71DFF022142
:1007F0000160C81EBDE8F09F48EA0640FAE775466A
:10080000FFF7A2FFAE4605006946534620F00700F9
:10081000854618B020B5FFF7A5FDBDE820404FF094
:1008200000064FF000074FF000084FF0000B21F0DA
:100830000701AC46ACE8C009ACE8C009ACE8C009A7
:10084000ACE8C0098D46704700487047B01A0020D8
:100850003A2800D2303820F02002412A01D3A2F1F8
:100860003700884201D34FF0FF30704710B504467F
:10087000AFF300802046BDE81040FFF7FFBC00004A
:100880004FF0013C50F8042B51F8043B9A4221D11F
:10089000A2EB0C03934313EACC1317D150F8042BAB
:1008A00051F8043B9A4215D1A2EB0C03934313EA8F
:1008B000CC130BD150F8042B51F8043B9A4209D1C8
:1008C000A2EB0C03934313EACC13DBD04FF00000F0
:1008D000704700BFD01A01BAB1FA81F101F01801D6
:1008E00022FA01F0CB40C1F12001DBB2C0B2C01A44
:1008F0002CFA01F3D11A914311EAC311E6D17047E2
:1009000001491820ABBEFEE7260002007047FEE753
:1009100038B5224C0425E068017844291ED04629C8
:100920001BD14178722918D18178652915D1C078F9
:10093000712812D10220207019A1A01DFFF7BAFD65
:10094000002304F11402A11D1748009501F00AFECE
:1009500004F11400FFF78FFDA08038BD41787529A0
:10096000FBD181787429F8D1C0787928F5D101209C
:1009700020700A480DA1801DFFF79CFD074A002347
:100980001432A2F10E010848009501F0EBFD034876
:100990001430FFF770FD608038BD000000000020BB
:1009A0004672657100000000C00000204475747933
:1009B00000000000704772B6FEE700002DE9F04F1E
:1009C000DFF82092002301260324A9F1040B85B04F
:1009D0000F2709F1040AABF1040EFAE006FA03F559
:1009E0002A407CD091F804C00CF0030CBCF1010F3C
:1009F00002D0BCF1020F26D1D0F808C0CDF800C05B
:100A00004FEA430C04FA0CF8CDF810C0DDF800C032
:100A10002CEA080CCDF800C0D1F80C80DDF810C02D
:100A200008FA0CF8DDF800C048EA0C08C0F80880A5
:100A3000D0F804C02CEA050C0D79C5F300159D40D3
:100A400045EA0C0545600D79ED43AD070ED0C5684C
:100A50004FEA430804FA08FC25EA0C05D1F808C05F
:100A60000CFA08FC4CEA050CC0F80CC00D7905F036
:100A70000305022D16D1DD0800EB850CCDF808C06A
:100A8000DCF820805D074FEAD56C07FA0CF528EA00
:100A900005080D6905FA0CF5DDF808C045EA0805FA
:100AA000CCF8205005684FEA430CCDF808C004FA92
:100AB0000CFC25EA0C0591F804C00CF00308DDF8E5
:100AC00008C008FA0CF848EA0508C0F800804D682C
:100AD00015F4403F7CD0444DD5F860C000E077E08D
:100AE0004CF0010CC5F860C02D6E23F0030C05F02E
:100AF000010500953D4D65440295AD684FEA837C44
:100B00004FEA1C7807FA08FC25EA0C05B0F1904F73
:100B100006D0DFF8DCC0604505D14FF0010C20E0C5
:100B20004FF0000C1DE0DFF8CCC0604502D14FF063
:100B3000020C16E0DFF8C0C0604502D14FF0030C94
:100B40000FE0DFF8B8C0604502D14FF0040C08E0B8
:100B5000DFF8ACC0604502D14FF0050C01E04FF06A
:100B6000060C0CFA08FC4CEA050C029DC5F808C0FE
:100B7000D9F80050CC46D1F8048095435FEAC828E4
:100B800000D51543CCF80050DAF80050D446D1F81F
:100B9000048095435FEA882800D51543CCF80050BF
:100BA000DBF80050DC46D1F8048095435FEA8838D2
:100BB00000D51543CCF80050DEF80050F446D1F8CB
:100BC000048095435FEAC83800D51543CCF800503F
:100BD0005B1C0A6832FA03F57FF400AF05B0BDE88C
:100BE000F08F0000080401400010024000000140A6
:100BF0000004004800080048000C004800100048AD
:100C000000140048426921EA02030A4043EA024113
:100C1000816170470AB1816170478162704700004D
:100C20000148806870470000300000200248816859
:100C300042681144816070473000002010B50024E4
:100C4000032000F079F80F2000F008F808B1012423
:100C500001E000F025F8204610BD000070B50E4EF2
:100C600005460024706898B14FF47A71B1FBF0F03A
:100C70000A490968B1FBF0F000F0A4FD40B9102D5D
:100C800006D200222946501E00F036F8356000E0FA
:100C90000124204670BD0000300000203C000020F0
:100CA0000D4808B5016E41F001010166016E01F0C9
:100CB00001010091816D41F080518165806D0022BC
:100CC00000F0805000900F21901E00F015F8BDE854
:100CD000084000F0A1B8000000100240002809DB25
:100CE00000F01F02012191404009800000F1E02046
:100CF000C0F8001170470000F0B40E4B1B680C46A2
:100D0000C3F30223C3F10705042D00D90425191DDF
:100D1000072901D2002300E0DB1E012606FA05F1B7
:100D2000491E214099409E40761E16403143F0BC3A
:100D300002F015BC0CED00E0064900F0070208685F
:100D40004FF6FF03184040EA0220034A10430860B0
:100D5000704700000CED00E00000FA052B492C4B19
:100D60000A6832214A432B4940B1B0F5007F086838
:100D700029D020F4C06040F480602CE00868C0F303
:100D80004120022804D051F8800F20F4807022E026
:100D9000D1F8800020F48070C1F88000086820F449
:100DA000C06040F400700860B2FBF3F0401C00E04B
:100DB000401E4A69520501D50028F9D1486940050D
:100DC0000AD503207047C0F34120022806D051F80D
:100DD000800F40F48070086000207047D1F88000D8
:100DE00040F48070C1F88000086820F4C06040F4CE
:100DF00000700860B2FBF3F0401C00E0401E4A693E
:100E00005205DBD50028F9D1D8E700003C000020CE
:100E100040420F00007000400248816841F4804168
:100E200081607047007000402DE9F8430446006877
:100E30000026BB4D00035ED5A86D0027C00008D476
:100E4000A86D40F08050A865A86D012700F0805083
:100E50000090DFF8D092D9F8001041F48071C9F801
:100E60000010FFF7DDFE804606E000BFFFF7D8FE6A
:100E7000A0EB080002282BD8D9F80000C005F5D552
:100E8000D5F8900010F4407014D0216D814211D03B
:100E9000D5F89000D5F8901020F4407041F48031DE
:100EA000C5F89010D5F8901021F48031C5F8901055
:100EB000C5F89000C00711D0FFF7B2FE804641F29E
:100EC000883907E0FFF7ACFEA0EB0801494501D9DE
:100ED00003260BE0D5F890008007F3D5D5F89000F5
:100EE000216D20F440700843C5F890001FB1A86D33
:100EF00020F08050A8652078C00707D0D5F888007A
:100F0000616820F003000843C5F888002078800756
:100F100007D5D5F88800A16820F00C000843C5F873
:100F200088002078400707D5D5F88800E16820F0D0
:100F300030000843C5F888002078000707D5D5F8A9
:100F40008800216920F0C0000843C5F88800207897
:100F5000C00607D5D5F88800616920F440700843C1
:100F6000C5F888002078800607D5D5F88800A169E3
:100F700020F440600843C5F888002078400607D573
:100F8000D5F88800E16920F440500843C5F888008E
:100F90002078000607D5D5F88800216A20F4404063
:100FA0000843C5F888002088C00507D5D5F8880013
:100FB000616A20F440300843C5F888002068800347
:100FC00007D5D5F89C00A16A20F003000843C5F8B6
:100FD0009C002088800507D5D5F88800E16A20F4B8
:100FE00040200843C5F88800208840050FD5D5F873
:100FF0008800216B20F440100843C5F88800206B5E
:10100000B0F5801F03D1E86840F48010E8602088C4
:1010100000050FD5D5F88800616B20F44000084327
:10102000C5F88800606BB0F5800F03D1E86840F424
:101030008010E8602088C0040FD5D5F88800A16B27
:1010400020F040700843C5F88800A06BB0F1807FA5
:1010500003D1E86840F48010E86020884FF0006118
:1010600080040ED5D5F88800E26B20F04060104374
:10107000C5F88800E06B884203D1E86840F480102E
:10108000E860208840040ED5D5F88800226C20F056
:1010900040601043C5F88800206C884203D1E8689E
:1010A00040F48010E860208800040FD5D5F888004F
:1010B000616C20F040500843C5F88800606CB0F1C6
:1010C000805F03D1E86840F48030E8602068C003A6
:1010D0000FD5D5F88800A16C20F040400843C5F832
:1010E0008800A06CB0F1804F03D1E86840F48030F4
:1010F000E860206840030FD5D5F89C00E16C20F42F
:1011000040100843C5F89C00E06CB0F5001F03D107
:10111000E86840F48010E8603046BDE8F8830000DD
:1011200000100240007000402DE9F0470E46050017
:101130004FF0000725D0DFF8AC81D8F8000000F0B0
:101140000F00B0420CD2D8F8001021F00F0131434B
:10115000C8F80010D8F8000000F00F00B04210D11D
:101160002968614CC80741F2883A5AD06868DFF8AC
:101170007C91032808D0022820682DD04005002843
:101180002CDB0120BDE8F08720688001F9D5E068FC
:1011900000F00302E068C0F30310401C032A19D0DA
:1011A000534A00BFB2FBF0F0E268C2F3062250439C
:1011B000E268C2F34162521C5200B0FBF2F04845B3
:1011C00017D9A06810F0F00F0CD0880711D5A868C7
:1011D00040B10EE0474AE5E78003D0E700F0B6F8FB
:1011E000484506D9A06820F0F00040F08000A060DB
:1011F0008027A068696820F003000843A060FFF71B
:101200000FFD814606E000BFFFF70AFDA0EB0901D4
:1012100051453AD8A068696800F00C00B0EB810F26
:10122000F2D12868810714D5400703D5A06840F49F
:10123000E060A0602878000705D5A06820F4605021
:1012400040F4E060A060A068A96820F0F0000843C6
:1012500004E0802F03D1A06820F0F000A060D8F84F
:101260000010404601F00F01B14216D9016821F08B
:101270000F0131430160FFF7D3FC074607E000BFD1
:10128000FFF7CEFCC11B514501D903207AE7D8F8FE
:10129000000000F00F00B042F2D12878400705D5D9
:1012A000A068E96820F4E0600843A060287800079F
:1012B00006D5A068296920F4605040EAC100A0600A
:1012C00000F044F8A1680C4AC1F30311515C01F02D
:1012D0001F01C8400949086009480068BDE8F04797
:1012E000FFF7BCBC002002400010024000B4C40460
:1012F0000024F40000127A00484F00083C0000204F
:10130000300000200548064900688968054AC1F395
:101310000221515C01F01F01C84070473C000020D1
:1013200000100240584F00080548064900688968C7
:10133000054AC1F3C221515C01F01F01C84070474A
:101340003C00002000100240584F0008184910B51A
:101350008868C0F381021748012A0BD08A684310BD
:10136000C2F38102022A06D08A68C2F38102032AEC
:1013700003D0002010BD184610BDCA6802F0030457
:10138000CA68C2F30312521C032C02D0B0FBF2F065
:1013900001E0B3FBF2F0CA68C968C2F30622504309
:1013A000C1F34161491C4900B0FBF1F010BD0000E0
:1013B000001002400024F4002DE9F84304007AD024
:1013C0002078FA4DC00747D0A868E96800F00C0003
:1013D00001F003010C2802D0082817D001E00329EE
:1013E00014D06068B0F5803F17D0B0F5A02F286802
:1013F00017D020F480302860286820F480202860EE
:101400006068E0B1FFF70CFC064614E02868800332
:1014100022D560680028D2D01EE0286840F48030D1
:10142000EDE740F480202860F7E700BFFFF7F8FB06
:10143000801B642870D828688003F7D50CE0FFF77C
:10144000EFFB064605E000BFFFF7EAFB801B6428C0
:10145000F0D828688003F7D4207880074CD5A86896
:10146000E96800F00C0001F003010C2802D0042808
:101470000DD001E002290AD0E068002828682BD0AE
:1014800040F480702860FFF7CBFB064619E028681F
:10149000400502D5E068002891D06868217C20F0E2
:1014A000FE4040EA01606860C1480068FFF7D6FB73
:1014B000002800D120E076E1FFF7B2FB801B022874
:1014C000B8D828684005F7D56868217C20F0FE4030
:1014D00040EA016068600FE020F480702860FFF748
:1014E0009FFB064605E000BFFFF79AFB801B022822
:1014F000A0D828684005F7D42078000729D560696E
:101500000028D5F8940013D040F00100C5F89400ED
:10151000FFF786FB064606E090E000BFFFF780FB82
:10152000801B022886D8D5F894008007F6D510E0F5
:1015300020F00100C5F89400FFF772FB064604E0B6
:10154000FFF76EFB801B022878D8D5F8940080073F
:10155000F6D42078400761D5A86D0026C00008D4D5
:10156000A86D40F08050A865A86D012600F080505D
:10157000009090480168C90511D40168804641F483
:1015800080710160FFF74CFB074604E0FFF748FB62
:10159000C01B022852D8D8F80000C005F6D5A068B4
:1015A000012815D00528D5F8900016D020F00100AC
:1015B000C5F89000D5F8900020F00400C5F8900020
:1015C000A06841F28838B8B1FFF72AFB07460EE061
:1015D000D5F8900040F00100F0E740F00400C5F8B5
:1015E0009000F5E7FFF71CFBC11B414526D8D5F855
:1015F00090008007F6D50CE0FFF712FB074604E0E9
:10160000FFF70EFBC11B414518D8D5F890008007A5
:10161000F6D41EB1A86D20F08050A8652078800611
:1016200029D5A0690028D5F8980013D040F0010012
:10163000C5F89800FFF7F4FA064606E077E000BF29
:10164000FFF7EEFA801B022877D8D5F898008007BC
:10165000F6D510E020F00100C5F89800FFF7E0FA99
:10166000064604E0FFF7DCFA801B022865D8D5F8AF
:1016700098008007F6D4E069F0B3A968C1F381014E
:10168000032961D00228286820F0807028600BD0E0
:10169000E86820F00300E860E86847490840E8602F
:1016A000FFF7BEFA04464BE0FFF7BAFA064604E03D
:1016B000FFF7B6FA801B02283FD828688001F7D4CC
:1016C000F4E908016FF00F0202EB01110843218ACF
:1016D0005204490802EB4151A26841EA0221084341
:1016E000217D4FF07E42490802EB41610843217B96
:1016F00040EAC160E96800E062E0304A1140084316
:10170000E860286840F080702860E86840F08070E9
:10171000E860FFF785FA044605E000BFFFF780FAAE
:10172000001B022809D828688001F7D548E004E0AA
:10173000FFF776FA001B022802D90320BDE8F883E0
:1017400028688001F4D43BE00128F7D0E868226AD9
:1017500000F00301914226D1616A00F0F002090114
:10176000103991421FD1A26A00F4FE41B1EB022F61
:1017700019D194F82C2000F07841B1EBC26F12D14E
:10178000218E00F4C00249084905A1F500119142DB
:1017900009D194F8341000F0C06049084906A1F15D
:1017A000007181420CD00120C8E700000010024007
:1017B0003000002000700040FFFFEEFE0C809F0113
:1017C0000020BBE710B5401EB0F1807F01D301209F
:1017D00010BD4FF0E02460610F21601701F0BFFEE3
:1017E0000020A06107202061002010BD70477047D5
:1017F00070470000F0B590F83C20012A58D0012233
:1018000080F83C20CA688B6822F440721A434B6807
:1018100022F480621A430B6822F400621A430B69B7
:1018200022F480521A434B6922F400521A430B6B84
:1018300022F480421A430B8B22F4702242EA0342C4
:101840001C4C036800271C4D1C4EA34203D0AB4226
:1018500001D0B34205D1D1F81CC022F0805242EA37
:101860000C02A34203D0AB4201D0B3421BD1B1F86A
:1018700028C022F4700242EA0C52D1F820C022F0B3
:10188000807242EA0C02D1F824C022F0007242EACF
:101890000C02A34203D0AB4201D0B34203D1C96AC8
:1018A00022F000520A435A6480F83C700020F0BDD8
:1018B0000220F0BD002C01400034014000500140E6
:1018C0007047704770470000F0B590F83C20012A3F
:1018D00043D0012580F83C50022280F83D20036867
:1018E0005A689C681E4E1F4FDFF87CC0B34203D07D
:1018F000BB4201D0634504D122F4700E4A6842EA2B
:101900000E02DFF868E002EA0E02D1F800E04EEACB
:10191000020EC3F804E00268B24212D0B2F1804F66
:101920000FD0134B9A420CD0124B9A4209D0124B53
:101930009A4206D0BA4204D0104B9A4201D0624576
:1019400004D1896824F080031943916080F83D50E8
:10195000002180F83C100846F0BD0220F0BD0000D8
:10196000002C014000340140005001408FFFFFFD7A
:101970000004004000080040000C0040004001400E
:1019800010B50446022249B104290ED0082913D00B
:1019900094F84700012816D0012010BD94F84400A7
:1019A0000128F9D184F844200FE094F8450001287B
:1019B000F2D184F8452008E094F846000128EBD1E4
:1019C00084F8462001E084F847200422206800F0D3
:1019D000BAFE2068416C41F400414164134920681B
:1019E000884214D0B0F1804F11D0114988420ED0F6
:1019F000104988420BD01049884208D00F498842CC
:101A000005D00F49884202D00E49884207D181682B
:101A10000D4A1140062906D0B1F5803F03D0016878
:101A200041F001010160002010BD0000002C0140C8
:101A30000004004000080040000C00400034014059
:101A4000004001400050014007000100704770470E
:101A500070B50446006801694FF00005C943890765
:101A600015D4C168C943890711D4E91E0161012059
:101A70002077206880698007204602D0FFF7E7FFC3
:101A800004E000F02DF9204600F05EFA257720688A
:101A90000169C943490717D4C168C943490713D429
:101AA0006FF004010161022020772068806910F442
:101AB000407F204602D0FFF7CAFF04E000F010F993
:101AC000204600F041FA257720680169C9430907DB
:101AD00016D4C168C943090712D46FF00801016127
:101AE000042020772068C0698007204602D0FFF7D5
:101AF000AEFF04E000F0F4F8204600F025FA257768
:101B000020680169C943C90617D4C168C943C90619
:101B100013D46FF010010161082020772068C0699C
:101B200010F4407F204602D0FFF791FF04E000F060
:101B3000D7F8204600F008FA257720680169C943E4
:101B4000C90708D1C168C943C90704D1891E016109
:101B5000204600F085FA20680169C943090609D4C6
:101B6000C168C943090605D46FF0800101612046B0
:101B7000FFF73DFE20680169C943C90509D4C16862
:101B8000C943090605D46FF4807101612046FFF74F
:101B90002DFE20680169C943490609D4C168C943BB
:101BA000490605D46FF040010161204600F059FA62
:101BB00020680169C943890609D4C168C9438906F7
:101BC00005D46FF0200101612046FFF711FE206867
:101BD0000169C943C90209D4C168C943C90205D40E
:101BE0006FF4801101612046FFF76BFE20680169E8
:101BF000C943890209D4C168C943890205D46FF475
:101C0000001101612046FFF75BFE20680169C943AE
:101C1000490209D4C168C943490205D46FF480015F
:101C200001612046FFF74EFE20680169C9430902A1
:101C30000BD4C168C943090207D46FF400010161E4
:101C40002046BDE87040FFF701BF70BD70B586B09B
:101C5000044614216846FEF7BDFC1E4920688842F0
:101C600035D11D48C16C41F00201C164C16C01F065
:101C700002010591C16C41F00101C164C06C0224F4
:101C800000F0010005904FF40050CDE90004134E20
:101C90000625029469463046CDE90345FEF78EFEDF
:101CA000A003CDE9000404200294CDE90340694675
:101CB0003046FEF783FE4FF4B850CDE9000402949D
:101CC00069464FF09040CDE90345FEF777FE06B038
:101CD00070BD0000002C01400010024000040048CC
:101CE00070B52449884221D12348254C0126026938
:101CF0002249231D0225012A19D00325022A28D0B2
:101D00000425032A13D0042A10D1826831F8125016
:101D10002560521E8260C46831F814101960641C7A
:101D2000C460002A02DC592C00DB066170BD8268A9
:101D300031F812602660521C8260C46831F81410B9
:101D40001960641EC460592AF0DB002CEEDC0561CA
:101D500070BD826831F812602660521E8260C468CD
:101D600031F814101960641CC460002AF0DC592C8E
:101D7000EDDA70BDE0000020180000204A4E000897
:101D8000342C014070B5044690F83C0000260D4606
:101D900001280BD0012084F83C000C2A4AD007DC33
:101DA00082B1042A20D0082A06D131E0022070BD79
:101DB000102A53D0142A63D00126002084F83C0056
:101DC000304670BD206800F0CBFC2068816941F08E
:101DD000080181612068816921F004018161206826
:101DE00081692A69114311E0206800F00FFD206825
:101DF000816941F4006181612068816921F4806119
:101E00008161206881692A6941EA02218161D4E700
:101E1000206800F04BFD2068C16941F00801C161F4
:101E20002068C16921F00401C1612068C1692A6983
:101E3000114311E0206800F089FD2068C16941F478
:101E40000061C1612068C16921F48061C1612068BD
:101E5000C1692A6941EA0221C161AEE7206800F048
:101E6000C5FD2068016D41F0080101652068016D24
:101E700021F0040101652068016D2A69114311E018
:101E8000206800F0EFFD2068016D41F400610165FC
:101E90002068016D21F4806101652068016D2A6967
:101EA00041EA0221016588E710B5040003D094F8E7
:101EB0003D0010B107E0012010BD002084F83C0077
:101EC000204600F023F8022084F83D00211D206800
:101ED00000F0C2FB012084F8480084F83E0084F83A
:101EE0003F0084F8400084F8410084F8420084F800
:101EF000430084F8440084F8450084F8460084F8E0
:101F0000470084F83D00002010BD000008B50068BF
:101F10000B49884212D10B48016E41F40061016601
:101F2000006E002200F40060009011461B20FEF7B6
:101F3000E3FEBDE808401B20FEF7D0BE08BD000050
:101F4000002C0140001002407047000070B50446AC
:101F5000022269B1042912D0082917D00C291CD0FB
:101F6000102921D094F84300012824D0012070BD0D
:101F700094F83E000128F9D184F83E201DE094F841
:101F80003F000128F2D184F83F2016E094F8400089
:101F90000128EBD184F840200FE094F8410001289B
:101FA000E4D184F8412008E094F842000128DDD112
:101FB00084F8422001E084F843200122206800F0E8
:101FC000B5FB1D4920681D4A1D4B1E4D88420BD094
:101FD000904209D0984207D01B4EB04204D01B4E0D
:101FE000B04201D0A84203D1466C46F40046466494
:101FF0002068884211D0B0F1804F0ED01449884239
:102000000BD01449884208D01349884205D0904229
:1020100003D0984201D0A84207D181680F4A1140ED
:10202000062906D0B1F5803F03D0016841F00101D7
:102030000160002070BD0000002C01400034014010
:102040000040014000500140004401400048014070
:102050000004004000080040000C004007000100A0
:102060007047704790F88010012918D0012180F83E
:1020700080102421C0F8841050F8641B0A680B6893
:1020800023F001030B6022F000510022026050F89F
:10209000643C1960202101620277104670470220DB
:1020A0007047704770B5044690F8800001281DD035
:1020B000012084F880002420C4F88400206805688A
:1020C000026822F0010202602068826822F06062E9
:1020D0000A438260204600F003FD2068056020204E
:1020E000C4F88400002084F8800070BD022070BD18
:1020F00070B5044690F8800001281DD0012084F8B6
:1021000080002420C4F8840020680568026822F05A
:10211000010202602068826822F060420A43826005
:10212000204600F0DDFC206805602020C4F8840013
:10213000002084F8800070BD022070BD704710B58B
:10214000040003D0D4F8840010B107E0012010BDD2
:10215000002084F88000204600F026F82420C4F8EF
:1021600084002068016821F001010160204600F030
:1021700085FF0128EBD0A06A10B1204600F0D2FC08
:102180002068416821F4904141602068816821F015
:102190002A0181602068016841F001010160204648
:1021A000BDE8104000F022BD10B59CB004461421DB
:1021B00015A8FEF70FFA54216846FEF70BFA1A49E4
:1021C000206888422ED101200024CDE90004684611
:1021D000FEF72AFE08B1FEF7EEFB1448016E41F44B
:1021E00080410166016E01F480411A91C16C41F099
:1021F0000401C164C06C15A900F004001A903020DD
:1022000015900220CDE916040720CDE918400848B2
:10221000FEF7D4FB002205212520FEF76DFD2520C9
:10222000FEF75CFD1CB010BD0038014000100240FC
:102230000008004830B4D0F88830202B20D1E1B11C
:10224000DAB190F88030012B1AD0012380F8803069
:102250000023C3660B4C0368A3420BD05B681B02D0
:1022600008D5046854E8003F43F0806344E8003533
:10227000002DF6D130BC01F04DB8012030BC7047C4
:102280000220FBE70080004010B5642303220F49C1
:102290000F4800F021F803220C490D48FFF7CAFF50
:1022A0000A48FEF7E8F881B208480022001F0180C2
:1022B000828082714FF47A7251436422B1FBF2F151
:1022C00089B241800348016010BD00001C0000205D
:1022D0002C010020342C01402DE9F8430446D0F8AD
:1022E00084001F4616460D46202851D1DDB1D6B1D7
:1022F00094F8800001284BD0012084F880004FF032
:102300000008C4F88C802120C4F884001834FEF73B
:1023100087FCA6878146E68754F8100C183CB0F578
:10232000805F03D004E00120BDE8F883206920B17C
:102330002E46002584F8808010E00026FAE78021F0
:10234000204601F073F8B8B9C6B116F8010B216840
:102350008862B4F85600401EA4F85600B4F856003F
:102360004B464FF0000200970028E8D14FF04001A3
:10237000204601F05BF830B10320D5E735F8020BB9
:10238000C0F30800E3E72020C4F884000020CBE776
:102390000220C9E7FEE7000030B597B0002414948E
:1023A00015941C2168461694FEF714F9342107A8E9
:1023B000FEF710F938483749394A0160374909684A
:1023C000B1FBF2F1491EC0E9011440F2E731C0E966
:1023D000031444618461FFF767FD08B172B6FEE73C
:1023E0001494159414A92C481694FFF76DFA08B1AB
:1023F00072B6FEE7602000904FF4FA75CDE9015403
:102400000394049405940022694623480694FFF738
:10241000B9FC08B172B6FEE7042269461E48019570
:10242000FFF7B0FC08B172B6FEE7FA20019008226F
:1024300069461948FFF7A6FC08B172B6FEE77D2091
:1024400001900C2269461448FFF79CFC08B172B653
:10245000FEE74FF48070CDE9084064200A904FF405
:1024600080500B9007944000CDE90C0400030E94BB
:10247000CDE90F40C012CDE9124007A911940648DA
:10248000FFF7B8F908B172B6FEE70348FFF7DEFBC5
:1024900017B030BD002C0140E00000203C000020BF
:1024A00040FF1005174810B5154901604FF4E131A0
:1024B0004160002181600C22C160C0E90412816189
:1024C000C161016241628162FFF739FE08B172B6F3
:1024D000FEE700210B48FFF70BFE08B172B6FEE7DE
:1024E00000210848FFF7DEFD08B172B6FEE7054897
:1024F000FFF7B8FD002801D072B6FEE710BD00005E
:10250000003801402C010020FEE7FEE710B5044A28
:102510000021044801F0CCF80349086010BD000018
:10252000FC4E0008A72500082C0000200A480021C6
:1025300001704180818041610849C16010310161B1
:10254000074801688A6842F001028A6000680168F1
:1025500041F020010160704700000020C000002011
:102560002C0100202DE9F0471E46DDF8208017469B
:102570005FEA01094FF0000408D0FDF789FF054626
:102580004846FDF7BBFF304486B200E00546A81977
:10259000444504DA015D3955641C64B2F8E7002053
:1025A0003855BDE8F0874FF0904420212046FEF7D3
:1025B00029FB642001F040F8F7E710B5FEF736FB81
:1025C00002F072FA012803D0BDE8104001F0A0BF6C
:1025D00010BD00B593B038216846FDF7FBFF14210C
:1025E0000EA8FDF7F7FF0020FEF7B8FB0220C1019F
:1025F0000391402104910421CDE908010090552167
:10260000CDE90A1007900C900D906846FEF7D4FEB5
:1026100008B172B6FEE70F200E9003200F90002045
:1026200010901190129004210EA8FEF77DFD002855
:1026300001D072B6FEE713B000BD00000248016889
:1026400041F470010160704788ED00E00148FFF738
:10265000FFB90000E00000202DE9F04F02682A4B8E
:102660002A4E2B4FDFF8ACC02B4C2C4D4FF0804B3B
:1026700098420BD0584509D0B04207D0B84205D097
:10268000604503D0A04201D0A84204D122F07008D6
:102690004A6842EA0802DFF88880DFF88890DFF8AD
:1026A00088A0984211D058450FD0B0420DD0B84202
:1026B0000BD0604509D0A04207D0404505D0484521
:1026C00003D0504501D0A84203D122F44076CA6815
:1026D00032434E6922F08002324302608A68C2624D
:1026E0000A688262984209D0A04207D0404505D0CE
:1026F000484503D0504501D0A84201D10969016382
:1027000001214161BDE8F08F002C01400004004030
:1027100000080040000C004000340140005001401F
:1027200000400140004401400048014010B501F064
:102730001F030121046A99408C430462016A9A4094
:102740001143016210BD10B501F01F030421046A9A
:1027500099408C430462016A9A401143016210BDA2
:102760002DE9F047026A22F001020262056A43681D
:1027700082691F4C25F0020522400C6822F00302FA
:1027800014438A681C4E2A431A4D1C4FDFF870C050
:10279000DFF87090DFF870A0A84209D0B04207D0EF
:1027A000B84205D0604503D0484501D0504506D118
:1027B00022F00808CA6842EA080222F00402A8428D
:1027C00009D0B04207D0B84205D0604503D0484593
:1027D00001D0504505D14D6923F440731D438B69E9
:1027E0002B4343608461496841630262BDE8F0871E
:1027F0008FFFFEFF002C01400034014000400140EB
:10280000004401400048014000500140F0B5026A18
:1028100022F010020262056A426883691C4C1E4E57
:1028200023400C6823F4407343EA042425F020037A
:102830008D681A4F43EA0513164DA84203D0B042E3
:1028400001D0B84207D1D1F80CC023F0800343EA8D
:102850000C1323F04003A8420CD0B0420AD0104D14
:10286000A84207D00F4DA84204D00F4DA84201D076
:10287000B84207D14D6922F4406242EA85028D696F
:1028800042EA850242608461496881630362F0BD67
:10289000FF8FFFFE002C014000340140005001403A
:1028A000004001400044014000480140F0B5026A88
:1028B00022F480720262056A4268C3691C4C1E4E93
:1028C00023400C6823F003031C4325F400738D6838
:1028D0001A4F43EA0523174DA84203D0B04201D056
:1028E000B84207D1D1F80CC023F4006343EA0C23AB
:1028F00023F48063A8420CD0B0420AD0104DA84205
:1029000007D0104DA84204D00F4DA84201D0B842C4
:1029100007D14D6922F4405242EA05128D6942EA1C
:1029200005124260C4614968C1630362F0BD0000E2
:102930008FFFFEFF002C0140003401400050014099
:10294000004001400044014000480140F0B5026AE7
:1029500022F480520262056A4268C3691C4C1E4E12
:1029600023400C6823F4407343EA042425F4005305
:102970008D681A4F43EA0533164DA84203D0B04282
:1029800001D0B84207D1D1F80CC023F4004343EA88
:102990000C3323F48043A8420CD0B0420AD0104D2F
:1029A000A84207D00F4DA84204D00F4DA84201D035
:1029B000B84207D14D6922F4404242EA85128D693E
:1029C00042EA85124260C461496801640362F0BD55
:1029D000FF8FFFFE002C01400034014000500140F9
:1029E00000400140004401400048014030B5026A07
:1029F00022F480320262046A4268036D124D2B4059
:102A00000D681D4324F400330C8943EA04430F4C42
:102A1000A0420ED00E4CA0420BD00E4CA04208D0CB
:102A20000D4CA04205D00D4CA04202D00C4CA0424F
:102A300004D14C6922F4803242EA042242600565E6
:102A400049688164036230BD8FFFFEFF002C0140A6
:102A50000034014000400140004401400048014072
:102A60000050014030B5026A22F480120262046A0A
:102A70004268036D134D24F400142B400D6843EAA3
:102A800005230D8944EA05540F4DA8420ED00F4D81
:102A9000A8420BD00E4DA84208D00E4DA84205D03A
:102AA0000D4DA84202D00D4DA84204D14D6922F42B
:102AB000802242EA8522426003654968C16404625B
:102AC00030BD0000FF8FFFFE002C014000340140AC
:102AD00000400140004401400048014000500140D6
:102AE00030B5416EB9B1026891689268C1F3426134
:102AF0000B4B520F9C5CE50003F10804A25CB5FB94
:102B0000F2F2A0F86A205A5C615CD200B2FBF1F1EB
:102B1000A0F8681030BD0121A0F86A10F8E70000A5
:102B2000384F000890F82810C90706D001684A6895
:102B3000C36A22F400321A434A6090F828108907C9
:102B400006D501684A68036B22F480321A434A6052
:102B500090F82810490706D501684A68436B22F4AB
:102B600080221A434A6090F82810090706D50168A8
:102B70004A68836B22F400421A434A6090F8281096
:102B8000C90606D501688A68C36B22F480521A43CD
:102B90008A6090F82810890606D501688A68036C57
:102BA00022F400521A438A6090F82810490611D581
:102BB00001684A68436C22F480121A434A60416CEF
:102BC000B1F5801F06D101684A68836C22F4C00207
:102BD0001A434A6090F82810090606D501684A6829
:102BE000C06C22F4002202434A607047F8B5002608
:102BF0000446C0F88C60FEF713F8054620680068AC
:102C00006FF07E47000708D52B4600224FF40011D5
:102C10002046009700F00AFC60B920680068400771
:102C20000AD52B4600224FF480012046009700F081
:102C3000FDFB08B10320F8BD2020C4F88400C4F8CF
:102C4000880044F86C6F00202675F8BD10B5B0F808
:102C50006020D0F888300168222B04D0886940F0C9
:102C60000800886110BD496A836D11401980816D2B
:102C7000891C8165B0F85E10491EA0F85E10B0F89E
:102C80005E100029EED1026852E8001F21F4907115
:102C900042E80013002BF6D10168083151E8002FFB
:102CA00022F0010241E80023002BF5D12021C0F8D9
:102CB000881000210167C26E012A02D0FFF7E4FAF2
:102CC00010BDC166026852E8001F21F0100142E801
:102CD0000013002BF6D10168CA69D243D20601D491
:102CE00010220A62B0F85C10FFF7DBF910BD00009B
:102CF0002DE9F0470446B0F860600068C569D0F877
:102D000000A0D0F80880D4F88810222905D0816965
:102D100041F008018161BDE8F087B4F868704FF0B8
:102D2000000963E02068406AA16D30400880A06D12
:102D3000801CA065B4F85E00401EA4F85E00206808
:102D4000C569690730D0E9070AD05FEACA5107D5DB
:102D500001210162D4F88C0040F00100C4F88C001D
:102D6000A8070BD55FEAC87008D021680220086266
:102D7000D4F88C0040F00400C4F88C0068070BD530
:102D80005FEAC87008D0216804200862D4F88C007B
:102D900040F00200C4F88C00D4F88C0020B120462A
:102DA000FFF7CCF9C4F88C90B4F85E00F0B9216854
:102DB00051E8000F20F4807041E80002002AF6D1AB
:102DC000264A2068083050E8001F114040E80013F0
:102DD000002BF6D12020C4F88800C4F87090E16E72
:102DE0004846012923D02046FFF74EFA0FB1A80626
:102DF00098D4B4F85E0000288DD0B4F868108142F1
:102E000089D92068083050E8001F21F0805140E83F
:102E10000012002AF5D112482067206850E8001FF0
:102E200041F0200140E80012002AF6D173E7E06685
:102E3000216851E8000F20F0100041E80002002A4C
:102E4000F6D12068C169C943C90601D410210162C5
:102E5000B4F85C102046FFF724F9C7E7FEFFFFEF48
:102E60004D2C000810B5B0F86020D0F8883001680B
:102E7000222B04D0886940F00800886110BD496A9F
:102E80001140826D1170816D491C8165B0F85E1032
:102E9000491EA0F85E10B0F85E100029EED102685D
:102EA00052E8001F21F4907142E80013002BF6D184
:102EB0000168083151E8002F22F0010241E80023A7
:102EC000002BF5D12021C0F8881000210167C26EC7
:102ED000012A02D0FFF7D8F910BDC166026852E896
:102EE000001F21F0100142E80013002BF6D1016809
:102EF000CA69D243D20601D410220A62B0F85C102B
:102F0000FFF7CFF810BD00002DE9F0470446B0F8F8
:102F100060600068C569D0F800A0D0F80880D4F8D7
:102F20008810222905D0816941F008018161BDE83E
:102F3000F087B4F868704FF0000963E02068406AD9
:102F4000A16D30400870A06D401CA065B4F85E0013
:102F5000401EA4F85E002068C569690730D0E90703
:102F60000AD05FEACA5107D501210162D4F88C006A
:102F700040F00100C4F88C00A8070BD55FEAC870C8
:102F800008D0216802200862D4F88C0040F00400C8
:102F9000C4F88C0068070BD55FEAC87008D02168B8
:102FA00004200862D4F88C0040F00200C4F88C00C1
:102FB000D4F88C0020B12046FFF7C0F8C4F88C90FC
:102FC000B4F85E00F0B9216851E8000F20F4807079
:102FD00041E80002002AF6D1264A2068083050E86D
:102FE000001F114040E80013002BF6D12020C4F848
:102FF0008800C4F87090E16E4846012923D020462D
:10300000FFF742F90FB1A80698D4B4F85E00002883
:103010008DD0B4F86810814289D92068083050E812
:10302000001F21F0805140E80012002AF5D112481B
:103030002067216851E8000F40F0200041E80002BD
:10304000002AF6D173E7E066216851E8000F20F00E
:10305000100041E80002002AF6D12068C169C94386
:10306000C90601D410210162B4F85C102046FFF7B4
:1030700018F8C7E7FEFFFFEF652E00082DE9F041C5
:103080000446016880682269E3691043626900258B
:103090001A431043DFF84CC20A68934B1A400243AC
:1030A0000A6020684168E26821F4405111434160A0
:1030B0002168A069614501D0226A10438A688B4B60
:1030C0001A4002438A602068C16A626A21F00F01D7
:1030D0001143C1628649236886488B420DD1D0F8DE
:1030E000880010F0030006D0012867D0022854D0D1
:1030F000032851D164E001204FE07F498B420BD17E
:10310000D0F8880010F00C0047D0042845D00828DB
:1031100052D00C2840D153E078498B420BD1D0F8E3
:10312000880010F0300038D0102847D0202843D035
:10313000302831D144E072498B420BD1D0F888005D
:1031400010F0C00029D0402838D0802834D0C028C2
:1031500022D135E06B498B420ED1D0F8880010F4B3
:1031600040701AD0B0F5807F28D0B0F5007F23D012
:10317000B0F5407F10D123E063450DD1D0F8880031
:1031800010F4406009D0B0F5806F17D0B0F5006F33
:1031900012D0B0F5406F13D010205B4A5B4F002671
:1031A0004FF40041634539D160B102280DD00428A5
:1031B0000DD0082831D10EE00220EEE70420ECE724
:1031C0000820EAE7FEF79EF803E0114603E0FEF769
:1031D000BDF801007BD0606A37F810206768B1FB4A
:1031E000F2F007EB4703834269D8B0EB073F66D89C
:1031F000002308461946FDF7C7F8090241EA1061A5
:1032000002027808101871413A460023FDF7BCF815
:103210003F4AA0F54071914257D950E0E3694FF61B
:10322000EF788B422BD1092849D2DFE800F005085E
:103230000D48254848480E00FEF764F801E0FEF707
:1032400073F8010001D142E01146606A37F81000BE
:10325000B1FBF0F04100606801EB5001B1FBF0F10F
:10326000A1F1100040452AD84FF6F07201EA0200A1
:10327000C1F34201084328E0FEF768F8E1E70928B6
:103280001DD2DFE800F005080D1C1E1C1C1C0E00E2
:10329000FEF738F801E0FEF747F8010001D116E02B
:1032A0001146606A37F81000B1FBF0F1606801EB7D
:1032B0005001B1FBF0F0A0F11001414504D9012506
:1032C00005E0FEF743F8E8E780B22168C860012016
:1032D000A4F86A0024F8680F2846A660E660BDE8F6
:1032E000F081000000800040F369FFCFFFF4FF1180
:1032F00000380140001002400044004000480040F7
:10330000004C0040005000400024F400204F000812
:10331000FFFC0F0070B58165A0F85C20A0F85E206E
:103320000021016783684FF48055FF24AB4204D12C
:103330000369FBB940F2FF1322E07F26C3B1B3F16A
:10334000805F1AD0A0F86010C0F88C102223C0F85B
:1033500088300368083353E8004F44F0010443E821
:103360000046002EF5D1436EB3F1005F0ED032E07F
:10337000036943B9A0F86040E6E703691BB13F2346
:10338000A0F86030E0E7A0F86060DDE7B0F86830F2
:10339000934220D88268AA4201D10269CAB11F4A69
:1033A000026780F88010016941B1026852E8001F8D
:1033B00041F4807142E80013002BF6D10168083116
:1033C00051E8002F42F0805241E80023002BF5D154
:1033D00021E0134AE4E78268AA4201D102697AB186
:1033E000104A026780F88010016959B1026852E8FA
:1033F000001F41F4907142E80013002BF6D10AE05F
:10340000094AEEE7026852E8001F41F0200142E855
:103410000013002BF6D1002070BD0000092F00081A
:10342000F12C0008652E00084D2C00082DE9F0470E
:103430009A4617460E4604464FF000094FF0200802
:10344000089D4AE0681C48D0FDF7EAFBA0EB0A00A3
:10345000A8422AD84DB32068016849073DD5C06904
:10346000C043000539D421684FF400600862206829
:1034700050E8001F21F4D07140E80012002AF6D174
:103480002068083050E8001F21F0010140E80012D8
:10349000002AF5D144F8848FC4F80480C4F8088069
:1034A00004F8049C0320BDE8F087216851E8000F70
:1034B00020F4D07041E80002002AF6D120680830DC
:1034C00050E8001F21F0010140E80012002AF5D168
:1034D00044F8848FC4F80480E2E72068C06936EAC3
:1034E000000004D00020B842ACD00020DBE701206F
:1034F000F9E70000014800F003B800002C010020AB
:1035000030B40168CB690A689C0609D5940607D5D2
:10351000C869486A0F49C0B2C96830BC00F05CBDD8
:103520001B060AD5120608D50B4A9368D468A34235
:1035300005D1086820F08000086030BC7047D16871
:10354000D368515C5B1C03F00703D3600068C26959
:103550008162F2E700000020D0000020FEE70907AA
:10356000090E002804DB00F1E02080F80014704709
:1035700000F00F0000F1E02080F8141D70470000FB
:103580002A4886B000240480012559210561C0E93C
:103590000241FDF753FBFFF71CF814216846FDF7C5
:1035A00019F82348C16C41F00101C164C16C01F0FC
:1035B00001010591C16C41F00401C164C06C4FF080
:1035C000904600F004000590002220213046FDF7CF
:1035D00021FB20200090CDE9015469463046039438
:1035E000FDF7ECF9FEF75EFFFEF7D6FEFEF79EFF55
:1035F000FEF78CFF00F02EF800210E48FEF7A6FC27
:1036000000210C48FEF7BCF904210A48FEF79EFC95
:1036100004210848FEF7B4F9044906480322091DAD
:103620004C30FEF707FE00F027F8FEE718000020F8
:1036300000100240E000002010B5EFF3058111B149
:103640006FF0050403E0002408B100F001FE2046FD
:1036500010BD0000EFF3058010B16FF0050070475A
:103660000448016811B14FF0FF307047012101603B
:10367000002070479000002010B5EFF3058010B1D6
:103680006FF0050010BD08480168012902D04FF015
:10369000FF3010BD054A002182F8141D022101608F
:1036A00000F03EFE002010BD900000200BE000E086
:1036B0002DE9FF414FEA01034FF00005EFF30581CB
:1036C000039549BB40B38027182100244AB31668EC
:1036D00006B1344696691EB13146761E382E02D2A6
:1036E0001679F60703D0002004B0BDE8F0815669D2
:1036F00006B1B708D2F808C0BCF1000F0DD0D568EC
:103700005C2D18D312693AB136B18DE806103A46ED
:10371000214601F09EF903900DE0D6685EB912696A
:103720004AB903AACDE90012BAB2214601F064F900
:10373000012800D003950398D6E700002DE9F04159
:10374000134C0F460546E6682068001D00F04DFC4E
:10375000681C07D137B12168BDE8F0410D48091D4B
:1037600000F092BC20683544B5424560216805D21E
:10377000A06BBDE8F041091D00F06EBC606B091D37
:1037800000F06AFCA06A854200D2A562BDE8F08123
:1037900040000020AC0600202DE9F041054600F075
:1037A0007FFC2D4CA068401CA06020682B4F10B1FE
:1037B000606930B32BE02560A068012827D100267E
:1037C00006EB860007EB800000F038FC761C382EF4
:1037D000F6D3234800F032FC2148143000F02EFCD0
:1037E0001F48283000F02AFC1D483C3000F026FC21
:1037F0001B48503000F022FC194860631430A0636D
:1038000005E02068E96AC06A884200D82560606ADD
:10381000401C60626864E86A2169884200D92061BE
:1038200000EB800007EB8000291D00F02DFC00F06C
:1038300057FC606900280CD02068E96AC06A884299
:1038400007D208494FF080500860BFF34F8FBFF395
:103850006F8FBDE8F081000040000020FC010020D7
:103860005C06002004ED00E038B500F019FC104CB7
:103870002068C8B90F4800F0E1FB0E48143000F092
:10388000DDFB0C48E060143020610A4B0020F03B67
:10389000009003F1500210210A2000F04FFE20603A
:1038A00010B105A100F09EFCBDE8384000F018BC46
:1038B0007C000020B0070020546D72510000000011
:1038C00030B4026C0B46002A0BD0C1681144C160B1
:1038D0008468A14201D30168C16030BC1846FCF77E
:1038E0002CBE30BC70472DE9F041856B174604466D
:1038F0000026026C82B1C7B1E068FCF71EFEE168E9
:10390000206C091AE1602268914202D2A168081A6B
:10391000E060022F16D017E02068A8B9A06801F077
:103920003BF906460020A0600EE06068FCF705FE4B
:10393000216C606808446060A168884204D32068F4
:10394000606001E005B16D1E6D1CA5633046BDE8E9
:10395000F08110B5044690F8590058B101280CD0F8
:1039600002280FD0502080F31188BFF34F8FBFF390
:103970006F8FFEE7206B00F0C7FB2046BDE81040CC
:1039800000F0C2BB10BD000010484FF44061420778
:1039900006D0C01D0D4920F00700411AC1F5406155
:1039A0000B4A00230144C2E900030839183A21F008
:1039B000070111604B600B600B1AC0E900139360A4
:1039C0004FF000405360506170470000900E00209F
:1039D000AC000020144E154CA6F29C474FF08058C6
:1039E000DFF84C9012E000BF00F05AFBF068C568A9
:1039F000281D00F0FAFAA068401EA0606068401E12
:103A0000606000F06DFB2846FFF7A3FF60680028A8
:103A1000EAD138680128F9D9C9F80080BFF34F8F7F
:103A2000BFF36F8FF2E700009806002040000020EF
:103A300004ED00E070B51D46049C51B1C4F80020AF
:103A4000C4E90F010121204600F0ACFD84F84C5080
:103A500070BD2460F4E700002DE9F05F8846DDE9E1
:103A60000B941546834691009A460A9EA522206B28
:103A7000FCF7A8FD6FF00301206B01EB8501084402
:103A800020F00707780707D0502080F31188BFF394
:103A90004F8FBFF36F8FFEE70025B8F1000F0FD0F7
:103AA0005FF00000221818F8001082F8341018F89F
:103AB000001011B1401C1028F4D384F8435001E0E9
:103AC00084F83450382E00D33726E662C4E91365F3
:103AD000201D00F0BEFA04F1180000F0BAFA2461CB
:103AE000C6F138006462A061656584F8585052469A
:103AF0005946384600F05AFA2060B9F1000F01D05B
:103B0000C9F80040BDE8F09F30B5114900E011460A
:103B10000A688242FBD34B685C18844203D1406838
:103B200018444860084643681C18944209D1084C60
:103B3000183C2468A24209D052681A4442600A68BC
:103B400012680260814200D0086030BD0460F9E76D
:103B5000AC00002070B5002441600B4D0061914223
:103B600006D8D11A8269914206D2011D286907E060
:103B70009A4203D2994201D3012403E0011DE8686F
:103B800000F06AFA204670BD7C00002010B50446A3
:103B900000F086FAA06B28B15FF0000400F0A0FAF4
:103BA000204610BD0124F9E730B589B03C4D6EE0E8
:103BB0000498002806DADDE90601059A9047049882
:103BC000002864DB069C606910B1201D00F00DFA2E
:103BD00003A800F0D7F8024604980A2857D2DFE875
:103BE00000F00505052D334A05052D3394F828000E
:103BF00040F0010084F828000599A069059B014464
:103C00002046FFF7A7FF68B3216A2046884794F84B
:103C1000280040073BD5002000900598A1690023AB
:103C200042181946204601F0C1F8D8B9502080F357
:103C30001188BFF34F8FBFF36F8FFEE714F8280F83
:103C400020F00100207022E094F8280040F00100EC
:103C500084F828000598A06128B1811813462046F1
:103C6000FFF778FF13E0502080F31188BFF34F8FE8
:103C7000BFF36F8FFEE794F82800810703D4204636
:103C800000F042FA03E020F0010084F8280000224E
:103C900004A9286800F0DAFD002889D109B030BDF8
:103CA0007C0000202DE9FC410F46054600F07CFB1E
:103CB00001A800F067F80446019818B100F0E4FF8D
:103CC000BDE8FC81254EAFB130690068D0B3002754
:103CD000291B3A46306800F099FA00F0D5FF002819
:103CE000EED11F494FF080500860BFF34F8FBFF3F4
:103CF0006F8FE5E7A542EBD800F0C6FFF0682746D6
:103D0000C068C468201D00F070F994F828004107CD
:103D100019D5A0692B4641193A462046FFF71AFFEC
:103D2000A8B100200346014600902A46204601F033
:103D30003DF860B9502080F31188BFF34F8FBFF377
:103D40006F8FFEE707E020F0010084F82800216A69
:103D500020468847B4E70127BAE700007C0000202E
:103D600004ED00E00648416B096829B1416BC96860
:103D7000C9684968816270474FF0FF31FAE7000077
:103D80004000002070B5054600F09CFE064E04463B
:103D9000B068844203D200F009F8012000E000205E
:103DA00028602046B46070BD7C000020F8B5194D35
:103DB00020E0C068C4680668201D00F016F9216A7A
:103DC0002046884794F82800400713D5A06930445E
:103DD000B04206D924616060211DE86800F03CF91A
:103DE00008E000200346014600903246204600F0DD
:103DF000DDFF38B1E86801680029DAD12969C5E931
:103E00000310F8BD502080F31188BFF34F8FBFF32C
:103E10006F8FFEE77C00002008484068401C4FF090
:103E2000500080F3118804D0BFF34F8FBFF36F8F22
:103E3000FEE7BFF34F8FBFF36F8FFEE7B4000020A4
:103E4000074CE068016841B1C0680021D0F800006B
:103E5000FFF728FFFFF7A8FEF3E701210020F7E7AF
:103E60007C0000202DE9F041044600F019F994F996
:103E7000455004F1240609E0606A48B1304600F07C
:103E8000CBFE08B100F012FA6D1E6DB2002DF3DC0E
:103E90004FF0FF3684F8456000F022F900F000F999
:103EA00094F9445004F1100709E0206948B13846FC
:103EB00000F0B2FE08B100F0F9F96D1E6DB2002DF0
:103EC000F3DC84F84460BDE8F04100F009B900007B
:103ED0002DE9F0410546002700F066FA324E3068C1
:103EE00008B9FFF751FD706905424ED1C5B30835D9
:103EF00068070ED005F00700C0F108000544680708
:103F000007D0502080F31188BFF34F8FBFF36F8F1E
:103F1000FEE72DB37068854237D823481830014634
:103F20000C6801E020460C466168A94202D2216873
:103F30000029F7D131688C4227D0076821680160D9
:103F400060680837411B10290FD96019420708D053
:103F5000502080F31188BFF34F8FBFF36F8FFEE7C0
:103F600013E041606560FFF7CFFD61687068401A3B
:103F70007060B268904200D2B06070690143002066
:103F8000C4E90001F068401CF06000F07DFE780795
:103F900007D0502080F31188BFF34F8FBFF36F8F8E
:103FA000FEE73846BDE8F0819400002010B5031FFD
:103FB0004FF080741C601B1F21F001011960191F54
:103FC000044B0B6014390A60091F6FF00202443879
:103FD0000A6010BD193E00088A688B68521C02F006
:103FE0000702C8548A60FCF793BCD0E9013201692A
:103FF0009A60D0E901235A604A68824201D18268FE
:104000004A60002202610868401E08600868704724
:10401000034B036003F15C00086080201060704770
:10402000D8070020044B036003F15C0008604FF4E4
:104030008070106070470000340A002000F1080111
:104040004FF0FF32C0E90112C1600161002101603F
:10405000704700210161704730B50B685A1C02D0CF
:1040600000F1080202E0026904E022465468256873
:104070009D42FAD953684B6099608A60516008612B
:104080000168491C016030BD42684A6093688B60DA
:1040900093685960916008610168491C016070472C
:1040A000502080F31188BFF34F8FBFF36F8F0A4901
:1040B0004868401C486001280CD10848006810F08E
:1040C000FF0F07D0502080F31188BFF34F8FBFF34D
:1040D0006F8FFEE770470000B400002004ED00E0A1
:1040E0000849486828B1401E486001D180F3118812
:1040F0007047502080F31188BFF34F8FBFF36F8F4D
:10410000FEE70000B400002070B500282AD0164D4C
:10411000A0F1080460686969084207D1502080F363
:104120001188BFF34F8FBFF36F8FFEE722683AB15C
:10413000502080F31188BFF34F8FBFF36F8FFEE7DE
:104140008843606000F030F960686968084468601E
:104150002046FFF7D9FC2869401C2861BDE8704063
:1041600000F092BD70BD0000940000204FF0E020F0
:1041700000210161816105494FF47A720968B1FB40
:10418000F2F1491E41610721016170473C000020A6
:1041900010B5FCF7D5F8114910280ED300F1E02036
:1041A00090F8F0030A78904207D2502080F31188EB
:1041B000BFF34F8FBFF36F8FFEE709480068896830
:1041C00000F4E060884207D9502080F31188BFF3E3
:1041D0004F8FBFF36F8FFEE710BD0000B4000020CB
:1041E0000CED00E010B5084B002200BF53F8324040
:1041F0001CB1521C082AF9D310BD43F8321003EB4E
:10420000C201486010BD0000BC01002070B5154619
:104210000E460446FFF744FF94F944100020491C61
:1042200001D184F8440094F94510491C01D184F867
:104230004500FFF755FFA06B28B92A46314604F127
:10424000240000F051F82046BDE87040FFF70ABE98
:1042500010B5020014D00F48006B38B1502080F325
:104260001188BFF34F8FBFF36F8FFEE700F09CF80C
:1042700000211046FFF762FA00F006FD002807D182
:1042800005494FF080500860BFF34F8FBFF36F8F29
:1042900010BD00004000002004ED00E002490A6A61
:1042A0000260C96841607047400000200149012058
:1042B000C86170474000002010B50C4650B1094954
:1042C00009681831FFF7C8FE2046BDE810400121FB
:1042D000FFF734BA502080F31188BFF34F8FBFF33C
:1042E0006F8FFEE74000002070B514460D4668B1A0
:1042F0000A4909681831FFF7C7FE0CB14FF0FF35C6
:1043000021462846BDE87040FFF718BA502080F3D8
:104310001188BFF34F8FBFF36F8FFEE7400000207F
:1043200030B587B00024039405AA04A903A8049417
:10433000FFF76EFEDDE903010094CDE901100023D3
:1043400015A11748059A00F084FB164D0028E86275
:104350001FD000F0FBFC012809D0401C19D15020CF
:1043600080F31188BFF34F8FBFF36F8FFEE75020AC
:1043700080F31188BFF34F8FBFF36F8F4FF0FF3083
:10438000A86201206861EC6007B0BDE8304000F031
:1043900045B807B030BD000049444C45000000005E
:1043A000D5390008400000200248016B491C016318
:1043B0007047000040000020164810B5016B11B195
:1043C0000121C16110BD0021C1610169124A01E0F2
:1043D000B9B1491E01EB810352F82330002BF7D00D
:1043E00001EB810302EB830202F1080453685B686E
:1043F0005360A34201D15B685360DA6802600161D7
:1044000010BD502080F31188BFF34F8FBFF36F8F23
:10441000FEE7000040000020FC0100201CB53748EA
:104420000168374A914207D1502080F31188BFF3C9
:104430004F8FBFF36F8FFEE700683149491E8842F6
:1044400007D1502080F31188BFF34F8FBFF36F8FD8
:10445000FEE72C4908780190FF20087008788DF855
:1044600000009DF800009DF8002000F0F000904250
:1044700007D0502080F31188BFF34F8FBFF36F8FA9
:10448000FEE79DF80000204C00F05000207007204F
:10449000A06005E09DF8002052008DF80020401E2D
:1044A0009DF800201206F5D4A060032807D0502004
:1044B00080F31188BFF34F8FBFF36F8FFEE74FF488
:1044C0004070A060019808700C482030016841F4E9
:1044D00070010160016841F070410160FFF746FE24
:1044E00000206060FBF7F4FE0848016841F040419D
:1044F0000160FBF7D9FE00201CBD000000ED00E0CC
:1045000071C20F4100E400E0B400002034EF00E08D
:1045100010B5502080F31188BFF34F8FBFF36F8F1A
:1045200000F0D6FA18B104494FF08050086000201E
:1045300080F3118810BD000004ED00E038B5049D43
:1045400018B153B1CAB181B120E0502080F3118875
:10455000BFF34F8FBFF36F8FFEE7502080F31188BA
:10456000BFF34F8FBFF36F8FFEE7502080F31188AA
:10457000BFF34F8FBFF36F8FFEE739B1502080F349
:104580001188BFF34F8FBFF36F8FFEE750241C4697
:10459000012384F846302B460094FFF74BFA20465F
:1045A00038BD000070B50D46040025D0FFF778FD3A
:1045B000D4E90F20216802FB0011A1600021A16352
:1045C000216861600A46D4E90F01401E00FB012109
:1045D000E16021464FF0FF3001F8440F487004F1CC
:1045E00010008DB1FFF72AFD04F12400FFF726FD2E
:1045F000FFF776FD012070BD502080F31188BFF3D6
:104600004F8FBFF36F8FFEE721690029F0D000F0D4
:1046100003FB0028ECD004494FF080500860BFF342
:104620004F8FBFF36F8FE3E704ED00E02DE9FF4705
:1046300082B01D468A464FF00008040003D0BAF14C
:10464000000F08D011E0502080F31188BFF34F8F86
:10465000BFF36F8FFEE7206C38B1502080F31188D4
:10466000BFF34F8FBFF36F8FFEE7022D0AD1E06BD0
:10467000012807D0502080F31188BFF34F8FBFF37C
:104680006F8FFEE700F010FA3F4F4FF000094FF038
:10469000805648B9049838B1502080F31188BFF390
:1046A0004F8FBFF36F8FFEE7FFF7FAFCA06BE16B54
:1046B000884207D3022D05D00498D0B1B8F1000F7D
:1046C0001AD01EE02A4651462046FFF70CF9616ACF
:1046D00019B104F1240000F09FFA20B13E60BFF34D
:1046E0004F8FBFF36F8FFFF7FBFC012006B0BDE8D3
:1046F000F087FFF7F5FC22E06846FFF7CFFD4FF0AB
:104700000108FFF7EDFCFFF74FFEFFF7C9FC94F936
:104710004400401C01D184F8449094F94500401CA9
:1047200001D184F84590FFF7DBFC04A9684600F04E
:1047300029F930B12046FFF795FB00F0A5FA0020DB
:10474000D4E7FFF7ADFCA06BE16B884213D1FFF714
:10475000C7FC04F110000499FFF7AEFD2046FFF7F7
:1047600081FB00F091FA00289ED13E60BFF34F8F8D
:10477000BFF36F8F98E7FFF7B3FC2046FFF772FB9C
:1047800000F082FA90E7000004ED00E02DE9F04728
:104790001F4690468946040003D0B9F1000F08D0A7
:1047A00011E0502080F31188BFF34F8FBFF36F8F5C
:1047B000FEE7206C38B1502080F31188BFF34F8F93
:1047C000BFF36F8FFEE7022F0AD1E06B012807D0FD
:1047D000502080F31188BFF34F8FBFF36F8FFEE738
:1047E000FFF7D6FC5020EFF3118680F31188BFF35A
:1047F0004F8FBFF36F8FA06BE16B884206D3022F00
:1048000004D0002086F31188BDE8F08794F9455064
:10481000A06B3A4649462046FFF765F8681C04D06D
:104820006D1C84F845500120ECE7606A0028FAD03E
:1048300004F1240000F0F0F90028F4D0B8F1000FE2
:10484000F1D00121C8F80010EDE700002DE9F7478D
:10485000002683B08A46040003D0BAF1000F08D0C6
:1048600011E0502080F31188BFF34F8FBFF36F8F9B
:10487000FEE7206C38B1502080F31188BFF34F8FD2
:10488000BFF36F8FFEE700F00FF9DFF8F4804FF011
:1048900000094FF0805748B9059838B1502080F38F
:1048A0001188BFF34F8FBFF36F8FFEE7FFF7F8FB61
:1048B000A56BC5B151462046FFF702F86D1EA563F2
:1048C000206950B104F1100000F0A6F928B1C8F831
:1048D0000070BFF34F8FBFF36F8FFFF701FC012014
:1048E00006B0BDE8F087059808B11EB106E0FFF7F5
:1048F000F7FB27E06846FFF7D1FC0126FFF7F0FB46
:10490000FFF752FDFFF7CCFB94F94400401C01D1A6
:1049100084F8449094F94500401C01D184F84590F6
:10492000FFF7DEFB05A9684600F02CF800282046BA
:104930000AD0FFF797FA00F0A7F92046FFF726F90B
:104940000028B3D00020CBE7FFF720F990B104F1A5
:1049500024000599FFF7B0FC2046FFF783FA00F02A
:1049600093F90028A2D1C8F80070BFF34F8FBFF3AE
:104970006F8F9BE72046FFF775FA00F085F995E702
:1049800004ED00E02DE9F0410C46050011D0C4B162
:10499000FFF786FB174BDA686E682068911B471C8F
:1049A00017D02F681B6A9F4219D0964217D801244E
:1049B00010E0502080F31188BFF34F8FBFF36F8F4B
:1049C000FEE7502080F31188BFF34F8FBFF36F8F46
:1049D000FEE70024FFF784FB2046BDE8F081884213
:1049E00005D9401A20602846FFF758FCF1E700205F
:1049F0002060DCE7400000202DE9FF5F8346DDE911
:104A00000E87994616468A469000FFF761FA050020
:104A10001CD05C20FFF75CFA040014D00020256352
:104A200084F85900CDE90240CDE900874B46324673
:104A300051465846FFF710F82046FEF7ADFE01201C
:104A400004B0BDE8F09F2846FFF75EFB4FF0FF3053
:104A5000F6E7F0B585B0DDE90B640A9DA6B1DCB1DF
:104A60005C2700972663022684F85960002604AF6D
:104A7000CDE90246CDE90057FEF7EEFF2046FEF7EE
:104A80008BFE049805B0F0BD502080F31188BFF371
:104A90004F8FBFF36F8FFEE7502080F31188BFF375
:104AA0004F8FBFF36F8FFEE70548416919B1006B67
:104AB00018B10020704701207047022070470000A5
:104AC000400000200148C0687047000040000020FE
:104AD0002DE9F0412E4C0027206B28B1A069401C25
:104AE000A0613846BDE8F081E668761CE66013D127
:104AF000606B006838B1502080F31188BFF34F8F8E
:104B0000BFF36F8FFEE7606BA16B6163A063206AE8
:104B1000401C2062FFF726F9A06ADFF87880864201
:104B200009D3606B0068A0B1606BC068C568686835
:104B3000864211D2A0622068C06A00EB800158F85A
:104B40002100012800D90127E0690028C9D00127E8
:104B5000C7E74FF0FF30EDE7281DFFF746FAA86AD8
:104B600018B105F11800FFF740FAE86A2169884298
:104B700000D9206100EB800108EB8100291DFFF7BF
:104B800083FAE86A2168C96A8842CAD30127C8E75C
:104B900040000020FC01002070B504004FF000012F
:104BA00033D01B4D2868844207D0502080F31188F1
:104BB000BFF34F8FBFF36F8FFEE7206D38B1401EFC
:104BC0002065E36CE26A9A421FD040B11DE050209C
:104BD00080F31188BFF34F8FBFF36F8FFEE7201D67
:104BE000FFF703FAE06CE062C0F13800A061E06A10
:104BF0002969884200D92861064900EB800001EB51
:104C00008000211DFFF740FA0121084670BD000019
:104C100040000020FC01002070B5C068C46854B199
:104C200004F118000646FFF7E0F9144D286B50B167
:104C30003146134815E0502080F31188BFF34F8FA1
:104C4000BFF36F8FFEE7201DFFF7CFF9E06A2969F8
:104C5000884200D928610B4900EB800001EB8000FD
:104C6000211DFFF711FAE06A2968C96A884202D952
:104C70000120E86170BD002070BD000040000020F0
:104C800084060020FC0100202DE9F0472C4D002473
:104C90002746286B38B1FFF703FA286B401E2863BC
:104CA000286B40B146E0502080F31188BFF34F8F4E
:104CB000BFF36F8FFEE7A968224E0120D1B3A6F59E
:104CC000916980463068E0B1F068C46804F118006A
:104CD000FFF78BF9201DFFF788F9E06A2969884200
:104CE00000D9286100EB800109EB8100211DFFF74D
:104CF000CBF9E06A2968C96A8842E3D3C5F81C8009
:104D0000E0E70CB1FFF72EF8AC694CB14FEA0806AA
:104D1000FFF7DEFE00B1EE61641EF9D10020A8614C
:104D2000E86938B10849012738070860BFF34F8F99
:104D3000BFF36F8FFFF7D4F93846BDE8F087000066
:104D4000400000208406002004ED00E010B586B08D
:104D5000FEF78AFD114C2068B8B100200390049042
:104D600005AA04A903A8FFF75DF9DDE903210220E4
:104D70008DE8070000230AA10B48059AFFF769FE9A
:104D8000606010B106B0012010BD502080F3118882
:104D9000BFF34F8FBFF36F8FFEE700007C00002052
:104DA000546D722053766300413E00082DE9FF41A7
:104DB0001E46134602000A9D4FF0000016D0144C08
:104DC0002768002F0FD0CDE900130292062917DAC9
:104DD000FFF76AFE02284FF000030FD00022694659
:104DE0002068FFF723FC04B0BDE8F081502080F379
:104DF0001188BFF34F8FBFF36F8FFEE72A46EEE7B0
:104E00000023324669463846FFF7C0FCEBE7000056
:104E10007C00002010B500290AD00878002807D0AF
:104E200005487844FBF72CFD002801D0002010BD78
:104E30000248784410BD00006A01000062010000D1
:104E40004FF04070E1EE100A70470000120022009F
:104E500034004600570069007A008C009C00AE00C8
:104E6000BF00D000E100F20003011401240135016C
:104E7000450156016701770187019701A701B60136
:104E8000C601D501E501F4010302120221022F023D
:104E90003D024C025A0268021102830290029D02F6
:104EA000AA02B702C302CF02DB02E702F302FE024C
:104EB000090314031F03290333033D03470350036E
:104EC0005A036B0373037B0383038A0392039903DF
:104ED0009F03A603AC03B203B703BC03C103C6031D
:104EE000CA03CE03D203D603D903DC03DE03E103F6
:104EF000E303E403E603E703E703E803604F000886
:104F000000000000000000000000000000000000A1
:104F10000002000008000000000000000000000087
:104F2000010002000400060008000A000C00100046
:104F30002000400080000001010101030701000082
:104F40000804020408010101000000000000000044
:104F5000010203040607080900000000010203041F
:104F60004D795461736B3031000000009C50000893
:104F700000000020C0000000140200085C5100087E
:104F8000C0000020302000003002000810010000A6
:104F900043000000F8FFFFFF004040404040404019
:104FA00040404141414141404040404040404040FC
:104FB00040404040404040404005020202020202A0
:104FC00002020202020202020220202020202020EF
:104FD0002020200202020202020290909090909003
:104FE00010101010101010101010101010101010C1
:104FF0001010101002020202020288888888888835
:105000000808080808080808080808080808080820
:105010000808080802020202400000000000000028
:105020000000000000000000000000000000000080
:105030000000000000000000000000000000000070
:105040000000000000000000000000000000000060
:105050000000000000000000000000000000000050
:105060000000000000000000000000000000000040
:105070000000000000000000000000000000000030
:105080000000000000000000000000000000000020
:105090000000000000000000000000000000000010
:1050A0000000000000000000000000000000000000
:1050B00000000000000000000000000000000000F0
:1050C00000000000000000000000000010000000D0
:1050D00001000000000000000024F40000000000B7
:1050E00000000000000000000000000000000000C0
:1050F00000000000000000000000000000000000B0
:10510000000000000000000000000000000000009F
:10511000000000000000000000000000000000008F
:10512000000000000000000000000000000000007F
:10513000000000000000000000000000000000006F
:10514000000000000000000000000000000000005F
:0C51500000000000AAAAAAAA00000000AB
:04000005080001D915
:00000001FF
