:020000040800F2
:10000000C8570020FD0200083119000895170008A4
:100010001D180008DF0600087D1F00080000000012
:100020000000000000000000000000003D02000889
:100030007907000800000000990200086D1A000806
:100040001703000817030008170300081703000828
:100050001703000817030008170300081703000818
:100060001703000817030008170300081703000808
:1000700017030008170300081703000817030008F8
:10008000170300081703000817030008000000000A
:10009000000000000000000000000000170300083E
:1000A00017030008170300081703000817030008C8
:1000B00017030008170300081703000817030008B8
:1000C00017030008170300081703000817030008A8
:1000D00017030008551D00086D1D000800000000F2
:1000E00017030008170300081703000800000000AA
:1000F00000000000000000000000000017030008DE
:100100000000000017030008170300081703000889
:1001100000000000000000000000000000000000DF
:100120001703000817030008170300081703000847
:10013000170300080000000000000000000000009D
:10014000000000000000000000000000170300088D
:10015000170300081703000817030008851D00088F
:10016000170300081703000800000000000000004B
:10017000000000000000000000000000000000007F
:10018000000000001703000800000000000000004D
:100190001703000800F002F800F041F80AA090E808
:1001A000000C82448344AAF10107DA4501D100F032
:1001B00036F8AFF2090EBAE80F0013F0010F18BFBE
:1001C000FB1A43F001031847A42A0000C42A0000C8
:1001D000103A24BF78C878C1FAD8520724BF30C873
:1001E00030C144BF04680C60704700000023002445
:1001F00000250026103A28BF78C1FBD8520728BF37
:1002000030C148BF0B607047732900F02A8200207C
:1002100070471FB502F0DCFC1FBD10B510BD00F02B
:1002200024FA1146FFF7F5FF01F0F2FE00F042FA62
:1002300003B4FFF7F2FF03BC00F04AFA2C4B196835
:100240000868B0E8F04F80F30988BFF36F8F4FF074
:10025000000080F311887047000000000848006823
:10026000006880F308884FF0000080F3148862B6BD
:1002700061B6BFF34F8FBFF36F8F00DF00BF00BFCA
:1002800008ED00E0DFF80C00016841F47001016046
:10029000704700BF88ED00E0EFF30980BFF36F8F78
:1002A000134B1A681EF0100F08BF20ED108A20E9CA
:1002B000F04F106009B44FF0500080F31188BFF385
:1002C0004F8FBFF36F8F02F097FA4FF0000080F36B
:1002D000118809BC19680868B0E8F04F1EF0100FCB
:1002E00008BFB0EC108A80F30988BFF36F8F7047A6
:1002F0002C000020EFF3058070470000094880477C
:1003000009480047FEE7FEE7FEE7FEE7FEE7FEE7F7
:10031000FEE7FEE7FEE7FEE704480549054A064B0F
:1003200070470000191B000895010008C851002003
:10033000C8570020C8530020C853002053EA020CBD
:1003400000F069802DE9F04B4FF00006002B1FBF35
:10035000B3FA83F503FA05F424FA05F65E4012BFFA
:100360001643B2FA82F502FA05F4C5F120051EBF64
:1003700022FA05FC44EA0C04203556EA044C4FEA04
:10038000144418BF641C4FF000084FF0000990425D
:1003900071EB030C39D3002919BFB1FA81F701FAC7
:1003A00007F6B0FA80F700FA07F6C7F120071EBF7C
:1003B00020FA07FC46EA0C062037B6FBF4FCA7EB54
:1003C0000507103F07F01F0BCBF120060CFA0BFBC3
:1003D0002CFA06F644BFB3460026202FA4BF5E4683
:1003E0004FF0000B5BEA060C08BF4FF0010B19EB56
:1003F0000B09ABFB027C48EB0608C01B06FB02CCDA
:100400000BFB03CC71EB0C01C1E70B4602464146E6
:100410004846BDE8F08B13B54FF000004FF00001E7
:10042000AFF30080BDE81C40704700000FB41CB55E
:10043000074B06AA7B4469460090059800F0E7F850
:100440000020694600F0F6F81CBC5DF814FB0000C3
:10045000FD0100002DE9F0410E4604460020206217
:100460002046E168884730B3252805D0D4E901212A
:100470009047206A401CF2E7E16820460027884741
:10048000050018D0A5F14100192802D820354FF4F5
:1004900000673246294620462760FFF7B5FE40B187
:1004A000012804D0F61D26F007060836D8E7361DC9
:1004B000D6E72846DAE7206ABDE8F08170B50C4639
:1004C0000546012A05D02878800600D5EA69002370
:1004D00002E0012305E05B1C934202D2E05C0028AD
:1004E000F9D1A869E618C01AA861286A18442862D8
:1004F0002846AFF3008004E0D5E9012114F8010B90
:100500009047B442F8D32846AFF3008070BD10B5D1
:10051000431C02E010F8011B71B18107FAD14FF0C2
:10052000013202C88C1A8C4314EAC211F9D0C01AE5
:100530000A0603D0C01E10BDC01A10BD0A0401D0A7
:10054000801E10BD0902FCD0401E10BD10B5203A1F
:10055000C0F00B80B1E81850203AA0E81850B1E87C
:100560001850A0E81850BFF4F5AF5FEA027C24BF32
:10057000B1E81850A0E8185044BF18C918C0BDE829
:1005800010405FEA827C24BF51F8043B40F8043BF2
:1005900008BF7047D20728BF31F8023B48BF11F8A7
:1005A000012B28BF20F8023B48BF00F8012B704701
:1005B0004FF0000200B5134694469646203922BFFC
:1005C000A0E80C50A0E80C50B1F12001BFF4F7AF47
:1005D000090728BFA0E80C5048BF0CC05DF804EB29
:1005E000890028BF40F8042B08BF704748BF20F897
:1005F000022B11F0804F18BF00F8012B7047704795
:100600007047704701694A1C02610878704700B55D
:100610008FB0CDE901310021059105497944CDE93B
:10062000031011466846FFF715FF0FB000BD00002C
:10063000E5FFFFFF0A6802F8010B0A60704710B57A
:10064000436913B1AFF3008001E0FFF737FF0120EA
:1006500010BD127800F124010A7000224A700122B4
:10066000EDE711684FF0FF32E9E7754600F02CF82E
:10067000AE4605006946534620F00700854618B08F
:1006800020B5FFF749FEBDE820404FF000064FF0CF
:1006900000074FF000084FF0000B21F00701AC46B7
:1006A000ACE8C009ACE8C009ACE8C009ACE8C009D6
:1006B0008D46704710B50446AFF300802046BDE874
:1006C0001040FFF7B5BD000000487047645100209E
:1006D00001491820ABBEFEE7260002007047FEE786
:1006E0002DE9F0479246884607460024FFF70FFFA2
:1006F00006460025504601F04FF80028FAD0DFF8F2
:100700007490504601F0B8FB395D884224D0D9F886
:100710000010D1F804248A5C08F80520D9F80000FC
:10072000D0F80414491CC1F30901C0F804146D1C6D
:10073000504601F031F80028FAD0E2E75046641C38
:1007400001F0B8FB08F805006D1CB4420ED050460D
:1007500001F022F80028FAD0504601F08DFB395DF7
:100760008842EBD0B44201D00024C3E70120BDE8A9
:10077000F08700000000002070470000F0B595B041
:100780000E46074601F000F9544955A001F0B8FBA8
:10079000564957A001F0B4FB00244FF47A75534931
:1007A00056A001F0ADFB284600F098F9641C052C1A
:1007B000F5DB4A4801F0F2FA484951A001F0A0FBEC
:1007C000464951A001F0DCFB0028F9D0474950A070
:1007D00001F096FB414801F0E1FA40494FA001F0D9
:1007E0008FFB3E4948A001F0CBFB0028F9D03F49E0
:1007F0004EA001F085FB394801F0D0FA3B494FA0EB
:1008000001F07EFB33463A4655A16846FFF70EFEDF
:100810003249684601F074FB30493BA001F0B0FB5F
:100820000028F9D03A4654A16846FFF7FFFD2F494A
:10083000684601F065FB294801F0B0FA274953A04A
:1008400001F05EFB254954A001F09AFB0028F9D085
:10085000224A554953A0FFF743FF0028F8D01F490B
:1008600029A001F08DFB0028F9D04F48FFF74FFE7B
:100870004D4A0021104400F8011C4CA16846FFF7C6
:10088000D5FD1A49684601F03BFB144801F086FA91
:1008900012494AA001F034FB10491BA001F070FB83
:1008A0000028F9D0114949A001F02AFB0B4801F0BA
:1008B00075FA0A4949A001F023FB084912A001F08A
:1008C0005FFB0028F9D0094949A001F019FB07494D
:1008D0004CA001F015FB15B0F0BD0000DC100020AD
:1008E00041542B5253540D0A0000000064110020A3
:1008F000524553455454494E472E00002E000000E7
:1009000041540D0A000000004F4B0D0A000000008A
:1009100041542D2D2D2D3E4F4B0A0A0041542B439F
:10092000574D4F44453D310D0A0000004357204DBF
:100930004F44452D2D2D2D3E310A0A00636F6E6EFA
:10094000656374696E672E2E2E20746F207468653F
:100950002070726F76696465642041500A0000005F
:1009600041542B43574A41503D222573222C2225C6
:1009700073220D0A00000000436F6E6E656374659C
:100980006420746F2C222573220A0A0041542B43E1
:10099000494653520D0A000043494653523A5354B4
:1009A0004149502C22000000B41000204950204141
:1009B0004444523A2025730A0A00000041542B4354
:1009C00049504D55583D310D0A0000004349504DE6
:1009D00055582D2D2D2D3E4F4B0A0A0041542B43C7
:1009E00049505345525645523D312C38300D0A007E
:1009F0004349505345525645522D2D2D2D3E4F4BB8
:100A00000A0A00004E6F7720436F6E6E6563742094
:100A1000746F2074686520495020414452455353F7
:100A20000A0A00002DE9F0410446876D00F060F9E4
:100A3000064694F835000025022806D0802060651F
:100A400084F834500120BDE8F0812068016821F06D
:100A5000160101602068416921F080014161206C2C
:100A600008B9A06C20B12068016821F0080101607C
:100A70002068016821F0010101600CE000F038F904
:100A8000801B052807D920206065032084F83500E5
:100A900084F83450D7E720680068C007EED194F896
:100AA0005C103F208840B860012084F8350084F84D
:100AB00034500020C7E790F83510022903D0802178
:100AC000416501207047052180F8351000680168F4
:100AD00021F00101016000207047000070B504465C
:100AE00000F006F90546601C02D004480078044472
:100AF00000F0FEF8401BA042FAD370BD1C0000209D
:100B00002DE9F84FDFF8B8A10022012403254FF0AA
:100B10000F090AF1040BAAF1040E00BF0B6804FAD6
:100B200002F63340B34273D10F7907F00307012F68
:100B300001D0022F16D187684FEA420805FA08FC57
:100B400027EA0C07D1F80CC00CFA08FC4CEA070C99
:100B5000C0F808C04768B7430E79C6F30016964040
:100B60003E4346600E79F643B6070DD0C76856007F
:100B700005FA06FC27EA0C07D1F808C00CFA06FCB7
:100B80004CEA070CC0F80CC00E7906F00306022EE2
:100B900010D1D60800EB8608D8F8206057074FEA36
:100BA000D76C09FA0CF7BE430F6907FA0CF7374305
:100BB000C8F8207006684FEA420C05FA0CF7BE43ED
:100BC0000F7907F0030707FA0CF7374307604E6801
:100BD00016F4403F6DD03B4E376847F4804737608E
:100BE000366822F0030706F480460096364E07EB7F
:100BF000060CDCF8086897073F0F09FA07F826EAA1
:100C00000806DFF8C880404503D14FF000081EE019
:100C10004FE0DFF8BC80404502D14FF0010816E0FC
:100C2000DFF8B080404502D14FF002080FE0DFF856
:100C3000A880404502D14FF0030808E0DFF89C800F
:100C4000404502D14FF0040801E04FF0070808FAD0
:100C500007F848EA0608CCF80888DAF80060574632
:100C6000D1F804C09E435FEACC2C00D51E433E6001
:100C7000DBF800605F46D1F804C09E435FEA8C2C2D
:100C800000D51E433E60DEF800607746D1F804C010
:100C90009E435FEA8C3C00D51E433E60084F083FF0
:100CA0003E68D1F804C09E435FEACC3C00D51E43A9
:100CB0003E60521C102AFFF431AFBDE8F88F0000EF
:100CC000083C01404438024000300140000002402E
:100CD0000004024000080240000C024000100240E4
:100CE000426921EA02030A4043EA024181617047F6
:100CF00001488068704700001C000020024881689D
:100D000002781144816070471C0000200B4810B528
:100D1000016841F400710160016841F48061016083
:100D2000016841F480710160032000F073F80F2026
:100D300000F006F800F024F8002010BD003C02404E
:100D400070B50D4D04464FF47A712878B1FBF0F080
:100D50000A490968B1FBF0F000F010FB48B9102C0B
:100D600007D200222146501E00F034F800206C60AB
:100D700070BD012070BD00001C0000202800002074
:100D80000C4882B0016841F480410160006800F4C1
:100D9000804000900748001F016841F080510160C9
:100DA0000068002200F0805000900F21901E02B0D9
:100DB00000F010B844380240002809DB00F01F02A0
:100DC000012191404009800000F1E020C0F80011AD
:100DD00070470000F0B40E4B1B680C46C3F30223AF
:100DE000C3F10705042D00D90425191D072901D2D7
:100DF000002300E0DB1E012606FA05F1491E214012
:100E000099409E40761E16403143F0BC01F0F0B888
:100E10000CED00E0064900F0070208684FF6FF03FA
:100E2000184040EA0220034A10430860704700005F
:100E30000CED00E00000FA052DE9F0470E46050034
:100E400065D0DFF81481D8F80000F7B200F0070091
:100E5000B04207D288F80070D8F8000000F0070010
:100E6000B04254D128683D4C810712D5400703D5C4
:100E7000206840F4E05020602878000703D52068FF
:100E800040F4604020602068A96820F0F00008432A
:100E900020602878C0072DD03049686808390128BB
:100EA00012D0022813D0032811D00968890700291D
:100EB0002DDA216821F0030101432160FFF718FFBB
:100EC000814641F2883A0EE009688903EFE7096834
:100ED0008901ECE7FFF70CFFA0EB0901514502D9AE
:100EE0000320BDE8F0872068696800F00C00B0EBD3
:100EF000810FEFD1D8F80010404601F00701B14250
:100F000007D90770006800F00700B04201D0012047
:100F1000E7E72878400705D52068E96820F4E05025
:100F2000084320602878000706D52068296920F446
:100F3000604040EAC100206000F038F82168084AAB
:100F4000C1F30311515CC8400649086006480068B7
:100F5000FFF7F6FE0020C4E7003C024008380240DC
:100F6000302C0008280000202000002004480549FB
:100F700000680968044AC1F38221515CC840704787
:100F80002800002008380240402C00080448054989
:100F900000680968044AC1F34231515CC840704797
:100FA0002800002008380240402C0008154810B5E1
:100FB000006810F00C02144813D01449042A0FD012
:100FC000082A0ED10F4C241F2268236802F03F022A
:100FD0005B0207D52068C0F38810A0FB010106E082
:100FE000084610BD2168C1F38811A1FB0001002350
:100FF000FFF7A4F92168C1F30141491C4900B0FB86
:10100000F1F010BD083802400024F40040787D0162
:101010002DE9F84F04006ED02078DFF84C93C0071C
:10102000A9F104054AD009F104000168C1F3810166
:10103000012908D00068C0F3810002280AD1D9F83C
:101040000000400206D52868800337D56068002874
:10105000E1D033E06068B0F5803F10D0B0F5A02F4C
:10106000286810D020F480302860286820F4802080
:1010700028606068A8B1FFF73BFE06460DE02868CF
:1010800040F48030F4E740F480202860F7E700BFA8
:10109000FFF72EFE801B642873D828688003F7D5DD
:1010A0000CE0FFF725FE064605E000BFFFF720FE37
:1010B000801B6428F0D828688003F7D42078DFF8F4
:1010C000AC8280074FF0000A3ED5A748001D01689A
:1010D00011F00C0F08D00068C0F3810002280BD17A
:1010E000D9F80000400207D42868800716D5E068C8
:1010F000012800D112E033E1E068B8B10120C8F85E
:101100000000FFF7F5FD064605E000BFFFF7F0FD24
:10111000801B0228C0D828688007F7D52868216975
:1011200020F0F80040EAC10028600DE0C8F800A0F7
:10113000FFF7DEFD064604E0FFF7DAFD801B02281C
:101140001FD828688007F7D42078000722D5864F5B
:1011500087486169703771B101210160FFF7C8FDEF
:10116000064604E0FFF7C4FD801B022809D8386852
:101170008007F7D50EE0C0F800A0FFF7B9FD0646DE
:1011800005E082E0FFF7B4FD801B02287DD83868B7
:101190008007F7D42078400768D5DFF8CCB1002766
:1011A0000BF13C0BDBF80000C0000BD4DBF80010A7
:1011B00041F08051CBF80010DBF80000012700F06F
:1011C000805000906B4E3068C00510D4306840F4F9
:1011D00080703060FFF78CFD009005E0FFF788FD20
:1011E0000099401A022850D83068C005F6D55E4EE6
:1011F000A0686C3601280FD00528306810D020F088
:1012000001003060306820F004003060A068B8B1A0
:10121000FFF76EFD00900FE0306840F00100F4E74A
:1012200040F004003060F7E7FFF762FD0099411AD3
:1012300041F28830814266D830688007F4D50EE0EC
:10124000FFF756FD009007E0FFF752FD0099411AA5
:1012500041F28830814256D830688007F4D42FB1EB
:10126000DBF8001021F08051CBF80010A069C8B362
:101270003D49091D0968C1F3810102294AD00228AC
:10128000504607D0C8F8600000E03CE0FFF730FDB2
:1012900004463BE04746C8F86000FFF729FD0646D4
:1012A00005E000BFFFF724FD801B02282BD828682B
:1012B0008001F7D4D4E907010843A16A2E4A4908FE
:1012C00002EB0141626A41EA8211084394F82C1052
:1012D00040EA0161C9F8001001203866FFF708FDF7
:1012E000044606E03EE000BFFFF702FD001B0228B7
:1012F00009D828688001F7D534E000BFFFF7F8FC73
:10130000001B022802D90320BDE8F88F286880015D
:10131000F4D427E00128F7D0D9F80000E26900F4FE
:10132000800191421CD1226A00F03F01914217D105
:1013300047F6C071626A0140B1EB821F10D1A26A08
:101340004FF0FF3300F4403103EB5202B1EB024F98
:1013500006D194F82C1000F07060B0EB016F01D052
:101360000120D1E70020CFE70438024000004742C7
:10137000800E4742007000400000FFFF10B5401E85
:10138000B0F1807F01D3012010BD4FF0E0246061F7
:101390000F21601700F02CFE0020A06107202061C3
:1013A000002010BD70477047F8B501680446086812
:1013B000CA684B6910F00F0F4FF0000559D003F0C9
:1013C000010602F49077374365D0C10705D0D105F7
:1013D00003D5216C41F001012164410705D5D907EE
:1013E00003D0216C41F002012164810705D5D907A2
:1013F00003D0216C41F004012164010707D502F0FC
:101400002001314303D0216C41F008012164216C9B
:1014100000293AD0800604D5900602D5204600F077
:10142000B2FB20684069216CC0F38010090700D42A
:1014300060B3204600F080FB20684069400621D55B
:101440002068143050E8001F21F0400140E80012ED
:10145000002AF5D1A06BA8B16C490165A06BFFF71C
:101460002AFB002811D0A06B016D01B0BDE8F0404F
:10147000084783060FD593060DD52046BDE8F840F2
:1014800000F081BB2046FFF78EFFF8BD2046FFF736
:101490008AFF2564F8BD266B2023012E79D1C6066C
:1014A00077D5D60675D50868486800904869400623
:1014B00040D5A16B086840680004000CEAD0A28DFA
:1014C0008242E7D9E085C869B0F5807F2DD02068D9
:1014D0000C3050E8001F21F4807140E80012002A0F
:1014E000F5D12068143050E8001F21F0010140E8D8
:1014F0000012002AF5D12068143050E8001F21F0B6
:10150000400140E80012002AF5D184F83E302563FE
:1015100020680C3050E8001F21F0100140E8001254
:10152000002AF5D1A06BFFF77DFAA08DE18D401A5E
:1015300081B229E0A08DE18D401A81B2E08D0028B2
:10154000A8D00029A6D020680C3050E8002F22F443
:10155000907240E80026002EF5D12068143050E843
:10156000002F22F0010240E80026002EF5D184F879
:101570003E30256320680C3050E8002F22F0100226
:1015800040E80023002BF5D12046FFF70BFFF8BD04
:10159000FFE705062BD5150629D594F83D0021282F
:1015A000F5D1A068B0F5805F01D12069B0B1206AA3
:1015B000411C2162216800784860E08C401E0004D4
:1015C000000CE084E3D12068C16821F08001C16093
:1015D0002068C16841F04001C160D8E7206A0088F6
:1015E000C0F308004860206A801C2062E5E74006DE
:1015F000CDD55006CBD5CA68204622F04002CA603D
:1016000084F83D3000F0C5F8C1E70000291B000850
:1016100070B5040004D094F83D00002510B106E038
:10162000012070BD84F83C50204600F023F82420AF
:1016300084F83D002068C16821F40051C160204653
:1016400000F002FB2068016921F4904101612068EB
:10165000416921F02A0141612068C16841F40051CB
:10166000C1602564202084F83D0084F83E000020FD
:1016700070BD0000F0B587B0044614216846FEF73F
:1016800097FF3E49DFF8F0C0276800223B4B143932
:101690000224032507263A4867451FD11F6847F0F3
:1016A00010071F601B6803F0100305930B6843F0DD
:1016B00001030B60096802AF01F0010105916902A5
:1016C000CDE9001487E864006946FFF719FA0022A3
:1016D00005212520FFF77EFB252024E0DFF8A4C0AC
:1016E000674524D1254B1B1F1F6847F400371F6037
:1016F0001B6803F4003305930B6843F001030B6090
:10170000096802AB01F0010105910C21CDE900143B
:1017100083E864006946FFF7F3F9002205212620DB
:10172000FFF758FB2620FFF747FB07B0F0BD164830
:101730008742FAD1186840F020001860186800F05D
:1017400020000590086840F00400086008680292D4
:1017500000F004000590C020CDE900040820CDE988
:10176000035069460948FFF7CBF9002205214720BD
:10177000FFF730FB4720D6E7001001404438024015
:1017800000000240004400400014014000080240F4
:1017900070477047FEE700000A4A0B49904201D1AA
:1017A000086803E0094A904208D18868D0F800141C
:1017B000D0F80404081AC0F3090070474FF0FF3056
:1017C00070470000DC1000200000002064110020A1
:1017D0000F4882B00021026842F0010202600268F4
:1017E00002F001020092026842F004020260006806
:1017F000202200F004000090064802600122C0E9A7
:101800000121C1600146044802B0FFF779B9000028
:1018100030380240C810002000000240FEE70000FF
:10182000F0B50E46074697B01C461546144915A05C
:1018300000F066FB124917A000F0A2FB0028F9D0C7
:101840001A491BA000F05CFB184920A000F058FBCF
:10185000CDE9005433463A4624A102A8FEF7E6FD3E
:10186000074902A800F04CFB05490EA000F088FBD8
:101870000028F9D00D4926A000F042FB17B0F0BDBA
:10188000DC10002041542B4349504D55583D310D3B
:101890000A00000041542B4349504D55583D310D2D
:1018A0000D0A0D0A4F4B0D0A0000000064110020C4
:1018B000736574206173206D756C7469636F6E6EEF
:1018C000656374206D6F64650A0A0000636F6E6E55
:1018D000656374696E672E2E2E20746F206D71748F
:1018E000742062726F6B65720A00000041542B43D2
:1018F000495053544152543D222573222C222573C2
:10190000222C222573222C222573220D0A0000008E
:1019100053544D333220436F6E6E6563742073658C
:101920007276657220636F6D706C6574650A0A006B
:10193000FEE7000010B596B01C2211496846FEF77C
:1019400005FE0021684600F0C9FB0E4C0C491C2224
:1019500020601C3107A8FEF7F9FD002107A800F060
:10196000BDFB074960601C2238310EA8FEF7EEFD72
:1019700000210EA800F0B2FBA06016B010BD000060
:10198000DC2B00081000002012481149016001F50D
:101990008161416001F58161816001F58161C16012
:1019A0000D4801684A6942F001024A610B490A6820
:1019B000536943F0010353610068C26842F020029A
:1019C000C2600868C16841F02001C1607047000032
:1019D0009400002000000020DC1000206411002092
:1019E000044C20212046FFF77BF9642000F06AFBBD
:1019F000F7E70000000002400B48FFF7CDFE28B1DA
:101A0000094800F057FA094900F086FA0748FFF73D
:101A1000C3FE28B1054800F04DFA034900F07CFAF6
:101A2000C82000F04FFBE7E764110020DC10002025
:101A300004A306A20AA10CA0FFF7F2FEC82000F042
:101A400041FBF5E7313838330000000074657374EA
:101A50002E6D6F7371756974746F2E6F72672C00C1
:101A60005443502C00000000342C000010B5FFF748
:101A700045F900F0D7FF012803D0BDE8104000F081
:101A800063BF10BD30B593B030216846FEF790FDBE
:101A900014210CA8FEF78CFD1D480024016841F0BC
:101AA00080510160006800F0805011901948016871
:101AB00021F4404141F4004101600068022500F436
:101AC000404011900120039010200490009506954D
:101AD0000820CDE907405420CDE9090504200B90EA
:101AE0006846FFF795FA08B172B6FEE70F20CDE918
:101AF0000C054FF48050CDE90E4002210CA8109443
:101B0000FFF79AF9002801D072B6FEE713B030BD96
:101B100040380240007000400248016841F4700102
:101B20000160704788ED00E010B5806B0021C18531
:101B3000C184FFF738FC10BD01680C3151E8002F5B
:101B400022F4907241E80023002BF5D10168143192
:101B500051E8002F22F0010241E80023002BF5D1CB
:101B6000016B012909D101680C3151E8002F22F0E5
:101B7000100241E80023002BF5D1202180F83E100F
:101B800000210163704708B590F83E10222901D06A
:101B9000022008BD82684FF480539A4201D1016946
:101BA00021B1816A9A421BD04AB10AE00268816A77
:101BB0005268C2F308020A80816A891C08E002693F
:101BC00072B10268526802F07F020A70816A491C91
:101BD0008162C18D491E0904090CC18503D019E039
:101BE00002685268F1E70168CA6822F02002CA6000
:101BF0000168CA6822F48072CA6001684A6922F0EA
:101C000001024A61202180F83E10016B012903D0B6
:101C1000FFF7BEFD002008BD0021016301680C3103
:101C200051E8002F22F0100241E80023002BF5D1EB
:101C300001680A68D20602D50A6849680091818D58
:101C4000FFF7B0FBE6E7000070B5044600680169E5
:101C5000E26821F44051114301612169A068E26901
:101C600008436169114308432168CA6849F20C635B
:101C70009A430243CA6020684169A26921F4407115
:101C80001143416131492068884202D0304988427D
:101C900002D1FFF77BF901E0FFF768F9E269002361
:101CA000192164253226B2F5004F626828D0A0FBC6
:101CB0000101930F9200FEF741FB0146B0FBF5F0E6
:101CC0006FF01802504301EB800006EB0010B0FBF0
:101CD000F5F000F0F002B1FBF5F002EB0012B1FB01
:101CE000F5F06FF01803584301EB800006EB00108D
:101CF000B0FBF5F000F00F0021681044886070BD63
:101D0000A0FB010192185B41FEF718FB0146B0FBF6
:101D1000F5F00201B1FBF5F06FF01803584301EB49
:101D2000800006EBC000B0FBF5F000F0F80002EB1D
:101D30004002B1FBF5F0584301EB800006EBC00018
:101D4000B0FBF5F000F00700D6E7000000100140FE
:101D50000014014010B5044800F044F8BDE81040FC
:101D60000148FFF721BB0000DC10002010B504483B
:101D700000F038F8BDE810400148FFF715BB00003F
:101D80002011002010B5044800F02CF8BDE81040E8
:101D90000148FFF709BB0000641100202DE9F04164
:101DA00005460D4800260D4C4FF48067854206D14C
:101DB00039462068FEF7FCFB2068C0F8006408483C
:101DC000854206D13946A068FEF7F2FBA068C0F84C
:101DD0000064BDE8F0810000DC100020000000205D
:101DE0006411002070B401680B68CA681D4C1E4D58
:101DF0009E0610D596060ED50A684968A042CAB25A
:101E00001A4901D1096802E0A84210D1896870BC62
:101E1000104600F0B7BB1B0609D5120607D5A04235
:101E200016D1134A17E0C86820F08000C86070BC63
:101E3000704700BFD2F80414D2F80434515C5B1C24
:101E4000C3F30903C2F80434006802684160EEE796
:101E5000A842ECD1074AD2F80034D2F80444A34295
:101E6000E8D1E0E7DC100020641100200000002031
:101E70009C040020AC0C00200B4B0C494FF0FF32AF
:101E8000984201D1086803E0094B98420AD188685A
:101E9000D0F80014D0F80434994203D0D0F80414D8
:101EA000405C704710467047DC10002000000020A6
:101EB000641100200F4B10494FF0FF32984201D1BE
:101EC000096803E00D4B984211D18968D1F80004EC
:101ED000D1F8043498420AD0D1F80404D1F804248B
:101EE000085C521CC2F30902C1F804247047104672
:101EF00070470000DC10002000000020641100206A
:101F000030B50D46044603E02946641C00F004F891
:101F100020780028F8D130BD10B5002818DB144B0C
:101F2000C2B21448994214D14068D0F80014491C38
:101F3000C1F30901D0F804448C42FBD0D0F800442E
:101F40000255C0F800141868C16841F08001C160F2
:101F500010BD094B9942FBD1C068D0F80014491C50
:101F6000C1F30901D0F804448C42FBD0E6E700003D
:101F7000DC1000200000002064110020FEE70000BB
:101F80002DE9F041884606460024FEF7C0FA174FB7
:101F900005464046FFF700FC0028FAD04046FFF710
:101FA0006BFF315D884213D03868D0F80414491CA7
:101FB000C1F30901C0F80414EBE74046641CFFF7C5
:101FC00079FFAC420ED04046FFF7E6FB0028FAD07E
:101FD0004046FFF751FF315D8842EED0AC4201D060
:101FE0000024D6E70120BDE8F081000000000020B9
:101FF0000907090E002804DB00F1E02080F8001436
:10200000704700F00F0000F1E02080F8141D7047C9
:10201000FEF77CFEFFF736FDFFF7DAFB1E481D4991
:102020004FF4E13600240160C0E901640C25C4606E
:10203000C0E904458461C461FFF7EAFA08B172B6E9
:10204000FEE71548154944300160C0E90164C460E9
:10205000C0E904458461C461FFF7DAFA08B172B6D9
:10206000FEE70D480E4988300160C0E90164C46094
:10207000C0E904458461C461FFF7CAFA08B172B6C9
:10208000FEE708A10AA0FEF779FBFFF753FC00F07A
:1020900020F8FEE700100140DC1000200044004062
:1020A0000014014061343633333231340000000013
:1020B00041737462656C000001460020842900D0E1
:1020C000C81C704710B500B9012000F031FB00209A
:1020D00010BD10B500F052FB002010BD7FB50D46BD
:1020E00004464169B0F9080081B1A16971B1FFF7F7
:1020F000E3FFD4E905128DE80700D4E900102B4670
:10210000226900F064FC039004B070BDFFF7D4FFB7
:1021100003A9CDE90001208A2B4682B2D4E9001040
:1021200000F028FC012801D00020EDE70398EBE740
:102130002DE9F041184C0F460546E6682068001D61
:1021400000F02FFA38B9206890F82C100120884050
:10215000216981432161681C07D137B12168BDE83D
:10216000F0410E48091D00F05FBA20683544B542C1
:102170004560216805D2A06BBDE8F041091D00F063
:102180003BBA606B091D00F037FAA06A854200D2A5
:10219000A562BDE8F08100002C0000205015002051
:1021A0002DE9F041054600F04BFA2E4CA068401C8A
:1021B000A06020682C4F10B1606940B32DE025600D
:1021C000A068012829D1002606EB860007EB8000D5
:1021D00000F004FA761C072EF6D323488C3000F06A
:1021E000FDF92148A03000F0F9F91F48B43000F0A3
:1021F000F5F91D48C83000F0F1F91B48DC3000F05B
:10220000EDF919488C3060631430A06305E0206854
:10221000E96AC06A884200D82560606A401C606232
:10222000E96A0120226988401043206101EB8100A6
:1022300007EB8000291D00F0F7F900F021FA606932
:1022400000280CD02068E96AC06A884207D2074992
:102250004FF080500860BFF34F8FBFF36F8FBDE822
:10226000F08100002C0000207414002004ED00E038
:1022700010B5044690F8510058B101280CD002283E
:102280000FD0502080F31188BFF34F8FBFF36F8FB3
:10229000FEE7206B00F008FA2046BDE8104000F091
:1022A00003BA10BD10484FF47051420706D0C01D4C
:1022B0000D4920F00700411AC1F570510B4A002367
:1022C0000144C2E900030839183A21F007011160FE
:1022D0004B600B600B1AC0E9001393604FF0004095
:1022E000536050617047000064150020800000209A
:1022F000144E154CA6F1C8074FF08058DFF84C90EB
:1023000012E000BF00F09CF9F068C568281D00F0DD
:1023100048F9A068401EA0606068401E606000F040
:10232000AFF92846FFF7A4FF60680028EAD13868B3
:102330000128F9D9C9F80080BFF34F8FBFF36F8F21
:10234000F2E700003C1500202C00002004ED00E026
:102350002DE9F0479A46DDE9098481466FF00303D1
:10236000206B03EB82021044089E20F007077807D9
:1023700007D0502080F31188BFF34F8FBFF36F8FCA
:10238000FEE7002561B1002023180A5C83F83420A1
:102390000A5C12B1401C1028F6D384F8435001E0C7
:1023A00084F83450072E00D30626E662C4E911658E
:1023B000201D00F01EF904F1180000F01AF9246144
:1023C000C6F107006462A061E56484F8505052468B
:1023D0004946384600F0C0F82060B8F1000F01D03F
:1023E000C8F80040BDE8F08730B5114900E011465B
:1023F0000A688242FBD34B685C18844203D1406870
:1024000018444860084643681C18944209D1084C97
:10241000183C2468A24209D052681A4442600A68F3
:1024200012680260814200D0086030BD0460F9E7A4
:10243000800000200648416B096829B1416BC968DA
:10244000C9684968816270474FF0FF31FAE70000C0
:102450002C00002008484068401C4FF0500080F3DA
:10246000118804D0BFF34F8FBFF36F8FFEE7BFF328
:102470004F8FBFF36F8FFEE7880000202DE9F041FA
:102480000546002700F0B0F9324E306808B9FFF772
:1024900009FF706905424ED1C5B3083568070ED0F3
:1024A00005F00700C0F108000544680707D0502078
:1024B00080F31188BFF34F8FBFF36F8FFEE72DB30B
:1024C0007068854237D82348183001460C6801E00F
:1024D00020460C466168A94202D221680029F7D142
:1024E00031688C4227D0076821680160606808372E
:1024F000411B10290FD96019420708D0502080F3E2
:102500001188BFF34F8FBFF36F8FFEE713E0416079
:102510006560FFF769FF61687068401A7060B268B3
:10252000904200D2B060706901430020C4E900010C
:10253000F068401CF06000F0E9FA780707D05020FE
:1025400080F31188BFF34F8FBFF36F8FFEE73846DC
:10255000BDE8F0816800002010B5031F4FF08074C3
:102560001C601B1F21F001011960191F044B0B6037
:1025700014390A60091F6FF0020244380A6010BD66
:1025800055240008D1F80024D1F80434521CC2F3B9
:102590000902934204D0D1F80034C854C1F8002491
:1025A0007047D0E9013201699A60D0E901235A608D
:1025B0004A68824201D182684A600022026108684A
:1025C000401E086008687047034B036003F1540025
:1025D00008608020106070472012002000F1080180
:1025E0004FF0FF32C0E90112C160016100210160BA
:1025F000704700210161704730B50B685A1C02D04A
:1026000000F1080202E0026904E0224654682568ED
:102610009D42FAD953684B6099608A6051600861A5
:102620000168491C016030BD42684A6093688B6054
:1026300093685960916008610168491C01607047A6
:10264000502080F31188BFF34F8FBFF36F8F0A497B
:102650004868401C486001280CD10848006810F008
:10266000FF0F07D0502080F31188BFF34F8FBFF3C7
:102670006F8FFEE7704700008800002004ED00E047
:102680000849486828B1401E486001D180F311888C
:102690007047502080F31188BFF34F8FBFF36F8FC7
:1026A000FEE700008800002070B500282AD0164DF3
:1026B000A0F1080460686969084207D1502080F3DE
:1026C0001188BFF34F8FBFF36F8FFEE722683AB1D7
:1026D000502080F31188BFF34F8FBFF36F8FFEE759
:1026E0008843606000F080F860686968084468604A
:1026F0002046FFF779FE2869401C2861BDE870403C
:1027000000F004BA70BD0000680000204FF0E02027
:1027100000210161816105494FF47A720968B1FBBA
:10272000F2F1491E41610721016170472800002034
:1027300010B5020014D00F48006B38B1502080F360
:102740001188BFF34F8FBFF36F8FFEE700F04CF897
:1027500000211046FFF7ECFC00F0D8F9002807D163
:1027600005494FF080500860BFF34F8FBFF36F8F64
:1027700010BD00002C00002004ED00E010B586B074
:102780000024039405AA04A903A80494FFF71CFFDE
:10279000DDE903010094CDE9011000230EA11048EA
:1027A000059A00F014F90F490028C86211D0502092
:1027B00080F31188BFF34F8FBFF36F8F4FF0FF305F
:1027C000886201204861CC6006B0BDE8104000F08E
:1027D00041B806B010BD000049444C45000000005F
:1027E000F12200082C0000200248016B491C016303
:1027F000704700002C0000201448016B11B101212A
:10280000C16170470021C1610169B1FA81F1C1F173
:102810001F0101EB81020E4951F822306BB101EB2F
:10282000820101F108034A6852684A609A4201D164
:1028300052684A60D16801607047502080F3118867
:10284000BFF34F8FBFF36F8FFEE700002C00002017
:10285000741400201CB537480168374A914207D1EB
:10286000502080F31188BFF34F8FBFF36F8FFEE7C7
:1028700000683149491E884207D1502080F31188F1
:10288000BFF34F8FBFF36F8FFEE72C49087801909D
:10289000FF20087008788DF800009DF800009DF872
:1028A000002000F0F000904207D0502080F3118803
:1028B000BFF34F8FBFF36F8FFEE79DF80000204CF2
:1028C00000F0500020700720A06005E09DF8002077
:1028D00052008DF80020401E9DF800201206F5D40D
:1028E000A060032807D0502080F31188BFF34F8FDA
:1028F000BFF36F8FFEE74FF44070A060019808703F
:102900000C482030016841F470010160016841F019
:1029100070410160FFF7FAFE00206060FDF7B2FC35
:102920000848016841F040410160FDF797FC002034
:102930001CBD000000ED00E071C20F4100E400E0AA
:102940008800002034EF00E010B5502080F311889B
:10295000BFF34F8FBFF36F8F00F072F818B10449C7
:102960004FF080500860002080F3118810BD0000F7
:1029700004ED00E02DE9FF5F8346DDE90E8799460F
:1029800016468A469000FFF779FD05001CD05420BA
:10299000FFF774FD040014D00020256384F8510073
:1029A000CDE90240CDE900874B46324651465846B4
:1029B000FFF7CEFC2046FFF7F3FB012004B0BDE893
:1029C000F09F2846FFF770FE4FF0FF30F6E7F0B5B6
:1029D00085B0DDE90B640A9DA6B1DCB154270097F0
:1029E0002663022684F85160002604AFCDE9024632
:1029F000CDE90057FFF7ACFC2046FFF7D1FB049868
:102A000005B0F0BD502080F31188BFF34F8FBFF3A6
:102A10006F8FFEE7502080F31188BFF34F8FBFF315
:102A20006F8FFEE70548416919B1006B18B10020AE
:102A30007047012070470220704700002C000020E2
:102A40002DE9F0412F4C0026206B28B1A069401CD5
:102A5000A0613046BDE8F081E5686D1CE56013D1EA
:102A6000606B006838B1502080F31188BFF34F8F3E
:102A7000BFF36F8FFEE7606BA16B6163A063206A99
:102A8000401C2062FFF7D6FCA06ADFF87C808542FC
:102A900009D3606B0068A0B1606BC068C7687868D4
:102AA000854211D2A0622068C06A00EB800158F80C
:102AB0002100012800D90126E0690028C9D001269B
:102AC000C7E74FF0FF30EDE7381DFFF76AFDB86A42
:102AD00018B107F11800FFF764FDF96A01202269B7
:102AE00088401043206101EB810108EB8100391D12
:102AF000FFF79AFDF86A2168C96A8842C9D301269E
:102B0000C7E700002C000020741400202DE9F047D6
:102B10002C4D00242746286B38B1FFF791FD286B18
:102B2000401E2863286B40B146E0502080F3118896
:102B3000BFF34F8FBFF36F8FFEE7A968224E0120CE
:102B4000D1B3A6F1B40980463068E8B1F068C46832
:102B500004F11800FFF725FD201DFFF722FDE06AB4
:102B60002A6908FA00F11143296100EB800109EBA1
:102B70008100211DFFF758FDE06A2968C96A884273
:102B8000E2D3C5F81C80DFE70CB1FFF753FCAC695A
:102B900044B14646FFF754FF00B1EE61641EF9D11F
:102BA0000020A861E86938B10849012738070860A2
:102BB000BFF34F8FBFF36F8FFFF762FD3846BDE85D
:102BC000F08700002C0000202815002004ED00E014
:102BD0004FF04070E1EE100A70470000482C0008EA
:102BE000E119000800000000000000008000000063
:102BF0000000000000000000542C0008F919000833
:102C0000FDFF000000000000800000000000000048
:102C100000000000602C0008311A0008FDFF0000D1
:102C20000000000080000000000000000000000024
:102C3000000000000000000001020304060708096C
:102C400000000000010203046D795461736B3031A0
:102C5000000000006D795461736B30320000000099
:102C60006D795461736B3033000000008C2C0008C8
:102C70000000002094000000D0010008202D000872
:102C80009400002034570000EC0100080000000010
:102C90000000000000000000000000000000000034
:102CA0000000000000000000010000001000000013
:102CB000000000000024F4000000000000000000FC
:102CC0000000000000000000000000000000000004
:102CD00000000000000000000000000000000000F4
:102CE00000000000000000000000000000000000E4
:102CF00000000000000000000000000000000000D4
:102D000000000000000000000000000000000000C3
:102D10000000000000000000AAAAAAAA000000000B
:040000050800019559
:00000001FF
