:020000040800F2
:10000000201800206D020008F12A0008C92A000803
:10001000ED2A000871070008DD320008000000002A
:10002000000000000000000000000000292C000873
:100030004909000800000000F52A0008912C00087A
:10004000870200088702000887020008870200086C
:10005000870200088702000887020008870200085C
:10006000870200088702000887020008870200084C
:10007000870200088702000887020008870200083C
:10008000870200088702000887020008870200082C
:10009000870200088702000887020008870200081C
:1000A000870200086D2D00088702000887020008FB
:1000B00087020008870200088702000887020008FC
:1000C00087020008870200088702000887020008EC
:1000D0008702000887020008B1300008CD30000810
:1000E00087020008870200088702000887020008CC
:1000F00087020008870200088702000887020008BC
:1001000087020008870200088702000887020008AB
:10011000870200088702000887020008870200089B
:10012000870200088702000887020008870200088B
:10013000870200080000000000000000870200089D
:10014000870200088702000887020008870200086B
:10015000870200088702000887020008870200085B
:10016000870200088702000887020008870200084B
:1001700087020008870200088702000800000000CC
:1001800000000000870200080000000000000000DE
:10019000870200080000000000000000870200083D
:1001A00000000000000000000000000087020008BE
:1001B00087020008870200088702000887020008FB
:1001C0008702000800F002F800F041F80AA090E869
:1001D000000C82448344AAF10107DA4501D100F002
:1001E00036F8AFF2090EBAE80F0013F0010F18BF8E
:1001F000FB1A43F001031847B4330000D433000066
:10020000103A24BF78C878C1FAD8520724BF30C842
:1002100030C144BF04680C60704700000023002414
:1002200000250026103A28BF78C1FBD8520728BF06
:1002300030C148BF0B607047642900F0F780002090
:1002400070471FB503F0F1F81FBD10B510BD00F0E9
:1002500054FA1146FFF7F5FF03F042F800F072FA86
:1002600003B4FFF7F2FF03BC00F07AFA09488047B5
:1002700009480047FEE7FEE7FEE7FEE7FEE7FEE788
:10028000FEE7FEE7FEE7FEE704480549054A064BA0
:1002900070470000592D0008C501000820120020F9
:1002A00020180020201400202014002053EA020C03
:1002B00000F069802DE9F04B4FF00006002B1FBFC6
:1002C000B3FA83F503FA05F424FA05F65E4012BF8B
:1002D0001643B2FA82F502FA05F4C5F120051EBFF5
:1002E00022FA05FC44EA0C04203556EA044C4FEA95
:1002F000144418BF641C4FF000084FF000099042EE
:1003000071EB030C39D3002919BFB1FA81F701FA57
:1003100007F6B0FA80F700FA07F6C7F120071EBF0C
:1003200020FA07FC46EA0C062037B6FBF4FCA7EBE4
:100330000507103F07F01F0BCBF120062CFA06F63D
:100340000CFA0BFB44BFB3460026202FA4BF5E4629
:100350004FF0000B5BEA060C08BF4FF0010B19EBE6
:100360000B0948EB0608ABFB027C06FB02CC0BFB3F
:1003700003CCC01B71EB0C01C1E70B4602464146A2
:100380004846BDE8F08B13B5084318BF4FF0FF3067
:100390000146AFF30080BDE81C4070470FB41CB5A8
:1003A000074B06AA7B4469460090059800F06BF95C
:1003B0000020694600F07AF91CBC5DF814FB0000CF
:1003C000050300002DE9F0410E460446002020629E
:1003D0002046E168884730B3252805D0D4E90121BB
:1003E0009047206A401CF2E7E168204600278847D2
:1003F000050018D0A5F14100192802D820354FF486
:1004000000673246294620462760FFF715FF40B1B6
:10041000012804D0F61D26F007060836D8E7361D59
:10042000D6E72846DAE7206ABDE8F0812DE9F041F9
:100430000646002410687529314616A510D0AFF382
:100440000080002802DA404213A507E031688A07DD
:1004500001D512A502E0490704D511A5012401E048
:10046000AFF3008000210A2206F1240709E0B0FB67
:10047000F2FCB0FBF2F302FB1C003030785418465B
:10048000491C0028F3D123462A463046BDE8F041F6
:1004900000F09BB8000000002D0000002B000000C1
:1004A000200000004FF0000200B513469446964627
:1004B000203922BFA0E80C50A0E80C50B1F1200177
:1004C000BFF4F7AF090728BFA0E80C5048BF0CC025
:1004D0005DF804EB890028BF40F8042B08BF704783
:1004E00048BF20F8022B11F0804F18BF00F8012BF5
:1004F000704710B5044610F0030F08BF11F0030F4A
:1005000040F015804FF0013E121FC0F20E8051F8EE
:10051000043BA3EB0E0C2CEA030C1CEACE1C08BF18
:1005200040F8043BF0D0A1F1040102F10402521E94
:1005300008DB11F8013B00F8013B002BF7D1114615
:1005400000F0B9F8204610BD30B44FF0013C50F82F
:10055000042B51F8043BCCFA52F4D51A20D1FCB943
:1005600050F8042B51F8043BCCFA52F4D51A17D1A9
:10057000B4B950F8042B51F8043BCCFA52F4D51A14
:100580000ED16CB950F8042B51F8043BCCFA52F45C
:10059000D51A05D1002CDAD030BC4FF000007047DE
:1005A00029BAB1FA81F111F01801D1F1200084408B
:1005B000F2D1CA40CB4012F0FF0213F0FF0330BC6F
:1005C000D01A70477047704770472DE9F0470D46C5
:1005D00099469246044600F124080168880604D52D
:1005E000E06921F01001216000E00120A84201DD56
:1005F000471B00E00027A1697A1902EB0900081ADD
:10060000A0612078C00602D42046AFF30080002607
:1006100008E0D4E901211AF806009047206A401C3E
:10062000761C20624E45F4DB2078C0060AD52046B1
:10063000AFF3008006E0D4E9012130209047206A22
:10064000401C2062381EA7F10107F4DC07E0D4E962
:10065000012118F805009047206A401C2062281EDE
:10066000A5F10105F3DC2046AFF3008020780006F9
:1006700002D50220BDE8F0870120FBE701694A1C92
:1006800002610878704700B58FB0CDE901310021D3
:10069000059105497944CDE9031011466846FFF7F5
:1006A00091FE0FB000BD0000E5FFFFFF0A6802F8F1
:1006B000010B0A6070474FF000020429C0F012805D
:1006C00010F0030C3FF4F0AECCF1040CBCF1020FBF
:1006D00018BF00F8012BA8BF20F8022BA1EB0C01DA
:1006E000FFF7E2BE5FEAC17C24BF00F8012B00F8EF
:1006F000012B48BF00F8012B7047754600F02CF81D
:10070000AE4605006946534620F00700854618B0FE
:1007100020B5FFF7B9FDBDE820404FF000064FF0CF
:1007200000074FF000084FF0000BAC46ACE8C009E2
:10073000ACE8C009ACE8C009ACE8C00921F0070189
:100740008D46704710B50446AFF300802046BDE8E3
:100750001040FFF785BD00000048704748000020AA
:1007600001491820ABBEFEE72600020070470000DA
:10077000FEE7000070B58EB040F2A806C2F2000697
:1007800043F25C4C3269C0F6000C40F294155423DD
:10079000C2F20005614611E0D2F8004413553269F7
:1007A000C2F800042868C36843F08003C36011F8EE
:1007B000043F0CF11C00814200F08080D2F800045C
:1007C00001306FF39F2000BFD2F80444A0420BD148
:1007D000D2F80444A04207D1D2F80444A04203D185
:1007E000D2F80444A042EFD0D2F800441355326945
:1007F000C2F800042868C36843F08003C3604B78E4
:10080000D2F8000401306FF39F2000BFD2F80444F7
:10081000A0420BD1D2F80444A04207D1D2F804443C
:10082000A04203D1D2F80444A042EFD0D2F8004451
:1008300013553269C2F800042868C36843F0800386
:10084000C3608B78D2F8000401306FF39F2000BFA3
:10085000D2F80444A0420BD1D2F80444A04207D1FC
:10086000D2F80444A04203D1D2F80444A042EFD00D
:10087000D2F8004413553269C2F800042868C368EE
:1008800043F08003C360CB78D2F8000401306FF3EB
:100890009F2000BFD2F80444A0427FF47DAFD2F87D
:1008A0000444A0427FF478AFD2F80444A0427FF41D
:1008B00073AFD2F80444A042ECD06DE74CF20410C0
:1008C000C0F6000000F090F9BDEEC00A10EE102A4C
:1008D0001AA10DF10600FFF761FD9DF8060048B36F
:1008E00032690DF106010DE0D2F80044105532696D
:1008F00011F8010FC2F800342B68DC6844F0800462
:10090000DC60B8B1D2F8003401336FF39F2300BF2D
:10091000D2F80444A342E7D1D2F80444A342E3D17D
:10092000D2F80444A342DFD1D2F80444A342EFD06A
:10093000DAE700BF012030700EB070BD64617461F1
:1009400020697320256400007047000070B540F2F4
:10095000A806C2F2000643F279403369C0F60000EF
:1009600040F294114522C2F2000100F1150C0EE094
:10097000D2F8005453553369C3F800440A68D56867
:1009800045F08005D56010F8032F60455AD0D3F8A4
:10099000004401346FF39F24D3F80454AC420BD1CC
:1009A000D3F80454AC4207D1D3F80454AC4203D179
:1009B000D3F80454AC42EFD0D3F800545A553269FE
:1009C000C2F800440B68DD6845F08005DD604378BF
:1009D000D2F800546C1C6FF39F2400BFD2F804546B
:1009E000AC420BD1D2F80454AC4207D1D2F8045433
:1009F000AC4203D1D2F80454AC42EFD0D2F8005448
:100A000053553269C2F800440B68DD6845F0800533
:100A1000DD608378D2F800546C1C6FF39F2400BF14
:100A2000D2F80454AC42A3D1D2F80454AC429FD1C2
:100A3000D2F80454AC429BD1D2F80454AC42EFD06B
:100A400096E700BF44F20000C0F6000000F5B821B0
:100A500000F090F80120307070BD0000F0B581B05A
:100A600040F2D817044643F60C46C2F200070020B5
:100A7000C4F20206F86100F021FF3168C9031DD4F9
:100A80003068C0071CBF01203060306810F4F97F67
:100A900030D03068C00635D4306880063BD430682A
:100AA000400641D43068000647D43068C0054DD4B4
:100AB0003068800754D4012001B0F0BDF4B1054680
:100AC000601C0DD13068C003DAD53068C00344BF64
:100AD00030685FEAC030D3D53068C003F2D4CFE7C6
:100AE00000F0ECFE401BA04208D83068C003F7D4E9
:100AF000C6E700BF002001B0F0BD00BF032001B079
:100B0000F0BD00BFF86940F01000F86110203060BF
:100B100030688006C3D5F86940F00800F8612020ED
:100B2000306030684006BDD5F86940F00400F861D7
:100B30004020306030680006B7D5F86940F0020008
:100B4000F861802030603068C005B1D5F86940F0A8
:100B50000100F8614FF48070306030688007AAD5DA
:100B6000F86940F02000F86102203060012001B0F7
:100B7000F0BD0000B0B582B00C46054600F0A4FD03
:100B8000284600F081FB40F2DC05C2F20005286037
:100B9000204600F079FB2B6800212A46C01A42F853
:100BA000041F01300224C5E90330019101A9104658
:100BB0006C6100F023FC00F0EDFC02B0B0BD000061
:100BC000024652F80C1B013108BF7047014651F82C
:100BD000043F013305D050F8081F013108BF024619
:100BE000114608467047000090ED000A40687047C3
:100BF000B0B540F20415C2F20005044685ED000AC6
:100C000000F062FD2A6802202146002300F0CCFC9F
:100C100020B1BDE8B04000F0B7BC00BFBDE8B040B7
:100C200000F0B8BCF0B581B040F2A807C2F20007EE
:100C300043F2E2463B69C0F6000640F294115322AB
:100C4000C2F2000106F1290C0DE000BFD2F8000449
:100C500013543B69C3F800440868C26842F080023C
:100C6000C26016F8042FD3F8004401346FF39F24B8
:100C7000D3F80454AC420BD1D3F80454AC4207D19E
:100C8000D3F80454AC4203D1D3F80454AC42EFD0AF
:100C9000D3F8005430465A553A69C2F800440B68FC
:100CA000DD6845F08005DD6010F8013F60455DD0EE
:100CB000D2F80004441C6FF39F2400BFD2F8040450
:100CC00084420BD1D2F80404844207D1D2F8040440
:100CD000844203D1D2F804048442EFD0D2F8000455
:100CE00013543A69C2F800440868C36843F08003AB
:100CF000C360B378D2F80004441C6FF39F2400BF94
:100D0000D2F8040484420BD1D2F80404844207D1FF
:100D1000D2F80404844203D1D2F804048442EFD010
:100D2000D2F8000413543A69C2F800440868C36852
:100D300043F08003C360F378D2F80004441C6FF3DF
:100D40009F2400BFD2F8040484427FF47FAFD2F81E
:100D5000040484427FF47AAFD2F8040484427FF41E
:100D600075AFD2F804048442ECD06FE740F2F4048B
:100D70004CF23010C2F20004C0F600002060FFF711
:100D80001FFF40F24401C2F2000191ED000A206011
:100D9000B8EEC00AFFF72CFF0120387001B0F0BD9B
:100DA000F0B581B040F2A807C2F2000743F28F46C7
:100DB0003B69C0F6000640F294115322C2F20001D2
:100DC00006F1290C0DE000BFD2F8000413543B6972
:100DD000C3F800440868C26842F08002C26016F896
:100DE000042FD3F8004401346FF39F24D3F8045444
:100DF000AC420BD1D3F80454AC4207D1D3F804541D
:100E0000AC4203D1D3F80454AC42EFD0D3F8005431
:100E100030465A553A69C2F800440B68DD6845F01F
:100E20008005DD6010F8013F60455DD0D2F8000418
:100E3000441C6FF39F2400BFD2F8040484420BD1FA
:100E4000D2F80404844207D1D2F80404844203D1C6
:100E5000D2F804048442EFD0D2F8000413543A6963
:100E6000C2F800440868C36843F08003C360B378E5
:100E7000D2F80004441C6FF39F2400BFD2F804048E
:100E800084420BD1D2F80404844207D1D2F804047E
:100E9000844203D1D2F804048442EFD0D2F8000493
:100EA00013543A69C2F800440868C36843F08003E9
:100EB000C360F378D2F80004441C6FF39F2400BF92
:100EC000D2F8040484427FF47FAFD2F80404844251
:100ED0007FF47AAFD2F8040484427FF475AFD2F87D
:100EE00004048442ECD06FE740F2F8044CF2201086
:100EF000C2F20004C0F600002060FFF761FE40F27D
:100F00004401C2F2000191ED000A2060B8EEC00A6F
:100F1000FFF76EFE0120387001B0F0BD70B540F2F1
:100F2000A806C2F2000643F20C5C3369C0F6000C5E
:100F300040F294115320C2F20001624612E000BF59
:100F4000D0F8005443553369C3F800440868C568B5
:100F500045F08005C56012F8050F0CF12805AA427E
:100F600000F0A280D3F8004401346FF39F2400BF47
:100F7000D3F80454AC420BD1D3F80454AC4207D19B
:100F8000D3F80454AC4203D1D3F80454AC42EFD0AC
:100F9000D3F8005458553069C0F800440B68DD6838
:100FA00045F08005DD605378D0F800546C1C6FF379
:100FB0009F2400BFD0F80454AC420BD1D0F80454A5
:100FC000AC4207D1D0F80454AC4203D1D0F8045459
:100FD000AC42EFD0D0F8005443553069C0F800441B
:100FE0000B68DD6845F08005DD609378D0F800542B
:100FF0006C1C6FF39F2400BFD0F80454AC420BD19B
:10100000D0F80454AC4207D1D0F80454AC4203D118
:10101000D0F80454AC42EFD0D0F8005443553069B6
:10102000C0F800440B68DD6845F08005DD60D378CA
:10103000D0F800546C1C6FF39F2400BFD0F8045408
:10104000AC420BD1D0F80454AC4207D1D0F80454D0
:10105000AC4203D1D0F80454AC42EFD0D0F80054E5
:1010600043553069C0F800440B68DD6845F08005E1
:10107000DD601379D0F800546C1C6FF39F2400BF1F
:10108000D0F80454AC427FF45BAFD0F80454AC42C7
:101090007FF456AFD0F80454AC427FF451AFD0F88F
:1010A0000454AC42ECD04BE740F2FC044CF210107C
:1010B000C2F20004C0F600002060FFF781FD9FED42
:1010C000040A2060FFF794FD0120307070BD00BF5E
:1010D0000090094570B540F2A806C2F2000643F23E
:1010E000B94C3369C0F6000C40F294115320C2F29F
:1010F0000001624612E000BFD0F800544355336946
:10110000C3F800440868C56845F08005C56012F85A
:10111000050F0CF12805AA4200F0A280D3F8004484
:1011200001346FF39F2400BFD3F80454AC420BD1B9
:10113000D3F80454AC4207D1D3F80454AC4203D1E1
:10114000D3F80454AC42EFD0D3F80054585530696A
:10115000C0F800440B68DD6845F08005DD60537819
:10116000D0F800546C1C6FF39F2400BFD0F80454D7
:10117000AC420BD1D0F80454AC4207D1D0F804549F
:10118000AC4203D1D0F80454AC42EFD0D0F80054B4
:1011900043553069C0F800440B68DD6845F08005B0
:1011A000DD609378D0F800546C1C6FF39F2400BF6F
:1011B000D0F80454AC420BD1D0F80454AC4207D15F
:1011C000D0F80454AC4203D1D0F80454AC42EFD070
:1011D000D0F8005443553069C0F800440B68DD680E
:1011E00045F08005DD60D378D0F800546C1C6FF3B7
:1011F0009F2400BFD0F80454AC420BD1D0F8045463
:10120000AC4207D1D0F80454AC4203D1D0F8045416
:10121000AC42EFD0D0F8005443553069C0F80044D8
:101220000B68DD6845F08005DD601379D0F8005467
:101230006C1C6FF39F2400BFD0F80454AC427FF4C1
:101240005BAFD0F80454AC427FF456AFD0F80454EE
:10125000AC427FF451AFD0F80454AC42ECD04BE731
:1012600040F200144CF20010C2F20004C0F600007C
:101270002060FFF7A5FCB3EE070A2060FFF7B8FC7B
:101280000120307070BD000000F1784143F6FF721C
:1012900091423CBF0020704700F1764000F1FD71A3
:1012A00001F5B82090423CBF0120704701F5B02203
:1012B00043F6FF7082423CBF0220704701F5A8222E
:1012C00082423CBF0320704701F5A0204FF6FF7219
:1012D00090423CBF042070474FF6FF72C0F20102FB
:1012E00001F5802090423CBF0520704701F5003099
:1012F00090423CBF062070470020914238BF072033
:1013000070470000B0B5ADF5806D40F2A805C2F29F
:1013100000052878012813D0E96868464FF48062F8
:10132000FFF7E7F801F0E8FBEC684FF48061204636
:10133000FFF7B8F80020C4F80004C4F804042870CB
:101340000DF5806DB0BD000070B5866D044600F0EF
:10135000B5FA94F83510022928D105462068216C89
:10136000026822F016020260426922F080024261A5
:1013700009B9A16C19B1016821F008010160016887
:1013800021F00101016000BF20680068C00715D08E
:1013900000F094FA401B0628F6D320206065032055
:1013A00084F83500002184F8341070BD8020606519
:1013B0000120002184F8341070BD00BFE06D3F2192
:1013C00001FA00F0B060012084F83500002000210F
:1013D00084F8341070BD000090F83510022909D14E
:1013E000052180F835100068016821F001010160D5
:1013F0000020704780214165012070472DE9F043AE
:1014000081B040F2D818C2F2000898F81820012ADA
:1014100004D1022001B0BDE8F08300BF05460120E1
:1014200088F818004CF250308946FFF717FB28B1B6
:10143000002188F8181001B0BDE8F0834FF0FF30AC
:10144000C9F80000286843F610470128C4F20207D3
:101450001CD128693968000221F44071396039686B
:1014600080B241F0040139603968084340F48030AB
:1014700038604CF25030FFF7F1FA396821F004017E
:10148000396057F8101C89053BD452E0D5E9026059
:101490003044864230D2F000841C00BF28694FF4EB
:1014A0004072C1B2032939684FEA002021F440712B
:1014B0003960396838BF82B241EA02003860386862
:1014C00020F0F8003860386820433860386840F40D
:1014D000803038604CF25030FFF7C0FA396800288D
:1014E00021F0FA01396047D1D5E9020101360844FB
:1014F000864204F10804D1D3002057F8101C890556
:1015000017D557F8101C21F4007147F8101C57F834
:10151000101C41F4006147F8101C57F8101C21F40E
:10152000006147F8101C57F8101C41F4007147F88F
:10153000101C57F8101C49057FF57AAF57F8101C9E
:1015400021F4806147F8101C57F8101C41F48051B9
:1015500047F8101C57F8101C21F4805147F8101C54
:1015600057F8101C41F4806147F8101C002188F8DE
:10157000181001B0BDE8F083C9F8006057F8101CDE
:101580008905BED4D5E7000040F2D810C2F20000B1
:10159000C069704743F61041C4F20201086840F088
:1015A000004200200A6070472DE9F04381B040F20C
:1015B000D814C2F200049046227E012A04D10220EF
:1015C00001B0BDE8F08300BF0746012020764CF251
:1015D00050301E460D46FFF741FA28B10021217612
:1015E00001B0BDE8F08300BF43F61049022FC4F2FA
:1015F000020917D0012F2BD0002F3FD1D9F80000BE
:1016000020F44070C9F80000D9F80000C9F80000C3
:10161000D9F8000040F00100C9F8000085F800800A
:1016200043E000BFD9F8000020F44070C9F8000082
:10163000D9F8000040F40070C9F80000D9F80000A3
:1016400040F00100C9F80000C5F800802DE000BF9F
:10165000D9F8000020F44070C9F80000D9F8000063
:1016600040F48070C9F80000D9F8000040F0010093
:10167000C9F80000A5F8008017E000BFD9F8000005
:1016800020F44070C9F80000D9F8000040F4407020
:10169000C9F80000D9F8000040F00100C9F80000C6
:1016A000C5F80080BFF36F8F6E604CF25030FFF7CB
:1016B000D5F9D9F8001021F00101C9F80010002176
:1016C000217601B0BDE8F08343F60440C4F2020085
:1016D000C168B1F1FF3FC4BF0020704740F2231141
:1016E000C4F26751016048F6AB11CCF6EF510160CE
:1016F000C068C00F704700002DE9F04F82B000F1C4
:101700003E4241F6000502F1FF77C4F202050722CE
:1017100043F6004E4FEAB726A84208BF0622C4F29D
:10172000010E062E38BF4FEAB722012500260027FA
:101730004FF00008009208E008F101080437B8F102
:10174000100F06F1020600F0A7800C6805FA08F9F0
:1017500014EA090FF0D0D1F804B003220BF0030C07
:10176000ACF10104B240012C6FEA020A10D8826881
:10177000CC6802EA0A02B440224382604268CBF39A
:10178000001422EA090204FA08F42243426005E048
:10179000BCF1030F02D14FF0030C20E0C2688C684B
:1017A00002EA0A02B4402243BCF1020FC26016D121
:1017B0006FF0030202EA58020244D2F820C007F098
:1017C0001C050F230C69AB402CEA030304FA05F552
:1017D0002B431362D1F804B001250BF0030C02680F
:1017E0000CFA06F302EA0A021A431BF4403F0260B5
:1017F000A2D0002243F644030192C4F202031A6805
:101800004FF6084C42F480421A601A68CFF6FF7C0B
:1018100002F480420192019A28F00302724452F8C5
:101820000C3007F00C050F24AC40A343009C04FAD5
:1018300005F52B4342F80C30DEF808204B6842EAED
:10184000090543F60C4CDC0258BF22EA0905CEF824
:101850000850C4F2010CDCF800209C0242EA0905A1
:1018600058BF22EA0905CCF80050DEF804209C039A
:1018700042EA090558BF22EA0905CEF80450DEF80D
:101880000020DB0342EA090558BF22EA0905CEF829
:101890000050012550E700BF02B0BDE8F08F000006
:1018A000426902EA0103914341EA034181617047C1
:1018B000002A08BF090481617047000041F2182026
:1018C000C2F200000068704740F2000041F21821A7
:1018D000C2F20000C2F2000100780A6810440860F9
:1018E0007047000080B543F60040C4F20200016872
:1018F00041F400710160016841F480610160016898
:1019000041F480710160032000F08AF8002000F0AB
:1019100005F800F027F8002080BD000070B540F207
:101920000006C2F2000640F208013278C2F200015D
:101930004FF47A730968B3FBF2F20446B1FBF2F19B
:10194000084600F0BBFB0F2C4FF0010508D838B952
:101950004FF0FF3021460022002500F035F874607A
:10196000284670BD82B0002043F640010190C4F2C9
:1019700002014A6842F480424A604A6802F48042A6
:101980000192019A0090086840F080500860086851
:1019900000F0805000900098072002B000F040B89E
:1019A000002848BF7047C1B200F01F00012202FAB0
:1019B00000F04EF20012CEF2000242EAD10121F014
:1019C000030108607047000010B54EF60C5CCEF2C3
:1019D000000CDCF80030C3F3022E8EF00704042C58
:1019E00028BF0424BEF103034FF0FF3E0EFA04F4B7
:1019F00038BF0023A14399400EFA03F39A431143E1
:101A000000F00F0200F160430901043A03F564435A
:101A10006244002848BF02F10C03197010BD000099
:101A20004EF60C51CEF200010A684FF6FF031A4041
:101A300060F30A2242F0806040F0FD700860704759
:101A400070B582B00020019043F64000C4F202005D
:101A50000168402641F0805101600068C4F20E2602
:101A600000F080500190019847F204050120C4F273
:101A700000053060FFF722FF044600BF2868C0035E
:101A800006D4FFF71BFF001BB0F57A7FF6D90EE0F6
:101A900001207060FFF712FF044600BF2868800332
:101AA00008D4FFF70BFF001BB0F57A7FF6D90320AF
:101AB00002B070BD002002B070BD00002DE9F04101
:101AC000002800F08B8043F60808C4F202080446A0
:101AD000D8F8F8030D4600F00F00884207D288F8C6
:101AE000F853D8F8F80300F00F00A84276D1206828
:101AF000810717D5410705D5D8F8001041F4E0510A
:101B0000C8F80010010705D5D8F8001041F460416D
:101B1000C8F80010D8F80010A26821F0F0011143B5
:101B2000C8F80010C0073FD1D8F8F80300F00F0044
:101B3000A84207D988F8F853D8F8F80300F00F0046
:101B4000A8424BD12068410707D5D8F80010E268B9
:101B500021F4E0511143C8F80010000708D5D8F867
:101B60000000216920F4604040EAC100C8F800008C
:101B700000F07CF8D8F8001043F24442C1F303119E
:101B8000C0F60002515C40F2080220FA01F140F276
:101B90000400C2F200000068C2F200021160FFF708
:101BA000BDFE0020BDE8F0816068811E022907D2D9
:101BB00058F8081C89015CBF0120BDE8F08111E0E4
:101BC000012807D158F8081C89035CBF0120BDE833
:101BD000F08107E058F8081C890703D40120BDE80C
:101BE000F08100BFD8F8001021F003010843C8F8C5
:101BF0000000FFF763FE064641F28837D8F8000080
:101C0000616800F00C00B0EB810F8DD0FFF756FE3D
:101C1000801BB842F2D90320BDE8F08140F20800F1
:101C200043F60801C2F20000C4F20201006809682C
:101C300043F25442C1F38221C0F60002515CC84015
:101C40007047000040F2080043F60801C2F20000AD
:101C5000C4F202010068096843F25442C1F3423100
:101C6000C0F60002515CC8407047000010B543F652
:101C70000404C4F202046068C0F3810142F200402F
:101C8000C0F2F400DFE801F04402081841F200203D
:101C9000C0F27A0010BD00BF216801F03F02216848
:101CA00023684902C3F3881116D4A1FB0001002365
:101CB000FEF7FCFA17E000BF216801F03F0221683F
:101CC00023684902C3F3881116D4A1FB0001002345
:101CD000FEF7ECFA17E000BF41F20020C0F27A00F4
:101CE0004843B0FBF2F021680222C1F3014102EB4C
:101CF0004101B0FBF1F010BD41F20020C0F27A00CA
:101D00004843B0FBF2F02168C1F30271B0FBF1F07F
:101D100010BD00002DE9F04182B0002800F096804F
:101D20000446007843F60006C007C4F202062BD032
:101D3000B06800F00C00042820D0B06800F00C005F
:101D4000082802D17068400218D4B06800F00C0076
:101D50000C2802D17068400210D46068B0F5803F52
:101D600007D0B0F5A02F40F03B81306840F48020D0
:101D70003060306840F4803030603BE13068800390
:101D800002D56068002861D02078800722D5B0682D
:101D900010F00C0F11D0B06800F00C00082802D130
:101DA0007068400209D5B06800F00C000C2840F0C3
:101DB0009F807068400200F19B803068800702D5E8
:101DC000E068012842D13068216920F0F80040EA3B
:101DD000C1003060207800073CD42078400751D4FF
:101DE000A56985B3B06800F00C00082840F0A88011
:101DF000012D2BD07068E16900F480028A4225D160
:101E0000216A00F03F028A4220D147F6C071626A1F
:101E10000140B1EB821F19D1A16A4FF6FF73C903CC
:101E2000994300F44032A1F580318A420ED1E16A33
:101E300000F07062B2EB016F08D1216B00F0E0405E
:101E4000B0EB017F02D1002034E100BF012002B0DD
:101E5000BDE8F0816069002840F20000C4F247202C
:101E60005ED00121C0F8801EFFF728FD054600BFA7
:101E7000706F8007B1D4FFF721FD401B0228F7D90E
:101E8000C5E000BF306C10F080580AD100200190EE
:101E9000306C40F080503064306C00F08050019025
:101EA000019847F20007C4F200073868C00511D452
:101EB000386840F480703860FFF700FD054600BFC9
:101EC0003868C00506D4FFF7F9FC401B0228F7D993
:101ED0009DE000BFA068012805D0052852D1306FD1
:101EE00040F004003067306F40F00100306753E08D
:101EF000E068002860D00020C4F247200121016082
:101F0000FFF7DCFC054600BF306880073FF55BAF9C
:101F1000FFF7D4FC401B02284FF00300F4D9C9E0BE
:101F20000021C0F8801EFFF7C9FC0546706F8007CE
:101F30007FF553AFFFF7C2FC401B0228F6D966E0DD
:101F40000027C4F2472700203866FFF7B7FC022DB0
:101F500005460BD1306880015ED5FFF7AFFC401B12
:101F600002284FF00300F5D9A4E000BF30688001DB
:101F70007FF569AFFFF7A2FC401B02284FF003007A
:101F8000F4D997E0316F002821F001013167316FFA
:101F900021F00401316763D0FFF790FC054641F260
:101FA000883700BF306F80076CD4FFF787FC401B79
:101FB000B842F7D92BE000BF0020C4F2472000212F
:101FC0000160FFF77BFC0546306880077FF502AFB4
:101FD000FFF774FC401B02284FF00300F4D969E0BE
:101FE0003168002821F480313160316821F480218A
:101FF000316051D0FFF762FC054600BF30688003B6
:102000003FF5C2AEFFF75AFC401B6428F6D9032007
:1020100002B0BDE8F08100BF04F11C052FCD246B98
:10202000084340EA8210D9034FF6FF729143A1F5AD
:10203000803140EA0560084340EA04707060012086
:102040003866FFF73BFC0446306880013FF5FBAE85
:10205000FFF734FC001B02284FF00300F4D929E0FD
:10206000FFF72CFC054641F2883700BF306F800730
:1020700008D5FFF723FC401BB8424FF00300F5D909
:1020800018E000BFB8F1000F7FF4AAAE306C20F06A
:1020900080503064A4E600BFFFF710FC05463068AE
:1020A00080037FF571AEFFF709FC401B64284FF0F9
:1020B0000300F4D902B0BDE8F0810000411E002009
:1020C000B0EB116F1CBF012070474EF21002CEF230
:1020D000000251604EF62351CEF20001F0230B7046
:1020E0000721906011607047704700007047000042
:1020F000002804BF0120704710B5044690F83D0049
:1021000028B9002084F83C00204600F01FF8022087
:1021100084F83D002068211D00F02EFE012084F887
:10212000460084F83E0084F83F0084F8400084F8BC
:10213000410084F8420084F8430084F8440084F8A5
:10214000450084F83D00002010BD000080B582B03D
:10215000006844F20041C4F2010188421CBF02B091
:1021600080BD0020019043F64400C4F202000168E3
:10217000002241F4003101600068002100F40030C9
:10218000019001981920FFF71FFC192002B0BDE84B
:102190008040FFF705BC000090F83D1001291CBFEE
:1021A00001207047022180F83D10006841F2FF7263
:1021B000C168C4F20002904241F00101C1600DDC2F
:1021C00040F2FF71C4F20001884215DCB0F1804F8B
:1021D0002AD040F20041C4F2000123E040F2FF3176
:1021E000C4F20101884213DC41F60001C4F200018F
:1021F000884219D0002113E040F60001C4F200012A
:10220000884211D040F60041C4F200010AE000BF4C
:1022100044F20001C4F20101884205D040F20041BD
:10222000C4F20101884206D1816801F00701062944
:1022300004BF00207047016841F0010101600020E7
:10224000704700007047000010B501680446086937
:10225000800744BFC8685FEA807039D408694007C6
:1022600044BFC8685FEA40703ED40869000744BFB5
:10227000C8685FEA007045D40869C00644BFC868F2
:102280005FEAC0604AD40869C0071CBFC8685FEA3B
:10229000C07051D10869000644BFC8685FEA006099
:1022A00052D40869400644BFC8685FEA406053D40E
:1022B0000869800646BFC8685FEA806010BD6FF09D
:1022C000200220460A61BDE81040FFF70FBF00BFA3
:1022D0006FF002000861012020778869800743D0F1
:1022E0002046FFF7AFFF45E06FF0040008610220D1
:1022F0002077886910F4407F40D02046FFF7A2FF86
:1023000042E000BF6FF00800086104202077C86930
:1023100080073DD02046FFF795FF3FE06FF01000AB
:10232000086108202077C86910F4407F3AD0204621
:10233000FFF788FF3CE000BF6FF001000861204616
:1023400000F03EF82168A5E76FF0800008612046A4
:10235000FFF7CAFE2168A4E76FF04000086120463D
:1023600000F040F82168A3E7204600F025F8204659
:1023700000F024F82168002020776FE7204600F065
:102380001BF8204600F01AF82168002020776CE73F
:10239000204600F011F8204600F010F821680020D7
:1023A000207769E7204600F007F8204600F006F89D
:1023B00021680020207766E7704700007047000022
:1023C00040F20811C2F20001884218BF704780B580
:1023D0000020C4F202002021FFF762FABDE880402D
:1023E000FEF790BF70470000704700007047000084
:1023F000B0B582B0044600680168C368426901F064
:102400002F05202D03F0200506D12DB1204602B066
:10241000BDE8B04000F054BD5FEA017C1EBF02F091
:10242000010E03F4907212EB0E0253D1226B012ABB
:1024300005D111F0100218BF13F0100236D10A06B0
:1024400022D513F080021FD094F83D1021293FD1EE
:10245000A168B1F5805F03D12169002900F0728283
:10246000216A4A1C226209784160E18C01390A0420
:10247000E1842DD1C16821F08001C160C16841F0C3
:102480004001C16002B0B0BD490621D513F0400142
:102490001ED0C16821F04001C1602021204684F88F
:1024A0003D1002B0BDE8B04000F00CBB002101912E
:1024B000016801914168019101994069400613D476
:1024C000A08DE18DE28D002A18BF884240F0BE81C8
:1024D00002B0B0BDCA0718BF13F4807240F0BA80D2
:1024E0004A0700F1BD80C2E0A16B0868426893B260
:1024F000002BEDD0A08D8342EAD2E285C969B1F507
:10250000807F00F09D80206850E8030F216820F450
:10251000807041E80302DAB1206850E8030F2168B7
:1025200020F4807041E8030292B1206850E8030F64
:10253000216820F4807041E803024AB1206850E825
:10254000030F216820F4807041E80302002ADAD1E9
:10255000206850E8050F216820F0010041E80502DD
:10256000DAB1206850E8050F216820F0010041E849
:10257000050292B1206850E8050F216820F00100A3
:1025800041E805024AB1206850E8050F216820F0B3
:10259000010041E80502002ADAD1206850E8050F61
:1025A000216820F0400041E80502DAB1206850E8D7
:1025B000050F216820F0400041E8050292B1206833
:1025C00050E8050F216820F0400041E805024AB1BB
:1025D000206850E8050F216820F0400041E805021E
:1025E000002ADAD1202084F83E00002020632068F1
:1025F00050E8030F216820F0100041E80302DAB12F
:10260000206850E8030F216820F0100041E8030221
:1026100092B1206850E8030F216820F0100041E8D3
:1026200003024AB1206850E8030F216820F010002F
:1026300041E80302002ADAD1A06BFEF785FEA08DE7
:10264000E18D401A81B2204602B0BDE8B040FFF7EC
:10265000CBBE00BF226C42F0010222644A0706D5BD
:10266000BEF1000F03D0226C42F0020222648A07FE
:1026700006D5BEF1000F03D0226C42F004022264A2
:10268000BCF1000F09D545EA0E02B2FA82F25209F6
:1026900003D1226C42F008022264226C002A3FF42B
:1026A00017AF11F0200118BF002D03D0204600F015
:1026B00007FC20684069216C00F0400001F008012F
:1026C000401800F0B58000BF206850E8030F216873
:1026D00020F4907041E80302BAB3206850E8030F79
:1026E000216820F4907041E8030272B3206850E83A
:1026F000030F216820F4907041E803022AB3206898
:1027000050E8030F216820F4907041E80302002A8A
:10271000DAD11AE0206850E8050F216820F00100A6
:1027200041E80502DAB1206850E8050F216820F081
:10273000010041E8050292B1206850E8050F2168C8
:1027400020F0010041E805024AB1206850E8050F79
:10275000216820F0010041E80502002ADAD1206B4F
:10276000012824D1206850E8030F216820F01000D0
:1027700041E80302DAB1206850E8030F216820F035
:10278000100041E8030292B1206850E8030F21686D
:1027900020F0100041E803024AB1206850E8030F1E
:1027A000216820F0100041E80302002ADAD120203D
:1027B00084F83E00002020632068406940063FD531
:1027C000206850E8050F216820F0400041E805022C
:1027D000DAB1206850E8050F216820F0400041E898
:1027E000050292B1206850E8050F216820F04000F2
:1027F00041E805024AB1206850E8050F216820F041
:10280000400041E80502002ADAD1A06BC0B142F6CF
:10281000B561C0F600010165FEF7DEFD00283FF45A
:1028200057AEA06B016D02B0BDE8B040084700BFD5
:102830002046FFF7DBFD0020206402B0B0BD00BFE2
:10284000204602B0BDE8B040FFF7D0BD401A216875
:1028500051E8031F226821F4907142E80313DBB1B1
:10286000216851E8031F226821F4907142E80313A4
:1028700093B1216851E8031F226821F4907142E866
:1028800003134BB1216851E8031F226821F49071B2
:1028900042E80313002BDAD1216851E8051F2268B2
:1028A00021F0010142E80513DBB1216851E8051F61
:1028B000226821F0010142E8051393B1216851E833
:1028C000051F226821F0010142E805134BB1216880
:1028D00051E8051F226821F0010142E80513002B91
:1028E000DAD1202184F83E1000212163216851E8CB
:1028F000031F226821F0100142E80313002B3FF46C
:10290000A1AE216851E8031F226821F0100142E8BE
:102910000313002B3FF496AE216851E8031F226891
:1029200021F0100142E80313002B3FF48BAE216825
:1029300051E8031F226821F0100142E80313002B25
:10294000D4D17FE6216A31F8022B6FF35F22426017
:1029500021628AE5002804BF0120704710B50446B3
:1029600090F83D0028B9002084F83C00204600F093
:1029700021F8242084F83D002068C16821F400512A
:10298000C160204600F01CFB2068016921F49041E1
:102990000161416921F02A014161C16841F400519E
:1029A000C16000202021206484F83D1084F83E108E
:1029B00010BD0000F0B587B0006844F60001C4F215
:1029C000000100248842CDE90544CDE90344029486
:1029D0002AD044F20041C4F2000188426DD10020A7
:1029E00043F630010190C4F202010A69262442F440
:1029F00000320A610A6902F400320192019A0190E0
:102A00000A6842F001020A60096801F001010191BF
:102A100001990C2102910221CDE9031003200590B8
:102A20000020C4F202003BE043F630000194C4F2FF
:102A300002000169002741F4802101610169C4F2AB
:102A4000020701F480210191019901940168022596
:102A500041F0040101600168032601F004010191C5
:102A600001990194016841F002010160006802A926
:102A700000F00200019001982020029007200690AB
:102A800007F50060CDE903540596FEF735FE4FF4D7
:102A90008060CDE90205CDE9044607F58060272472
:102AA0000721069102A9FEF727FE204600210022F9
:102AB000FEF78AFF2046FEF773FF07B0F0BD000067
:102AC0007047000070470000FEE7000040F2BC00C5
:102AD000C2F2000000214FF4DB62C0E90011C0E93E
:102AE0000221C0E90411C0E906117047FEE70000A9
:102AF000FEE7000070470000B0B540F20C05C2F2DE
:102B0000000529680446FDF71FFD38B3A968204673
:102B1000FDF71AFD50B329692046FDF715FD68B38E
:102B2000A9692046FDF710FD80B3296A2046FDF70C
:102B30000BFD98B3A96A2046FDF706FDB0B3296BDB
:102B40002046FDF701FD002818BFB0BD062005EBAB
:102B5000C0004068BDE8B040004700BF002005EB62
:102B6000C0004068BDE8B040004700BF012005EB51
:102B7000C0004068BDE8B040004700BF022005EB40
:102B8000C0004068BDE8B040004700BF032005EB2F
:102B9000C0004068BDE8B040004700BF042005EB1E
:102BA000C0004068BDE8B040004700BF052005EB0D
:102BB000C0004068BDE8B0400047000040F2A800F7
:102BC000C2F200000021017040F2F811C2F20001CF
:102BD000416040F2501140F6082240F2006340F696
:102BE000106CC2F20001C2F20002C2F20003C2F293
:102BF000000C09688260C360C0F810C0486940F0EA
:102C00000100486140F29410C2F20000006842697D
:102C100042F001024261CA6842F02002CA60C16803
:102C200041F02001C16070477047000010B5B2B09C
:102C30004CF20010C0F6000090ED000A4168BCEEB6
:102C4000C00A10EE101A90ED040A4069BCEEC00AEA
:102C500040F2C80210EE100AC2F200021268401AD6
:102C60000F23B3FBF0F0511A484343F295516C46E1
:102C7000421DC0F600012046FDF790FB40F2941182
:102C8000C2F20001204600F0A5FA32B010BD0000EB
:102C9000FEF71ABE80B594B0002043F640010C90B8
:102CA000CDE90A00CDE908000690CDE90400CDE9A0
:102CB00002000190C4F202010A6842F080520A60E8
:102CC000096801F080510191019947F200010190DA
:102CD000C4F200010A6842F440420A600968012215
:102CE00001F44041019101990221CDE90D10082024
:102CF0000F90B4200A921022CDE9100107A8079185
:102D00000B92CDE91211FFF705F828B1EFF310800F
:102D100072B600BFFEE700BFFEF792FE20B1EFF3F0
:102D2000108072B6FEE700BF0F20029002200390D1
:102D3000002004904FF4A05005904FF4805006906E
:102D400002A80521FEF7BAFE20B1EFF3108072B69B
:102D5000FEE700BF14B080BD4EF68850CEF20000F2
:102D6000016841F4700101607047000040F20810F2
:102D7000C2F20000FFF768BA10B540F6FF3E0368E4
:102D8000C4F2000E40F2004C7045C4F2010C27DC86
:102D9000B0F1804F31D040F20042C4F200029042C4
:102DA0002BD040F60002C4F20002904225D041F63A
:102DB000FF72C4F20002904229DC70453CDCB0F1A5
:102DC000804F5FD040F20042C4F20002904259D0DE
:102DD00040F60002C4F20002904253D056E000BF19
:102DE00040F60042C4F20002904206D0604504D092
:102DF0000022C4F201029042D9D14A6823F0700344
:102E0000134341F6FF72C4F200029042D5DD43F64F
:102E1000FF72C4F20102904222DC42F20002C4F2CC
:102E2000000290422ED00022C4F20102904229D02A
:102E3000604527D02AE000BF40F60042C4F20002FD
:102E400090421FD041F60002C4F20002904219D015
:102E500041F60042C4F20002904213D016E000BFD7
:102E600044F20002C4F2010290420BD044F6000288
:102E7000C4F20102904205D044F20042C4F20102C1
:102E8000904203D1CA6823F44073134323F08002B5
:102E90004B69D1F800E08C681A430260C46240F4C8
:102EA0008062C0F828E0624504BF0969016301211E
:102EB000416110BD806B0021C185C184FFF796BAC6
:102EC00081B090F83E10222921D183680246B3F5E3
:102ED000805F09D152F8281F52F8183C002B63D0AC
:102EE00003685B680AE000BF52F8281F13B9036942
:102EF000002BF5D003685B6803F07F030B7011684B
:102F000001311160C18D01390A04C18502D001B0BF
:102F1000704700BF0168CA6822F02002CA60CA6810
:102F200022F48072CA604A6922F001024A612021BB
:102F300080F83E10016B01293ED10021016300BFE2
:102F4000016851E8031F026821F0100142E80313F1
:102F5000DBB1016851E8031F026821F0100142E86B
:102F6000031393B1016851E8031F026821F01001B7
:102F700042E803134BB1016851E8031F026821F0D6
:102F8000100142E80313002BDAD101680A68D20667
:102F900006D5002200920A680092496800910099C3
:102FA000818D01B0FFF720BA026852686FF35F228B
:102FB00021F8022B8162A5E701B0FFF781BD000077
:102FC00010B504460068D4E902C22369016921F4FE
:102FD000405111430161626943EA0C01E369114305
:102FE000C268194349F20C639A431143C1604169B5
:102FF000A26921F4407141F20043114340F4806220
:10300000C4F201039A42416102D1FEF71BFE01E0C6
:10301000FEF704FEE16963681922B1F5004FA0FBD9
:10302000020123D15A00DB0FFDF740F948F21F518E
:10303000C5F2EB11A0FB01235A094FF69C73C0F6B1
:10304000FF7303F1805302FB0300322303EBC00044
:10305000A0FB01014FF4F87000EA111000EB021020
:10306000C1F3421108442168886010BD9A009B0F8B
:10307000FDF71CF948F21F51C5F2EB11A0FB01232B
:103080005A094FF69C73C0F6FF7302FB030032230C
:1030900003EB0010A0FB0101F02000EA511000EB4F
:1030A0000210C1F3431108442168886010BD00007C
:1030B00010B540F25014C2F20004204600F014F89B
:1030C0002046BDE81040FFF793B9000010B540F26C
:1030D0009414C2F20004204600F006F82046BDE831
:1030E0001040FFF785B9000002681368D2F80CC0E1
:1030F00099061FD51CF020011CD01168516840F2C0
:103100005012C2F20002904236D040F29412C2F243
:10311000000290423ED140F2A800C2F20000C06816
:10312000D0F80024D0F8043401326FF39F229A4281
:1031300030D031E019062DD51CF080012AD040F2A4
:103140005011C2F2000188422CD040F29411C2F218
:103150000001884218BF704740F61060C2F20000BC
:10316000D0F80024D0F804349A4225D10868C16808
:1031700021F08001C160704740F2A800C2F2000057
:103180004068D0F80024D0F8043401326FF39F2255
:103190009A4201D1704700BFD0F80034C154C0F842
:1031A0000024704740F60820C2F20000D0F8002446
:1031B000D0F804349A42D9D0D0F80424825CD0F8F4
:1031C000043401336FF39F23C0F8043408680168A6
:1031D0004260704710B50278002A00F07D8040F20E
:1031E000501EC2F2000E714516D040F2941EC2F27B
:1031F000000E714540D0023010F8011C00296BD040
:103200000178002968D04178002965D081780430A0
:10321000002908BF10BDEFE740F2A80CC2F2000C75
:10322000DCF8081011E000BFD1F800440A55DCF8C2
:103230000810C1F80034DEF80020D36843F08003A2
:10324000D36010F8012F002A46D0D1F800340133A2
:103250006FF39F23D1F80444A342E5D1D1F804448D
:10326000A342E1D1D1F80444A342DDD1D1F8044412
:10327000A342EFD0D8E700BF40F2A80CC2F2000C86
:10328000DCF8101010E000BFD1F800440A55DCF85B
:103290001010C1F80034DEF80020D36843F080033A
:1032A000D36010F8012FBAB1D1F8003401336FF3B5
:1032B0009F2300BFD1F80444A342E5D1D1F80444D0
:1032C000A342E1D1D1F80444A342DDD1D1F80444B2
:1032D000A342EFD0D8E700BF10BD0000FEE700001A
:1032E00086B00024C4F20204FEF7FCFAFFF7D2FC19
:1032F000002643F63000CDE904660096C4F20200D1
:103300000168002241F0040101600168202701F0FA
:103310000401009100990096016841F0800101606C
:10332000016801F08001009100990096016841F068
:1033300001010160016801F001010091009900960E
:10334000016841F0020101600068202100F00200E4
:10335000009000982046FEF7ABFA4FF40050019021
:103360004FF4041001ADCDE9020604F500602946D2
:10337000FEF7C2F90120CDE9020620462946019751
:103380000496FEF7B9F940F25010A4F5DE31C2F20E
:1033900000004FF4E1370C25C0E90017C0E90266D0
:1033A000C0E90465C0E90666FFF7D4FA20B1EFF37F
:1033B000108072B6FEE700BF40F29410A4F5DC3135
:1033C000C2F20000C0E90017C0E90266C0E9046566
:1033D000C0E90666FFF7BEFA20B1EFF3108072B6BF
:1033E000FEE700BF40F20810A4F53C41C2F2000025
:1033F00000234FF4265243F67F6780E88E00036176
:103400008361FEF775FE28B1EFF3108072B600BF3E
:10341000FEE700BFFFF7D2FBFFF758FB40F20810B2
:10342000C2F20000FEF7B8FEFEE7F1EE100A4FF61A
:10343000FF71C0F2C03120EA010040F04070E1EEBF
:10344000100A7047000000000000000001020304A1
:1034500006070809000000000102030454657374A4
:103460002074686520777269746520466C617368A2
:10347000206D656D6F72790A0045726173696E67C0
:1034800020466C617368206D656D6F72790A005318
:103490006176696E6720313256206D696E20414435
:1034A000432076616C756520746F20466C6173688B
:1034B000206D656D6F72790A00536176696E6720C1
:1034C0003556206D696E204144432076616C7565E8
:1034D00020746F20466C617368206D656D6F727922
:1034E0000A00536176696E6720313256206D61782B
:1034F000204144432076616C756520746F20466CD2
:10350000617368206D656D6F72790A005361766929
:103510006E67203556206D617820414443207661E6
:103520006C756520746F20466C617368206D656DE5
:103530006F72790A00436865636B20466C6173683B
:103540002044617461004765745F3132565F4D6994
:103550006E004765745F35565F4D696E0054657344
:10356000742056616C7565206973004765745F311E
:1035700032565F4D6178004765745F35565F4D6127
:103580007800457261736520466C617368206D65D3
:103590006D6F72790043616C6962726174696F6EFC
:1035A0002076616C75653A25640A0000D035000804
:1035B0000000002048000000000200081836000843
:1035C00048000020D81700001C020008000000007E
:1035D00001000000100000000024F4005235000833
:1035E000D5100008773500081D0F00084635000883
:1035F000A10D00086B350008250C00088235000875
:103600004D09000835350008750700085D350008CC
:083610002D2C00080A00000047
:04000005080001C529
:00000001FF
