:020000040800F2
:100000003008002035020008311D00082D1A0008B4
:10001000991C0008CD0500081F2100080000000001
:10002000000000000000000000000000771D000834
:10003000CF05000800000000751D0008791D0008AC
:100040004F0200084F0200084F0200084F0200084C
:100050004F0200084F0200084F0200084F0200083C
:100060004F0200084F0200084F0200084F0200082C
:100070004F0200084F0200084F0200084F0200081C
:100080004F0200084F0200084F0200080000000065
:100090000000000000000000000000004F02000807
:1000A0004F020008251E00084F0200084F020008FA
:1000B0004F0200084F0200084F0200084F020008DC
:1000C0004F0200084F0200084F0200084F020008CC
:1000D0004F0200084F0200084F0200080000000015
:1000E0004F0200084F0200084F0200080000000005
:1000F0000000000000000000000000004F020008A7
:10010000000000004F0200084F0200084F020008E4
:1001100000000000000000000000000000000000DF
:100120004F0200084F0200084F0200084F0200086B
:100130004F02000800000000000000000000000066
:100140000000000000000000000000004F02000856
:100150004F0200084F0200084F0200084F0200083B
:100160004F0200084F0200080000000000000000DD
:10017000000000000000000000000000000000007F
:10018000000000004F020008000000000000000016
:100190004F02000800F002F800F03CF80AA090E8D6
:1001A000000C82448344AAF10107DA4501D100F032
:1001B00031F8AFF2090EBAE80F0013F0010F18BFC3
:1001C000FB1A43F001031847402800006028000094
:1001D000103A24BF78C878C1FAD8520724BF30C873
:1001E00030C144BF04680C60704700000023002445
:1001F00000250026103A28BF78C1FBD8520728BF37
:1002000030C148BF0B6070471FB502F0EFFB1FBD48
:1002100010B510BD00F0CFF81146FFF7F5FF01F063
:10022000C9FF00F0EDF803B4FFF7F2FF03BC00F0E4
:10023000F5F800000948804709480047FEE7FEE757
:10024000FEE7FEE7FEE7FEE7FEE7FEE7FEE7FEE786
:1002500004480549054A064B70470000151E000872
:1002600095010008300200203008002030040020F2
:100270003004002053EA020C00F069802DE9F04BB5
:100280004FF00006002B1FBFB3FA83F503FA05F405
:1002900024FA05F65E4012BF1643B2FA82F502FA5E
:1002A00005F4C5F120051EBF22FA05FC44EA0C0442
:1002B000203556EA044C4FEA144418BF641C4FF032
:1002C00000084FF00009904271EB030C39D300296C
:1002D00019BFB1FA81F701FA07F6B0FA80F700FA10
:1002E00007F6C7F120071EBF20FA07FC46EA0C06F6
:1002F0002037B6FBF4FCA7EB0507103F07F01F0BF8
:10030000CBF120060CFA0BFB2CFA06F644BFB346E1
:100310000026202FA4BF5E464FF0000B5BEA060CC0
:1003200008BF4FF0010B19EB0B09ABFB027C48EB4C
:100330000608C01B06FB02CC0BFB03CC71EB0C01C7
:10034000C1E70B46024641464846BDE8F08B13B56F
:100350004FF000004FF00001AFF30080BDE81C40FB
:1003600070474FF0000200B5134694469646203978
:1003700022BFA0E80C50A0E80C50B1F12001BFF45E
:10038000F7AF090728BFA0E80C5048BF0CC05DF8C4
:1003900004EB890028BF40F8042B08BF704748BF12
:1003A00020F8022B11F0804F18BF00F8012B704786
:1003B000704770477047754600F02CF8AE46050050
:1003C0006946534620F00700854618B020B5FFF770
:1003D0003FFFBDE820404FF000064FF000074FF010
:1003E00000084FF0000B21F00701AC46ACE8C00953
:1003F000ACE8C009ACE8C009ACE8C0098D4670475C
:1004000010B50446AFF300802046BDE81040FFF76A
:100410000ABF000000487047CC01002001491820A5
:10042000ABBEFEE72600020070470000464910B54B
:100430004A6822F440324A604A6843681A434A6074
:1004400001684A6822F480724A6001684A68036958
:1004500042EA03224A6001684A6822F040724A6018
:1004600001684A6883681A434A6001688A6822F40E
:1004700000628A6001688A68C3681A438A60816A78
:100480006FF07062D14201688A6822F070628A60FF
:1004900001688A680CD0836A1A438A6001688A6896
:1004A00022F040528A6001688A68C36A1A4301E0F8
:1004B00022F040528A6001688A6822F002028A6053
:1004C00001688A68037E42EA43028A6090F820103D
:1004D000002901684A680FD042F400624A6001684E
:1004E0004A6822F460424A6001684A68174C436ACD
:1004F00004EB43331A4301E022F400624A600168CE
:10050000CA6A22F47002CA620168CA6A838B104CFC
:1005100004EB03531A43CA6201688A6822F400722A
:100520008A6001688A6890F8303042EA43228A6023
:1005300001688A6822F480628A6001688A6840697A
:1005400042EA8020886010BD0023014000E0FFFFE8
:100550000000F0FF1FB500200090039001200190E3
:10056000022002906946044800F034F8002801D0C7
:1005700000F02EF81FBD00002C0000201FB5002049
:1005800003900120009001900220029069460448E7
:1005900000F020F8002801D000F01AF81FBD00007C
:1005A0002C0000201FB500200390042000900120A3
:1005B0000190022002906946034800F00BF80028E1
:1005C00001D000F005F81FBD2C000020FEE77047A9
:1005D00072B6FEE778B50024009490F83C20012A1A
:1005E00019D0012280F83C200A6807230568092AEF
:1005F00013D9EE680A3A02EB420293409E43EE6042
:100600000B788A680A3B03EB43039A400368DD6872
:100610002A43DA6010E0022078BD2E6902EB420224
:1006200093409E432E610B788A6803EB43039A4004
:1006300003681D692A431A614A681F23072A13D2D7
:1006400005686E6B521E02EB820293409E436E63FE
:100650000B790A885B1E92B203EB83039A4003680E
:100660005D6B2A435A6327E005680D2A12D22E6B70
:10067000D21F02EB820293409E432E630B790A88BD
:10068000DB1F92B203EB83039A4003681D6B2A437E
:100690001A6311E0EE6A0D3A02EB820293409E4328
:1006A000EE620B790A880D3B92B203EB83039A400A
:1006B0000368DD6A2A43DA62164B0568144A9D42D4
:1006C00006D10D68122D03D1556845F4800555609B
:1006D00005689D4218D10B68102B01D0112B13D146
:1006E000536843F400035360096810290CD10A4988
:1006F0000A4A0968B1FBF2F101EB8101490000E00F
:10070000491E00910029FBD180F83C40002078BDB3
:1007100000230140002001402800002040420F003B
:100720000068C06C704770B504004FF0000503D03E
:10073000206C002610B107E0012070BD204600F0BB
:100740001DF8666484F83C60206CC00610D4206CF0
:1007500020F4885040F0020020642046FFF766FE37
:100760006664206C20F0020040F00100206400E08C
:10077000012584F83C60284670BD000010B586B0A5
:10078000044614216846FFF7ECFD114920688842B1
:100790001CD110480021026842F480720260006897
:1007A00000F4807005900B481438026842F0010292
:1007B0000260006800F00100059013200090032003
:1007C000CDE901016946044800F0E2F806B010BD29
:1007D0000020014044380240000002402DE9F04171
:1007E000044600680D4681684FF0000749050BD5A7
:1007F0008068C00508D5206C40F02000206484F893
:100800003C700120BDE8F08100F0C0F9064613E01D
:10081000681C11D025B100F0B9F9801BA8420BD992
:1008200020680068800707D4206C40F00400206432
:1008300084F83C700320E5E7206800688007E7D56E
:1008400021686FF012000860206C40F40070206492
:100850002068816811F0405F13D1217E89B9C16A97
:1008600011F4700F02D0806840050AD4206C20F487
:1008700080702064206CC00403D4206C40F0010020
:1008800020640020BEE7000018B50021009190F818
:100890003C20012A07D0012280F83C20026893689E
:1008A000DB0702D011E0022018BD936843F001037A
:1008B0009360244A244B1268B2FBF3F202EB42022B
:1008C00000E0521E0092002AFBD102689368DB0709
:1008D0002ED0036C40F20164A34343F4807303649D
:1008E00053685B0505D5036C23F4005343F4805330
:1008F0000364036CDB0404D5436C23F006034364F8
:1009000000E0416480F83C1010496FF0220313604E
:1009100049680068C90602D00D49884210D1816833
:1009200011F0405F0CD1816841F08041816007E0A7
:10093000016C41F010010164416C41F0010141641E
:10094000002018BD2800002040420F000023014075
:100950000020014090F83C1001290CD0012180F8C2
:100960003C1001688A6822F001028A600168896887
:10097000C90702D007E002207047016C21F48851BA
:1009800041F001010164002180F83C1008467047E5
:100990002DE9F84FDFF8B8A10022012403254FF01C
:1009A0000F090AF1040BAAF1040E00BF0B6804FA48
:1009B00002F63340B34273D10F7907F00307012FDA
:1009C00001D0022F16D187684FEA420805FA08FCC9
:1009D00027EA0C07D1F80CC00CFA08FC4CEA070C0B
:1009E000C0F808C04768B7430E79C6F300169640B2
:1009F0003E4346600E79F643B6070DD0C7685600F1
:100A000005FA06FC27EA0C07D1F808C00CFA06FC28
:100A10004CEA070CC0F80CC00E7906F00306022E53
:100A200010D1D60800EB8608D8F8206057074FEAA7
:100A3000D76C09FA0CF7BE430F6907FA0CF7374376
:100A4000C8F8207006684FEA420C05FA0CF7BE435E
:100A50000F7907F0030707FA0CF7374307604E6872
:100A600016F4403F6DD03B4E376847F480473760FF
:100A7000366822F0030706F480460096364E07EBF0
:100A8000060CDCF8086897073F0F09FA07F826EA12
:100A90000806DFF8C880404503D14FF000081EE08B
:100AA0004FE0DFF8BC80404502D14FF0010816E06E
:100AB000DFF8B080404502D14FF002080FE0DFF8C8
:100AC000A880404502D14FF0030808E0DFF89C8081
:100AD000404502D14FF0040801E04FF0070808FA42
:100AE00007F848EA0608CCF80888DAF800605746A4
:100AF000D1F804C09E435FEACC2C00D51E433E6073
:100B0000DBF800605F46D1F804C09E435FEA8C2C9E
:100B100000D51E433E60DEF800607746D1F804C081
:100B20009E435FEA8C3C00D51E433E60084F083F61
:100B30003E68D1F804C09E435FEACC3C00D51E431A
:100B40003E60521C102AFFF431AFBDE8F88F000060
:100B5000083C01404438024000300140000002409F
:100B60000004024000080240000C02400010024055
:100B7000426921EA02030A4043EA02418161704767
:100B80000AB1816170470904FBE7000001488068F1
:100B9000704700001C000020024881680278114460
:100BA000816070471C0000200B4810B5016841F4BB
:100BB00000710160016841F480610160016841F4E5
:100BC00080710160032000F071F8002000F006F849
:100BD00000F024F8002010BD003C024070B50D4D1F
:100BE00004464FF47A712878B1FBF0F00A4909689D
:100BF000B1FBF0F000F0ECFA48B9102C07D200225B
:100C00002146501E00F032F800206C6070BD0120BB
:100C100070BD00001C000020280000200B4882B09E
:100C2000016841F480410160006800F48040009058
:100C30000648001F016841F080510160006800F023
:100C400080500090072002B000F030B844380240D5
:100C5000002809DB00F01F020121914040098000BB
:100C600000F1E020C0F8001170470000F0B40E4B16
:100C70001B680C46C3F30223C3F10705042D00D9FA
:100C80000425191D072901D2002300E0DB1E0126DF
:100C900006FA05F1491E214099409E40761E1640F5
:100CA0003143F0BC01F03CBA0CED00E0064900F025
:100CB000070208684FF6FF03184040EA0220034A83
:100CC00010430860704700000CED00E00000FA05DA
:100CD0002DE9F0470E46050065D0DFF81481D8F8FD
:100CE0000000F7B200F00700B04207D288F80070A9
:100CF000D8F8000000F00700B04254D128683D4CFD
:100D0000810712D5400703D5206840F4E0502060E9
:100D10002878000703D5206840F4604020602068F0
:100D2000A96820F0F000084320602878C0072DD083
:100D3000304968680839012812D0022813D00328E6
:100D400011D00968890700292DDA216821F00301F3
:100D500001432160FFF71AFF814641F2883A0EE015
:100D600009688903EFE709688901ECE7FFF70EFFDF
:100D7000A0EB0901514502D90320BDE8F0872068A6
:100D8000696800F00C00B0EB810FEFD1D8F80010CB
:100D9000404601F00701B14207D90770006800F032
:100DA0000700B04201D00120E7E72878400705D5C9
:100DB0002068E96820F4E0500843206028780007A4
:100DC00006D52068296920F4604040EAC10020600F
:100DD00000F018F82168084AC1F30311515CC840BB
:100DE0000649086006480068FFF7F8FE0020C4E7DF
:100DF000003C024008380240F62900082800002084
:100E000020000020154810B5006810F00C021448AE
:100E100013D04110042A0FD0082A0ED10F4C241FE2
:100E20002268236802F03F025B0207D52068C0F306
:100E30008810A0FB010106E0084610BD2168C1F33F
:100E40008811A1FB00010023FFF714FA2168C1F308
:100E50000141491C4900B0FBF1F010BD08380240C7
:100E60000024F4002DE9F84F04006ED02078DFF85C
:100E70004C93C007A9F104054AD009F104000168A8
:100E8000C1F38101012908D00068C0F38100022864
:100E90000AD1D9F80000400206D52868800337D56A
:100EA00060680028E1D033E06068B0F5803F10D082
:100EB000B0F5A02F286810D020F480302860286872
:100EC00020F4802028606068A8B1FFF75FFE064626
:100ED0000DE0286840F48030F4E740F4802028607A
:100EE000F7E700BFFFF752FE801B642873D828681D
:100EF0008003F7D50CE0FFF749FE064605E000BF8A
:100F0000FFF744FE801B6428F0D828688003F7D4DC
:100F10002078DFF8AC8280074FF0000A3ED5A74862
:100F2000001D016811F00C0F08D00068C0F38100AB
:100F300002280BD1D9F80000400207D428688007A6
:100F400016D5E068012800D112E033E1E068B8B1BD
:100F50000120C8F80000FFF719FE064605E000BFB3
:100F6000FFF714FE801B0228C0D828688007F7D539
:100F70002868216920F0F80040EAC10028600DE0EF
:100F8000C8F800A0FFF702FE064604E0FFF7FEFDEA
:100F9000801B02281FD828688007F7D42078000714
:100FA00022D5864F87486169703771B10121016090
:100FB000FFF7ECFD064604E0FFF7E8FD801B022882
:100FC00009D838688007F7D50EE0C0F800A0FFF711
:100FD000DDFD064605E082E0FFF7D8FD801B022814
:100FE0007DD838688007F7D42078400768D5DFF8C7
:100FF000CCB100270BF13C0BDBF80000C0000BD498
:10100000DBF8001041F08051CBF80010DBF8000055
:10101000012700F0805000906B4E3068C00510D45E
:10102000306840F480703060FFF7B0FD009005E05C
:10103000FFF7ACFD0099401A022850D83068C0056F
:10104000F6D55E4EA0686C3601280FD005283068B2
:1010500010D020F001003060306820F004003060D3
:10106000A068B8B1FFF792FD00900FE0306840F043
:101070000100F4E740F004003060F7E7FFF786FD79
:101080000099411A41F28830814266D83068800761
:10109000F4D50EE0FFF77AFD009007E0FFF776FD4C
:1010A0000099411A41F28830814256D83068800751
:1010B000F4D42FB1DBF8001021F08051CBF80010F0
:1010C000A069C8B33D49091D0968C1F3810102291E
:1010D0004AD00228504607D0C8F8600000E03CE043
:1010E000FFF754FD04463BE04746C8F86000FFF7B1
:1010F0004DFD064605E000BFFFF748FD801B0228B6
:101100002BD828688001F7D4D4E907010843A16AE5
:101110002E4A490802EB0141626A41EA8211084302
:1011200094F82C1040EA0161C9F8001001203866DB
:10113000FFF72CFD044606E03EE000BFFFF726FD6A
:10114000001B022809D828688001F7D534E000BFC9
:10115000FFF71CFD001B022802D90320BDE8F88F11
:1011600028688001F4D427E00128F7D0D9F80000DE
:10117000E26900F4800191421CD1226A00F03F0133
:10118000914217D147F6C071626A0140B1EB821FEC
:1011900010D1A26A4FF0FF3300F4403103EB52024A
:1011A000B1EB024F06D194F82C1000F07060B0EB58
:1011B000016F01D00120D1E70020CFE704380240C1
:1011C00000004742800E4742007000400000FFFFD1
:1011D00010B5401EB0F1807F01D3012010BD4FF04B
:1011E000E02460610F21601700F09AFF0020A061E9
:1011F00007202061002010BD7047704710B590F89F
:101200003C20012A22D0012280F83C20CA688C6848
:1012100022F4407222434C6822F4806222430C681C
:1012200022F4006222430C6922F4805222434C696A
:1012300022F400522243C969002322F480420A4367
:1012400001684A6480F83C30002010BD022010BDC7
:1012500070B590F83C20012A2CD0012480F83C4045
:10126000022280F83D2003685A689D6822F07006CB
:101270000A6832435A60104B02689A420ED0B2F1AB
:10128000804F0BD00D4B9A4208D00D4B9A4205D09F
:101290000C4B9A4202D00C4B9A4204D1496825F07B
:1012A00080031943916080F83D40002180F83C1094
:1012B000084670BD022070BD0000014000040040DF
:1012C00000080040000C00400040014010B5040040
:1012D00003D094F83D0010B107E0012010BD0020BC
:1012E00084F83C00204600F01FF8022084F83D00FE
:1012F000211D206800F0A4FD012084F8460084F838
:101300003E0084F83F0084F8400084F8410084F8EF
:10131000420084F8430084F8440084F8450084F8CF
:101320003D00002010BD000008B50068B0F1804FFE
:1013300015D0104988421CD10F48016841F4003192
:1013400001600068002200F400300090114619206E
:10135000FFF78CFCBDE808401920FFF779BC064870
:10136000001F016841F001010160006800F0010008
:10137000009008BD004401404438024090F83D1000
:10138000012901D001207047022180F83D10016839
:10139000CA6842F00102CA6000680E4988420ED055
:1013A000B0F1804F0BD00C49884208D00B498842DD
:1013B00005D00B49884202D00A49884204D181688D
:1013C00001F00701062903D0016841F00101016025
:1013D0000020704700000140000400400008004069
:1013E000000C004000400140704770B504460068A2
:1013F00001694FF00005C943890715D4C168C94385
:10140000890711D4E91E01610120207720688069D5
:101410008007204602D0FFF7E7FF04E000F0F9F86C
:10142000204600F02FFA257720680169C943490753
:1014300017D4C168C943490713D46FF0040101618F
:10144000022020772068806910F4407F204602D077
:10145000FFF7CAFF04E000F0DCF8204600F012FAC3
:10146000257720680169C943090716D4C168C943B3
:10147000090712D46FF00801016104202077206869
:10148000C0698007204602D0FFF7AEFF04E000F0FD
:10149000C0F8204600F0F6F9257720680169C943B5
:1014A000C90617D4C168C943C90613D46FF0100127
:1014B0000161082020772068C06910F4407F204631
:1014C00002D0FFF791FF04E000F0A3F8204600F0FF
:1014D000D9F9257720680169C943C90708D1C168CE
:1014E000C943C90704D1891E0161204600F05CFA96
:1014F00020680169C943090609D4C168C9430906BE
:1015000005D46FF0800101612046FFF775FE206869
:101510000169C943490609D4C168C943490605D4CC
:101520006FF040010161204600F07FFA20680169F8
:10153000C94389060BD4C168C943890607D46FF033
:10154000200101612046BDE87040FFF756BE70BD26
:1015500070B586B0044614216846FEF702FF154EAA
:10156000256800221449022301241448B54209D1F8
:101570000D6845F001050D60096801F00101059154
:1015800081150CE0B5F1804F11D10D6845F00105D2
:101590000D60096801F0010105914FF400410091CF
:1015A000CDE90132CDE903246946FFF7F1F906B030
:1015B00070BD0000000001403038024000000240D1
:1015C00070B5044690F83C00002501280FD001209A
:1015D00084F83C006AB1042A0FD0082A11D00C2AE2
:1015E00013D00125002084F83C00284670BD02205D
:1015F00070BD206800F088FCF4E7206800F0ACFCC7
:10160000F0E7206800F0D4FCECE7206800F0FCFC78
:10161000E8E7704710B5040003D094F83D0010B11E
:1016200007E0012010BD002084F83C00204600F0B7
:101630001EF8022084F83D00211D206800F000FC07
:10164000012084F8460084F83E0084F83F0084F8C6
:10165000400084F8410084F8420084F8430084F894
:10166000440084F8450084F83D00002010BD704718
:1016700010B50446022249B104290ED0082913D01E
:1016800094F84100012816D0012010BD94F83E00C6
:101690000128F9D184F83E200FE094F83F0001289A
:1016A000F2D184F83F2008E094F840000128EBD103
:1016B00084F8402001E084F841200122206800F0F5
:1016C0000BFC12492068884203D1426C42F400426C
:1016D0004264206888420ED0B0F1804F0BD00C4994
:1016E000884208D00B49884205D00B49884202D075
:1016F0000A49884204D1816801F00701062903D014
:10170000016841F001010160002010BD00000140AE
:101710000004004000080040000C00400040014070
:1017200070B5044690F83C0000260D4601280FD005
:10173000012084F83C006AB1042A1DD0082A2FD069
:101740000C2A3FD00126002084F83C00304670BDB2
:10175000022070BD206800F0D7FB2068816941F04D
:10176000080181612068816921F00401816120689C
:1017700081692A69114311E0206800F0EDFB2068BF
:10178000816941F4006181612068816921F480618F
:101790008161206881692A6941EA02218161D2E779
:1017A000206800F005FC2068C16941F00801C161B2
:1017B0002068C16921F00401C1612068C1692A69FA
:1017C000114311E0206800F01FFC2068C16941F45A
:1017D0000061C1612068C16921F48061C161206834
:1017E000C1692A6941EA0221C161ACE710B5040070
:1017F00003D094F83D0010B107E0012010BD002097
:1018000084F83C00204600F01FF8022084F83D00D8
:10181000211D206800F014FB012084F8460084F8A4
:101820003E0084F83F0084F8400084F8410084F8CA
:10183000420084F8430084F8440084F8450084F8AA
:101840003D00002010BD000008B500680B4988422B
:1018500012D10B48016841F00101016000680022CB
:1018600000F00100009011461920FFF7FFF9BDE8D4
:1018700008401920FFF7ECB908BD00000000014046
:10188000443802407047000010B50446022249B1B6
:1018900004290ED0082913D094F84100012816D04D
:1018A000012010BD94F83E000128F9D184F83E20B3
:1018B0000FE094F83F000128F2D184F83F2008E0BF
:1018C00094F840000128EBD184F8402001E084F82E
:1018D00041200122206800F0FFFA12492068884266
:1018E00003D1426C42F400424264206888420ED028
:1018F000B0F1804F0BD00C49884208D00B49884288
:1019000005D00B49884202D00A49884204D1816837
:1019100001F00701062903D0016841F001010160CF
:10192000002010BD000001400004004000080040FD
:10193000000C00400040014030B504460D460068F0
:10194000002200F0C9FA174B41F2111120688A10E9
:10195000984209D1036A0B4206D1036A134203D1AC
:10196000436C23F4004343642068036A0B4206D1AE
:10197000016A114203D1016821F0010101600120D7
:101980003DB1042D08D0082D09D084F84100002075
:1019900030BD84F83E00FAE784F83F00F7E784F8AA
:1019A0004000F4E700000140084910B588420BD11F
:1019B00020210748FFF7DCF800F070F900F0AAFCDE
:1019C000BDE8104000F0B6B910BD000004010020D1
:1019D0000000024070B5044690F83C00012812D087
:1019E000012584F83C50022084F83D00204600F098
:1019F0002DFB01004FF0000007D084F83D5084F823
:101A00003C00012070BD022070BD2168CA6822F030
:101A10004002CA602168CA6822F48042CA6084F821
:101A20003D5084F83C00002070BD7047FEE7000088
:101A30000F4810B50D4A026000214FF48032C0E912
:101A4000012101220261027680F82010094BC0E9D1
:101A50000A31C261C16080F830104261FEF763FE56
:101A6000002801D072B6FEE710BD00000020014042
:101A70002C0000200100000F30B587B0142168460B
:101A8000FEF76FFC1F480024016841F0040101606B
:101A9000016801F004010591016841F080010160D5
:101AA000016801F080010591016841F001010160C8
:101AB000016801F001010591016841F00201016036
:101AC0000068114D00F002000590002220212846F8
:101AD000FFF756F84FF4005000904FF40410CDE992
:101AE000010469460948FEF753FF202000900120B9
:101AF000CDE90104694628460394FEF749FF07B083
:101B000030BD0000303802400000024000080240B2
:101B100030B591B000240F941C2168461094FEF754
:101B200020FC202107A8FEF71CFC2D482B492E4A3B
:101B300001602C490968B1FBF2F1491EC0E90114AA
:101B400040F2E731C0E9031444618461FFF74EFEBF
:101B500008B172B6FEE72248FFF75CFD08B172B625
:101B6000FEE75020CDE90F040FA91D48FFF770FBD9
:101B700008B172B6FEE7602000904FF4FA75CDE927
:101B80000154039404940594002269461448069471
:101B9000FFF7C6FD08B172B6FEE71020CDE90005DB
:101BA000042269460E48FFF70BFD08B172B6FEE746
:101BB0000794089409944FF400500A94CDE90B401F
:101BC00007A907480E94FFF719FB08B172B6FEE7A4
:101BD0000348FFF7BDFC11B030BD0000000001401C
:101BE000740000202800002040A5AE0210B58EB081
:101BF000142107A8FEF7B5FB00240C941C216846AD
:101C00000D94FEF7AEFB21484FF08041214A016060
:101C10001F490968B1FBF2F1491EC0E9011440F205
:101C2000E731C0E903148461FFF750FB08B172B6D5
:101C3000FEE71648FFF7DAFD08B172B6FEE70620A8
:101C4000CDE9070407A91148FFF7C4FE08B172B631
:101C5000FEE70C940CA90D480D94FFF7F9FA08B1B2
:101C600072B6FEE7602000904FF4FA70CDE90104EF
:101C70000022694605480494FFF752FD08B172B688
:101C8000FEE70248FFF764FC0EB010BDBC00002068
:101C90002800002040A5AE02FEE7000070B5FEF768
:101CA00059FC2048FEF7F0FD4FF47A7529461D488F
:101CB000FEF794FD1B48FEF733FD1B4C20601948CE
:101CC000FEF748FEFEF75AFC1648FEF7DDFD2946F2
:101CD0001448FEF783FD1348FEF722FD60601148AB
:101CE000FEF738FEFEF75EFC0E48FEF7CDFD2946F6
:101CF0000C48FEF773FD0B48FEF712FD40F29511FC
:101D0000A06048434FF40C61B0FBF1F000EE100A04
:101D10000648B8EE400A80ED000ABDE87040014870
:101D2000FEF718BE2C0000204C010020000000200F
:101D3000FEE7000070B50E4C94F8690028B1012848
:101D40000BD00025042810D10DE0A068A0F212608D
:101D5000404200F079FA012002E000F0F1F904209D
:101D600084F8690070BD00F017FB84F8695070BDFD
:101D70004C01002070477047FEF70EBF30B593B09E
:101D800030216846FEF7EDFA14210CA8FEF7E9FAB7
:101D90001E480024016841F080510160006800F095
:101DA000805011901A48016821F4404141F40041EB
:101DB00001600068022500F440401190012003906A
:101DC0001020009506950490CDE907404FF4A870C7
:101DD000099004200A9007200B906846FFF742F80C
:101DE00008B172B6FEE70F20CDE90C054FF4805024
:101DF000CDE90E4002210CA81094FEF769FF0028DF
:101E000001D072B6FEE713B030BD0000403802408A
:101E1000007000400248016841F4700101607047A1
:101E200088ED00E010B50448FFF7DFFABDE8104088
:101E30000248FFF7DABA0000740000200401002015
:101E4000F0B502681D4B1E4C9F031E4D1E4E98425E
:101E500007D0B84205D0A04203D0A84201D0B0427A
:101E600004D122F0700C4A6842EA0C02984210D069
:101E7000B8420ED0A0420CD0A8420AD0B04208D03E
:101E8000124CA04205D0124CA04202D0114CA042EC
:101E900003D122F44074CA6822434C6922F08002C4
:101EA000224302608A68C2620A688262984201D153
:101EB0000969016301214161F0BD0000000001409A
:101EC0000004004000080040000C004000400140B9
:101ED000004401400048014010B501F01F030121FA
:101EE000046A99408C430462016A9A40114301627A
:101EF00010BD10B5846842EA032224F47F440A43EB
:101F00002243826010BD000030B5026A22F0010257
:101F10000262026A4368846924F073050C682C43EA
:101F200022F002058A682A430A4DA8420BD122F00A
:101F30000805CA6823F440732A434D6922F004025D
:101F40001D438B692B43436084614968416302628E
:101F500030BD00000000014030B5026A22F01002DE
:101F60000262026A436884690D6824F4E64444EA24
:101F700005248D6822F0200242EA05120B4DA8428A
:101F80000ED1CD6822F0800242EA05124D6923F499
:101F9000406343EA85038D6922F0400243EA8503EA
:101FA0004360846149688163026230BD0000014082
:101FB00030B5026A22F480720262036A4268C46920
:101FC00023F4007324F073050C682C438D6843EAF6
:101FD00005230C4DA8420ED1CD6823F4006343EADB
:101FE00005234D6922F4405242EA05128D6923F41B
:101FF000806342EA05124260C4614968C1630362BA
:1020000030BD00000000014030B5026A22F4805269
:102010000262046A4268C3690D6823F4E64343EA36
:1020200005238D6824F4005444EA0534064DA84283
:1020300004D14D6922F4804242EA85124260C361B4
:1020400049680164046230BD0000014070B5036856
:1020500000249A6822F070054A682A4322F0070596
:102060000A682A439A604A6812F00F0F31D11211A0
:10207000082A2ED2DFE802F02E2E2E2E0B21270466
:102080000B69D1E902210068FFF733FF22E00A68FB
:10209000052A10D00268136A156A25F00105156239
:1020A00002689569096925F0F00545EA0111916119
:1020B000006803620EE0012070BD0A69896800684B
:1020C00000F00AF806E00A698968006800F015F86F
:1020D00000E00124204670BD10B5036A046A24F0B4
:1020E00001040462846924F0F00444EA021423F039
:1020F0000A020A438461026210BD10B5036A23F02C
:10210000100303628369046A23F4704343EA0232D2
:1021100024F0A00343EA01118261016210BDFEE7D1
:102120000907090E002804DB00F1E02080F8001404
:10213000704700F00F0000F1E02080F8141D704798
:102140000B480022DFED0C0A90F868300948C1887E
:102150008180C28088B200EB4010C00000EE100AFF
:102160000648B8EE400A80EE201A80ED001A70474B
:102170004C010020080000200080ED4404000020F5
:102180000A4840F27923002182889A420BD90278CA
:10219000521CD2B20270012A04D1017004490120FC
:1021A00081F86A0070470170704700000800002045
:1021B0004C010020FEF7F8FCFFF7E0FDFFF75CFCA8
:1021C000FFF7A6FCFFF712FD0E480D490F4A01600C
:1021D0000D490968B1FBF2F1491E4160002142F648
:1021E0000312C0E9021201618161FFF76FF808B1C3
:1021F00072B6FEE7FFF71CFC0248FFF7BFF8FEE7E8
:1022000000440140040100202800002040A5AE0247
:1022100010B50B4C40F27C61A068884204D900F0F4
:10222000D7F8062084F86A00064840F22B218088FF
:10223000884204D200F0CCF8002084F86A0010BD77
:102240004C0100200800002070B51C4C1C4E2DEDE8
:10225000028BA060B5684543E56000F0B4F941EC3D
:10226000180BF06800F0C6F99FED161B53EC112B0C
:1022700000F0D4F953EC182B00F0D0F941EC180B16
:10228000206900F0A0F953EC182B00F0C5F800F01D
:102290006BF92061284440F30F304FF42A718842D3
:1022A00001DD084602E0432800DA43204FF0804178
:1022B000C86306490860BDEC028B70BD08000020B1
:1022C000B8010020C1C647DD20ACE83E3C04004018
:1022D00010B50D4C40F27C61A068884204D900F032
:1022E00077F8062084F86A00084840F2792180884F
:1022F000884207D906490420886100F079F8032054
:1023000084F86A0010BD00004C0100200800002085
:10231000000002400D48D0E900128A4203D9511A48
:102320008162012102E0891A8162002180F868102F
:10233000D0E90A210A44A2EB1121C162090A016312
:102340000348C288914200D9C18070474C010020E7
:10235000080000200E4810B5828840F27923002141
:102360009A4208D94288521C92B242800A2A03D962
:102370000122027003E041800278012A07D14180E6
:10238000017000F035F80349022081F86A0010BDA1
:10239000080000204C0100200C4890F86A10072922
:1023A00012D2DFE801F00406080A11110C00FFF751
:1023B000E7BEFFF7CFBFFFF78BBFFFF729BF0621AF
:1023C00080F86A1000F004B8704700004C0100204B
:1023D00010B500210448FFF7AFFABDE81040002116
:1023E0000248FFF7A9BA000074000020BC000020DA
:1023F00010B500210648FFF747FA04210448FFF70B
:1024000037F9BDE8104000210248FFF73DBA00004F
:1024100074000020BC00002010B591EA030F48BFF3
:1024200083F0004300F10082841A71EB030C05D2A3
:10243000121943EB0C03001B61EB0C01DFF824E1E4
:102440004FEA1154A4EB135C1EEA430F18BF9EEA37
:10245000445F73D023EA0E03DCF1200E21EA04511D
:1024600043F4801332D322FA0CFE10EB0E0023FA51
:102470000CFE41EB0E01CCF1200E03FA0EFE10EB28
:102480000E0051F10001B1F5801FCCF1200E32D2C7
:1024900001EB045112FA0EF2BDE8104058BF70472C
:1024A000401C38BF5FEA420218BF7047002814BFC3
:1024B00020F0010041F100014FEA410313F5001F34
:1024C00038BF7047A1F1C04100F0A0B9012A43EB29
:1024D0000302ACF1200CDCF11F0E32BF4FF0000EF6
:1024E00023FA0CF310EB030041EB0451B4EB115F42
:1024F000D0D0A1EB045101F5801149085FEA30000A
:1025000001EB04510ED350F1000038BF12FA0EFE59
:1025100008D1BDE81040C9E7401C38BF5FEA42025D
:10252000CAD1C3E7BDE810404FEA410313F5001FCD
:1025300038BF7047A1F1C04100F068B99EEA445F1E
:1025400008D011EA5E0FBDE8104004BF01F0004161
:1025500000207047BDE8104070B500F009F900BFD9
:1025600064FBBE3E0000E0FF4FEA41034FEA5353D5
:10257000A3F58063D3F11E03C8BFD3F1210C0CDD9A
:102580004FF0004242EAC12242EA505232FA03FCC2
:102590008CEAE17CACEBE1707047102BC4BF0020EB
:1025A000704703F5787CBCF1FF3F04D06FF0004228
:1025B00082EA2100704770B500F0DAF84992248071
:1025C00000207047F2E710F0004248BF4042B0FAE6
:1025D00080F310FA03F10AD0C3F11D0303F5806301
:1025E0004FEA415002EB035202EBD12170474FF00A
:1025F00000007047B0FA80F310FA03F10AD0C3F17B
:102600001D0303F580634FEA41504FEA035202EB8A
:10261000D12170474FF0000070470000DFF848C13B
:1026200070B51CEA111E1EBF1CEA13159EEA0C0FA2
:1026300095EA0C0F00F06F8081EA030423EA4C1343
:102640004EEAD47E21EA4C1141F4801143F4801308
:10265000AE44A1FB024CA0FB0365AEF17F7E3619B0
:1026600055EB0C05A1FB034C4CF10003A0FB021C35
:1026700016EB0C06654153F10003094218BF46F002
:10268000010613F4007F0BD14FEA03314FEA053006
:10269000340341EA155140EA16506FF003020AE094
:1026A0004FEAC3214FEAC520F40241EA555140EAFE
:1026B00056506FF0020202EB2E4201EB025585EA02
:1026C000CE710AD05FEA440C18BF24F0004450F1E8
:1026D000000041F1000120EAD47040F2FE7C624526
:1026E00000D270BDA84214BF4FF080444FF0404468
:1026F000002E08BF0024BEF1806FA8BFA1F1C04129
:10270000BDE8704080F282804FF0000001F1C041CE
:1027100001F0004170479EEA0C0F0CEA131518BF38
:1027200095EA0C0F06D04FF0000081EA030E0EF080
:10273000004170BD00F01CF88900013E00F007B8B0
:1027400000F009B84FEA430C5FEA5C5C08D081EA0C
:10275000030100F05BB84FEA410C5FEA5C5CF6D124
:102760004FF00000014970470000FF070000F87FAC
:102770000EF1020E2EF0030E5EF8046B364205D405
:10278000012A43EB030515F5001F12D8012841EB80
:10279000010C1CF5001F0CD80ED14FEAD17C15F5A9
:1027A000001F0CEB4C0C0CF1020C08BF4CEBD37C63
:1027B00004E04FF0080C01E04FEAD37C0CEB4C0531
:1027C00026FA05F606F00706B6F1040C06D20EEB63
:1027D000860CBDE870404CF0010C6047DFE80CF05F
:1027E000090B02024FF000414FF00000A1F500215B
:1027F00070BD19461046012851EB010418BFD4F5ED
:10280000001484BF002001F0004170BD0808A0F54D
:1028100000114FEA3101704710B591EA030F48BF2C
:1028200083F000433FF500AE841A71EB030C07D22E
:1028300012198CF0004C43EB0C03001B61EB0C01F4
:10284000DFF8A4E14FEA1154A4EB135C1EEA430F36
:1028500018BF9EEA445F00F0B08023EA6E03524244
:1028600021EA0451C3EB6E0338BF5B1EDCF1200E7E
:1028700025D322FA0CFE10EB0E0043FA0CFE41EBBE
:102880000E01CCF1200E03FA0EFE10EB0E0051F1FA
:102890000001CCF1200E29D412FA0EF201EB045102
:1028A000BDE8104058BF7047401C1CBFB2F1004F3C
:1028B000704700280CBF491C20F00100704712EB44
:1028C000020E43EB030218BF4FF0010E4EEA420224
:1028D000ACF1200CDCF11E0E54D943FA0CFE10EBC7
:1028E0000E0051F1FF31CCF11E0ED5D50EF1010EC7
:1028F00012FA0EFE404141EB010101EB445C5FEA3C
:102900005C5C10D910EBDE7001EB045138BFBEF1F6
:10291000004FBDE8104018BF704700280CBF491C8D
:1029200020F00100704730D24FEAD42C11F500118D
:1029300024F400641BD0B1FA81F20B3AA41AA41E4D
:10294000D2F12003914030FA03F31943904001EB98
:10295000CC71002C01EB0451BDE81040A8BF7047BA
:1029600001F1C0414FF0000001F000417047B0FAA2
:1029700080F310FA03F100D110BDE41A173C4805AA
:10298000C90AE4E701EB045110BD491001EB045101
:10299000BDE810404FEA300002E04FF00001704700
:1029A0004A0008BF0042F8D0B2F5001F28BF7047A8
:1029B00001F000414FF0000070479EEA445F07D0ED
:1029C00011EA5E0FBDE8104004BF002100207047EF
:1029D000BDE8104070B5FFF7CBFE00BF40DFF63E0C
:1029E00083F00041104670470000E0FF4FF0407058
:1029F000E1EE100A70470000000000000000010234
:102A00000304060708090000282A00080000002027
:102A10002C000000D0010008542A00082C000020DF
:102A200004080000EC0100080000000000000000A5
:102A30000000000000000000000000000000000096
:102A40000000000001000000100000000000000075
:042A50000024F4006A
:040000050800019559
:00000001FF
