:020000040800F2
:10000000380A002025030008AB1C000899180008D6
:10001000A91C000845060008D121000800000000C6
:100020000000000000000000000000006502000861
:100030004706000800000000C1020008AD1C0008CF
:100040003F0300083F0300083F0300083F03000888
:100050003F0300083F0300083F0300083F03000878
:100060003F0300083F0300083F0300083F03000868
:100070003F0300083F0300083F0300083F03000858
:100080003F0300083F0300083F0300083F03000848
:100090003F0300083F0300083F0300083F03000838
:1000A0003F0300083F0300083F0300083F03000828
:1000B0003F0300083F0300083F0300083F03000818
:1000C0003F0300083F0300083F0300083F03000808
:1000D0003F0300083F0300083F0300083F030008F8
:1000E0003F0300083F0300083F0300083F030008E8
:1000F0003F0300083F0300083F0300083F030008D8
:100100003F0300083F0300083F0300083F030008C7
:100110003F0300083F0300083F0300083F030008B7
:100120003F0300083F0300083F0300083F030008A7
:100130003F03000800000000000000003F0300082B
:100140003F0300083F0300083F0300083F03000887
:100150003F0300083F0300083F0300083F03000877
:100160003F0300083F0300083F0300083F03000867
:100170003F0300083F0300083F03000800000000A1
:10018000000000003F030008000000000000000025
:100190003F03000800000000000000003F030008CB
:1001A0000000000000000000000000003F03000805
:1001B0003F0300083F0300083F0300083F03000817
:1001C0003F03000800F002F800F03CF80AA090E8B5
:1001D000000C82448344AAF10107DA4501D100F002
:1001E00031F8AFF2090EBAE80F0013F0010F18BF93
:1001F000FB1A43F0010318470C2300002C230000D6
:10020000103A24BF78C878C1FAD8520724BF30C842
:1002100030C144BF04680C60704700000023002414
:1002200000250026103A28BF78C1FBD8520728BF06
:1002300030C148BF0B6070471FB502F051F91FBDB8
:1002400010B510BD00F02FF91146FFF7F5FF01F0D2
:10025000D1FF00F04DF903B4FFF7F2FF03BC00F04B
:1002600055F900002C4B19680868B0E8F04F80F38E
:100270000988BFF36F8F4FF0000080F3118870473B
:100280000000000008480068006880F308884FF00C
:10029000000080F3148862B661B6BFF34F8FBFF3DE
:1002A0006F8F00DF00BF00BF08ED00E0DFF80C003B
:1002B000016841F470010160704700BF88ED00E003
:1002C000EFF30980BFF36F8F134B1A681EF0100F06
:1002D00008BF20ED108A20E9F04F106009B44FF0FC
:1002E000500080F31188BFF34F8FBFF36F8F02F080
:1002F0003FF84FF0000080F3118809BC19680868C6
:10030000B0E8F04F1EF0100F08BFB0EC108A80F379
:100310000988BFF36F8F704728000020EFF3058036
:10032000704700000948804709480047FEE7FEE79C
:10033000FEE7FEE7FEE7FEE7FEE7FEE7FEE7FEE795
:1003400004480549054A064B70470000651D000832
:10035000C501000838040020380A002038060020B3
:100360003806002053EA020C00F069802DE9F04BBA
:100370004FF00006002B1FBFB3FA83F503FA05F414
:1003800024FA05F65E4012BF1643B2FA82F502FA6D
:1003900005F4C5F120051EBF22FA05FC44EA0C0451
:1003A000203556EA044C4FEA144418BF641C4FF041
:1003B00000084FF00009904271EB030C39D300297B
:1003C00019BFB1FA81F701FA07F6B0FA80F700FA1F
:1003D00007F6C7F120071EBF20FA07FC46EA0C0605
:1003E0002037B6FBF4FCA7EB0507103F07F01F0B07
:1003F000CBF120060CFA0BFB2CFA06F644BFB346F1
:100400000026202FA4BF5E464FF0000B5BEA060CCF
:1004100008BF4FF0010B19EB0B09ABFB027C48EB5B
:100420000608C01B06FB02CC0BFB03CC71EB0C01D6
:10043000C1E70B46024641464846BDE8F08B13B57E
:100440004FF000004FF00001AFF30080BDE81C400A
:1004500070474FF0000200B5134694469646203987
:1004600022BFA0E80C50A0E80C50B1F12001BFF46D
:10047000F7AF090728BFA0E80C5048BF0CC05DF8D3
:1004800004EB890028BF40F8042B08BF704748BF21
:1004900020F8022B11F0804F18BF00F8012B704795
:1004A000704770477047754600F02CF8AE4605005F
:1004B0006946534620F00700854618B020B5FFF77F
:1004C0003FFFBDE820404FF000064FF000074FF01F
:1004D00000084FF0000B21F00701AC46ACE8C00962
:1004E000ACE8C009ACE8C009ACE8C0098D4670476B
:1004F00010B50446AFF300802046BDE81040FFF77A
:10050000AABE000000487047D80300200149182007
:10051000ABBEFEE72600020070470000464910B55A
:100520004A6822F440324A604A6843681A434A6083
:1005300001684A6822F480724A6001684A68036967
:1005400042EA03224A6001684A6822F040724A6027
:1005500001684A6883681A434A6001688A6822F41D
:1005600000628A6001688A68C3681A438A60816A87
:100570006FF07062D14201688A6822F070628A600E
:1005800001688A680CD0836A1A438A6001688A68A5
:1005900022F040528A6001688A68C36A1A4301E007
:1005A00022F040528A6001688A6822F002028A6062
:1005B00001688A68037E42EA43028A6090F820104C
:1005C000002901684A680FD042F400624A6001685D
:1005D0004A6822F460424A6001684A68174C436ADC
:1005E00004EB43331A4301E022F400624A600168DD
:1005F000CA6A22F47002CA620168CA6A838B104C0C
:1006000004EB03531A43CA6201688A6822F4007239
:100610008A6001688A6890F8303042EA43228A6032
:1006200001688A6822F480628A6001688A68406989
:1006300042EA8020886010BD0023014000E0FFFFF7
:100640000000F0FFFEE7704770B504004FF00005B2
:1006500003D0206C002610B107E0012070BD2046B9
:1006600000F01CF8666484F83C60206CC00610D46E
:10067000206C20F4885040F0020020642046FFF7F0
:100680004DFF6664206C20F0020040F00100206401
:1006900000E0012584F83C60284670BD30B587B085
:1006A000044614216846FFF7D4FE194920688842A1
:1006B0002CD118480024016841F480710160006861
:1006C00000F48070059013481438016841F001016E
:1006D0000160016801F001010591016841F002012A
:1006E00001600068032500F002000590C320CDE9F9
:1006F000000569460294084800F07AF80120CDE927
:10070000000569460294054800F072F807B030BD54
:100710000020014044380240000002400004024032
:1007200070B54379012B1CD0012646710223037159
:1007300005682B6802F0100440F6FE72A240934355
:10074000D1E900210A43A2401A432A6001680A68DD
:10075000C023A3409A430A600671002141710846F4
:1007600070BD022070BD70B5040003D02079002553
:1007700010B105E0012070BD6571204600F008F859
:1007800002202071256101202071002070BD000031
:1007900010B586B0044614216846FFF75AFE114989
:1007A000206888421CD110480021026842F00052A3
:1007B0000260006800F0005005900B481038026895
:1007C00042F001020260006800F001000590102074
:1007D00000900320CDE901016946044800F008F8C3
:1007E00006B010BD007400404038024000000240D6
:1007F0002DE9F84FDFF8ACA10022012403254FF0CA
:100800000F090AF1040BAAF1040E00BF0B6804FAE9
:1008100002F63340B3426ED10F7907F00307012F80
:1008200001D0022F16D187684FEA420805FA08FC6A
:1008300027EA0C07D1F80CC00CFA08FC4CEA070CAC
:10084000C0F808C04768B7430E79C6F30016964053
:100850003E4346600E79F643B6070AD0C6684FEAB3
:10086000420C05FA0CF7BE438F6807FA0CF73743C2
:10087000C7600E7906F00306022E10D1D60800EBF1
:100880008608D8F8206057074FEAD76C09FA0CF7AA
:10089000BE430F6907FA0CF73743C8F820700668A3
:1008A0004FEA420C05FA0CF7BE430F7907F0030735
:1008B00007FA0CF7374307604E6816F4403F6BD0D9
:1008C000394E376847F480473760366822F00307AF
:1008D00006F480460096354E07EB060CDCF80868F7
:1008E00097074FEA177809FA08F7BE43304FB84226
:1008F00002D100271FE04FE02E4FB84201D101275F
:1009000019E02D4FB84201D1022714E02B4FB84215
:1009100001D103270FE02A4FB84201D104270AE092
:10092000284FB84201D1052705E0274FB84201D131
:10093000062700E0072707FA08F73743CCF80878BE
:10094000DAF800605746D1F804C09E435FEACC2C29
:1009500000D51E433E60DBF800605F46D1F804C05E
:100960009E435FEA8C2C00D51E433E60DEF800609B
:100970007746D1F804C09E435FEA8C3C00D51E4305
:100980003E60084F083F3E68D1F804C09E435FEACE
:10099000CC3C00D51E433E60521C102AFFF436AFFB
:1009A000BDE8F88F083C0140443802400030014067
:1009B000000002400004024000080240000C024017
:1009C0000010024000140240001802400AB1816188
:1009D00070470904FBE70000014880687047000089
:1009E0001800002002488168027811448160704735
:1009F000180000200B4810B5016841F40071016037
:100A0000016841F480610160016841F48071016016
:100A1000032000F065F80F2000F006F800F024F83D
:100A2000002010BD003C024070B50D4D04464FF44F
:100A30007A712878B1FBF0F00A490968B1FBF0F04F
:100A400000F068FB48B9102C07D200222146501E46
:100A500000F026F800206C6070BD012070BD000021
:100A600018000020240000200C4882B0016841F4E6
:100A700080410160006800F4804000900748001F3A
:100A8000016841F0805101600068002200F0805050
:100A900000900F21901E02B000F002B844380240CE
:100AA000F0B40E4B1B680C46C3F30223C3F10705D9
:100AB000042D00D90425191D072901D2002300E0C7
:100AC000DB1E012606FA05F1491E214099409E4091
:100AD000761E16403143F0BC01F07BBB0CED00E00C
:100AE000064900F0070208684FF6FF03184040EA85
:100AF0000220034A10430860704700000CED00E03C
:100B00000000FA052DE9F8431748016841F08051CB
:100B100001600068154F00F08050012600903E648F
:100B2000FFF75AFF05464FF47A78114C05E000BFF5
:100B3000FFF752FF401B40450DD86068C003F7D552
:100B40007E64FFF749FF0546464607E0FFF744FF8E
:100B5000401BB04202D90320BDE8F88360688003DF
:100B6000F4D50020F8E700004038024000000E42B3
:100B7000007000402DE9F0470E46050065D0DFF813
:100B80001481D8F80000F7B200F00F00B04207D28D
:100B900088F80070D8F8000000F00F00B04254D17F
:100BA00028683D4C810712D5400703D5206840F4E2
:100BB000E05020602878000703D5206840F46040AA
:100BC00020602068A96820F0F000084320602878A1
:100BD000C0072DD0304968680839012812D0022892
:100BE00013D0032811D00968890700292DDA21685C
:100BF00021F0030101432160FFF7EEFE814641F23F
:100C0000883A0EE009688903EFE709688901ECE793
:100C1000FFF7E2FEA0EB0901514502D90320BDE830
:100C2000F0872068696800F00C00B0EB810FEFD10D
:100C3000D8F80010404601F00F01B14207D9077003
:100C4000006800F00F00B04201D00120E7E72878EB
:100C5000400705D52068E96820F4E050084320608B
:100C60002878000706D52068296920F4604040EA0A
:100C7000C100206000F038F82168084AC1F3031170
:100C8000515CC8400649086006480068FFF7CCFE82
:100C90000020C4E7003C024008380240EA24000873
:100CA000240000201C000020044805490068096851
:100CB000044AC1F38221515CC840704724000020DF
:100CC00008380240FA240008044805490068096809
:100CD000044AC1F34231515CC840704724000020EF
:100CE00008380240FA240008224810B5006810F0C5
:100CF0000C02214815D04110042A11D01D4C241F8C
:100D0000082A0FD00C2A0CD12268236802F03F0277
:100D10005B0221D52068C0F38810A0FB010120E010
:100D2000084610BD2268236802F03F025B0205D529
:100D30002068C0F38810A0FB010104E02168C1F322
:100D40008811A1FB00010023FFF70CFB2168C1F310
:100D50000141491C49000AE02168C1F38811A1FB47
:100D600000010023FFF7FEFA2168C1F30271B0FB16
:100D7000F1F010BD083802400024F4002DE9F84FCE
:100D800004007DD0DFF878B32078ABF10407C0070A
:100D9000A7F1040550D0DBF800105846C1F38101DB
:100DA00001290FD00168C1F38101022902D13968FC
:100DB000490207D40068C0F38100032809D13868CC
:100DC000400206D52868800336D560680028D8D050
:100DD00032E06068B0F5803F10D0B0F5A02F2868F1
:100DE00010D020F480302860286820F4802028600B
:100DF0006068A0B1FFF7F0FD06460CE0286840F4FB
:100E00008030F4E740F480202860F7E7FFF7E4FD46
:100E1000801B642876D828688003F7D50CE0FFF79C
:100E2000DBFD064605E000BFFFF7D6FD801B64280A
:100E3000F0D828688003F7D42078DFF8C8928007BC
:100E40004FF0000A44D5DBF80010584611F00C0FA3
:100E50000FD00168C1F38101022902D1396849022A
:100E600007D50068C0F3810003280AD13868400222
:100E700007D42868800715D5E068012800D111E063
:100E80003AE1E068B0B10120C9F80000FFF7A4FD25
:100E9000064604E0FFF7A0FD801B0228BAD82868A8
:100EA0008007F7D52868216920F0F80040EAC100E2
:100EB00028600DE0C9F800A0FFF78EFD064604E0AB
:100EC000FFF78AFD801B02281CD828688007F7D40A
:100ED0002078000727D5DFF828828B48616908F160
:100EE0006C0881B101210160FFF776FD064604E040
:100EF000FFF772FD801B022804D8D8F80000800795
:100F0000F6D510E089E0C0F800A0FFF765FD0646C1
:100F100005E000BFFFF760FD801B02287DD8D8F8F0
:100F200000008007F6D42078400769D574484FF058
:100F3000000838300068C0000BD4714838300168B0
:100F400041F08051016000684FF0010800F08050CE
:100F500000906E4E3068C00511D4306840F4807047
:100F60003060FFF739FD009006E000BFFFF734FD69
:100F70000099401A022850D83068C005F6D5604E56
:100F8000A068683601280FD00528306810D020F0FE
:100F900001003060306820F004003060A068B8B113
:100FA000FFF71AFD00900FE0306840F00100F4E711
:100FB00040F004003060F7E7FFF70EFD0099411A9A
:100FC00041F28830814264D830688007F4D50EE061
:100FD000FFF702FD009007E0FFF7FEFC0099411AC1
:100FE00041F28830814254D830688007F4D4B8F197
:100FF000000F05D042483830016821F0805101606F
:10100000A069A8B3DBF80010C1F38101022947D021
:101010000228C9F860A005D000E03AE0FFF7DCFC48
:10102000044639E0FFF7D8FC064604E0FFF7D4FC9D
:10103000801B02282DD828688001F7D4F4E9070125
:101040000843E168324A490802EB0141A26841EADB
:1010500082110843217C40EA0160217D40EA017051
:1010600038600120C9F86000FFF7B6FC044606E0CE
:1010700044E000BFFFF7B0FC001B022809D8286835
:101080008001F7D53AE000BFFFF7A6FC001B02285D
:1010900002D90320BDE8F88F28688001F4D42DE040
:1010A0000128F7D03868E26900F48001914223D129
:1010B000226A00F03F0191421ED147F6C071626A78
:1010C0000140B1EB821F17D1A26A4FF0FF3300F449
:1010D000403103EB5202B1EB024F0DD194F82C20BA
:1010E00000F07061B1EB026F06D194F8301000F09F
:1010F000E040B0EB017F01D00120CBE70020C9E741
:101100000838024000004742800E4742007000400D
:101110000000FFFF10B5401EB0F1807F01D3012019
:1011200010BD4FF0E02460610F21601701F051F80D
:101130000020A06107202061002010BD10B590F8AC
:101140003C20012A22D0012280F83C20CA688C6809
:1011500022F4407222434C6822F4806222430C68DD
:1011600022F4006222430C6922F4805222434C692B
:1011700022F400522243C969002322F480420A4328
:1011800001684A6480F83C30002010BD022010BD88
:1011900070B590F83C20012A32D0012480F83C4000
:1011A000022280F83D2003685A689D6822F070068C
:1011B0000A6832435A60134B02689A4214D0B2F163
:1011C000804F11D0104B9A420ED0104B9A420BD048
:1011D0000F4B9A4208D00F4B9A4205D00E4B9A42C1
:1011E00002D00E4B9A4204D1496825F0800319437E
:1011F000916080F83D40002180F83C10084670BDA9
:10120000022070BD000001400004004000080040C2
:10121000000C004000040140004001400018004064
:1012200010B5040003D094F83D0010B107E0012090
:1012300010BD002084F83C00204600F01FF802207A
:1012400084F83D00211D206800F094FD012084F801
:10125000460084F83E0084F83F0084F8400084F89B
:10126000410084F8420084F8430084F8440084F884
:10127000450084F83D00002010BD000008B501685D
:101280001248B1F1804F0BD0114A914210D1016840
:1012900041F002010160006800F00200009008BD0A
:1012A000016841F001010160006800F00100F5E70C
:1012B00008488142F3D10548001D016841F400311E
:1012C0000160006800F40030E8E7000040380240A8
:1012D000000400400044014070B586B0044614216B
:1012E0006846FFF7B6F8214825680021204A022306
:1012F0000124854211D1106840F00100106010688F
:1013000000F0010005904FF4C0700090CDE901316C
:10131000CDE903146946174814E01748B5F1804F2A
:1013200014D0164EB5420FD1156845F00205156070
:101330001268009402F002020592CDE90131CDE974
:1013400003136946FFF754FA06B070BD156845F0FF
:1013500002051560126802F0020205924FF48062E5
:101360000092CDE90131CDE90314EAE70000014024
:1013700030380240000002400004024000040040F7
:1013800070B5044690F83C00002501280FD00120DC
:1013900084F83C006AB1042A0FD0082A11D00C2A24
:1013A00013D00125002084F83C00284670BD02209F
:1013B00070BD206800F05AFDF4E7206800F086FD5B
:1013C000F0E7206800F0B8FDECE7206800F0E8FDE9
:1013D000E8E710B5040003D094F83D0010B107E031
:1013E000012010BD002084F83C00204600F01EF8CB
:1013F000022084F83D00211D206800F0BBFC012084
:1014000084F8460084F83E0084F83F0084F84000E9
:1014100084F8410084F8420084F8430084F84400D2
:1014200084F8450084F83D00002010BD704700009E
:1014300010B50446022249B104290ED0082913D060
:1014400094F84100012816D0012010BD94F83E0008
:101450000128F9D184F83E200FE094F83F000128DC
:10146000F2D184F83F2008E094F840000128EBD145
:1014700084F8402001E084F841200122206800F037
:10148000DDFC16492068164A884201D0904203D1FB
:10149000436C43F4004343642068884213D0B0F1A6
:1014A000804F10D00F4988420DD00F4988420AD092
:1014B0000E49884207D0904205D00D49884202D09B
:1014C0000C49884204D1816801F00701062903D044
:1014D000016841F001010160002010BD00000140E1
:1014E000000401400004004000080040000C0040DF
:1014F000004001400018004070B5044690F83C00E0
:1015000000260D4601280FD0012084F83C006AB166
:10151000042A1DD0082A2FD00C2A3FD001260020F3
:1015200084F83C00304670BD022070BD206800F099
:101530009DFC2068816941F0080181612068816912
:1015400021F004018161206881692A69114311E059
:10155000206800F0BBFC2068816941F40061816172
:101560002068816921F480618161206881692A692C
:1015700041EA02218161D2E7206800F0DDFC2068A9
:10158000C16941F00801C1612068C16921F004010D
:10159000C1612068C1692A69114311E0206800F027
:1015A000FFFC2068C16941F40061C1612068C16924
:1015B00021F48061C1612068C1692A6941EA022180
:1015C000C161ACE710B5040003D094F83D0010B140
:1015D00007E0012010BD002084F83C00204600F008
:1015E0001FF8022084F83D00211D206800F0C2FB96
:1015F000012084F8460084F83E0084F83F0084F817
:10160000400084F8410084F8420084F8430084F8E4
:10161000440084F8450084F83D00002010BD00001F
:1016200008B500680649884208D10648016841F0BB
:1016300001010160006800F00100009008BD000099
:10164000000001404438024010B50446022249B16E
:1016500004290ED0082913D094F84100012816D08F
:10166000012010BD94F83E000128F9D184F83E20F5
:101670000FE094F83F000128F2D184F83F2008E001
:1016800094F840000128EBD184F8402001E084F870
:1016900041200122206800F0D1FB16492068164A3B
:1016A000884201D0904203D1436C43F40043436429
:1016B0002068884213D0B0F1804F10D00F49884283
:1016C0000DD00F4988420AD00E49884207D0904277
:1016D00005D00D49884202D00C49884204D1816866
:1016E00001F00701062903D0016841F00101016002
:1016F000002010BD00000140000401400004004033
:1017000000080040000C004000400140001800406C
:1017100070B5044690F83C00012812D0012584F8E9
:101720003C50022084F83D00204600F061FC01009E
:101730004FF0000007D084F83D5084F83C000120B1
:1017400070BD022070BD2168CA6822F04002CA60E4
:101750002168CA6822F48042CA6084F83D5084F847
:101760003C00002070BD70B5040004D094F83D002A
:10177000002510B106E0012070BD84F83C502046E1
:1017800000F022F8242084F83D002068C16821F48C
:101790000051C160204600F095FC2068016921F4E9
:1017A000904101612068416921F02A01416120686E
:1017B000C16841F40051C1602564202084F83D00D7
:1017C00084F83E00002070BDF0B587B004461421B7
:1017D0006846FEF73EFE2A4A216800242948022571
:1017E00003260727914217D1264914310A6842F08F
:1017F00010020A60096801F010010591016841F0CA
:10180000010101600068694600F001000590700266
:10181000CDE900051C482CE01C4A91422ED1194903
:1018200010310A6842F480220A60096801F48021BC
:101830000591016841F004010160016801F00401B3
:101840000591016841F002010160006802AA00F000
:10185000020005902020CDE9000582E8D00069460D
:101860000B48FEF7C5FF4FF48060CDE9000509483D
:10187000694602AA82E8D000FEF7BAFF07B0F0BDC1
:101880000010014030380240000002400048004093
:101890000008024000040240FEE700000A49002060
:1018A0004FF4804281F86A0008498A605200CA6099
:1018B00040F2FF320A6006224A6005490880054965
:1018C000088005490880704768020020D402002083
:1018D000060000200A000020080000200F4810B574
:1018E0000D4A026000214FF48032C0E9012101223B
:1018F0000261027680F82010094BC0E90A31C2610A
:10190000C16080F830104261FEF79EFE002801D0D1
:1019100072B6FEE710BD0000002001406400002008
:101920000100000F70B586B014216846FEF791FDE6
:101930002A480024016841F004010160016801F0B7
:1019400004010591016841F080010160016801F026
:1019500080010591016841F001010160016801F019
:1019600001010591016841F00201016000681C4E0F
:1019700000F002000590002220213046FFF726F8F3
:101980004FF4005000904FF40410CDE90104694673
:101990001448FEF72DFF0C2000900220CDE9010431
:1019A000032003900720049069463046FEF720FF8D
:1019B000202000900125CDE901546946304603946A
:1019C000FEF716FF12200090CDE901546946064843
:1019D0000394FEF70DFF06B070BD000030380240E2
:1019E00000000240000802400004024010B592B01E
:1019F00000240F941C2168461094FEF72AFD202134
:101A000007A8FEF726FD2E482C492F4A01602D49D4
:101A10000968B1FBF2F1491EC0E9011440F2E73157
:101A2000C0E9031444618461FFF7CCFD08B172B6CC
:101A3000FEE72348FFF7CDFC08B172B6FEE7502061
:101A4000CDE90F040FA91E48FFF7A2FB08B172B63B
:101A5000FEE760200090642001900220CDE902049E
:101A6000049405940022694615480694FFF744FD46
:101A700008B172B6FEE7102000904FF4FA700190A2
:101A8000042269460E48FFF77BFC08B172B6FEE7F8
:101A90000794089409944FF400500A94CDE90B4040
:101AA00007A907480E94FFF749FB08B172B6FEE795
:101AB0000348FFF711FC12B010BD00000000014008
:101AC000C00000202400002040FF100510B596B093
:101AD00014210FA8FEF7BDFC002414941C216846B5
:101AE0001594FEF7B6FC202107A8FEF7B2FC344897
:101AF0004FF08041344A016032490968B1FBF2F18C
:101B0000491EC0E9011440F2E731C0E903148461C1
:101B1000FFF786FB08B172B6FEE72948FFF752FDD2
:101B200008B172B6FEE72648FFF753FC08B172B65B
:101B3000FEE70620CDE90F040FA92148FFF7E8FDD5
:101B400008B172B6FEE77020CDE9140414A91C4850
:101B5000FFF71EFB08B172B6FEE76020009064201C
:101B6000CDE901040822694615480494FFF7C4FC36
:101B700008B172B6FEE7102000904FF4FA700190A1
:101B80000C2269460E48FFF7FBFB08B172B6FEE770
:101B9000079496200894CDE909404FF40050CDE910
:101BA0000B40074807A948380E94FFF7C7FA08B159
:101BB00072B6FEE70248FFF78FFB16B010BD0000BB
:101BC000080100202400002040FF100510B596B049
:101BD00014210FA8FEF73DFC002414941C2108A832
:101BE0001594FEF736FC20216846FEF732FC2B48A0
:101BF00029492C4A01602A490968B1FBF2F1491EC2
:101C0000C0E9011440F2E731C0E903148461FFF731
:101C100007FB08B172B6FEE72048FFF7D3FC08B116
:101C200072B6FEE706200F90102010900FA91B48F7
:101C3000FFF76EFD08B172B6FEE7149414A91748B9
:101C40001594FFF7A5FA08B172B6FEE76020089078
:101C50004FF4FA70CDE90904082208A90F480C9442
:101C6000FFF74AFC08B172B6FEE700944FF400504B
:101C7000CDE90440094802940194039469469038E0
:101C80000794FFF75BFA08B172B6FEE70348FFF767
:101C900023FB16B010BD00000004004050010020DE
:101CA0002400002040FF1005FEE7FEE710B5FEF718
:101CB00099FE00F0A1FB012803D0BDE8104000F020
:101CC00085BB10BD30B593B034216846FEF7C1FB2B
:101CD00014210DA8FEF7BDFB20480025016841F046
:101CE00080510160006800F0805012901C4801682B
:101CF00041F4404101600068022400F44040129029
:101D00000120039010200490009406940820CDE94F
:101D10000750AA20CDE909040B9468460C94FFF7FC
:101D20002DF808B172B6FEE7FEF7ECFE08B172B608
:101D3000FEE70DA90F2081E831004FF4A05010906C
:101D40004FF48050119005210DA8FEF713FF0028D5
:101D500001D072B6FEE713B030BD0000403802403B
:101D6000007000400248016841F470010160704752
:101D700088ED00E0F0B50268254C264D264E274F31
:101D8000274B4FF0804CA04209D0604507D0A842B5
:101D900005D0B04203D0B84201D0984204D122F01D
:101DA000700E4A6842EA0E02A0421BD0604519D06C
:101DB000A84217D0B04215D0B84213D0984211D0E3
:101DC000184DA8420ED0184DA8420BD0174DA8426E
:101DD00008D0174DA84205D0164DA84202D0164D86
:101DE000A84203D122F44075CA682A434D6922F003
:101DF00080022A4302608A68C2620A688262A04244
:101E000001D0984201D10969016301214161F0BD0E
:101E1000000001400004004000080040000C0040A9
:101E200000040140004001400044014000480140DE
:101E300000180040001C00400020004010B501F0D8
:101E40001F030121046A99408C430462016A9A408D
:101E50001143016210BD10B5846842EA032224F4E4
:101E60007F440A432243826010BD0000F0B5026A3D
:101E700022F001020262036A42688469124E24F071
:101E800073050C682C4323F002058B682B430D4D22
:101E9000A84201D0B04205D123F00807CB683B43EC
:101EA00023F00403A84201D0B04205D14D6922F4C9
:101EB000407215438A692A434260846149684163DC
:101EC0000362F0BD0000014000040140F0B5026A69
:101ED00022F010020262026A436884690D6824F4E9
:101EE000E64444EA05248D6822F0200242EA051205
:101EF0000F4D104EA84201D0B04206D1CF6822F05B
:101F0000800242EA071222F04002A84201D0B04209
:101F100007D14D6923F4406343EA85038D6943EAA1
:101F2000850343608461496881630262F0BD0000FB
:101F30000000014000040140F0B5026A22F4807202
:101F40000262026A4368C46922F4007224F07305D5
:101F50000C68124E2C438D6842EA05220E4DA842B1
:101F600001D0B04206D1CF6822F4006242EA0722D3
:101F700022F48062A84201D0B04207D14D6923F417
:101F8000405343EA05138D6943EA05134360C46176
:101F90004968C1630262F0BD0000014000040140D5
:101FA00030B5026A22F480520262046A4268C36950
:101FB0000D6823F4E64343EA05238D6824F40054B6
:101FC00044EA0534084DA84202D0084DA84204D185
:101FD0004D6922F4804242EA85124260C361496839
:101FE0000164046230BD00000000014000040140B3
:101FF00070B5036800249A6822F070054A682A4385
:1020000022F007050A682A439A604A6812F00F0F07
:1020100031D11211082A2ED2DFE802F02E2E2E2EF8
:102020000B2127040B69D1E902210068FFF713FF98
:1020300022E00A68052A10D00268136A156A25F0A2
:102040000105156202689569096925F0F00545EA00
:1020500001119161006803620EE0012070BD0A6900
:102060008968006800F00AF806E00A698968006873
:1020700000F015F800E00124204670BD10B5036A99
:10208000046A24F001040462846924F0F00444EA40
:10209000021423F00A020A438461026210BD10B5E3
:1020A000036A23F0100303628369046A23F4704314
:1020B00043EA023224F0A00343EA01118261016283
:1020C00010BD000070B5044600680169E26821F4A3
:1020D0004051114301612169A068E26908436169C7
:1020E000114308432168CA6849F20C639A430243CA
:1020F000CA6020684169A26921F4407111434161BD
:1021000031492068884202D03049884202D1FEF726
:10211000DBFD01E0FEF7C8FDE2690023192164251B
:102120003226B2F5004F626828D0A0FB0101930F60
:102130009200FEF717F90146B0FBF5F06FF01802B8
:10214000504301EB800006EB0010B0FBF5F000F00F
:10215000F002B1FBF5F002EB0012B1FBF5F06FF00D
:102160001803584301EB800006EB0010B0FBF5F0BC
:1021700000F00F0021681044886070BDA0FB0101D1
:1021800092185B41FEF7EEF80146B0FBF5F0020154
:10219000B1FBF5F06FF01803584301EB800006EB3C
:1021A000C000B0FBF5F000F0F80002EB4002B1FB1C
:1021B000F5F0584301EB800006EBC000B0FBF5F0F2
:1021C00000F00700D6E700000010014000140140B5
:1021D000FEE70907090E002804DB00F1E02080F883
:1021E0000014704700F00F0000F1E02080F8141D8B
:1021F000704700001CB5FEF7FDFBFFF763FDFFF71E
:1022000091FBFFF76BFB0024394900943748019498
:1022100008600846FEF7A7FA08B172B6FEE7009418
:102220000022694632480194FEF77AFA08B172B684
:10223000FEE731482F494FF4E1360160C0E90164FF
:102240000C25C460C0E904458461C461FFF78BFAC2
:1022500008B172B6FEE72848284944300160C0E959
:102260000164C460C0E904458461C461FFF77BFA7E
:1022700008B172B6FEE7FFF7B9FBFFF727FCFFF7DF
:10228000A5FC1D481E4948381F4A01601D490968C0
:10229000B1FBF2F1491EC0E9011442F60311C0E995
:1022A00003148461FEF7BCFF08B172B6FEE7FFF7C6
:1022B000F5FA1648002104800D481430FFF7C4F9E0
:1022C0000B4804211430FFF7B3F8094808215C30AB
:1022D000FFF7BAF906480C215C30FFF7A9F8064869
:1022E00008219038FFF7B0F9FEE7000000740040C5
:1022F000AC00002000100140E00100200048004038
:10230000004401402400002040A5AE02000000204F
:102310000648416B096829B1416BC968C9684968B9
:10232000816270474FF0FF31FAE70000280000207B
:10233000D0E9013201699A60D0E901235A604A6804
:10234000824201D182684A60002202610868401E10
:1023500008600868704742684A6093688B609368B9
:102360005960916008610168491C01607047000074
:102370001448016B11B10121C16170470021C16195
:102380000169B1FA81F1C1F11F0101EB81020E492E
:1023900051F822306BB101EB820101F108034A6868
:1023A00052684A609A4201D152684A60D16801601D
:1023B0007047502080F31188BFF34F8FBFF36F8FAA
:1023C000FEE7000028000020E802002010B55020A1
:1023D00080F31188BFF34F8FBFF36F8F00F01AF8AF
:1023E00018B104494FF080500860002080F3118834
:1023F00010BD000004ED00E00548416919B1006B13
:1024000018B100207047012070470220704700007B
:10241000280000202DE9F0412F4C0026206B28B128
:10242000A069401CA0613046BDE8F081E5686D1CE4
:10243000E56013D1606B006838B1502080F31188DB
:10244000BFF34F8FBFF36F8FFEE7606BA16B6163CC
:10245000A063206A401C2062FFF75AFFA06ADFF8E1
:102460007C80854209D3606B0068A0B1606BC06856
:10247000C7687868854211D2A0622068C06A00EB04
:10248000800158F82100012800D90126E0690028C0
:10249000C9D00126C7E74FF0FF30EDE7381DFFF741
:1024A00047FFB86A18B107F11800FFF741FFF96A52
:1024B0000120226988401043206101EB810108EB73
:1024C0008100391DFFF747FFF86A2168C96A884211
:1024D000C9D30126C7E7000028000020E802002039
:1024E0004FF04070E1EE100A70470000000000005D
:1024F00000000102030406070809000000000102B1
:1025000003040000242500080000002064000000EF
:10251000000200088825000864000020D40900009B
:102520001C02000800000000000000000000000085
:10253000000000000000000000000000010000009A
:1025400010000000000000000024F4000000000063
:10255000000000000000000000000000000000007B
:10256000000000000000000000000000000000006B
:10257000000000000000000000000000000000005B
:08258000000000000000000053
:04000005080001C529
:00000001FF
