:020000040800F2
:100000002845002025030008C71E0008991C000889
:10001000C51E0008B9060008B5230008000000004E
:100020000000000000000000000000006502000861
:10003000BB06000800000000C1020008CD1E000839
:100040003F0300083F0300083F0300083F03000888
:100050003F0300083F0300083F0300083F03000878
:100060003F0300083F0300083F0300083F03000868
:100070003F0300083F0300083F0300083F03000858
:100080003F0300083F0300083F0300083F03000848
:100090003F0300083F0300083F0300083F03000838
:1000A0003F0300083F0300083F0300083F03000828
:1000B0003F0300083F0300083F0300083F03000818
:1000C0003F0300083F0300083F0300083F03000808
:1000D0003F0300083F0300083F0300083F030008F8
:1000E0003F0300083F0300083F0300083F030008E8
:1000F0003F0300083F0300083F0300083F030008D8
:100100003F0300083F0300083F0300083F030008C7
:100110003F0300083F0300083F0300083F030008B7
:100120003F0300083F0300083F0300083F030008A7
:100130003F03000800000000000000003F0300082B
:100140003F0300083F0300083F0300083F03000887
:100150003F0300083F0300083F0300083F03000877
:100160003F0300083F0300083F0300083F03000867
:100170003F0300083F0300083F03000800000000A1
:10018000000000003F030008000000000000000025
:100190003F03000800000000000000003F030008CB
:1001A0000000000000000000000000003F03000805
:1001B0003F0300083F0300083F0300083F03000817
:1001C0003F03000800F002F800F03CF80AA090E8B5
:1001D000000C82448344AAF10107DA4501D100F002
:1001E00031F8AFF2090EBAE80F0013F0010F18BF93
:1001F000FB1A43F001031847B4320000D432000068
:10020000103A24BF78C878C1FAD8520724BF30C842
:1002100030C144BF04680C60704700000023002414
:1002200000250026103A28BF78C1FBD8520728BF06
:1002300030C148BF0B6070471FB503F021F91FBDE7
:1002400010B510BD00F02FF91146FFF7F5FF02F0D1
:10025000DDF800F04DF903B4FFF7F2FF03BC00F046
:1002600055F900002C4B19680868B0E8F04F80F38E
:100270000988BFF36F8F4FF0000080F3118870473B
:100280000000000008480068006880F308884FF00C
:10029000000080F3148862B661B6BFF34F8FBFF3DE
:1002A0006F8F00DF00BF00BF08ED00E0DFF80C003B
:1002B000016841F470010160704700BF88ED00E003
:1002C000EFF30980BFF36F8F134B1A681EF0100F06
:1002D00008BF20ED108A20E9F04F106009B44FF0FC
:1002E000500080F31188BFF34F8FBFF36F8F02F080
:1002F000E3FC4FF0000080F3118809BC196808681E
:10030000B0E8F04F1EF0100F08BFB0EC108A80F379
:100310000988BFF36F8F704728000020EFF3058036
:10032000704700000948804709480047FEE7FEE79C
:10033000FEE7FEE7FEE7FEE7FEE7FEE7FEE7FEE795
:1003400004480549054A064B70470000851F000810
:10035000C5010008283F0020284500202841002032
:100360002841002053EA020C00F069802DE9F04B8F
:100370004FF00006002B1FBFB3FA83F503FA05F414
:1003800024FA05F65E4012BF1643B2FA82F502FA6D
:1003900005F4C5F120051EBF22FA05FC44EA0C0451
:1003A000203556EA044C4FEA144418BF641C4FF041
:1003B00000084FF00009904271EB030C39D300297B
:1003C00019BFB1FA81F701FA07F6B0FA80F700FA1F
:1003D00007F6C7F120071EBF20FA07FC46EA0C0605
:1003E0002037B6FBF4FCA7EB0507103F07F01F0B07
:1003F000CBF120060CFA0BFB2CFA06F644BFB346F1
:100400000026202FA4BF5E464FF0000B5BEA060CCF
:1004100008BF4FF0010B19EB0B09ABFB027C48EB5B
:100420000608C01B06FB02CC0BFB03CC71EB0C01D6
:10043000C1E70B46024641464846BDE8F08B13B57E
:100440004FF000004FF00001AFF30080BDE81C400A
:1004500070474FF0000200B5134694469646203987
:1004600022BFA0E80C50A0E80C50B1F12001BFF46D
:10047000F7AF090728BFA0E80C5048BF0CC05DF8D3
:1004800004EB890028BF40F8042B08BF704748BF21
:1004900020F8022B11F0804F18BF00F8012B704795
:1004A000704770477047754600F02CF8AE4605005F
:1004B0006946534620F00700854618B020B5FFF77F
:1004C0003FFFBDE820404FF000064FF000074FF01F
:1004D00000084FF0000B21F00701AC46ACE8C00962
:1004E000ACE8C009ACE8C009ACE8C0098D4670476B
:1004F00010B50446AFF300802046BDE81040FFF77A
:10050000AABE000000487047C83E002001491820DC
:10051000ABBEFEE72600020070470000464910B55A
:100520004A6822F440324A604A6843681A434A6083
:1005300001684A6822F480724A6001684A68036967
:1005400042EA03224A6001684A6822F040724A6027
:1005500001684A6883681A434A6001688A6822F41D
:1005600000628A6001688A68C3681A438A60816A87
:100570006FF07062D14201688A6822F070628A600E
:1005800001688A680CD0836A1A438A6001688A68A5
:1005900022F040528A6001688A68C36A1A4301E007
:1005A00022F040528A6001688A6822F002028A6062
:1005B00001688A68037E42EA43028A6090F820104C
:1005C000002901684A680FD042F400624A6001685D
:1005D0004A6822F460424A6001684A68174C436ADC
:1005E00004EB43331A4301E022F400624A600168DD
:1005F000CA6A22F47002CA620168CA6A838B104C0C
:1006000004EB03531A43CA6201688A6822F4007239
:100610008A6001688A6890F8303042EA43228A6032
:1006200001688A6822F480628A6001688A68406989
:1006300042EA8020886010BD0023014000E0FFFFF7
:100640000000F0FF10B5164800F09EF94FF47A71E3
:10065000134800F043F9E8B9114800F0E1F880B21E
:10066000104C02F0FBFD9FED101B53EC112B02F020
:1006700009FE9FED0F1B53EC112B02F097FC02F0CB
:1006800063FC00EE100A84ED010ABCEEC00A10EE15
:10069000100A2080BDE81040014800F0F3B90000C6
:1006A000900000200C0000206666666666660A40C0
:1006B0000000000000FEAF40FEE7704778B5002460
:1006C000009490F83C20012A19D0012280F83C20A7
:1006D0000A6807230568092A13D9EE680A3A02EB6B
:1006E000420293409E43EE600B788A680A3B03EB1C
:1006F00043039A400368DD682A43DA6010E0022071
:1007000078BD2E6902EB420293409E432E610B7826
:100710008A6803EB43039A4003681D692A431A6100
:100720004A681F23072A13D205686E6B521E02EB1C
:10073000820293409E436E630A8893B20A79521EE6
:1007400002EB820293400268556B2B43536327E010
:1007500005680D2A12D22E6BD21F02EB8202934043
:100760009E432E630B790A88DB1F92B203EB83034F
:100770009A4003681D6B2A431A6311E0EE6A0D3A32
:1007800002EB820293409E43EE620B790A880D3B96
:1007900092B203EB83039A400368DD6A2A43DA626C
:1007A0001B4B0568194A9D420AD10D68122D07D1CD
:1007B000556825F400055560556845F48005556079
:1007C00005689D421DD1134D0B68AB4201D0112B22
:1007D00017D1536823F480035360536843F4000334
:1007E00053600968A9420CD10B490C4A0968B1FB56
:1007F000F2F101EB8101490000E0491E009100295E
:10080000FBD180F83C40002078BD0000002301406F
:1008100000200140120000102400002040420F0080
:100820000068C06C704770B504004FF0000503D03D
:10083000206C002610B107E0012070BD204600F0BA
:100840001DF8666484F83C60206CC00610D4206CEF
:1008500020F4885040F0020020642046FFF75EFE3E
:100860006664206C20F0020040F00100206400E08B
:10087000012584F83C60284670BD000010B586B0A4
:10088000044614216846FFF7E4FD114920688842B8
:100890001CD110480021026842F480720260006896
:1008A00000F4807005900B481438026842F0010291
:1008B0000260006800F00100059001200090032014
:1008C000CDE901016946044800F062F906B010BDA7
:1008D0000020014044380240000002402DE9F04170
:1008E000044600680D4681684FF0000749050BD5A6
:1008F0008068C00508D5206C40F02000206484F892
:100900003C700120BDE8F08100F03EFA064613E09D
:10091000681C11D025B100F037FA801BA8420BD912
:1009200020680068800707D4206C40F00400206431
:1009300084F83C700320E5E7206800688007E7D56D
:1009400021686FF012000860206C40F40070206491
:100950002068816811F0405F13D1217E89B9C16A96
:1009600011F4700F02D0806840050AD4206C20F486
:1009700080702064206CC00403D4206C40F001001F
:1009800020640020BEE7000018B50021009190F817
:100990003C20012A07D0012280F83C20026893689D
:1009A000DB0702D011E0022018BD936843F0010379
:1009B00093602E4A2E4B1268B2FBF3F202EB420216
:1009C00000E0521E0092002AFBD102689368DB0708
:1009D00042D0036C40F20164A34343F48073036488
:1009E00053685B0505D5036C23F4005343F480532F
:1009F0000364036CDB0404D5436C23F006034364F7
:100A000000E0416480F83C101A496FF02203136043
:100A100049680068CA06184906D0884224D181680E
:100A200011F0405F13D01FE08842F8D0134A904283
:100A300003D1D1F80423D206F1D0114A904213D148
:100A4000D1F8041301F01F011029E8D30CE08168EC
:100A500041F08041816007E0016C41F010010164C8
:100A6000416C41F001014164002018BD24000020C8
:100A700040420F00002301400020014000210140BE
:100A80000022014090F83C1001290CD0012180F88F
:100A90003C1001688A6822F001028A600168896856
:100AA000C90702D007E002207047016C21F4885189
:100AB00041F001010164002180F83C1008467047B4
:100AC00070B54379012B1CD00126467102230371B6
:100AD00005682B6802F0100440F6FE72A2409343B2
:100AE000D1E900210A43A2401A432A6001680A683A
:100AF000C023A3409A430A60067100214171084651
:100B000070BD022070BD70B5040003D020790025AF
:100B100010B105E0012070BD6571204600F008F8B5
:100B200002202071256101202071002070BD00008D
:100B300010B586B0044614216846FFF78AFC1149B7
:100B4000206888421CD110480021026842F00052FF
:100B50000260006800F0005005900B4810380268F1
:100B600042F001020260006800F0010005901020D0
:100B700000900320CDE901016946044800F008F81F
:100B800006B010BD00740040403802400000024032
:100B90002DE9F84FDFF8ACA10022012403254FF026
:100BA0000F090AF1040BAAF1040E00BF0B6804FA46
:100BB00002F63340B3426ED10F7907F00307012FDD
:100BC00001D0022F16D187684FEA420805FA08FCC7
:100BD00027EA0C07D1F80CC00CFA08FC4CEA070C09
:100BE000C0F808C04768B7430E79C6F300169640B0
:100BF0003E4346600E79F643B6070AD0C6684FEA10
:100C0000420C05FA0CF7BE438F6807FA0CF737431E
:100C1000C7600E7906F00306022E10D1D60800EB4D
:100C20008608D8F8206057074FEAD76C09FA0CF706
:100C3000BE430F6907FA0CF73743C8F820700668FF
:100C40004FEA420C05FA0CF7BE430F7907F0030791
:100C500007FA0CF7374307604E6816F4403F6BD035
:100C6000394E376847F480473760366822F003070B
:100C700006F480460096354E07EB060CDCF8086853
:100C800097074FEA177809FA08F7BE43304FB84282
:100C900002D100271FE04FE02E4FB84201D10127BB
:100CA00019E02D4FB84201D1022714E02B4FB84272
:100CB00001D103270FE02A4FB84201D104270AE0EF
:100CC000284FB84201D1052705E0274FB84201D18E
:100CD000062700E0072707FA08F73743CCF808781B
:100CE000DAF800605746D1F804C09E435FEACC2C86
:100CF00000D51E433E60DBF800605F46D1F804C0BB
:100D00009E435FEA8C2C00D51E433E60DEF80060F7
:100D10007746D1F804C09E435FEA8C3C00D51E4361
:100D20003E60084F083F3E68D1F804C09E435FEA2A
:100D3000CC3C00D51E433E60521C102AFFF436AF57
:100D4000BDE8F88F083C01404438024000300140C3
:100D5000000002400004024000080240000C024073
:100D6000001002400014024000180240426921EACB
:100D700002030A4043EA0241816170470AB181617E
:100D800070470904FBE700000148806870470000D5
:100D90001800002002488168027811448160704781
:100DA000180000200B4810B5016841F40071016083
:100DB000016841F480610160016841F48071016063
:100DC000032000F065F80F2000F006F800F024F88A
:100DD000002010BD003C024070B50D4D04464FF49C
:100DE0007A712878B1FBF0F00A490968B1FBF0F09C
:100DF00000F068FB48B9102C07D200222146501E93
:100E000000F026F800206C6070BD012070BD00006D
:100E100018000020240000200C4882B0016841F432
:100E200080410160006800F4804000900748001F86
:100E3000016841F0805101600068002200F080509C
:100E400000900F21901E02B000F002B8443802401A
:100E5000F0B40E4B1B680C46C3F30223C3F1070525
:100E6000042D00D90425191D072901D2002300E013
:100E7000DB1E012606FA05F1491E214099409E40DD
:100E8000761E16403143F0BC01F095BA0CED00E03F
:100E9000064900F0070208684FF6FF03184040EAD1
:100EA0000220034A10430860704700000CED00E088
:100EB0000000FA052DE9F8431748016841F0805118
:100EC00001600068154F00F08050012600903E64DC
:100ED000FFF75AFF05464FF47A78114C05E000BF42
:100EE000FFF752FF401B40450DD86068C003F7D59F
:100EF0007E64FFF749FF0546464607E0FFF744FFDB
:100F0000401BB04202D90320BDE8F883606880032B
:100F1000F4D50020F8E700004038024000000E42FF
:100F2000007000402DE9F0470E46050065D0DFF85F
:100F30001481D8F80000F7B200F00F00B04207D2D9
:100F400088F80070D8F8000000F00F00B04254D1CB
:100F500028683D4C810712D5400703D5206840F42E
:100F6000E05020602878000703D5206840F46040F6
:100F700020602068A96820F0F000084320602878ED
:100F8000C0072DD0304968680839012812D00228DE
:100F900013D0032811D00968890700292DDA2168A8
:100FA00021F0030101432160FFF7EEFE814641F28B
:100FB000883A0EE009688903EFE709688901ECE7E0
:100FC000FFF7E2FEA0EB0901514502D90320BDE87D
:100FD000F0872068696800F00C00B0EB810FEFD15A
:100FE000D8F80010404601F00F01B14207D9077050
:100FF000006800F00F00B04201D00120E7E7287838
:10100000400705D52068E96820F4E05008432060D7
:101010002878000706D52068296920F4604040EA56
:10102000C100206000F038F82168084AC1F30311BC
:10103000515CC8400649086006480068FFF7CCFECE
:101040000020C4E7003C0240083802409434000805
:10105000240000201C00002004480549006809689D
:10106000044AC1F38221515CC8407047240000202B
:1010700008380240A434000804480549006809689B
:10108000044AC1F34231515CC8407047240000203B
:1010900008380240A4340008224810B5006810F057
:1010A0000C02214815D04110042A11D01D4C241FD8
:1010B000082A0FD00C2A0CD12268236802F03F02C4
:1010C0005B0221D52068C0F38810A0FB010120E05D
:1010D000084610BD2268236802F03F025B0205D576
:1010E0002068C0F38810A0FB010104E02168C1F36F
:1010F0008811A1FB00010023FFF734F92168C1F337
:101100000141491C49000AE02168C1F38811A1FB93
:1011100000010023FFF726F92168C1F30271B0FB3B
:10112000F1F010BD083802400024F4002DE9F84F1A
:1011300004007DD0DFF878B32078ABF10407C00756
:10114000A7F1040550D0DBF800105846C1F3810127
:1011500001290FD00168C1F38101022902D1396848
:10116000490207D40068C0F38100032809D1386818
:10117000400206D52868800336D560680028D8D09C
:1011800032E06068B0F5803F10D0B0F5A02F28683D
:1011900010D020F480302860286820F48020286057
:1011A0006068A0B1FFF7F0FD06460CE0286840F447
:1011B0008030F4E740F480202860F7E7FFF7E4FD93
:1011C000801B642876D828688003F7D50CE0FFF7E9
:1011D000DBFD064605E000BFFFF7D6FD801B642857
:1011E000F0D828688003F7D42078DFF8C892800709
:1011F0004FF0000A44D5DBF80010584611F00C0FF0
:101200000FD00168C1F38101022902D13968490276
:1012100007D50068C0F3810003280AD1386840026E
:1012200007D42868800715D5E068012800D111E0AF
:101230003AE1E068B0B10120C9F80000FFF7A4FD71
:10124000064604E0FFF7A0FD801B0228BAD82868F4
:101250008007F7D52868216920F0F80040EAC1002E
:1012600028600DE0C9F800A0FFF78EFD064604E0F7
:10127000FFF78AFD801B02281CD828688007F7D456
:101280002078000727D5DFF828828B48616908F1AC
:101290006C0881B101210160FFF776FD064604E08C
:1012A000FFF772FD801B022804D8D8F800008007E1
:1012B000F6D510E089E0C0F800A0FFF765FD06460E
:1012C00005E000BFFFF760FD801B02287DD8D8F83D
:1012D00000008007F6D42078400769D574484FF0A5
:1012E000000838300068C0000BD4714838300168FD
:1012F00041F08051016000684FF0010800F080501B
:1013000000906E4E3068C00511D4306840F4807093
:101310003060FFF739FD009006E000BFFFF734FDB5
:101320000099401A022850D83068C005F6D5604EA2
:10133000A068683601280FD00528306810D020F04A
:1013400001003060306820F004003060A068B8B15F
:10135000FFF71AFD00900FE0306840F00100F4E75D
:1013600040F004003060F7E7FFF70EFD0099411AE6
:1013700041F28830814264D830688007F4D50EE0AD
:10138000FFF702FD009007E0FFF7FEFC0099411A0D
:1013900041F28830814254D830688007F4D4B8F1E3
:1013A000000F05D042483830016821F080510160BB
:1013B000A069A8B3DBF80010C1F38101022947D06E
:1013C0000228C9F860A005D000E03AE0FFF7DCFC95
:1013D000044639E0FFF7D8FC064604E0FFF7D4FCEA
:1013E000801B02282DD828688001F7D4F4E9070172
:1013F0000843E168324A490802EB0141A26841EA28
:1014000082110843217C40EA0160217D40EA01709D
:1014100038600120C9F86000FFF7B6FC044606E01A
:1014200044E000BFFFF7B0FC001B022809D8286881
:101430008001F7D53AE000BFFFF7A6FC001B0228A9
:1014400002D90320BDE8F88F28688001F4D42DE08C
:101450000128F7D03868E26900F48001914223D175
:10146000226A00F03F0191421ED147F6C071626AC4
:101470000140B1EB821F17D1A26A4FF0FF3300F495
:10148000403103EB5202B1EB024F0DD194F82C2006
:1014900000F07061B1EB026F06D194F8301000F0EB
:1014A000E040B0EB017F01D00120CBE70020C9E78D
:1014B0000838024000004742800E4742007000405A
:1014C0000000FFFF10B5401EB0F1807F01D3012066
:1014D00010BD4FF0E02460610F21601700F06BFF3A
:1014E0000020A06107202061002010BD10B590F8F9
:1014F0003C20012A22D0012280F83C20CA688C6856
:1015000022F4407222434C6822F4806222430C6829
:1015100022F4006222430C6922F4805222434C6977
:1015200022F400522243C969002322F480420A4374
:1015300001684A6480F83C30002010BD022010BDD4
:1015400070B590F83C20012A32D0012480F83C404C
:10155000022280F83D2003685A689D6822F07006D8
:101560000A6832435A60134B02689A4214D0B2F1AF
:10157000804F11D0104B9A420ED0104B9A420BD094
:101580000F4B9A4208D00F4B9A4205D00E4B9A420D
:1015900002D00E4B9A4204D1496825F080031943CA
:1015A000916080F83D40002180F83C10084670BDF5
:1015B000022070BD0000014000040040000800400F
:1015C000000C0040000401400040014000180040B1
:1015D00010B50446022249B104290ED0082913D0BF
:1015E00094F84500012816D0012010BD94F842005F
:1015F0000128F9D184F842200FE094F84300012833
:10160000F2D184F8432008E094F844000128EBD19B
:1016100084F8442001E084F845200422206800F08A
:101620002AFD2068416C41F4004141641149206861
:10163000884214D0B0F1804F11D00F4988420ED0AB
:101640000E4988420BD00E49884208D00D49884285
:1016500005D00D49884202D00C49884204D18168E6
:1016600001F00701062903D0016841F00101016082
:10167000002010BD000001400004004000080040B0
:10168000000C0040000401400040014000180040F0
:1016900070B504460D460068002200F0ECFC20689E
:1016A000036A41F211110B4240F2444206D1036A2F
:1016B000134203D1436C23F4004343642068036A5C
:1016C0000B4206D1016A114203D1016821F00101E8
:1016D000016001203DB1042D08D0082D09D084F807
:1016E0004500002070BD84F84200FAE784F843000A
:1016F000F7E784F84400F4E710B5040003D094F849
:101700003D0010B107E0012010BD002084F83C002E
:10171000204600F01FF8022084F83D00211D2068BB
:1017200000F038FC012084F8460084F83E0084F87C
:101730003F0084F8400084F8410084F8420084F8B7
:10174000430084F8440084F8450084F83D000020FC
:1017500010BD000008B50C4A01680C48914207D141
:10176000016841F001010160006800F0010009E03A
:10177000074A914207D1016841F480210160006865
:1017800000F48020009008BD000001404438024071
:101790000048014070B5044690F83C00002501283F
:1017A00017D0012684F83C60022084F83D002068B0
:1017B000826822F0770222F47F4282600868502813
:1017C00038D00DDC20284FD005DC90B3102811D183
:1017D0004AE0022070BD302846D040280AD13BE0C4
:1017E00060282FD070280DD0B0F5805F03D0B0F501
:1017F000005F12D0012584F83D60002084F83C0091
:10180000284670BDCB68D1E90121206800F040FC7A
:101810002068816841F0770109E0CB68D1E90121B6
:10182000206800F035FC2068816841F480418160C7
:10183000E1E719E0CA684968206800F0FDFC502122
:10184000206806E0CA684968206800F006FD60214B
:10185000206800F027FCCEE7CA684968206800F0DD
:10186000EBFC40212068F4E7226801461046F0E7CF
:1018700010B586B0044614216846FEF7EAFD2368D9
:10188000184C002118480222A34212D1036843F0E9
:1018900002030360006800F0020005904FF4C0707E
:1018A0000090CDE901210120CDE9031069460F48E0
:1018B00013E00F4CA34212D1036843F0020303600C
:1018C000006800F00200059060150090CDE901214C
:1018D0000320CDE9031069460648FFF759F906B021
:1018E00010BD0000000001403038024000000240FE
:1018F000004801400004024070B5044690F83C00E6
:1019000000260D4601280FD0012084F83C006AB162
:10191000042A1DD0082A2FD00C2A3FD001260020EF
:1019200084F83C00304670BD022070BD206800F095
:10193000C1FB2068816941F00801816120688169EB
:1019400021F004018161206881692A69114311E055
:10195000206800F0DFFB2068816941F4006181614B
:101960002068816921F480618161206881692A6928
:1019700041EA02218161D2E7206800F001FC206881
:10198000C16941F00801C1612068C16921F0040109
:10199000C1612068C1692A69114311E0206800F023
:1019A00023FC2068C16941F40061C1612068C169FC
:1019B00021F48061C1612068C1692A6941EA02217C
:1019C000C161ACE710B5040003D094F83D0010B13C
:1019D00007E0012010BD002084F83C00204600F004
:1019E0001EF8022084F83D00211D206800F0D2FA84
:1019F000012084F8460084F83E0084F83F0084F813
:101A0000400084F8410084F8420084F8430084F8E0
:101A1000440084F8450084F83D00002010BD704764
:101A200010B50446022249B104290ED0082913D06A
:101A300094F84100012816D0012010BD94F83E0012
:101A40000128F9D184F83E200FE094F83F000128E6
:101A5000F2D184F83F2008E094F840000128EBD14F
:101A600084F8402001E084F841200122206800F041
:101A7000F5FA16492068164A884201D0904203D1EF
:101A8000436C43F4004343642068884213D0B0F1B0
:101A9000804F10D00F4988420DD00F4988420AD09C
:101AA0000E49884207D0904205D00D49884202D0A5
:101AB0000C49884204D1816801F00701062903D04E
:101AC000016841F001010160002010BD00000140EB
:101AD000000401400004004000080040000C0040E9
:101AE000004001400018004030B504460D46006833
:101AF000002200F0B3FA194B41F2111120688A104C
:101B0000984202D0164B984209D1036A0B4206D183
:101B1000036A134203D1436C23F4004343642068F7
:101B2000036A0B4206D1016A114203D1016821F018
:101B30000101016001203DB1042D08D0082D09D01C
:101B400084F84100002030BD84F83E00FAE784F8B4
:101B50003F00F7E784F84000F4E700000000014090
:101B60000004014070B5040004D094F83D00002545
:101B700010B106E0012070BD84F83C50204600F012
:101B800023F8242084F83D002068C16821F4005126
:101B9000C160204600F088FB2068016921F4904173
:101BA00001612068416921F02A0141612068C16812
:101BB00041F40051C1602564202084F83D0084F880
:101BC0003E00002070BD0000F0B587B0044614212F
:101BD0006846FEF73EFC2A4A21680024294802256F
:101BE00003260727914217D1264914310A6842F08B
:101BF00010020A60096801F010010591016841F0C6
:101C0000010101600068694600F001000590700262
:101C1000CDE900051C482CE01C4A91422ED11949FF
:101C200010310A6842F480220A60096801F48021B8
:101C30000591016841F004010160016801F00401AF
:101C40000591016841F002010160006802AA00F0FC
:101C5000020005902020CDE9000582E8D000694609
:101C60000B48FEF795FF4FF48060CDE90005094869
:101C7000694602AA82E8D000FEF78AFF07B0F0BDED
:101C8000001001403038024000000240004800408F
:101C90000008024000040240FEE700007FB5002477
:101CA00015480094019402941249039401604FF482
:101CB0008031C0E9011401250461057680F82040D7
:101CC0000E49C0E90A14C561C46080F8304045611E
:101CD000FEF7A9FD08B172B6FEE702200094CDE937
:101CE000015069460448FEF7E9FC002801D072B6AD
:101CF000FEE77FBD00200140900000200100000FA2
:101D000070B586B014216846FEF7A3FB2A4800246C
:101D1000016841F004010160016801F004010591CE
:101D2000016841F080010160016801F080010591C6
:101D3000016841F001010160016801F001010591B4
:101D4000016841F00201016000681C4E00F00200D1
:101D50000590002220213046FFF710F84FF4005084
:101D600000904FF40410CDE9010469461448FEF7D1
:101D70000FFF0C2000900220CDE901040320039006
:101D80000720049069463046FEF702FF20200090AD
:101D90000125CDE90154694630460394FEF7F8FE6B
:101DA00010200090CDE90154694630460394FEF7B7
:101DB000EFFE06B070BD0000303802400000024067
:101DC0000008024010B53C4896B03A4901603B49D2
:101DD0003B4A00240968B1FBF2F1491EC0E9011435
:101DE00040F2E731C0E903144461FFF785FC08B114
:101DF00072B6FEE74FF480500F900FA92E48FFF700
:101E0000C9FC08B172B6FEE72B48FFF7DBFD08B14D
:101E100072B6FEE7139413A927481494FFF790FBBA
:101E200008B172B6FEE760200594009006944FF466
:101E3000FA70019002940494002269461E48FFF74C
:101E40005BFD08B172B6FEE740F277100190042204
:101E500069461948FFF750FD08B172B6FEE7FA204F
:101E60000190082269461448FFF746FD08B172B692
:101E7000FEE77D2001900C2269460F48FFF73CFDEC
:101E800008B172B6FEE7079432200894CDE9094004
:101E90004FF40050CDE90B4040000E9007A90648D2
:101EA000FFF724FB08B172B6FEE70348FFF7E0FC3A
:101EB00016B010BD00000140EC00002024000020FE
:101EC00040FF1005FEE7FEE700F092BD10B5FEF7FB
:101ED00061FF00F063FF012803D0BDE8104000F06F
:101EE00019BF10BD30B593B034216846FEF7B1FA82
:101EF00014210DA8FEF7ADFA20480025016841F035
:101F000080510160006800F0805012901C48016808
:101F100041F4404101600068022400F44040129006
:101F20000120039010200490009406940820CDE92D
:101F30000750AA20CDE909040B9468460C94FFF7DA
:101F4000F5F808B172B6FEE7FEF7B4FF08B172B655
:101F5000FEE70DA90F2081E831004FF4A05010904A
:101F60004FF48050119005210DA8FEF7DBFF0028EB
:101F700001D072B6FEE713B030BD00004038024019
:101F8000007000400248016841F470010160704730
:101F900088ED00E0F0B50268254C264D264E274F0F
:101FA000274B4FF0804CA04209D0604507D0A84293
:101FB00005D0B04203D0B84201D0984204D122F0FB
:101FC000700E4A6842EA0E02A0421BD0604519D04A
:101FD000A84217D0B04215D0B84213D0984211D0C1
:101FE000184DA8420ED0184DA8420BD0174DA8424C
:101FF00008D0174DA84205D0164DA84202D0164D64
:10200000A84203D122F44075CA682A434D6922F0E0
:1020100080022A4302608A68C2620A688262A04221
:1020200001D0984201D10969016301214161F0BDEC
:10203000000001400004004000080040000C004087
:1020400000040140004001400044014000480140BC
:1020500000180040001C00400020004010B501F0B6
:102060001F030121046A99408C430462016A9A406B
:102070001143016210BD10B501F01F030421046A71
:1020800099408C430462016A9A401143016210BD79
:1020900010B5846842EA032224F47F440A432243B1
:1020A000826010BD826822F070020A4342F007018C
:1020B00081607047F0B5026A22F001020262036A91
:1020C00042688469124E24F073050C682C4323F097
:1020D00002058B682B430D4DA84201D0B04205D1BB
:1020E00023F00807CB683B4323F00403A84201D048
:1020F000B04205D14D6922F4407215438A692A43E2
:1021000042608461496841630362F0BD00000140A0
:1021100000040140F0B5026A22F010020262026A75
:10212000436884690D6824F4E64444EA05248D6814
:1021300022F0200242EA05120F4D104EA84201D0B3
:10214000B04206D1CF6822F0800242EA071222F0A4
:102150004002A84201D0B04207D14D6923F4406348
:1021600043EA85038D6943EA8503436084614968D6
:1021700081630262F0BD00000000014000040140E4
:10218000F0B5026A22F480720262026A4368C4698E
:1021900022F4007224F073050C68124E2C438D68F3
:1021A00042EA05220E4DA84201D0B04206D1CF68C6
:1021B00022F4006242EA072222F48062A84201D09F
:1021C000B04207D14D6923F4405343EA05138D69AA
:1021D00043EA05134360C4614968C1630262F0BD0C
:1021E000000001400004014030B5026A22F4805230
:1021F0000262046A4268C3690D6823F4E64343EA55
:1022000005238D6824F4005444EA0534084DA8429F
:1022100002D0084DA84204D14D6922F4804242EA1E
:1022200085124260C36149680164046230BD0000E8
:10223000000001400004014010B5036A046A24F064
:1022400001040462846924F0F00444EA021423F0D7
:102250000A020A438461026210BD10B5036A23F0CA
:10226000100303628369046A23F4704343EA023271
:1022700024F0A00343EA01118261016210BD000055
:10228000054C20212046FEF771FDFEF7DBF90A2000
:1022900000F08EFCF5E7000000000240FFF714FE9E
:1022A000642000F085FCF9E770B504460068016918
:1022B000E26821F44051114301612169A068E2699B
:1022C00008436169114308432168CA6849F20C63F5
:1022D0009A430243CA6020684169A26921F44071AF
:1022E0001143416131492068884202D03049884217
:1022F00002D1FEF7C1FE01E0FEF7AEFEE269002367
:10230000192164253226B2F5004F626828D0A0FB5F
:102310000101930F9200FEF725F80146B0FBF5F09E
:102320006FF01802504301EB800006EB0010B0FB89
:10233000F5F000F0F002B1FBF5F002EB0012B1FB9A
:10234000F5F06FF01803584301EB800006EB001026
:10235000B0FBF5F000F00F0021681044886070BDFC
:10236000A0FB010192185B41FDF7FCFF0146B0FBA9
:10237000F5F00201B1FBF5F06FF01803584301EBE3
:10238000800006EBC000B0FBF5F000F0F80002EBB7
:102390004002B1FBF5F0584301EB800006EBC000B2
:1023A000B0FBF5F000F00700D6E700000010014098
:1023B00000140140FEE70907090E002804DB00F1C4
:1023C000E02080F80014704700F00F0000F1E020DA
:1023D00080F8141D70470000094800210268094870
:1023E000B2F17F5F0ADD0278521CD2B20270012A7C
:1023F00003D101700449012048767047017070478D
:102400001000002014000020BC0100201CB5FEF7C5
:10241000C9FCFFF767FDFFF773FCFFF73FFC0024E3
:10242000284900942648019408600846FEF76BFB93
:1024300008B172B6FEE70094002269462148019473
:10244000FEF73EFB08B172B6FEE71E481E495C303F
:102450004FF4E1350160C0E901540C26C460C0E9C5
:1024600004468461C461FFF77DFB08B172B6FEE7E4
:1024700014481649A0300160C0E90154C460C0E9A5
:1024800004468461C461FFF76DFB08B172B6FEE7D4
:10249000FFF798FC0E490120CDE9000100238022BE
:1024A0000CA10F4800F04CFC064800211430FFF747
:1024B000B7FA044800211430FFF78AF8FEE700005D
:1024C00000740040D8000020001001400048004087
:1024D0000000002073746172745F7461736B00009C
:1024E00095290008084810B50068B0F17E5F09DA48
:1024F00000F096FA002210210448FEF73FFC044940
:102500000020487610BD00001000002000000240AE
:10251000BC01002010B500210448FFF7E5FABDE832
:10252000104000210148FFF7B3B80000EC00002084
:102530002DE9F041184C0F460546E6682068001D5D
:1025400000F08AFA38B9206890F82C1001208840F1
:10255000216981432161681C07D137B12168BDE839
:10256000F0410E48091D00F0B0BA20683544B5426C
:102570004560216805D2A06BBDE8F041091D00F05F
:102580008CBA606B091D00F088FAA06A854200D2FF
:10259000A562BDE8F081000028000020B402002000
:1025A0002DE9F041054600F09DFA2E4CA068401C34
:1025B000A06020682C4F10B1606940B32DE0256009
:1025C000A068012829D1002606EB860007EB8000D1
:1025D00000F055FA761C072EF6D323488C3000F015
:1025E0004EFA2148A03000F04AFA1F48B43000F0FB
:1025F00046FA1D48C83000F042FA1B48DC3000F0B3
:102600003EFA19488C3060631430A06305E02068FE
:10261000E96AC06A884200D82560606A401C60622E
:10262000E96A0120226988401043206101EB8100A2
:1026300007EB8000291D00F048FA00F073FA60698A
:1026400000280CD02068E96AC06A884207D207498E
:102650004FF080500860BFF34F8FBFF36F8FBDE81E
:10266000F081000028000020D801002004ED00E0E7
:1026700010B5044690F8510058B101280CD002283A
:102680000FD0502080F31188BFF34F8FBFF36F8FAF
:10269000FEE7206B00F05AFA2046BDE8104000F03B
:1026A00055BA10BD10484FF47051420706D0C01DF6
:1026B0000D4920F00700411AC1F570510B4A002363
:1026C0000144C2E900030839183A21F007011160FA
:1026D0004B600B600B1AC0E9001393604FF0004091
:1026E0005360506170470000C80200207C00002049
:1026F0002DE9F0479A46DDE9098481466FF003032E
:10270000206B03EB82021044089E20F00707780735
:1027100007D0502080F31188BFF34F8FBFF36F8F26
:10272000FEE7002561B1002023180A5C83F83420FD
:102730000A5C12B1401C1028F6D384F8435001E023
:1027400084F83450072E00D30626E662C4E91165EA
:10275000201D00F09FF904F1180000F09BF924619E
:10276000C6F107006462A061E56484F850505246E7
:102770004946384600F0C0F82060B8F1000F01D09B
:10278000C8F80040BDE8F08730B5114900E01146B7
:102790000A688242FBD34B685C18844203D14068CC
:1027A00018444860084643681C18944209D1084CF4
:1027B000183C2468A24209D052681A4442600A6850
:1027C00012680260814200D0086030BD0460F9E701
:1027D0007C0000200648416B096829B1416BC9683B
:1027E000C9684968816270474FF0FF31FAE700001D
:1027F0002800002008484068401C4FF0500080F33B
:10280000118804D0BFF34F8FBFF36F8FFEE7BFF384
:102810004F8FBFF36F8FFEE7840000202DE9F0415A
:102820000546002700F040FA324E306808B9FFF73D
:1028300039FF706905424ED1C5B3083568070ED01F
:1028400005F00700C0F108000544680707D05020D4
:1028500080F31188BFF34F8FBFF36F8FFEE72DB367
:102860007068854237D82348183001460C6801E06B
:1028700020460C466168A94202D221680029F7D19E
:1028800031688C4227D0076821680160606808378A
:10289000411B10290FD96019420708D0502080F33E
:1028A0001188BFF34F8FBFF36F8FFEE713E04160D6
:1028B0006560FFF769FF61687068401A7060B26810
:1028C000904200D2B060706901430020C4E9000169
:1028D000F068401CF06000F0D5FA780707D050206F
:1028E00080F31188BFF34F8FBFF36F8FFEE7384639
:1028F000BDE8F0816400002010B5031F4FF0807424
:102900001C601B1F21F001011960191F044B0B6093
:1029100014390A60091F6FF0020244380A6010BDC2
:10292000F5270008074810B50068B0F17F5F07DDA4
:10293000012210210448FEF721FA044903204876B9
:1029400010BD00001000002000000240BC0100206B
:102950000D4810B5026800210C48B2F17F5F08DD18
:102960004288521C92B242800A2A03D90122027084
:1029700003E041800278012A05D1017000F05EF881
:1029800003490220487610BD1000002014000020EA
:10299000BC0100201CB50E490220CDE90001002336
:1029A00080220CA10D4800F0CBF909490320091D34
:1029B000CDE900010023802209A10B4800F0C0F9F5
:1029C0000A48006800F01AF9BDE81C4000F0AAB8F7
:1029D000040000205461736B5F3100008122000805
:1029E0005461736B5F3200009D22000800000020DC
:1029F0000A48407E07280FD2DFE800F00406080AE4
:102A00000E0E0C00FFF7E8BCFFF7A2BFFFF78ABF6E
:102A1000FFF768BDFFF77EBD70470000BC010020D6
:102A200010B500210448FFF75FF8BDE81040002111
:102A30000148FEF72DBE0000EC00002010B500217B
:102A40000448FEF7EDFFBDE8104000210148FEF705
:102A5000BFBD0000EC000020D0E9013201699A609E
:102A6000D0E901235A604A68824201D182684A60F3
:102A7000002202610868401E08600868704700F183
:102A800008014FF0FF32C0E90112C160016100216D
:102A90000160704700210161704730B50B685A1C16
:102AA00002D000F1080202E0026904E02246546804
:102AB00025689D42FAD953684B6099608A605160DD
:102AC00008610168491C016030BD42684A60936832
:102AD0008B6093685960916008610168491C0160CE
:102AE00070470000502080F31188BFF34F8FBFF371
:102AF0006F8F0A494868401C486001280CD108487B
:102B0000006810F0FF0F07D0502080F31188BFF34A
:102B10004F8FBFF36F8FFEE77047000084000020E7
:102B200004ED00E00849486828B1401E486001D122
:102B300080F311887047502080F31188BFF34F8FC6
:102B4000BFF36F8FFEE700008400002070B50028FF
:102B50002AD0164DA0F1080460686969084207D1BF
:102B6000502080F31188BFF34F8FBFF36F8FFEE7C4
:102B700022683AB1502080F31188BFF34F8FBFF322
:102B80006F8FFEE78843606000F08EF860686968C8
:102B9000084468602046FFF7F7FD2869401C28615B
:102BA000BDE8704000F06EB970BD00006400002008
:102BB00010B5020014D00F48006B38B1502080F3DC
:102BC0001188BFF34F8FBFF36F8FFEE700F06CF8F3
:102BD00000211046FFF7ACFC00F054F9002807D1A3
:102BE00005494FF080500860BFF34F8FBFF36F8FE0
:102BF00010BD00002800002004ED00E070B505467F
:102C0000FFF770FF254C05B92568281DFFF724FF45
:102C100058B9E86A224A00EB800152F8211021B924
:102C200001218140206988432061A86A18B105F11B
:102C30001800FFF711FF606A401C6062206885423F
:102C400008D11748291DC830FFF73FFF6068401CB6
:102C5000606007E0A068401EA0602846FFF708FDFE
:102C6000FFF7B8FDFFF75EFF6069002814D0206809
:102C7000854211D1206B38B1502080F31188BFF309
:102C80004F8FBFF36F8FFEE706494FF0805008600B
:102C9000BFF34F8FBFF36F8F70BD0000280000207F
:102CA000D801002004ED00E00248016B491C0163DB
:102CB00070470000280000201448016B11B1012169
:102CC000C16170470021C1610169B1FA81F1C1F1AF
:102CD0001F0101EB81020E4951F822306BB101EB6B
:102CE000820101F108034A6852684A609A4201D1A0
:102CF00052684A60D16801607047502080F31188A3
:102D0000BFF34F8FBFF36F8FFEE700002800002056
:102D1000D801002010B5502080F31188BFF34F8FE9
:102D2000BFF36F8F00F048F818B104494FF080509E
:102D30000860002080F3118810BD000004ED00E061
:102D40002DE9FF5F8346DDE90E87994616468A46E0
:102D50009000FFF763FD05001CD05420FFF75EFDD7
:102D6000040014D00020256384F85100CDE902400E
:102D7000CDE900874B46324651465846FFF7B8FC2E
:102D80002046FFF70DFC012004B0BDE8F09F284667
:102D9000FFF7DCFE4FF0FF30F6E700000548416921
:102DA00019B1006B18B10020704701207047022054
:102DB00070470000280000202DE9F0412F4C00262C
:102DC000206B28B1A069401CA0613046BDE8F081AD
:102DD000E5686D1CE56013D1606B006838B1502068
:102DE00080F31188BFF34F8FBFF36F8FFEE7606BE7
:102DF000A16B6163A063206A401C2062FFF7EAFCBC
:102E0000A06ADFF87C80854209D3606B0068A0B1BE
:102E1000606BC068C7687868854211D2A06220687C
:102E2000C06A00EB800158F82100012800D9012672
:102E3000E0690028C9D00126C7E74FF0FF30EDE771
:102E4000381DFFF709FEB86A18B107F11800FFF73F
:102E500003FEF96A0120226988401043206101EBDA
:102E6000810108EB8100391DFFF72FFEF86A216808
:102E7000C96A8842C9D30126C7E70000280000209C
:102E8000D80100202DE9F0472C4D00242746286B5F
:102E900038B1FFF727FE286B401E2863286B40B12E
:102EA00046E0502080F31188BFF34F8FBFF36F8F40
:102EB000FEE7A968224E0120D1B3A6F1B4098046ED
:102EC0003068E8B1F068C46804F11800FFF7C4FD89
:102ED000201DFFF7C1FDE06A2A6908FA00F11143DD
:102EE000296100EB800109EB8100211DFFF7EDFD59
:102EF000E06A2968C96A8842E2D3C5F81C80DFE726
:102F00000CB1FFF767FCAC6944B14646FFF754FFCC
:102F100000B1EE61641EF9D10020A861E86938B102
:102F20000849012738070860BFF34F8FBFF36F8F41
:102F3000FFF7F8FD3846BDE8F087000028000020C4
:102F40008C02002004ED00E021F00042A2F160526A
:102F5000B2F5801F01F0004328BFD2F17F6C0BD97E
:102F60005FEA001C43EAC20242EB507018BF704790
:102F700028BF20F001007047B2F5801FBCBF184683
:102F800070474FEA410C1CF5001F02D2084600F0C2
:102F90007CBA70B500F020FA00000089FFF7F6BF98
:102FA0004FF00040A0F58000704700002DE9C041BF
:102FB00030B4DFF8A0C23CEA111418BF3CEA131485
:102FC00000F0EC8081EA03051CEA111444EAD57490
:102FD00018BF1CEA131500F0C780A4EB05044FF0DE
:102FE000004545EAC12145EAC32341EA505143EA7D
:102FF000525304F17F74994204F500344FEAC02023
:103000004FEAC22208BF904200F09C804FEA13654D
:103010000FF24016765D4FEA134506FB05F7C7F140
:10302000807706FB07F74FEAD737A7FB036876429E
:10303000C8F58038A7FB06CE38BFA8F1010807FB0A
:1030400008E64FF0000EA6FB028CE6FB03CEDCF197
:10305000000CCEF1004E38BFAEF1010EA6FB0C58AD
:103060004FF000074FF00005E6FB0E87A1FB08C6F6
:10307000A0FB07CE16EB0E0645F10005E1FB076548
:1030800015F1E04E7EBFA4F580345FEA46066D413F
:1030900016F1800745F100054FEA17274FEA06664B
:1030A00047EA0567A6F1DE46B6F1805F4FEA1525CF
:1030B0001FD9384624F0010C05EBC471BCF1FE6F3A
:1030C00001EB0C1102D8F0BCBDE8008124425CBFCA
:1030D00001F5801E9EEAC47F02D4F0BCBDE80081E9
:1030E000244238D4F0BCA1F1C041BDE8004100F059
:1030F000C1B94FEAD22242EA43524FEAD323A7FB97
:1031000002864FEAD02040EA415007FB03661EEAE0
:103110000E0F4FEAD12105FB026658BFA6EB005601
:10312000B6EB00564FEA520E4EEAC37E18EB0E0E77
:1031300056EB530EBDD518EB02085E417F1C55F1CE
:103140000005B6E74FF480154FF000074FF000067A
:103150004FF00008ADE7F0BC4FF0000001F1C041B6
:1031600001F00041BDE8008111EA0C1F0CEA1315C3
:1031700000D00CE013EA0C1F00F025804FF0000097
:10318000F0BC81EA030101F00041BDE80081F0BC20
:10319000BDE8004181EA030100F06CB9F0BCBDE874
:1031A000004170B500F018F9097EFC3E00F007B848
:1031B00081EA03014FF0000001F00041704781EA0D
:1031C000030100F057B9F0BCBDE800414FF000002A
:1031D00021497047FFFDFBF9F7F5F4F2F0EEEDEB56
:1031E000E9E8E6E4E3E1E0DEDDDBDAD8D7D5D4D305
:1031F000D1D0CFCDCCCBCAC8C7C6C5C4C2C1C0BF51
:10320000BEBDBCBBBAB9B8B7B6B5B4B3B2B1B0AF56
:10321000AEADACABAAA9A8A8A7A6A5A4A3A3A2A13A
:10322000A09F9F9E9D9C9C9B9A99999897979695F5
:1032300095949393929191908F8F8E8E8D8C8C8B91
:103240008B8A898988888787868585848483838219
:10325000828181800000FF070000F87FB0FA80F3D0
:1032600010FA03F10AD0C3F11D0303F580634FEA9E
:1032700041504FEA035202EBD12170474FF000005A
:1032800070470000DFF848C170B51CEA111E1EBF70
:103290001CEA13159EEA0C0F95EA0C0F00F06F80E4
:1032A00081EA030423EA4C134EEAD47E21EA4C114E
:1032B00041F4801143F48013AE44A1FB024CA0FB07
:1032C0000365AEF17F7E361955EB0C05A1FB034C6F
:1032D0004CF10003A0FB021C16EB0C06654153F1F8
:1032E0000003094218BF46F0010613F4007F0BD11A
:1032F0004FEA03314FEA0530340341EA155140EA01
:1033000016506FF003020AE04FEAC3214FEAC520CE
:10331000F40241EA555140EA56506FF0020202EBC6
:103320002E4201EB025585EACE710AD05FEA440CC9
:1033300018BF24F0004450F1000041F1000120EAE0
:10334000D47040F2FE7C624500D270BDA84214BF2A
:103350004FF080444FF04044002E08BF0024BEF1DF
:10336000806FA8BFA1F1C041BDE8704080F28280AB
:103370004FF0000001F1C04101F0004170479EEAAA
:103380000C0F0CEA131518BF95EA0C0F06D04FF07E
:10339000000081EA030E0EF0004170BD00F01CF841
:1033A0008900013E00F007B800F009B84FEA430C6D
:1033B0005FEA5C5C08D081EA030100F05BB84FEA89
:1033C000410C5FEA5C5CF6D14FF0000001497047A8
:1033D0000000FF070000F87F0EF1020E2EF0030E32
:1033E0005EF8046B364205D4012A43EB030515F55C
:1033F000001F12D8012841EB010C1CF5001F0CD84E
:103400000ED14FEAD17C15F5001F0CEB4C0C0CF1E2
:10341000020C08BF4CEBD37C04E04FF0080C01E039
:103420004FEAD37C0CEB4C0526FA05F606F00706AE
:10343000B6F1040C06D20EEB860CBDE870404CF0E1
:10344000010C6047DFE80CF0090B02024FF000416D
:103450004FF00000A1F5002170BD1946104601286B
:1034600051EB010418BFD4F5001484BF002001F013
:10347000004170BD0808A0F500114FEA3101704706
:103480004FF04070E1EE100A7047FF2141EAD05042
:10349000C0057047000000000000000001020304A6
:1034A000060708090000000001020304CC340008EC
:1034B0000000002090000000000200085C350008B9
:1034C00090000020984400001C020008000000004A
:1034D00000000000000000000000000000000000EC
:1034E00000000000010000001000000000000000CB
:1034F0000024F400000000000000000000000000B4
:1035000000000000000000000000000000000000BB
:1035100000000000000000000000000000000000AB
:10352000000000000000000000000000000000009B
:10353000000000000000000000000000000000008B
:10354000000000000000000000000000000000007B
:0C35500000000000AAAAAAAA00000000C7
:04000005080001C529
:00000001FF
