:020000040800F2
:10000000D847002025030008231A000841180008DB
:10001000211A0008A50600081D1F000800000000A6
:100020000000000000000000000000006502000861
:10003000A706000800000000C1020008591A0008C5
:100040003F0300083F0300083F0300083F03000888
:100050003F0300083F0300083F0300083F03000878
:100060003F0300083F0300083F0300083F03000868
:100070003F0300083F0300083F0300083F03000858
:100080003F0300083F0300083F0300083F03000848
:100090003F0300083F0300083F0300083F03000838
:1000A0003F0300083F0300083F0300083F03000828
:1000B0003F0300083F0300083F0300083F03000818
:1000C0003F0300083F0300083F0300083F03000808
:1000D0003F0300083F0300083F0300083F030008F8
:1000E0003F0300083F0300083F0300083F030008E8
:1000F0003F0300083F0300083F0300083F030008D8
:100100003F0300083F0300083F0300083F030008C7
:100110003F0300083F0300083F0300083F030008B7
:100120003F0300083F0300083F0300083F030008A7
:100130003F03000800000000000000003F0300082B
:100140003F0300083F0300083F0300083F03000887
:100150003F0300083F0300083F0300083F03000877
:100160003F0300083F0300083F0300083F03000867
:100170003F0300083F0300083F03000800000000A1
:10018000000000003F030008000000000000000025
:100190003F03000800000000000000003F030008CB
:1001A0000000000000000000000000003F03000805
:1001B0003F0300083F0300083F0300083F03000817
:1001C0003F03000800F002F800F03CF80AA090E8B5
:1001D000000C82448344AAF10107DA4501D100F002
:1001E00031F8AFF2090EBAE80F0013F0010F18BF93
:1001F000FB1A43F001031847142B0000342B0000B6
:10020000103A24BF78C878C1FAD8520724BF30C842
:1002100030C144BF04680C60704700000023002414
:1002200000250026103A28BF78C1FBD8520728BF06
:1002300030C148BF0B6070471FB502F00BFD1FBDFA
:1002400010B510BD00F02FF91146FFF7F5FF01F0D2
:1002500077FE00F04DF903B4FFF7F2FF03BC00F0A6
:1002600055F900002C4B19680868B0E8F04F80F38E
:100270000988BFF36F8F4FF0000080F3118870473B
:100280000000000008480068006880F308884FF00C
:10029000000080F3148862B661B6BFF34F8FBFF3DE
:1002A0006F8F00DF00BF00BF08ED00E0DFF80C003B
:1002B000016841F470010160704700BF88ED00E003
:1002C000EFF30980BFF36F8F134B1A681EF0100F06
:1002D00008BF20ED108A20E9F04F106009B44FF0FC
:1002E000500080F31188BFF34F8FBFF36F8F02F080
:1002F000C5FA4FF0000080F3118809BC196808683E
:10030000B0E8F04F1EF0100F08BFB0EC108A80F379
:100310000988BFF36F8F704738000020EFF3058026
:10032000704700000948804709480047FEE7FEE79C
:10033000FEE7FEE7FEE7FEE7FEE7FEE7FEE7FEE795
:1003400004480549054A064B70470000111B000888
:10035000C5010008D8410020D8470020D84300201C
:10036000D843002053EA020C00F069802DE9F04BDD
:100370004FF00006002B1FBFB3FA83F503FA05F414
:1003800024FA05F65E4012BF1643B2FA82F502FA6D
:1003900005F4C5F120051EBF22FA05FC44EA0C0451
:1003A000203556EA044C4FEA144418BF641C4FF041
:1003B00000084FF00009904271EB030C39D300297B
:1003C00019BFB1FA81F701FA07F6B0FA80F700FA1F
:1003D00007F6C7F120071EBF20FA07FC46EA0C0605
:1003E0002037B6FBF4FCA7EB0507103F07F01F0B07
:1003F000CBF120060CFA0BFB2CFA06F644BFB346F1
:100400000026202FA4BF5E464FF0000B5BEA060CCF
:1004100008BF4FF0010B19EB0B09ABFB027C48EB5B
:100420000608C01B06FB02CC0BFB03CC71EB0C01D6
:10043000C1E70B46024641464846BDE8F08B13B57E
:100440004FF000004FF00001AFF30080BDE81C400A
:1004500070474FF0000200B5134694469646203987
:1004600022BFA0E80C50A0E80C50B1F12001BFF46D
:10047000F7AF090728BFA0E80C5048BF0CC05DF8D3
:1004800004EB890028BF40F8042B08BF704748BF21
:1004900020F8022B11F0804F18BF00F8012B704795
:1004A000704770477047754600F02CF8AE4605005F
:1004B0006946534620F00700854618B020B5FFF77F
:1004C0003FFFBDE820404FF000064FF000074FF01F
:1004D00000084FF0000B21F00701AC46ACE8C00962
:1004E000ACE8C009ACE8C009ACE8C0098D4670476B
:1004F00010B50446AFF300802046BDE81040FFF77A
:10050000AABE00000048704774410020014918202D
:10051000ABBEFEE72600020070470000464910B55A
:100520004A6822F440324A604A6843681A434A6083
:1005300001684A6822F480724A6001684A68036967
:1005400042EA03224A6001684A6822F040724A6027
:1005500001684A6883681A434A6001688A6822F41D
:1005600000628A6001688A68C3681A438A60816A87
:100570006FF07062D14201688A6822F070628A600E
:1005800001688A680CD0836A1A438A6001688A68A5
:1005900022F040528A6001688A68C36A1A4301E007
:1005A00022F040528A6001688A6822F002028A6062
:1005B00001688A68037E42EA43028A6090F820104C
:1005C000002901684A680FD042F400624A6001685D
:1005D0004A6822F460424A6001684A68174C436ADC
:1005E00004EB43331A4301E022F400624A600168DD
:1005F000CA6A22F47002CA620168CA6A838B104C0C
:1006000004EB03531A43CA6201688A6822F4007239
:100610008A6001688A6890F8303042EA43228A6032
:1006200001688A6822F480628A6001688A68406989
:1006300042EA8020886010BD0023014000E0FFFFF7
:100640000000F0FF10B5134800F094F94FF47A71F0
:10065000104800F039F9B8B90E4800F0D7F880B268
:1006600000EE100ADFED0D0A9FED0D1AB8EE400AFC
:10067000094960EE200A80EE810A81ED010ABCEE94
:10068000C00A10EE100A0880BDE81040014800F0D2
:10069000EFB90000A00000201C00002000F07F4502
:1006A00033335340FEE7704778B50024009490F848
:1006B0003C20012A19D0012280F83C200A68072337
:1006C0000568092A13D9EE680A3A02EB4202934000
:1006D0009E43EE600B788A680A3B03EB43039A4023
:1006E0000368DD682A43DA6010E0022078BD2E69D5
:1006F00002EB420293409E432E610B788A6803EB23
:1007000043039A4003681D692A431A614A681F23FC
:10071000072A13D205686E6B521E02EB82029340C9
:100720009E436E630A8893B20A79521E02EB8202DC
:1007300093400268556B2B43536327E005680D2AED
:1007400012D22E6BD21F02EB820293409E432E6385
:100750000B790A88DB1F92B203EB83039A4003688C
:100760001D6B2A431A6311E0EE6A0D3A02EB820216
:1007700093409E43EE620B790A880D3B92B203EBE5
:1007800083039A400368DD6A2A43DA621B4B0568DB
:10079000194A9D420AD10D68122D07D1556825F4DA
:1007A00000055560556845F48005556005689D4213
:1007B0001DD1134D0B68AB4201D0112B17D15368DB
:1007C00023F480035360536843F4000353600968C3
:1007D000A9420CD10B490C4A0968B1FBF2F101EBBB
:1007E0008101490000E0491E00910029FBD180F8F9
:1007F0003C40002078BD0000002301400020014063
:10080000120000103400002040420F000068C06C4D
:10081000704770B504004FF0000503D0206C00262F
:1008200010B107E0012070BD204600F01DF866649D
:1008300084F83C60206CC00610D4206C20F48850F2
:1008400040F0020020642046FFF768FE6664206CDA
:1008500020F0020040F00100206400E0012584F84F
:100860003C60284670BD000010B586B004461421D7
:100870006846FFF7EEFD1149206888421CD11048F8
:100880000021026842F480720260006800F4807007
:1008900005900B481438026842F0010202600068BB
:1008A00000F001000590012000900320CDE9010136
:1008B0006946044800F062F906B010BD002001400E
:1008C00044380240000002402DE9F041044600682F
:1008D0000D4681684FF0000749050BD58068C005BB
:1008E00008D5206C40F02000206484F83C70012082
:1008F000BDE8F08100F03EFA064613E0681C11D016
:1009000025B100F037FA801BA8420BD92068006897
:10091000800707D4206C40F00400206484F83C7009
:100920000320E5E7206800688007E7D521686FF0BD
:1009300012000860206C40F4007020642068816818
:1009400011F0405F13D1217E89B9C16A11F4700F93
:1009500002D0806840050AD4206C20F480702064A6
:10096000206CC00403D4206C40F0010020640020FF
:10097000BEE7000018B50021009190F83C20012A44
:1009800007D0012280F83C2002689368DB0702D080
:1009900011E0022018BD936843F0010393602E4AD2
:1009A0002E4B1268B2FBF3F202EB420200E0521E41
:1009B0000092002AFBD102689368DB0742D0036CE7
:1009C00040F20164A34343F48073036453685B05FE
:1009D00005D5036C23F4005343F480530364036C84
:1009E000DB0404D5436C23F00603436400E0416458
:1009F00080F83C101A496FF02203136049680068C0
:100A0000CA06184906D0884224D1816811F0405F97
:100A100013D01FE08842F8D0134A904203D1D1F896
:100A20000423D206F1D0114A904213D1D1F8041315
:100A300001F01F011029E8D30CE0816841F08041EA
:100A4000816007E0016C41F010010164416C41F0EC
:100A500001014164002018BD3400002040420F0015
:100A600000230140002001400021014000220140FC
:100A700090F83C1001290CD0012180F83C1001684D
:100A80008A6822F001028A6001688968C90702D079
:100A900007E002207047016C21F4885141F0010108
:100AA0000164002180F83C100846704770B5437916
:100AB000012B1CD0012646710223037105682B68A7
:100AC00002F0100440F6FE72A2409343D1E90021E7
:100AD0000A43A2401A432A6001680A68C023A3405F
:100AE0009A430A60067100214171084670BD0220D8
:100AF00070BD70B5040003D02079002510B105E069
:100B0000012070BD6571204600F008F802202071B8
:100B1000256101202071002070BD000010B586B055
:100B2000044614216846FFF794FC11492068884266
:100B30001CD110480021026842F000520260006897
:100B400000F0005005900B481038026842F0010296
:100B50000260006800F00100059010200090032062
:100B6000CDE901016946044800F008F806B010BD5F
:100B70000074004040380240000002402DE9F84F68
:100B8000DFF8ACA10022012403254FF00F090AF180
:100B9000040BAAF1040E00BF0B6804FA02F63340FE
:100BA000B3426ED10F7907F00307012F01D0022F56
:100BB00016D187684FEA420805FA08FC27EA0C07B5
:100BC000D1F80CC00CFA08FC4CEA070CC0F808C0BD
:100BD0004768B7430E79C6F3001696403E43466019
:100BE0000E79F643B6070AD0C6684FEA420C05FAFA
:100BF0000CF7BE438F6807FA0CF73743C7600E79CE
:100C000006F00306022E10D1D60800EB8608D8F8AD
:100C1000206057074FEAD76C09FA0CF7BE430F69FB
:100C200007FA0CF73743C8F8207006684FEA420C01
:100C300005FA0CF7BE430F7907F0030707FA0CF724
:100C4000374307604E6816F4403F6BD0394E376823
:100C500047F480473760366822F0030706F4804681
:100C60000096354E07EB060CDCF8086897074FEA4C
:100C7000177809FA08F7BE43304FB84202D100276F
:100C80001FE04FE02E4FB84201D1012719E02D4F50
:100C9000B84201D1022714E02B4FB84201D10327FB
:100CA0000FE02A4FB84201D104270AE0284FB8428A
:100CB00001D1052705E0274FB84201D1062700E002
:100CC000072707FA08F73743CCF80878DAF8006006
:100CD0005746D1F804C09E435FEACC2C00D51E4392
:100CE0003E60DBF800605F46D1F804C09E435FEAD7
:100CF0008C2C00D51E433E60DEF800607746D1F8AC
:100D000004C09E435FEA8C3C00D51E433E60084F02
:100D1000083F3E68D1F804C09E435FEACC3C00D552
:100D20001E433E60521C102AFFF436AFBDE8F88F18
:100D3000083C0140443802400030014000000240BD
:100D40000004024000080240000C02400010024073
:100D50000014024000180240426921EA02030A40DE
:100D600043EA0241816170470AB181617047090419
:100D7000FBE7000001488068704700002800002061
:100D80000248816802781144816070472800002081
:100D90000B4810B5016841F400710160016841F42D
:100DA00080610160016841F480710160032000F0FE
:100DB00065F80F2000F006F800F024F8002010BDC0
:100DC000003C024070B50D4D04464FF47A7128780E
:100DD000B1FBF0F00A490968B1FBF0F000F068FBE4
:100DE00048B9102C07D200222146501E00F026F8E8
:100DF00000206C6070BD012070BD00002800002044
:100E0000340000200C4882B0016841F48041016048
:100E1000006800F4804000900748001F016841F01E
:100E2000805101600068002200F0805000900F2186
:100E3000901E02B000F002B844380240F0B40E4BED
:100E40001B680C46C3F30223C3F10705042D00D928
:100E50000425191D072901D2002300E0DB1E01260D
:100E600006FA05F1491E214099409E40761E164023
:100E70003143F0BC01F053B80CED00E0064900F03E
:100E8000070208684FF6FF03184040EA0220034AB1
:100E900010430860704700000CED00E00000FA0508
:100EA0002DE9F8431748016841F08051016000685E
:100EB000154F00F08050012600903E64FFF75AFF66
:100EC00005464FF47A78114C05E000BFFFF752FF5A
:100ED000401B40450DD86068C003F7D57E64FFF71E
:100EE00049FF0546464607E0FFF744FF401BB04276
:100EF00002D90320BDE8F88360688003F4D50020A0
:100F0000F8E700004038024000000E420070004048
:100F10002DE9F0470E46050065D0DFF81481D8F8BA
:100F20000000F7B200F00F00B04207D288F800705E
:100F3000D8F8000000F00F00B04254D128683D4CB2
:100F4000810712D5400703D5206840F4E0502060A7
:100F50002878000703D5206840F4604020602068AE
:100F6000A96820F0F000084320602878C0072DD041
:100F7000304968680839012812D0022813D00328A4
:100F800011D00968890700292DDA216821F00301B1
:100F900001432160FFF7EEFE814641F2883A0EE000
:100FA00009688903EFE709688901ECE7FFF7E2FECA
:100FB000A0EB0901514502D90320BDE8F087206864
:100FC000696800F00C00B0EB810FEFD1D8F8001089
:100FD000404601F00F01B14207D90770006800F0E8
:100FE0000F00B04201D00120E7E72878400705D57F
:100FF0002068E96820F4E050084320602878000762
:1010000006D52068296920F4604040EAC1002060CC
:1010100000F038F82168084AC1F30311515CC84058
:101020000649086006480068FFF7CCFE0020C4E7C8
:10103000003C0240083802405E2C000834000020CA
:101040002C0000200448054900680968044AC1F3DF
:101050008221515CC84070473400002008380240AB
:101060006E2C00080448054900680968044AC1F369
:101070004231515CC84070473400002008380240BB
:101080006E2C0008224810B5006810F00C022148B0
:1010900015D04110042A11D01D4C241F082A0FD04E
:1010A0000C2A0CD12268236802F03F025B0221D592
:1010B0002068C0F38810A0FB010120E0084610BDA5
:1010C0002268236802F03F025B0205D52068C0F366
:1010D0008810A0FB010104E02168C1F38811A1FB85
:1010E00000010023FFF73EF92168C1F30141491CCB
:1010F00049000AE02168C1F38811A1FB0001002327
:10110000FFF730F92168C1F30271B0FBF1F010BDB7
:10111000083802400024F4002DE9F84F04007DD087
:10112000DFF878B32078ABF10407C007A7F1040516
:1011300050D0DBF800105846C1F3810101290FD0CF
:101140000168C1F38101022902D13968490207D43B
:101150000068C0F38100032809D13868400206D531
:101160002868800336D560680028D8D032E06068EF
:10117000B0F5803F10D0B0F5A02F286810D020F433
:1011800080302860286820F4802028606068A0B142
:10119000FFF7F0FD06460CE0286840F48030F4E7E5
:1011A00040F480202860F7E7FFF7E4FD801B642807
:1011B00076D828688003F7D50CE0FFF7DBFD0646FC
:1011C00005E000BFFFF7D6FD801B6428F0D8286833
:1011D0008003F7D42078DFF8C89280074FF0000A28
:1011E00044D5DBF80010584611F00C0F0FD0016801
:1011F000C1F38101022902D13968490207D500688B
:10120000C0F3810003280AD13868400207D4286857
:10121000800715D5E068012800D111E03AE1E068C7
:10122000B0B10120C9F80000FFF7A4FD064604E0B4
:10123000FFF7A0FD801B0228BAD828688007F7D5E1
:101240002868216920F0F80040EAC10028600DE01C
:10125000C9F800A0FFF78EFD064604E0FFF78AFDFF
:10126000801B02281CD828688007F7D42078000744
:1012700027D5DFF828828B48616908F16C0881B1B5
:1012800001210160FFF776FD064604E0FFF772FDDD
:10129000801B022804D8D8F800008007F6D510E09B
:1012A00089E0C0F800A0FFF765FD064605E000BF35
:1012B000FFF760FD801B02287DD8D8F8000080076A
:1012C000F6D42078400769D574484FF000083830CC
:1012D0000068C0000BD471483830016841F080517B
:1012E000016000684FF0010800F0805000906E4EE1
:1012F0003068C00511D4306840F480703060FFF76A
:1013000039FD009006E000BFFFF734FD0099401A58
:10131000022850D83068C005F6D5604EA0686836FF
:1013200001280FD00528306810D020F0010030606F
:10133000306820F004003060A068B8B1FFF71AFDF3
:1013400000900FE0306840F00100F4E740F0040046
:101350003060F7E7FFF70EFD0099411A41F288303F
:10136000814264D830688007F4D50EE0FFF702FDB3
:10137000009007E0FFF7FEFC0099411A41F2883027
:10138000814254D830688007F4D4B8F1000F05D0FA
:1013900042483830016821F080510160A069A8B34B
:1013A000DBF80010C1F38101022947D00228C9F8F7
:1013B00060A005D000E03AE0FFF7DCFC044639E02D
:1013C000FFF7D8FC064604E0FFF7D4FC801B022898
:1013D0002DD828688001F7D4F4E907010843E168B3
:1013E000324A490802EB0141A26841EA82110843EE
:1013F000217C40EA0160217D40EA017038600120D3
:10140000C9F86000FFF7B6FC044606E044E000BF00
:10141000FFF7B0FC001B022809D828688001F7D527
:101420003AE000BFFFF7A6FC001B022802D9032008
:10143000BDE8F88F28688001F4D42DE00128F7D0AA
:101440003868E26900F48001914223D1226A00F0F9
:101450003F0191421ED147F6C071626A0140B1EB73
:10146000821F17D1A26A4FF0FF3300F4403103EB23
:101470005202B1EB024F0DD194F82C2000F07061B4
:10148000B1EB026F06D194F8301000F0E040B0EB01
:10149000017F01D00120CBE70020C9E708380240D6
:1014A00000004742800E4742007000400000FFFFEE
:1014B00010B5401EB0F1807F01D3012010BD4FF068
:1014C000E02460610F21601700F029FD0020A06179
:1014D00007202061002010BD10B5040003D094F84F
:1014E0003D0010B107E0012010BD002084F83C0051
:1014F000204600F01FF8022084F83D00211D2068DE
:1015000000F00EFB012084F8460084F83E0084F8C9
:101510003F0084F8400084F8410084F8420084F8D9
:10152000430084F8440084F8450084F83D0000201E
:1015300010BD000008B50C4A01680C48914207D163
:10154000016841F400310160006800F4003009E0F6
:10155000074A914207D1016841F480210160006887
:1015600000F48020009008BD00440140443802404F
:101570000048014070B586B0044614216846FEF765
:1015800068FF144E256800221349022303241348E0
:10159000B54209D10D6845F002050D60096801F0FA
:1015A0000201059181150BE00D4EB54210D10D6879
:1015B00045F002050D60096801F002010591711501
:1015C0000091CDE90132CDE903246946FFF7D6FA4F
:1015D00006B070BD004401403038024000040240B3
:1015E0000048014070B5044690F83C0000260D46C6
:1015F00001280FD0012084F83C006AB1042A1DD0D4
:10160000082A2FD00C2A3FD00126002084F83C0065
:10161000304670BD022070BD206800F0E5FA2068F9
:10162000816941F0080181612068816921F004012C
:101630008161206881692A69114311E0206800F006
:1016400003FB2068816941F4006181612068816940
:1016500021F480618161206881692A6941EA02215F
:101660008161D2E7206800F025FB2068C16941F064
:101670000801C1612068C16921F00401C1612068CD
:10168000C1692A69114311E0206800F047FB206816
:10169000C16941F40061C1612068C16921F48061C0
:1016A000C1612068C1692A6941EA0221C161ACE7D0
:1016B00010B5040003D094F83D0010B107E00120FC
:1016C00010BD002084F83C00204600F01EF80220E7
:1016D00084F83D00211D206800F022FA012084F8E2
:1016E000460084F83E0084F83F0084F8400084F807
:1016F000410084F8420084F8430084F8440084F8F0
:10170000450084F83D00002010BD704770B504000E
:1017100004D094F83D00002510B106E0012070BD12
:1017200084F83C50204600F023F8242084F83D0043
:101730002068C16821F40051C160204600F02AFBF6
:101740002068016921F4904101612068416921F01C
:101750002A0141612068C16841F40051C1602564DB
:10176000202084F83D0084F83E00002070BD000079
:10177000F0B587B0044614216846FEF76AFE2A4A8F
:10178000216800242948022503260727914217D102
:10179000264914310A6842F010020A60096801F013
:1017A00010010591016841F001010160006869467E
:1017B00000F0010005907002CDE900051C482CE006
:1017C0001C4A91422ED1194910310A6842F48022F4
:1017D0000A60096801F480210591016841F0040163
:1017E0000160016801F004010591016841F0020106
:1017F0000160006802AA00F0020005902020CDE9F7
:10180000000582E8D00069460B48FFF7B7F94FF4AE
:101810008060CDE900050948694602AA82E8D00047
:10182000FFF7ACF907B0F0BD0010014030380240BE
:10183000000002400048004000080240000402404E
:10184000FEE700007FB5002415480094019402943F
:101850001249039401604FF48031C0E9011404611E
:10186000047680F820400F49C0E90A140125C561BB
:10187000C46080F830404561FEF7CBFF08B172B616
:10188000FEE7CDE90045694605480294FEF70CFFE6
:10189000002801D072B6FEE77FBD000000200140A5
:1018A000A00000200100000F30B587B01421684669
:1018B000FEF7CFFD25480024016841F004010160D6
:1018C000016801F004010591016841F080010160A7
:1018D000016801F080010591016841F0010101609A
:1018E000016801F001010591016841F00201016008
:1018F0000068174D00F002000590002220212846C4
:10190000FFF732FA4FF4005000904FF40410CDE985
:10191000010469460F48FFF731F90C2000900220BE
:10192000CDE901040320039007200490694628466E
:10193000FFF724F9202000900120CDE90104694639
:1019400028460394FFF71AF907B030BD303802403B
:10195000000002400008024010B588B01C21684613
:10196000FEF777FD144813490024C0E900144FF630
:10197000FF71C0E9024104618461FFF7ADFD08B168
:1019800072B6FEE70C48FFF793FE08B172B6FEE7A9
:101990006020CDE9000402940022694606480494C0
:1019A000FFF720FE08B172B6FEE70348FFF7E2FD3D
:1019B00008B010BD00440140FC00002010B588B004
:1019C0001C216846FEF745FD144813490024C0E970
:1019D00000144FF6FF71C0E9024104618461FFF712
:1019E0007BFD08B172B6FEE70C48FFF761FE08B157
:1019F00072B6FEE76020CDE9000402940022694639
:101A000006480494FFF7EEFD08B172B6FEE70348FE
:101A1000FFF7B0FD08B010BD0048014044010020B0
:101A2000FEE7FEE770B50B4C0025207E05280FD29F
:101A3000DFE800F0030507090C00012004E00220A4
:101A400002E0032000E00420207670BD00F03CFDA1
:101A5000257670BD6804002010B5FFF791F901F0FC
:101A600023F8012803D0BDE8104000F0AFBF10BD3F
:101A700030B593B034216846FEF7EBFC14210DA875
:101A8000FEF7E7FC20480025016841F08051016025
:101A9000006800F0805012901C48016841F44041F9
:101AA00001600068022400F440401290012003907D
:101AB00010200490009406940820CDE90750AA2035
:101AC000CDE909040B9468460C94FFF725FB08B197
:101AD00072B6FEE7FFF7E4F908B172B6FEE70DA9AA
:101AE0000F2081E831004FF4A05010904FF4805047
:101AF000119005210DA8FFF70BFA002801D072B64E
:101B0000FEE713B030BD00004038024000700040D6
:101B10000248016841F470010160704788ED00E0FF
:101B2000F0B50268254C264D264E274F274B4FF027
:101B3000804CA04209D0604507D0A84205D0B042F1
:101B400003D0B84201D0984204D122F0700E4A6806
:101B500042EA0E02A0421BD0604519D0A84217D01D
:101B6000B04215D0B84213D0984211D0184DA842B7
:101B70000ED0184DA8420BD0174DA84208D0174DD3
:101B8000A84205D0164DA84202D0164DA84203D156
:101B900022F44075CA682A434D6922F080022A4324
:101BA00002608A68C2620A688262A04201D09842DA
:101BB00001D10969016301214161F0BD00000140CB
:101BC0000004004000080040000C004000040140F8
:101BD000004001400044014000480140001800401E
:101BE000001C004000200040F0B5026A22F0010213
:101BF0000262036A42688469124E24F073050C681D
:101C00002C4323F002058B682B430D4DA84201D0D5
:101C1000B04205D123F00807CB683B4323F004030F
:101C2000A84201D0B04205D14D6922F4407215435B
:101C30008A692A4342608461496841630362F0BD56
:101C40000000014000040140F0B5026A22F01002D9
:101C50000262026A436884690D6824F4E64444EA37
:101C600005248D6822F0200242EA05120F4D104E25
:101C7000A84201D0B04206D1CF6822F0800242EAE9
:101C8000071222F04002A84201D0B04207D14D69AC
:101C900023F4406343EA85038D6943EA8503436087
:101CA0008461496881630262F0BD00000000014068
:101CB00000040140F0B5026A22F480720262026AF6
:101CC0004368C46922F4007224F073050C68124E54
:101CD0002C438D6842EA05220E4DA84201D0B04245
:101CE00006D1CF6822F4006242EA072222F4806221
:101CF000A84201D0B04207D14D6923F4405343EAD2
:101D000005138D6943EA05134360C4614968C163E3
:101D10000262F0BD000001400004014030B5026ADB
:101D200022F480520262046A4268C3690D6823F497
:101D3000E64343EA05238D6824F4005444EA05345D
:101D4000084DA84202D0084DA84204D14D6922F4A2
:101D5000804242EA85124260C361496801640462BC
:101D600030BD00000000014000040140054C20216E
:101D70002046FEF7F1FFFEF765FC642000F0C4FC8E
:101D8000F5E7000000000240FFF74CFE642000F081
:101D9000BBFCF9E770B5044600680169E26821F40C
:101DA0004051114301612169A068E26908436169FA
:101DB000114308432168CA6849F20C639A430243FD
:101DC000CA6020684169A26921F4407111434161F0
:101DD00031492068884202D03049884202D1FFF759
:101DE00041F901E0FFF72EF9E2690023192164258A
:101DF0003226B2F5004F626828D0A0FB0101930F94
:101E00009200FEF7AFFA0146B0FBF5F06FF0180252
:101E1000504301EB800006EB0010B0FBF5F000F042
:101E2000F002B1FBF5F002EB0012B1FBF5F06FF040
:101E30001803584301EB800006EB0010B0FBF5F0EF
:101E400000F00F0021681044886070BDA0FB010104
:101E500092185B41FEF786FA0146B0FBF5F00201ED
:101E6000B1FBF5F06FF01803584301EB800006EB6F
:101E7000C000B0FBF5F000F0F80002EB4002B1FB4F
:101E8000F5F0584301EB800006EBC000B0FBF5F025
:101E900000F00700D6E700000010014000140140E8
:101EA00030B50D46044603E02946641C00F004F8F2
:101EB00020780028F8D130BD10B5002818DB144B6D
:101EC000C2B21448994214D14068D0F80014491C99
:101ED000C1F30901D0F804448C42FBD0D0F800448F
:101EE0000255C0F800141868C16841F08001C16053
:101EF00010BD094B9942FBD1C068D0F80014491CB1
:101F0000C1F30901D0F804448C42FBD0E6E700009D
:101F10008C0100200C000020D0010020FEE7090702
:101F2000090E002804DB00F1E02080F8001470475F
:101F300000F00F0000F1E02080F8141D7047000051
:101F40001CB5FEF725FFFFF793FDFFF7ADFCFFF78C
:101F500079FC002425490094234801940860084630
:101F6000FEF7C7FD08B172B6FEE70094002269468D
:101F70001E480194FEF79AFD08B172B6FEE71B48B1
:101F80001B49A4304FF4E1350160C0E901540C262F
:101F9000C460C0E904468461C461FFF7B7FB08B1BF
:101FA00072B6FEE711481349E8300160C0E90154F8
:101FB000C460C0E904468461C461FFF7A7FB08B1AF
:101FC00072B6FEE7FFF7C8FCFFF7F8FC0A490120EC
:101FD000CDE900010023802208A10B4800F00CFD90
:101FE00000F014F8FEE7000000740040E800002054
:101FF000001001400048004000000020737461722E
:10200000745F7461736B00006D24000810B500F0FC
:10201000F7FB002010BD00002DE9F041184C0F46E1
:102020000546E6682068001D00F0A6FA38B9206869
:1020300090F82C1001208840216981432161681C9F
:1020400007D137B12168BDE8F0410E48091D00F005
:10205000D7BA20683544B5424560216805D2A06BE7
:10206000BDE8F041091D00F0B3BA606B091D00F036
:10207000AFFAA06A854200D2A562BDE8F0810000F7
:1020800038000020600500202DE9F041054600F0F1
:10209000C3FA2E4CA068401CA06020682C4F10B1E1
:1020A000606940B32DE02560A068012829D1002691
:1020B00006EB860007EB800000F07CFA761C072E0A
:1020C000F6D323488C3000F075FA2148A03000F098
:1020D00071FA1F48B43000F06DFA1D48C83000F0A6
:1020E00069FA1B48DC3000F065FA19488C306063EF
:1020F0001430A06305E02068E96AC06A884200D80D
:102100002560606A401C6062E96A0120226988409B
:102110001043206101EB810007EB8000291D00F0D6
:102120006FFA00F099FA606900280CD02068E96A1B
:10213000C06A884207D207494FF080500860BFF359
:102140004F8FBFF36F8FBDE8F08100003800002093
:102150008404002004ED00E010B5044690F851001E
:1021600058B101280CD002280FD0502080F31188DC
:10217000BFF34F8FBFF36F8FFEE7206B00F080FA45
:102180002046BDE8104000F07BBA10BD10484FF467
:102190007051420706D0C01D0D4920F00700411ABA
:1021A000C1F570510B4A00230144C2E9000308390C
:1021B000183A21F0070111604B600B600B1AC0E95F
:1021C000001393604FF0004053605061704700006F
:1021D000740500208C000020144E154CA6F1C80791
:1021E0004FF08058DFF84C9012E000BF00F014FA76
:1021F000F068C568281D00F0BFF9A068401EA06007
:102200006068401E606000F027FA2846FFF7A4FFD0
:1022100060680028EAD138680128F9D9C9F8008037
:10222000BFF34F8FBFF36F8FF2E700004C05002024
:102230003800002004ED00E02DE9F0479A46DDE982
:10224000098481466FF00303206B03EB8202104484
:10225000089E20F00707780707D0502080F31188E8
:10226000BFF34F8FBFF36F8FFEE7002561B10020F2
:1022700023180A5C83F834200A5C12B1401C102831
:10228000F6D384F8435001E084F83450072E00D38D
:102290000626E662C4E91165201D00F096F904F1F6
:1022A000180000F092F92461C6F107006462A06191
:1022B000E56484F8505052464946384600F0C0F86C
:1022C0002060B8F1000F01D0C8F80040BDE8F087E9
:1022D00030B5114900E011460A688242FBD34B68D1
:1022E0005C18844203D1406818444860084643683B
:1022F0001C18944209D1084C183C2468A24209D009
:1023000052681A4442600A6812680260814200D032
:10231000086030BD0460F9E78C0000200648416B7E
:10232000096829B1416BC968C96849688162704709
:102330004FF0FF31FAE700003800002008484068FD
:10234000401C4FF0500080F3118804D0BFF34F8F32
:10235000BFF36F8FFEE7BFF34F8FBFF36F8FFEE7C3
:10236000940000202DE9F0410546002700F07EFA98
:10237000324E306808B9FFF709FF706905424ED147
:10238000C5B3083568070ED005F00700C0F1080096
:102390000544680707D0502080F31188BFF34F8FA2
:1023A000BFF36F8FFEE72DB37068854237D823489F
:1023B000183001460C6801E020460C466168A942CD
:1023C00002D221680029F7D131688C4227D00768F2
:1023D0002168016060680837411B10290FD9601916
:1023E000420708D0502080F31188BFF34F8FBFF30E
:1023F0006F8FFEE713E041606560FFF769FF61687A
:102400007068401A7060B268904200D2B060706923
:1024100001430020C4E90001F068401CF06000F0B6
:10242000B7FB780707D0502080F31188BFF34F8F98
:10243000BFF36F8FFEE73846BDE8F08174000020DF
:1024400010B5031F4FF080741C601B1F21F00101A9
:102450001960191F044B0B6014390A60091F6FF0D3
:10246000020244380A6010BD3D2300081CB50E4925
:102470000220CDE90001002380220CA10D4800F0CC
:10248000BBFA09490320091DCDE900010023802280
:1024900009A10B4800F0B0FA0A48006800F05AF9A8
:1024A000BDE81C4000F0D8B8040000205461736BF4
:1024B0005F3100006D1D00085461736B5F320000D6
:1024C000891D0008000000202DE9F041204E002564
:1024D000204F707E204C40F67C08072815D2DFE89C
:1024E00000F00416272A2D1430001C491C48FFF761
:1024F000D7FC3988414507D92078401CC0B22070EC
:10250000012802D1257011E02570BDE8F081134942
:102510001448FFF7C5FC39884145F5D92078401C9F
:10252000C0B220700128F0D1257002207076ECE74F
:102530000A490D4807E009490C4804E007490C48DE
:1025400001E006490B48BDE8F041FFF7A9BC0000D7
:10255000680400201C000020240000208C010020C2
:10256000AC2C0008902C0008DC2C0008782C00080B
:10257000F42C0008C02C0008D0E9013201699A60EF
:10258000D0E901235A604A68824201D182684A60D8
:10259000002202610868401E086008687047000059
:1025A000034B036003F15400086080201060704703
:1025B0001402002000F108014FF0FF32C0E90112BF
:1025C000C160016100210160704700210161704715
:1025D00030B50B685A1C02D000F1080202E0026913
:1025E00004E02246546825689D42FAD953684B603E
:1025F00099608A60516008610168491C016030BDC2
:1026000042684A6093688B60936859609160086182
:102610000168491C01607047502080F31188BFF3A6
:102620004F8FBFF36F8F0A494868401C48600128EC
:102630000CD10848006810F0FF0F07D0502080F33D
:102640001188BFF34F8FBFF36F8FFEE77047000015
:102650009400002004ED00E00849486828B1401EBD
:10266000486001D180F311887047502080F31188B1
:10267000BFF34F8FBFF36F8FFEE700009400002081
:1026800070B500282AD0164DA0F108046068696969
:10269000084207D1502080F31188BFF34F8FBFF35A
:1026A0006F8FFEE722683AB1502080F31188BFF3A4
:1026B0004F8FBFF36F8FFEE78843606000F0D6F85E
:1026C00060686968084468602046FFF701FE286971
:1026D000401C2861BDE8704000F05ABA70BD00008F
:1026E000740000204FF0E020002101618161054964
:1026F0004FF47A720968B1FBF2F1491E416107217A
:10270000016170473400002010B5020014D00F485A
:10271000006B38B1502080F31188BFF34F8FBFF3A7
:102720006F8FFEE700F0A2F800211046FFF774FC5F
:1027300000F02EFA002807D105494FF080500860BC
:10274000BFF34F8FBFF36F8F10BD00003800002024
:1027500004ED00E070B50546FFF75EFF254C05B9B6
:102760002568281DFFF708FF58B9E86A224A00EBE0
:10277000800152F8211021B901218140206988434C
:102780002061A86A18B105F11800FFF7F5FE606A2C
:10279000401C60622068854208D11748291DC83056
:1027A000FFF72EFF6068401C606007E0A068401ED5
:1027B000A0602846FFF7D0FCFFF7B0FDFFF74CFF05
:1027C0006069002814D02068854211D1206B38B18F
:1027D000502080F31188BFF34F8FBFF36F8FFEE758
:1027E00006494FF080500860BFF34F8FBFF36F8FE3
:1027F00070BD0000380000208404002004ED00E0DB
:1028000010B586B00024039405AA04A903A8049473
:10281000FFF7C6FEDDE903010094CDE901100023B6
:102820000EA11048059A00F014F90F490028C8625B
:1028300011D0502080F31188BFF34F8FBFF36F8FFB
:102840004FF0FF30886201204861CC6006B0BDE8DF
:10285000104000F041B806B010BD000049444C459E
:1028600000000000D9210008380000200248016B58
:10287000491C016370470000380000201448016BB8
:1028800011B10121C16170470021C1610169B1FA33
:1028900081F1C1F11F0101EB81020E4951F8223093
:1028A0006BB101EB820101F108034A6852684A608A
:1028B0009A4201D152684A60D16801607047502045
:1028C00080F31188BFF34F8FBFF36F8FFEE70000D7
:1028D00038000020840400201CB537480168374ABE
:1028E000914207D1502080F31188BFF34F8FBFF37F
:1028F0006F8FFEE700683149491E884207D150209A
:1029000080F31188BFF34F8FBFF36F8FFEE72C4921
:1029100008780190FF20087008788DF800009DF875
:1029200000009DF8002000F0F000904207D05020F9
:1029300080F31188BFF34F8FBFF36F8FFEE79DF8D1
:102940000000204C00F0500020700720A06005E03F
:102950009DF8002052008DF80020401E9DF80020B8
:102960001206F5D4A060032807D0502080F3118808
:10297000BFF34F8FBFF36F8FFEE74FF44070A0603F
:10298000019808700C482030016841F47001016022
:10299000016841F070410160FFF7A4FE0020606013
:1029A000FDF784FC0848016841F040410160FDF7F3
:1029B00069FC00201CBD000000ED00E071C20F4169
:1029C00000E400E09400002034EF00E010B5502057
:1029D00080F31188BFF34F8FBFF36F8F00F072F851
:1029E00018B104494FF080500860002080F311882E
:1029F00010BD000004ED00E02DE9FF5F8346DDE936
:102A00000E87994616468A469000FFF7ABFC0500F4
:102A10001CD05420FFF7A6FC040014D0002025632E
:102A200084F85100CDE90240CDE900874B4632469B
:102A300051465846FFF700FC2046FFF725FB0120D2
:102A400004B0BDE8F09F2846FFF71AFE4FF0FF30B4
:102A5000F6E7F0B585B0DDE90B640A9DA6B1DCB1FF
:102A6000542700972663022684F85160002604AF9D
:102A7000CDE90246CDE90057FFF7DEFB2046FFF720
:102A800003FB049805B0F0BD502080F31188BFF31C
:102A90004F8FBFF36F8FFEE7502080F31188BFF395
:102AA0004F8FBFF36F8FFEE70548416919B1006B87
:102AB00018B10020704701207047022070470000C5
:102AC000380000202DE9F0412F4C0026206B28B162
:102AD000A069401CA0613046BDE8F081E5686D1C2E
:102AE000E56013D1606B006838B1502080F3118825
:102AF000BFF34F8FBFF36F8FFEE7606BA16B616316
:102B0000A063206A401C2062FFF708FCA06ADFF87F
:102B10007C80854209D3606B0068A0B1606BC0689F
:102B2000C7687868854211D2A0622068C06A00EB4D
:102B3000800158F82100012800D90126E069002809
:102B4000C9D00126C7E74FF0FF30EDE7381DFFF78A
:102B500013FDB86A18B107F11800FFF70DFDF96A07
:102B60000120226988401043206101EB810108EBBC
:102B70008100391DFFF744FDF86A2168C96A88425F
:102B8000C9D30126C7E700003800002084040020D4
:102B90002DE9F0472C4D00242746286B38B1FFF76C
:102BA0003BFD286B401E2863286B40B146E0502057
:102BB00080F31188BFF34F8FBFF36F8FFEE7A968D3
:102BC000224E0120D1B3A6F1B40980463068E8B1A5
:102BD000F068C46804F11800FFF7CEFC201DFFF771
:102BE000CBFCE06A2A6908FA00F11143296100EB85
:102BF000800109EB8100211DFFF702FDE06A2968D1
:102C0000C96A8842E2D3C5F81C80DFE70CB1FFF740
:102C100085FBAC6944B14646FFF754FF00B1EE6155
:102C2000641EF9D10020A861E86938B1084901277C
:102C300038070860BFF34F8FBFF36F8FFFF70CFDAE
:102C40003846BDE8F0870000380000203805002035
:102C500004ED00E04FF04070E1EE100A7047000014
:102C6000000000000000010203040607080900003C
:102C700000000102030400005046432069732069EC
:102C80006E20504643204F4E206D6F64650000005B
:102C900050464320697320696E2072656C6179200B
:102CA000626F756E6365206D6F64650050464320EA
:102CB000697320696E2069646C65206D6F646500BE
:102CC00050464320697320696E207368756E7420C6
:102CD000646F776E206D6F6465000000504643207E
:102CE000697320696E2052616D70207570206D6F60
:102CF0006465000050464320697320696E2068694E
:102D000063637570206D6F64650000002C2D0008F2
:102D100000000020A000000000020008CC2D0008E8
:102D2000A0000020384700001C020008000000003E
:102D30000000000000000000000000000000000093
:102D40000000000000000000000000000000000083
:102D50000000000001000000100000000000000062
:102D60000024F4000000000000000000000000004B
:102D70000000000000000000000000000000000053
:102D80000000000000000000000000000000000043
:102D90000000000000000000000000000000000033
:102DA0000000000000000000000000000000000023
:102DB0000000000000000000000000000000000013
:0C2DC00000000000AAAAAAAA000000005F
:04000005080001C529
:00000001FF
