:020000040800F2
:10000000A809002025030008AD2100080D1D0008E7
:1000100015210008BD060008232600080000000086
:100020000000000000000000000000006502000861
:10003000BF06000800000000C1020008F12100080E
:100040003F0300083F0300083F0300083F03000888
:100050003F0300083F0300083F0300083F03000878
:100060003F0300083F0300083F0300083F03000868
:100070003F0300083F0300083F0300083F03000858
:100080003F0300083F0300083F0300083F03000848
:100090003F0300083F0300083F0300083F03000838
:1000A0003F030008B92200083F0300083F0300088F
:1000B0003F0300083F0300083F0300083F03000818
:1000C0003F0300083F0300083F0300083F03000808
:1000D0003F0300083F0300083F0300083F030008F8
:1000E0003F0300083F0300083F0300083F030008E8
:1000F0003F0300083F0300083F0300083F030008D8
:100100003F0300083F0300083F0300083F030008C7
:100110003F0300083F0300083F0300083F030008B7
:100120003F0300083F0300083F0300083F030008A7
:100130003F03000800000000000000003F0300082B
:100140003F0300083F0300083F0300083F03000887
:100150003F0300083F0300083F0300083F03000877
:100160003F0300083F0300083F0300083F03000867
:100170003F0300083F0300083F03000800000000A1
:10018000000000003F030008000000000000000025
:100190003F03000800000000000000003F030008CB
:1001A0000000000000000000000000003F03000805
:1001B0003F0300083F0300083F0300083F03000817
:1001C0003F03000800F002F800F03CF80AA090E8B5
:1001D000000C82448344AAF10107DA4501D100F002
:1001E00031F8AFF2090EBAE80F0013F0010F18BF93
:1001F000FB1A43F001031847A02F0000C02F000096
:10020000103A24BF78C878C1FAD8520724BF30C842
:1002100030C144BF04680C60704700000023002414
:1002200000250026103A28BF78C1FBD8520728BF06
:1002300030C148BF0B6070471FB502F09FFF1FBD64
:1002400010B510BD00F02FF91146FFF7F5FF02F0D1
:100250006DFA00F04DF903B4FFF7F2FF03BC00F0B4
:1002600055F900002C4B19680868B0E8F04F80F38E
:100270000988BFF36F8F4FF0000080F3118870473B
:100280000000000008480068006880F308884FF00C
:10029000000080F3148862B661B6BFF34F8FBFF3DE
:1002A0006F8F00DF00BF00BF08ED00E0DFF80C003B
:1002B000016841F470010160704700BF88ED00E003
:1002C000EFF30980BFF36F8F134B1A681EF0100F06
:1002D00008BF20ED108A20E9F04F106009B44FF0FC
:1002E000500080F31188BFF34F8FBFF36F8F02F080
:1002F000A3FB4FF0000080F3118809BC196808685F
:10030000B0E8F04F1EF0100F08BFB0EC108A80F379
:100310000988BFF36F8F704734000020EFF305802A
:10032000704700000948804709480047FEE7FEE79C
:10033000FEE7FEE7FEE7FEE7FEE7FEE7FEE7FEE795
:1003400004480549054A064B70470000A9220008E9
:10035000C5010008A8030020A8090020A805002066
:10036000A805002053EA020C00F069802DE9F04B4B
:100370004FF00006002B1FBFB3FA83F503FA05F414
:1003800024FA05F65E4012BF1643B2FA82F502FA6D
:1003900005F4C5F120051EBF22FA05FC44EA0C0451
:1003A000203556EA044C4FEA144418BF641C4FF041
:1003B00000084FF00009904271EB030C39D300297B
:1003C00019BFB1FA81F701FA07F6B0FA80F700FA1F
:1003D00007F6C7F120071EBF20FA07FC46EA0C0605
:1003E0002037B6FBF4FCA7EB0507103F07F01F0B07
:1003F000CBF120060CFA0BFB2CFA06F644BFB346F1
:100400000026202FA4BF5E464FF0000B5BEA060CCF
:1004100008BF4FF0010B19EB0B09ABFB027C48EB5B
:100420000608C01B06FB02CC0BFB03CC71EB0C01D6
:10043000C1E70B46024641464846BDE8F08B13B57E
:100440004FF000004FF00001AFF30080BDE81C400A
:1004500070474FF0000200B5134694469646203987
:1004600022BFA0E80C50A0E80C50B1F12001BFF46D
:10047000F7AF090728BFA0E80C5048BF0CC05DF8D3
:1004800004EB890028BF40F8042B08BF704748BF21
:1004900020F8022B11F0804F18BF00F8012B704795
:1004A000704770477047754600F02CF8AE4605005F
:1004B0006946534620F00700854618B020B5FFF77F
:1004C0003FFFBDE820404FF000064FF000074FF01F
:1004D00000084FF0000B21F00701AC46ACE8C00962
:1004E000ACE8C009ACE8C009ACE8C0098D4670476B
:1004F00010B50446AFF300802046BDE81040FFF77A
:10050000AABE000000487047480300200149182097
:10051000ABBEFEE72600020070470000464910B55A
:100520004A6822F440324A604A6843681A434A6083
:1005300001684A6822F480724A6001684A68036967
:1005400042EA03224A6001684A6822F040724A6027
:1005500001684A6883681A434A6001688A6822F41D
:1005600000628A6001688A68C3681A438A60816A87
:100570006FF07062D14201688A6822F070628A600E
:1005800001688A680CD0836A1A438A6001688A68A5
:1005900022F040528A6001688A68C36A1A4301E007
:1005A00022F040528A6001688A6822F002028A6062
:1005B00001688A68037E42EA43028A6090F820104C
:1005C000002901684A680FD042F400624A6001685D
:1005D0004A6822F460424A6001684A68174C436ADC
:1005E00004EB43331A4301E022F400624A600168DD
:1005F000CA6A22F47002CA620168CA6A838B104C0C
:1006000004EB03531A43CA6201688A6822F4007239
:100610008A6001688A6890F8303042EA43228A6032
:1006200001688A6822F480628A6001688A68406989
:1006300042EA8020886010BD0023014000E0FFFFF7
:100640000000F0FF1FB500200090039001200190F2
:10065000022002906946044800F034F8002801D0D6
:1006600000F02EF81FBD0000700000201FB5002014
:1006700003900120009001900220029069460448F6
:1006800000F020F8002801D000F01AF81FBD00008B
:10069000700000201FB5002003900420009001206E
:1006A0000190022002906946034800F00BF80028F0
:1006B00001D000F005F81FBD70000020FEE7704774
:1006C00072B6FEE778B50024009490F83C20012A29
:1006D00019D0012280F83C200A6807230568092AFE
:1006E00013D9EE680A3A02EB420293409E43EE6051
:1006F0000B788A680A3B03EB43039A400368DD6882
:100700002A43DA6010E0022078BD2E6902EB420233
:1007100093409E432E610B788A6803EB43039A4013
:1007200003681D692A431A614A681F23072A13D2E6
:1007300005686E6B521E02EB820293409E436E630D
:100740000A8893B20A79521E02EB82029340026831
:10075000556B2B43536327E005680D2A12D22E6B8D
:10076000D21F02EB820293409E432E630B790A88CC
:10077000DB1F92B203EB83039A4003681D6B2A438D
:100780001A6311E0EE6A0D3A02EB820293409E4337
:10079000EE620B790A880D3B92B203EB83039A4019
:1007A0000368DD6A2A43DA621B4B0568194A9D42D9
:1007B0000AD10D68122D07D1556825F40005556042
:1007C000556845F48005556005689D421DD1134D5F
:1007D0000B68AB4201D0112B17D1536823F480036F
:1007E0005360536843F4000353600968A9420CD175
:1007F0000B490C4A0968B1FBF2F101EB8101490098
:1008000000E0491E00910029FBD180F83C40002007
:1008100078BD0000002301400020014012000010BC
:100820003000002040420F000068C06C704770B577
:1008300004004FF0000503D0206C002610B107E043
:10084000012070BD204600F01DF8666484F83C600D
:10085000206CC00610D4206C20F4885040F00200B8
:1008600020642046FFF75AFE6664206C20F00200E8
:1008700040F00100206400E0012584F83C60284637
:1008800070BD000030B587B0044614216846FFF7FC
:10089000E0FD1949206888422CD1184800240168DD
:1008A00041F480710160006800F480700590134885
:1008B0001438016841F001010160016801F0010193
:1008C0000591016841F0020101600068032500F014
:1008D000020005909320CDE900056946029408487E
:1008E00000F004F90120CDE90005694602940548AD
:1008F00000F0FCF807B030BD002001404438024051
:1009000000000240000402402DE9F0410446006866
:100910000D4681684FF0000749050BD58068C0057A
:1009200008D5206C40F02000206484F83C70012041
:10093000BDE8F08100F0D6F9064613E0681C11D03E
:1009400025B100F0CFF9801BA8420BD920680068C0
:10095000800707D4206C40F00400206484F83C70C9
:100960000320E5E7206800688007E7D521686FF07D
:1009700012000860206C40F40070206420688168D8
:1009800011F0405F13D1217E89B9C16A11F4700F53
:1009900002D0806840050AD4206C20F48070206466
:1009A000206CC00403D4206C40F0010020640020BF
:1009B000BEE7000018B50021009190F83C20012A04
:1009C00007D0012280F83C2002689368DB0702D040
:1009D00011E0022018BD936843F0010393602E4A92
:1009E0002E4B1268B2FBF3F202EB420200E0521E01
:1009F0000092002AFBD102689368DB0742D0036CA7
:100A000040F20164A34343F48073036453685B05BD
:100A100005D5036C23F4005343F480530364036C43
:100A2000DB0404D5436C23F00603436400E0416417
:100A300080F83C101A496FF022031360496800687F
:100A4000CA06184906D0884224D1816811F0405F57
:100A500013D01FE08842F8D0134A904203D1D1F856
:100A60000423D206F1D0114A904213D1D1F80413D5
:100A700001F01F011029E8D30CE0816841F08041AA
:100A8000816007E0016C41F010010164416C41F0AC
:100A900001014164002018BD3000002040420F00D9
:100AA00000230140002001400021014000220140BC
:100AB00090F83C1001290CD0012180F83C1001680D
:100AC0008A6822F001028A6001688968C90702D039
:100AD00007E002207047016C21F4885141F00101C8
:100AE0000164002180F83C10084670472DE9F84F5A
:100AF000DFF8ACA10022012403254FF00F090AF111
:100B0000040BAAF1040E00BF0B6804FA02F633408E
:100B1000B3426ED10F7907F00307012F01D0022FE6
:100B200016D187684FEA420805FA08FC27EA0C0745
:100B3000D1F80CC00CFA08FC4CEA070CC0F808C04D
:100B40004768B7430E79C6F3001696403E434660A9
:100B50000E79F643B6070AD0C6684FEA420C05FA8A
:100B60000CF7BE438F6807FA0CF73743C7600E795E
:100B700006F00306022E10D1D60800EB8608D8F83E
:100B8000206057074FEAD76C09FA0CF7BE430F698C
:100B900007FA0CF73743C8F8207006684FEA420C92
:100BA00005FA0CF7BE430F7907F0030707FA0CF7B5
:100BB000374307604E6816F4403F6BD0394E3768B4
:100BC00047F480473760366822F0030706F4804612
:100BD0000096354E07EB060CDCF8086897074FEADD
:100BE000177809FA08F7BE43304FB84202D1002700
:100BF0001FE04FE02E4FB84201D1012719E02D4FE1
:100C0000B84201D1022714E02B4FB84201D103278B
:100C10000FE02A4FB84201D104270AE0284FB8421A
:100C200001D1052705E0274FB84201D1062700E092
:100C3000072707FA08F73743CCF80878DAF8006096
:100C40005746D1F804C09E435FEACC2C00D51E4322
:100C50003E60DBF800605F46D1F804C09E435FEA67
:100C60008C2C00D51E433E60DEF800607746D1F83C
:100C700004C09E435FEA8C3C00D51E433E60084F93
:100C8000083F3E68D1F804C09E435FEACC3C00D5E3
:100C90001E433E60521C102AFFF436AFBDE8F88FA9
:100CA000083C01404438024000300140000002404E
:100CB0000004024000080240000C02400010024004
:100CC0000014024000180240426921EA02030A406F
:100CD00043EA0241816170470AB1816170470904AA
:100CE000FBE70000014880687047000024000020F6
:100CF0000248816802781144816070472400002016
:100D00000B4810B5016841F400710160016841F4BD
:100D100080610160016841F480710160032000F08E
:100D200071F80F2000F006F800F024F8002010BD44
:100D3000003C024070B50D4D04464FF47A7128789E
:100D4000B1FBF0F00A490968B1FBF0F000F054FB88
:100D500048B9102C07D200222146501E00F032F86C
:100D600000206C6070BD012070BD000024000020D8
:100D7000300000200B4882B0016841F480410160DE
:100D8000006800F4804000900648001F016841F0B0
:100D900080510160006800F080500090072002B090
:100DA00000F030B844380240002809DB00F01F0290
:100DB000012191404009800000F1E020C0F80011BD
:100DC00070470000F0B40E4B1B680C46C3F30223BF
:100DD000C3F10705042D00D90425191D072901D2E7
:100DE000002300E0DB1E012606FA05F1491E214022
:100DF00099409E40761E16403143F0BC01F04ABC3B
:100E00000CED00E0064900F0070208684FF6FF030A
:100E1000184040EA0220034A10430860704700006F
:100E20000CED00E00000FA052DE9F84317480168D1
:100E300041F0805101600068154F00F0805001269C
:100E400000903E64FFF74EFF05464FF47A78114C50
:100E500005E000BFFFF746FF401B40450DD8606826
:100E6000C003F7D57E64FFF73DFF0546464607E021
:100E7000FFF738FF401BB04202D90320BDE8F883DA
:100E800060688003F4D50020F8E700004038024095
:100E900000000E42007000402DE9F0470E460500AC
:100EA00065D0DFF81481D8F80000F7B200F00F0029
:100EB000B04207D288F80070D8F8000000F00F00A8
:100EC000B04254D128683D4C810712D5400703D564
:100ED000206840F4E05020602878000703D520689F
:100EE00040F4604020602068A96820F0F0000843CA
:100EF00020602878C0072DD030496868083901285B
:100F000012D0022813D0032811D0096889070029BC
:100F10002DDA216821F0030101432160FFF7E2FE91
:100F2000814641F2883A0EE009688903EFE70968D3
:100F30008901ECE7FFF7D6FEA0EB0901514502D984
:100F40000320BDE8F0872068696800F00C00B0EB72
:100F5000810FEFD1D8F80010404601F00F01B142E7
:100F600007D90770006800F00F00B04201D00120DF
:100F7000E7E72878400705D52068E96820F4E050C5
:100F8000084320602878000706D52068296920F4E6
:100F9000604040EAC100206000F018F82168084A6B
:100FA000C1F30311515CC840064908600648006857
:100FB000FFF7C0FE0020C4E7003C024008380240B2
:100FC000863100083000002028000020224810B59B
:100FD000006810F00C02214815D04110042A11D0ED
:100FE0001D4C241F082A0FD00C2A0CD1226823681C
:100FF00002F03F025B0221D52068C0F38810A0FBFD
:10100000010120E0084610BD2268236802F03F027B
:101010005B0205D52068C0F38810A0FB010104E045
:101020002168C1F38811A1FB00010023FFF79AF9A1
:101030002168C1F30141491C49000AE02168C1F35C
:101040008811A1FB00010023FFF78CF92168C1F38F
:101050000271B0FBF1F010BD083802400024F4002A
:101060002DE9F84F04007DD0DFF878B32078ABF19C
:101070000407C007A7F1040550D0DBF8001058465C
:10108000C1F3810101290FD00168C1F38101022957
:1010900002D13968490207D40068C0F381000328EF
:1010A00009D13868400206D52868800336D56068C3
:1010B0000028D8D032E06068B0F5803F10D0B0F59D
:1010C000A02F286810D020F480302860286820F4F1
:1010D000802028606068A0B1FFF704FE06460CE09F
:1010E000286840F48030F4E740F480202860F7E777
:1010F000FFF7F8FD801B642876D828688003F7D5B1
:101100000CE0FFF7EFFD064605E000BFFFF7EAFD44
:10111000801B6428F0D828688003F7D42078DFF893
:10112000C89280074FF0000A44D5DBF800105846FB
:1011300011F00C0F0FD00168C1F38101022902D117
:101140003968490207D50068C0F3810003280AD135
:101150003868400207D42868800715D5E068012860
:1011600000D111E03AE1E068B0B10120C9F8000017
:10117000FFF7B8FD064604E0FFF7B4FD801B022828
:10118000BAD828688007F7D52868216920F0F800C8
:1011900040EAC10028600DE0C9F800A0FFF7A2FDF9
:1011A000064604E0FFF79EFD801B02281CD8286835
:1011B0008007F7D42078000727D5DFF828828B48EE
:1011C000616908F16C0881B101210160FFF78AFDB6
:1011D000064604E0FFF786FD801B022804D8D8F8F5
:1011E00000008007F6D510E089E0C0F800A0FFF706
:1011F00079FD064605E000BFFFF774FD801B02285D
:101200007DD8D8F800008007F6D42078400769D54B
:1012100074484FF0000838300068C0000BD47148A3
:101220003830016841F08051016000684FF00108DA
:1012300000F0805000906E4E3068C00511D43068C8
:1012400040F480703060FFF74DFD009006E000BF75
:10125000FFF748FD0099401A022850D83068C005B1
:10126000F6D5604EA068683601280FD00528306892
:1012700010D020F001003060306820F004003060B1
:10128000A068B8B1FFF72EFD00900FE0306840F085
:101290000100F4E740F004003060F7E7FFF722FDBB
:1012A0000099411A41F28830814264D83068800741
:1012B000F4D50EE0FFF716FD009007E0FFF712FDF2
:1012C0000099411A41F28830814254D83068800731
:1012D000F4D4B8F1000F05D042483830016821F04D
:1012E00080510160A069A8B3DBF80010C1F381014F
:1012F000022947D00228C9F860A005D000E03AE0F2
:10130000FFF7F0FC044639E0FFF7ECFC064604E08A
:10131000FFF7E8FC801B02282DD828688001F7D44D
:10132000F4E907010843E168324A490802EB014148
:10133000A26841EA82110843217C40EA0160217DD4
:1013400040EA017038600120C9F86000FFF7CAFC6C
:10135000044606E044E000BFFFF7C4FC001B02287F
:1013600009D828688001F7D53AE000BFFFF7BAFC3A
:10137000001B022802D90320BDE8F88F28688001ED
:10138000F4D42DE00128F7D03868E26900F4800138
:10139000914223D1226A00F03F0191421ED147F6CB
:1013A000C071626A0140B1EB821F17D1A26A4FF08F
:1013B000FF3300F4403103EB5202B1EB024F0DD189
:1013C00094F82C2000F07061B1EB026F06D194F814
:1013D000301000F0E040B0EB017F01D00120CBE7FE
:1013E0000020C9E70838024000004742800E47420B
:1013F000007000400000FFFF10B5401EB0F1807F7C
:1014000001D3012010BD4FF0E02460610F2160176F
:1014100001F040F90020A06107202061002010BDEC
:101420007047704710B590F83C20012A22D0012265
:1014300080F83C20CA688C6822F4407222434C68D1
:1014400022F4806222430C6822F4006222430C6979
:1014500022F4805222434C6922F400522243C9698B
:10146000002322F480420A4301684A6480F83C3039
:10147000002010BD022010BD70B590F83C20012A5C
:1014800032D0012480F83C40022280F83D200368DD
:101490005A689D6822F070060A6832435A60134BFE
:1014A00002689A4214D0B2F1804F11D0104B9A4288
:1014B0000ED0104B9A420BD00F4B9A4208D00F4BD4
:1014C0009A4205D00E4B9A4202D00E4B9A4204D15A
:1014D000496825F080031943916080F83D40002160
:1014E00080F83C10084670BD022070BD000001402D
:1014F0000004004000080040000C004000040140CF
:10150000004001400018004010B5040003D094F8DA
:101510003D0010B107E0012010BD002084F83C0020
:10152000204600F01FF8022084F83D00211D2068AD
:1015300000F0D0FE012084F8460084F83E0084F8D4
:101540003F0084F8400084F8410084F8420084F8A9
:10155000430084F8440084F8450084F83D000020EE
:1015600010BD000008B501681748B1F1804F0BD0DD
:10157000164A914210D1016841F0020101600068F1
:1015800000F00200009008BD016841F00101016017
:10159000006800F00100F5E70D488142F3D10A48E8
:1015A000001D016841F4003101600068002200F470
:1015B0000030009011461920FFF704FCBDE80840F8
:1015C0001920FFF7F1BB0000403802400004004042
:1015D0000044014090F83D10012901D001207047DE
:1015E000022180F83D100168CA6842F00102CA6019
:1015F00000681149884214D0B0F1804F11D00F49D2
:1016000088420ED00E4988420BD00E49884208D03D
:101610000D49884205D00D49884202D00C498842C4
:1016200004D1816801F00701062903D0016841F067
:1016300001010160002070470000014000040040EB
:1016400000080040000C0040000401400040014040
:1016500000180040704770B50446006801694FF0FB
:101660000005C943890715D4C168C943890711D446
:10167000E91E0161012020772068806980072046EB
:1016800002D0FFF7E7FF04E000F015F9204600F074
:1016900057FA257720680169C943490717D4C168FB
:1016A000C943490713D46FF0040101610220207778
:1016B0002068806910F4407F204602D0FFF7CAFFFF
:1016C00004E000F0F8F8204600F03AFA25772068A8
:1016D0000169C943090716D4C168C943090712D46F
:1016E0006FF008010161042020772068C06980073D
:1016F000204602D0FFF7AEFF04E000F0DCF8204601
:1017000000F01EFA257720680169C943C90617D47D
:10171000C168C943C90613D46FF0100101610820E4
:1017200020772068C06910F4407F204602D0FFF780
:1017300091FF04E000F0BFF8204600F001FA2577A1
:1017400020680169C943C90708D1C168C943C907ED
:1017500004D1891E0161204600F096FA20680169D3
:10176000C943090609D4C168C943090605D46FF005
:10177000800101612046FFF753FE20680169C943DB
:10178000490609D4C168C943490605D46FF0400130
:101790000161204600F0B9FA20680169C943890651
:1017A0000BD4C168C943890607D46FF020010161D9
:1017B0002046BDE87040FFF734BE70BD70B586B0FE
:1017C000044614216846FEF744FE2148256800219E
:1017D000204A02230124854211D1106840F0010003
:1017E0001060106800F0010005904FF4C070009088
:1017F000CDE90131CDE903146946174814E01748D3
:10180000B5F1804F14D0164EB5420FD1156845F092
:10181000020515601268009402F002020592CDE9FB
:101820000131CDE903136946FFF760F906B070BDD9
:10183000156845F002051560126802F00202059273
:101840004FF480620092CDE90131CDE90314EAE75B
:101850000000014030380240000002400004024015
:101860000004004070B5044690F83C0000250128B3
:101870000FD0012084F83C006AB1042A0FD0082A56
:1018800011D00C2A13D00125002084F83C002846F2
:1018900070BD022070BD206800F098FDF4E720685C
:1018A00000F0C4FDF0E7206800F0F6FDECE72068EA
:1018B00000F026FEE8E7704710B5040003D094F866
:1018C0003D0010B107E0012010BD002084F83C006D
:1018D000204600F01EF8022084F83D00211D2068FB
:1018E00000F0F8FC012084F8460084F83E0084F8FB
:1018F0003F0084F8400084F8410084F8420084F8F6
:10190000430084F8440084F8450084F83D0000203A
:1019100010BD704710B50446022249B104290ED00B
:10192000082913D094F84100012816D0012010BDD9
:1019300094F83E000128F9D184F83E200FE094F895
:101940003F000128F2D184F83F2008E094F84000DD
:101950000128EBD184F8402001E084F841200122E5
:10196000206800F01BFD16492068164A884201D005
:10197000904203D1436C43F400434364206888429F
:1019800013D0B0F1804F10D00F4988420DD00F49CD
:1019900088420AD00E49884207D0904205D00D49AE
:1019A000884202D00C49884204D1816801F00701C5
:1019B000062903D0016841F001010160002010BD3B
:1019C0000000014000040140000400400008004005
:1019D000000C0040004001400018004070B5044673
:1019E00090F83C0000260D4601280FD0012084F815
:1019F0003C006AB1042A1DD0082A2FD00C2A3FD0FF
:101A00000126002084F83C00304670BD022070BDE5
:101A1000206800F0DBFC2068816941F008018161E9
:101A20002068816921F004018161206881692A6947
:101A3000114311E0206800F0F9FC2068816941F44D
:101A4000006181612068816921F480618161206881
:101A500081692A6941EA02218161D2E7206800F0A8
:101A60001BFD2068C16941F00801C1612068C1699E
:101A700021F00401C1612068C1692A69114311E0A4
:101A8000206800F03DFD2068C16941F40061C1613A
:101A90002068C16921F48061C1612068C1692A6937
:101AA00041EA0221C161ACE710B5040003D094F80B
:101AB0003D0010B107E0012010BD002084F83C007B
:101AC000204600F01FF8022084F83D00211D206808
:101AD00000F000FC012084F8460084F83E0084F801
:101AE0003F0084F8400084F8410084F8420084F804
:101AF000430084F8440084F8450084F83D00002049
:101B000010BD000008B500680B49884212D10B488F
:101B1000016841F0010101600068002200F001004D
:101B2000009011461920FFF74DF9BDE80840192033
:101B3000FFF73AB908BD00000000014044380240F8
:101B40007047000010B50446022249B104290ED0A6
:101B5000082913D094F84100012816D0012010BDA7
:101B600094F83E000128F9D184F83E200FE094F863
:101B70003F000128F2D184F83F2008E094F84000AB
:101B80000128EBD184F8402001E084F841200122B3
:101B9000206800F003FC16492068164A884201D0EC
:101BA000904203D1436C43F400434364206888426D
:101BB00013D0B0F1804F10D00F4988420DD00F499B
:101BC00088420AD00E49884207D0904205D00D497C
:101BD000884202D00C49884204D1816801F0070193
:101BE000062903D0016841F001010160002010BD09
:101BF00000000140000401400004004000080040D3
:101C0000000C0040004001400018004030B5044680
:101C10000D460068002200F0C1FB194B41F2111182
:101C200020688A10984202D0164B984209D1036A64
:101C30000B4206D1036A134203D1436C23F40043E1
:101C400043642068036A0B4206D1016A114203D142
:101C5000016821F00101016001203DB1042D08D08F
:101C6000082D09D084F84100002030BD84F83E00E2
:101C7000FAE784F83F00F7E784F84000F4E7000053
:101C80000000014000040140084910B588420BD112
:101C900020210748FFF718F800F03EFA00F016FE82
:101CA000BDE8104000F084BA10BD00009001002093
:101CB0000000024070B5044690F83C00012812D0A4
:101CC000012584F83C50022084F83D00204600F0B5
:101CD0003FFC01004FF0000007D084F83D5084F82D
:101CE0003C00012070BD022070BD2168CA6822F04E
:101CF0004002CA602168CA6822F48042CA6084F83F
:101D00003D5084F83C00002070BD7047FEE70000A5
:101D10000A49002040F2CD4281F86A0008498A60F1
:101D200040F6FF72CA6092100A6006224A600549B6
:101D3000088005490880054908807047D8010020BF
:101D4000440200200E00002012000020100000209D
:101D50000F4810B50D4A026000214FF48032C0E9EF
:101D6000012101220261027680F82010094BC0E9AE
:101D70000A31C261C16080F830104261FEF757FD40
:101D8000002801D072B6FEE710BD0000002001401F
:101D9000700000200100000F70B586B01421684665
:101DA000FEF757FB2A480024016841F00401016056
:101DB000016801F004010591016841F080010160B2
:101DC000016801F080010591016841F001010160A5
:101DD000016801F001010591016841F00201016013
:101DE00000681C4E00F002000590002220213046C1
:101DF000FEF772FF4FF4005000904FF40410CDE94D
:101E0000010469461448FEF771FE0C200090022080
:101E1000CDE9010403200390072004906946304671
:101E2000FEF764FE202000900125CDE901546946AB
:101E300030460394FEF75AFE12200090CDE901547B
:101E4000694606480394FEF751FE06B070BD0000D7
:101E50003038024000000240000802400004024006
:101E600030B591B000240F941C2168461094FEF701
:101E7000F0FA202107A8FEF7ECFA2D482B492E4A4C
:101E800001602C490968B1FBF2F1491EC0E9011457
:101E900040F2E731C0E9031444618461FFF704FEB6
:101EA00008B172B6FEE72248FFF706FD08B172B628
:101EB000FEE75020CDE90F040FA91D48FFF7DCFA1B
:101EC00008B172B6FEE7602000904FF4FA75CDE9D4
:101ED000015403940494059400226946144806941E
:101EE000FFF77CFD08B172B6FEE71020CDE90005D2
:101EF000042269460E48FFF7B5FC08B172B6FEE74A
:101F00000794089409944FF400500A94CDE90B40CB
:101F100007A907480E94FFF785FA08B172B6FEE7E5
:101F20000348FFF74BFC11B030BD0000000001403A
:101F3000B80000203000002040FF100530B597B0F9
:101F400014210FA8FEF785FA002414941C2168467A
:101F50001594FEF77EFA202107A8FEF77AFA334897
:101F60004FF08041334A016031490968B1FBF2F119
:101F7000491EC0E9011440F2E731C0E9031484614D
:101F8000FFF7C2FA08B172B6FEE72848FFF78CFDEA
:101F900008B172B6FEE72548FFF78EFC08B172B6AD
:101FA000FEE70620CDE90F040FA92048FFF782FEC7
:101FB00008B172B6FEE77020CDE9140414A91B48DD
:101FC000FFF75AFA08B172B6FEE7602000904FF4AE
:101FD000FA75CDE901540822694614480494FFF7C4
:101FE000FDFC08B172B6FEE71020CDE900050C2219
:101FF00069460E48FFF736FC08B172B6FEE7079453
:1020000096200894CDE909404FF40050CDE90B40EB
:10201000064807A948380E94FFF704FA08B172B6CB
:10202000FEE70248FFF7CAFB17B030BD00010020F1
:102030003000002040FF100510B596B014210FA805
:10204000FEF707FA002414941C2108A81594FEF743
:1020500000FA20216846FEF7FCF92B4829492C4A52
:1020600001602A490968B1FBF2F1491EC0E9011477
:1020700040F2E731C0E903148461FFF745FA08B183
:1020800072B6FEE72048FFF70FFD08B172B6FEE713
:1020900006200F90102010900FA91B48FFF70AFE92
:1020A00008B172B6FEE7149414A917481594FFF707
:1020B000E3F908B172B6FEE7602008904FF4FA70B9
:1020C000CDE90904082208A90F480C94FFF786FC03
:1020D00008B172B6FEE700944FF40050CDE9044019
:1020E0000948029401940394694690380794FFF7D5
:1020F00099F908B172B6FEE70348FFF75FFB16B027
:1021000010BD000000040040480100203000002005
:1021100040FF1005FEE7000070B5FEF793FA204877
:10212000FEF748FC4FF47A7529461D48FEF7ECFB94
:102130001B48FEF779FB1B4C20601948FEF7B8FCE2
:10214000FEF794FA1648FEF735FC29461448FEF7C8
:10215000DBFB1348FEF768FB60601148FEF7A8FC44
:10216000FEF798FA0E48FEF725FC29460C48FEF7C4
:10217000CBFB0B48FEF758FB40F29511A06048439B
:102180004FF40C61B0FBF1F000EE100A0648B8EE17
:10219000400A80ED000ABDE870400148FEF788BCA7
:1021A00070000020D801002000000020FEE70000A1
:1021B00070B50E4C94F8690028B101280BD00025A9
:1021C000042810D10DE0A068A0F27C60404200F02D
:1021D000FFFA012002E000F06DFA042084F86900A3
:1021E00070BD00F0B9FB84F8695070BDD8010020C3
:1021F00010B5FEF77DFD00F063FC012803D0BDE8BB
:10220000104000F047BC10BD30B593B03421684693
:10221000FEF71FF914210DA8FEF71BF92048002531
:10222000016841F080510160006800F08050129018
:102230001C48016841F4404101600068022400F438
:1022400040401290012003901020049000940694C6
:102250000820CDE90750AA20CDE909040B9468466F
:102260000C94FEF7FDFE08B172B6FEE7FEF7DCFD4A
:1022700008B172B6FEE70DA90F2081E831004FF4D6
:10228000A05010904FF48050119005210DA8FEF73A
:1022900003FE002801D072B6FEE713B030BD000087
:1022A00040380240007000400248016841F470016B
:1022B0000160704788ED00E010B50448FFF7CBF9E6
:1022C000BDE810400248FFF7C6B90000B800002082
:1022D00090010020F0B50268254C264D264E274F70
:1022E000274B4FF0804CA04209D0604507D0A84250
:1022F00005D0B04203D0B84201D0984204D122F0B8
:10230000700E4A6842EA0E02A0421BD0604519D006
:10231000A84217D0B04215D0B84213D0984211D07D
:10232000184DA8420ED0184DA8420BD0174DA84208
:1023300008D0174DA84205D0164DA84202D0164D20
:10234000A84203D122F44075CA682A434D6922F09D
:1023500080022A4302608A68C2620A688262A042DE
:1023600001D0984201D10969016301214161F0BDA9
:10237000000001400004004000080040000C004044
:102380000004014000400140004401400048014079
:1023900000180040001C00400020004010B501F073
:1023A0001F030121046A99408C430462016A9A4028
:1023B0001143016210BD10B5846842EA032224F47F
:1023C0007F440A432243826010BD0000F0B5026AD8
:1023D00022F001020262036A42688469124E24F00C
:1023E00073050C682C4323F002058B682B430D4DBD
:1023F000A84201D0B04205D123F00807CB683B4387
:1024000023F00403A84201D0B04205D14D6922F463
:10241000407215438A692A43426084614968416376
:102420000362F0BD0000014000040140F0B5026A03
:1024300022F010020262026A436884690D6824F483
:10244000E64444EA05248D6822F0200242EA05129F
:102450000F4D104EA84201D0B04206D1CF6822F0F5
:10246000800242EA071222F04002A84201D0B042A4
:1024700007D14D6923F4406343EA85038D6943EA3C
:10248000850343608461496881630262F0BD000096
:102490000000014000040140F0B5026A22F480729D
:1024A0000262026A4368C46922F4007224F0730570
:1024B0000C68124E2C438D6842EA05220E4DA8424C
:1024C00001D0B04206D1CF6822F4006242EA07226E
:1024D00022F48062A84201D0B04207D14D6923F4B2
:1024E000405343EA05138D6943EA05134360C46111
:1024F0004968C1630262F0BD000001400004014070
:1025000030B5026A22F480520262046A4268C369EA
:102510000D6823F4E64343EA05238D6824F4005450
:1025200044EA0534084DA84202D0084DA84204D11F
:102530004D6922F4804242EA85124260C3614968D3
:102540000164046230BD000000000140000401404D
:1025500070B5036800249A6822F070054A682A431F
:1025600022F007050A682A439A604A6812F00F0FA2
:1025700031D11211082A2ED2DFE802F02E2E2E2E93
:102580000B2127040B69D1E902210068FFF713FF33
:1025900022E00A68052A10D00268136A156A25F03D
:1025A0000105156202689569096925F0F00545EA9B
:1025B00001119161006803620EE0012070BD0A699B
:1025C0008968006800F00AF806E00A69896800680E
:1025D00000F015F800E00124204670BD10B5036A34
:1025E000046A24F001040462846924F0F00444EADB
:1025F000021423F00A020A438461026210BD10B57E
:10260000036A23F0100303628369046A23F47043AE
:1026100043EA023224F0A00343EA0111826101621D
:1026200010BDFEE71448164B016814480A181548F7
:102630009A4204D20121417040F2BE2108E0124AC0
:102640000A44B2F5B40F05D2022141704FF4607113
:10265000018170470D4A0A44B2F5880F04D2032164
:10266000417040F29671F3E7094A9142F1DB04218F
:10267000417040F60F01EBE704000020FFFF55BD5D
:10268000FFFF27000C00002000002EBD0000D4BC7E
:10269000000070430907090E002804DB00F1E02068
:1026A00080F80014704700F00F0000F1E02080F87F
:1026B000141D70470B480022DFED0C0A90F86830BB
:1026C0000948C1888180C28088B200EB4010C000F8
:1026D00000EE100A0648B8EE400A80EE201A80ED9F
:1026E000001A7047D80100200C0000200000C844E8
:1026F0000400002000B5FFF795FF0A4840F2792357
:10270000002182889A420BD90278521CD2B2027000
:10271000012A04D101700449012081F86A0000BD3A
:10272000017000BD0C000020D8010020FEF7E8FA7F
:10273000FFF76AFDFFF730FBFFF70AFBFFF790FB9F
:10274000FFF7FCFBFFF778FC0F480E49104A0160C9
:102750000E4900240968B1FBF2F1491EC0E90114D9
:1027600042F60311C0E903148461FEF7CDFE08B1FF
:1027700072B6FEE7FFF7CCFA064804800248FEF77F
:1027800029FFFEE7004401409001002030000020B6
:1027900040A5AE020800002010B50B4C40F27C6151
:1027A000A068884204D900F0F3F8062084F86A0093
:1027B000064840F22B218088884204D200F0E8F8D5
:1027C000002084F86A0010BDD80100200C00002011
:1027D00070B5224C224E2DED028BE060B56845436A
:1027E000256100F0B8FA41EC180BF06800F0CAFA65
:1027F0009FED1C1B53EC112B00F0D8FA53EC182B57
:1028000000F0D4FA41EC180B606900F0A4FA53EC24
:10281000182B00F0C9F900F06FFA40F2F351606133
:10282000884201DD616103E0002801DA0020606177
:1028300060694FF42A71284440F30F30884201DD6B
:10284000084602E0002800DA00204FF08041C8630B
:1028500006490860BDEC028B70BD00000C00002032
:1028600044020020C1C647DD20ACE83E3C040040E5
:102870000648416B096829B1416BC968C968496854
:10288000816270474FF0FF31FAE70000340000200A
:1028900010B50B4C40F27C61A068884204D900F06E
:1028A00077F8062084F86A000649A06809898842FA
:1028B00005D9054904208861032084F86A0010BD09
:1028C000D80100200C000020000002400D48D0E993
:1028D00000128A4203D9511A8162012102E0891A49
:1028E0008162002180F86810D0E90A210A44A2EB35
:1028F0009121C162890A01630348C288914200D9CB
:10290000C1807047D80100200C00002070B5104C29
:1029100040F279210025A088884208D96088401CAF
:1029200080B260800A2803D90120207003E065800E
:10293000207801280BD1074E2189B068884206D340
:10294000658000F03BF82570022086F86A0070BDB3
:102950000C000020D80100200C4890F86A100729CC
:1029600012D2DFE801F00406080A11110C00FFF78B
:10297000C1BEFFF7CBBFFFF78BBFFFF70DBF06212F
:1029800080F86A1000F004B870470000D8010020F9
:1029900010B500210648FFF739F900210548FFF777
:1029A00035F9BDE8104000210348FFF72FB90000BA
:1029B000B8000020000100204801002010B50021CF
:1029C0000A48FFF7BFF804210848FEF7A3FF0021DB
:1029D0000748FFF7B7F808210548FEF79BFFBDE859
:1029E000104000210348FFF7ADB80000B8000020F8
:1029F0000001002048010020D0E9013201699A60FD
:102A0000D0E901235A604A68824201D182684A6053
:102A1000002202610868401E08600868704742682A
:102A20004A6093688B60936859609160086101689F
:102A3000491C0160704700001448016B11B101216D
:102A4000C16170470021C1610169B1FA81F1C1F131
:102A50001F0101EB81020E4951F822306BB101EBED
:102A6000820101F108034A6852684A609A4201D122
:102A700052684A60D16801607047502080F3118825
:102A8000BFF34F8FBFF36F8FFEE7000034000020CD
:102A90005802002010B5502080F31188BFF34F8FEB
:102AA000BFF36F8F00F01AF818B104494FF080504F
:102AB0000860002080F3118810BD000004ED00E0E4
:102AC0000548416919B1006B18B100207047012019
:102AD0007047022070470000340000202DE9F041CB
:102AE0002F4C0026206B28B1A069401CA061304605
:102AF000BDE8F081E5686D1CE56013D1606B00688E
:102B000038B1502080F31188BFF34F8FBFF36F8F20
:102B1000FEE7606BA16B6163A063206A401C2062CA
:102B2000FFF7A6FEA06ADFF87C80854209D3606BC0
:102B30000068A0B1606BC068C7687868854211D230
:102B4000A0622068C06A00EB800158F821000128CB
:102B500000D90126E0690028C9D00126C7E74FF057
:102B6000FF30EDE7381DFFF747FFB86A18B107F1EE
:102B70001800FFF741FFF96A0120226988401043DD
:102B8000206101EB810108EB8100391DFFF747FF50
:102B9000F86A2168C96A8842C9D30126C7E70000DC
:102BA000340000205802002010B591EA030F48BFFE
:102BB00083F0004300F10082841A71EB030C05D20C
:102BC000121943EB0C03001B61EB0C01DFF824E14D
:102BD0004FEA1154A4EB135C1EEA430F18BF9EEAA0
:102BE000445F73D023EA0E03DCF1200E21EA045186
:102BF00043F4801332D322FA0CFE10EB0E0023FABA
:102C00000CFE41EB0E01CCF1200E03FA0EFE10EB90
:102C10000E0051F10001B1F5801FCCF1200E32D22F
:102C200001EB045112FA0EF2BDE8104058BF704794
:102C3000401C38BF5FEA420218BF7047002814BF2B
:102C400020F0010041F100014FEA410313F5001F9C
:102C500038BF7047A1F1C04100F0A0B9012A43EB91
:102C60000302ACF1200CDCF11F0E32BF4FF0000E5E
:102C700023FA0CF310EB030041EB0451B4EB115FAA
:102C8000D0D0A1EB045101F5801149085FEA300072
:102C900001EB04510ED350F1000038BF12FA0EFEC2
:102CA00008D1BDE81040C9E7401C38BF5FEA4202C6
:102CB000CAD1C3E7BDE810404FEA410313F5001F36
:102CC00038BF7047A1F1C04100F068B99EEA445F87
:102CD00008D011EA5E0FBDE8104004BF01F00041CA
:102CE00000207047BDE8104070B500F009F900BF42
:102CF00064FBBE3E0000E0FF4FEA41034FEA53533E
:102D0000A3F58063D3F11E03C8BFD3F1210C0CDD02
:102D10004FF0004242EAC12242EA505232FA03FC2A
:102D20008CEAE17CACEBE1707047102BC4BF002053
:102D3000704703F5787CBCF1FF3F04D06FF0004290
:102D400082EA2100704770B500F0DAF849922480D9
:102D500000207047F2E710F0004248BF4042B0FA4E
:102D600080F310FA03F10AD0C3F11D0303F5806369
:102D70004FEA415002EB035202EBD12170474FF072
:102D800000007047B0FA80F310FA03F10AD0C3F1E3
:102D90001D0303F580634FEA41504FEA035202EBF3
:102DA000D12170474FF0000070470000DFF848C1A4
:102DB00070B51CEA111E1EBF1CEA13159EEA0C0F0B
:102DC00095EA0C0F00F06F8081EA030423EA4C13AC
:102DD0004EEAD47E21EA4C1141F4801143F4801371
:102DE000AE44A1FB024CA0FB0365AEF17F7E361919
:102DF00055EB0C05A1FB034C4CF10003A0FB021C9E
:102E000016EB0C06654153F10003094218BF46F06A
:102E1000010613F4007F0BD14FEA03314FEA05306E
:102E2000340341EA155140EA16506FF003020AE0FC
:102E30004FEAC3214FEAC520F40241EA555140EA66
:102E400056506FF0020202EB2E4201EB025585EA6A
:102E5000CE710AD05FEA440C18BF24F0004450F150
:102E6000000041F1000120EAD47040F2FE7C62458E
:102E700000D270BDA84214BF4FF080444FF04044D0
:102E8000002E08BF0024BEF1806FA8BFA1F1C04191
:102E9000BDE8704080F282804FF0000001F1C04137
:102EA00001F0004170479EEA0C0F0CEA131518BFA1
:102EB00095EA0C0F06D04FF0000081EA030E0EF0E9
:102EC000004170BD00F01CF88900013E00F007B819
:102ED00000F009B84FEA430C5FEA5C5C08D081EA75
:102EE000030100F05BB84FEA410C5FEA5C5CF6D18D
:102EF0004FF00000014970470000FF070000F87F15
:102F00000EF1020E2EF0030E5EF8046B364205D46D
:102F1000012A43EB030515F5001F12D8012841EBE8
:102F2000010C1CF5001F0CD80ED14FEAD17C15F511
:102F3000001F0CEB4C0C0CF1020C08BF4CEBD37CCB
:102F400004E04FF0080C01E04FEAD37C0CEB4C0599
:102F500026FA05F606F00706B6F1040C06D20EEBCB
:102F6000860CBDE870404CF0010C6047DFE80CF0C7
:102F7000090B02024FF000414FF00000A1F50021C3
:102F800070BD19461046012851EB010418BFD4F555
:102F9000001484BF002001F0004170BD0808A0F5B6
:102FA00000114FEA3101704710B591EA030F48BF95
:102FB00083F000433FF500AE841A71EB030C07D297
:102FC00012198CF0004C43EB0C03001B61EB0C015D
:102FD000DFF8A4E14FEA1154A4EB135C1EEA430F9F
:102FE00018BF9EEA445F00F0B08023EA6E035242AD
:102FF00021EA0451C3EB6E0338BF5B1EDCF1200EE7
:1030000025D322FA0CFE10EB0E0043FA0CFE41EB26
:103010000E01CCF1200E03FA0EFE10EB0E0051F162
:103020000001CCF1200E29D412FA0EF201EB04516A
:10303000BDE8104058BF7047401C1CBFB2F1004FA4
:10304000704700280CBF491C20F00100704712EBAC
:10305000020E43EB030218BF4FF0010E4EEA42028C
:10306000ACF1200CDCF11E0E54D943FA0CFE10EB2F
:103070000E0051F1FF31CCF11E0ED5D50EF1010E2F
:1030800012FA0EFE404141EB010101EB445C5FEAA4
:103090005C5C10D910EBDE7001EB045138BFBEF15F
:1030A000004FBDE8104018BF704700280CBF491CF6
:1030B00020F00100704730D24FEAD42C11F50011F6
:1030C00024F400641BD0B1FA81F20B3AA41AA41EB6
:1030D000D2F12003914030FA03F31943904001EB01
:1030E000CC71002C01EB0451BDE81040A8BF704723
:1030F00001F1C0414FF0000001F000417047B0FA0B
:1031000080F310FA03F100D110BDE41A173C480512
:10311000C90AE4E701EB045110BD491001EB045169
:10312000BDE810404FEA300002E04FF00001704768
:103130004A0008BF0042F8D0B2F5001F28BF704710
:1031400001F000414FF0000070479EEA445F07D055
:1031500011EA5E0FBDE8104004BF00210020704757
:10316000BDE8104070B5FFF7CBFE00BF40DFF63E74
:1031700083F00041104670470000E0FF4FF04070C0
:10318000E1EE100A7047000000000000000001029C
:103190000304060708090000B831000800000020F9
:1031A00070000000000200082832000870000020B3
:1031B000380900001C0200080000000000000000A8
:1031C00000000000000000000000000000000000FF
:1031D00000000000000000000000000001000000EE
:1031E00010000000000000000024F40000000000B7
:1031F00000000000000000000000000000000000CF
:1032000000000000000000000000000000000000BE
:1032100000000000000000000000000000000000AE
:083220000000000000000000A6
:04000005080001C529
:00000001FF
