:020000040800F2
:10000000C015002039030008792E0008012B0008D4
:100010002D2E0008710600083F3500080000000082
:10002000000000000000000000000000790200084D
:100030007306000800000000D5020008BD2E00086D
:100040005303000853030008530300085303000838
:100050005303000853030008530300085303000828
:100060005303000853030008530300085303000818
:100070005303000853030008530300085303000808
:1000800053030008530300085303000853030008F8
:1000900053030008530300085303000853030008E8
:1000A000530300084D2F00085303000853030008B2
:1000B00053030008530300085303000853030008C8
:1000C00053030008530300085303000853030008B8
:1000D00053030008530300085303000853030008A8
:1000E0005303000853030008530300085303000898
:1000F0005303000853030008530300085303000888
:100100005303000853030008530300085303000877
:100110005303000853030008530300085303000867
:100120005303000853030008530300085303000857
:100130005303000853030008530300085303000847
:100140005303000853030008530300085303000837
:100150005303000853030008530300085303000827
:100160005303000853030008530300085303000817
:100170005303000853030008530300085303000807
:1001800053030008530300085303000853030008F7
:100190005303000800000000530300085303000845
:1001A00053030008530300085303000853030008D7
:1001B00053030008530300085303000853030008C7
:1001C00053030008530300085303000853030008B7
:1001D000530300085303000800F002F800F03CF855
:1001E0000AA090E8000C82448344AAF10107DA4592
:1001F00001D100F031F8AFF2090EBAE80F0013F0A8
:10020000010F18BFFB1A43F0010318478045000097
:10021000A0450000103A24BF78C878C1FAD8520728
:1002200024BF30C830C144BF04680C607047000070
:100230000023002400250026103A28BF78C1FBD8EF
:10024000520728BF30C148BF0B6070471FB504F08C
:100250008FFA1FBD10B510BD00F0B8F81146FFF7BA
:10026000F5FF03F0B7F900F0D6F803B4FFF7F2FF9B
:1002700003BC00F0DDF800002C4B19680868B0E8FA
:10028000F04F80F30988BFF36F8F4FF0000080F3C9
:10029000118870470000000008480068006880F37B
:1002A00008884FF0000080F3148862B661B6BFF38F
:1002B0004F8FBFF36F8F00DF00BF00BF08ED00E07E
:1002C000DFF80C00016841F470010160704700BF65
:1002D00088ED00E0EFF30980BFF36F8F134B1A68CE
:1002E0001EF0100F08BF20ED108A20E9F04F1060BB
:1002F00009B44FF0500080F31188BFF34F8FBFF364
:100300006F8F03F005FE4FF0000080F3118809BCE9
:1003100019680868B0E8F04F1EF0100F08BFB0EC85
:10032000108A80F30988BFF36F8F70473800002070
:10033000EFF30580704700000948804709480047EF
:10034000FEE7FEE7FEE7FEE7FEE7FEE7FEE7FEE785
:10035000FEE7FEE704480549054A064B70470000E2
:100360003D2F0008D9010008C00F0020C015002053
:10037000C0110020C01100204FF0000200B513464C
:1003800094469646203922BFA0E80C50A0E80C50B5
:10039000B1F12001BFF4F7AF090728BFA0E80C5066
:1003A00048BF0CC05DF804EB890028BF40F8042B5F
:1003B00008BF704748BF20F8022B11F0804F18BFCC
:1003C00000F8012B7047704770477047754600F082
:1003D0002BF8AE4605006946534620F007008546D7
:1003E00018B020B5FFF7B6FFBDE820404FF000067B
:1003F0004FF000074FF000084FF0000B21F007010D
:10040000AC46ACE8C009ACE8C009ACE8C009ACE84F
:10041000C0098D46704710B50446AFF300802046F2
:10042000BDE81040FFF721BF00487047600F002073
:1004300001491820ABBEFEE726000200704700000D
:100440002DE9F041044600270D46006802F063FBE9
:100450000646206802F05BFB30435DD02068C1682F
:100460002E4E890105D5617F012902D1217F012905
:100470000BD0022D1DD0206802F04DFBB8B12068D2
:100480008168C1F3400169B111E00125244902E00E
:100490008F4232D27F1C0268D2435206F8D44021E8
:1004A0000160E8E78168314041F010018160012D71
:1004B00011D0206802F02BFB48B120688168C1F39D
:1004C000400121B98168314041F020018160022D55
:1004D00008D0032D04D0042500F052FF064617E093
:1004E0000C25F9E70825F7E700F04AFF801B0528EF
:1004F0000ED92068806828420AD0E06D40F01000D4
:10050000E065206E40F0010020660120BDE8F0812A
:10051000206880682842E7D10020F7E7C0FFFF7F0E
:10052000000040A370B50446006881688268C1F38A
:10053000400112F0010F28D039BB816801F00D0194
:10054000012914D18168124A1140891C81602168F7
:100550000320086000F014FF054612E000F010FFD1
:10056000401B02280DD920688068C00709D0E06DC3
:1005700040F01000E065206E40F001002066012090
:1005800070BD20688068C007E8D1002070BD000001
:10059000C0FFFF7F70B504460068816811F0010F4D
:1005A0002DD18168174A11421AD18168D54329405B
:1005B000491C816000F0E4FE06461BE0816811F0F2
:1005C000010F03D181682940491C816000F0D8FEE9
:1005D000801B02280ED920680068C043C00709D0DC
:1005E000E06D40F01000E065206E40F001002066F4
:1005F000012070BD20680168C943C907DED1002011
:1006000070BD00003F00008030B5002104220624A8
:100610007F2389B0062809D2DFE800F008030A1812
:100620001A1C0D4805E000BF00F024F809B030BDE9
:100630000A48CDE90421CDE90213CDE90004694659
:10064000074800F013F90028EED1EFE70548F0E77E
:100650000548EEE70548ECE70200300404006008B6
:10066000A00000200800900C1000C0102000F01422
:10067000FEE7704772B6FEE7F8B50026044600961E
:1006800090F858000D4601280BD0012084F858003E
:100690002046FFF747FF0100E06D04D040F0100056
:1006A0002AE00220F8BD20F4885040F00200E06506
:1006B00020688268134B1A4005F080431A4342F0C9
:1006C00000428260104A20680EE0009B5B1C009391
:1006D000934209D3E06D20F0020040F01000E06585
:1006E00084F858600120F8BD8368DB0FEDD1E06D20
:1006F00020F0020040F00100E06584F858600846F0
:10070000F8BD0000C0FFFF3F02DE04002DE9F04FFE
:10071000044690F858009BB00F464FF0000B01289C
:1007200012D0012084F858000026179618962068E9
:100730004FF0A048DFF81C91DFF81CA1474D404561
:1007400006D12846009508E002201BB0BDE8F08FD6
:1007500048450AD15046CDF800A002F0E0F90090DB
:10076000206802F0DCF940B109E0E06D40F02000C3
:10077000E06584F858600120E7E7009850B1E06D2B
:1007800040F02000E0654FF0010B00BF84F8586096
:100790005846DAE720684146884201D0A84201D194
:1007A0002F4800E02F48D7F800C02F4B40F61F72AB
:1007B000BCF1000F2DD0D0F808C094F838802CF48C
:1007C000604C4CEA483CD7F804804CEA080CC0F86E
:1007D00008C0D4F800C08C4501D0AC4504D189686C
:1007E000AB6801F0010109E0D9F80810DAF8085007
:1007F00001F0010105F001059B68294303F00103A5
:100800001943C3D1BB6839681943836893431943BB
:100810001DE0876827F46047876027688F4201D012
:10082000AF4204D18968AB6801F0010109E0D9F851
:100830000810DAF8085001F0010105F001059B6885
:10084000294303F001031943A0D1816891438160DA
:100850009CE700000004005000050050000100501B
:100860000003005000070050000600502DE9F84F2B
:1008700000270446009790F85800DFF814840D46CE
:10088000B946012811D0012684F85860206802F08A
:1008900042F960B1E06D40F02000E0655FF00107D3
:1008A00084F858903846BDE8F88F0220FBE7D5E978
:1008B00000210C23206803EA91131844036B01F014
:1008C0001F014FF01F0C0CFA01FCC2F3846223EAF3
:1008D0000C038A4013430363206802F01CF982462C
:1008E000206802F014F95AEA00003CD1AA6829688D
:1008F0002068B2F1004F37D002F015F92068416945
:1009000021F00041416120686969C268C2F3C102F7
:10091000520091402A69042A31D000EB82002B68F2
:10092000026EDFF870C303F0F84302EA0C020B43D7
:100930001A4342F00041016622682869A96902EB66
:100940008000026E22F080720A430266297F2068CE
:100950002A69012910D0002100EB8200026E22F0EA
:1009600000720A4302667DE0002202F0DCF8206893
:10097000416941F00041C5E74FF00071ECE700210B
:1009800002F0BFF8400320684FF0000172D002F07F
:10099000B8F890FAA0F0B0FA80F1286842036ED05F
:1009A00090FAA0F0B0FA80F0814204D10022114602
:1009B000206802F0C7F80121206802F0A2F8400385
:1009C00020684FF001015DD002F09BF890FAA0F092
:1009D000B0FA80F12868420359D090FAA0F0B0FA3A
:1009E00080F0814204D100220121206802F0AAF89F
:1009F0000221206802F085F8400320684FF00201D0
:100A000048D002F07EF890FAA0F0B0FA80F12868A1
:100A1000420344D090FAA0F0B0FA80F0814204D1B1
:100A200000220221206802F08DF80321206802F0E4
:100A300068F8400320684FF0030133D002F061F8FA
:100A400090FAA0F0B0FA80F1286842032FD090FA13
:100A5000A0F0B0FA80F0814204D100220321206886
:100A600002F070F82068816811F0010F22D0A8E030
:100A700000E004E002F045F8C0F384618DE7C0F3C4
:100A8000846091E702F03DF8C0F38461A2E7C0F30F
:100A90008460A6E702F035F8C0F38461B7E7C0F3DD
:100AA0008460BBE702F02DF8C0F38461CCE7C0F3AB
:100AB0008460D0E7EB682968434550F8B03FC1F344
:100AC000120101D10B4300E08B430360E86840450D
:100AD00077D1286841031CD090FAA0F1B1FA81F1D6
:100AE000491C01F01F0109294FEA403132D8002981
:100AF00012D000BF90FAA0F1B1FA81F101F1010129
:100B000001F01F0106FA01F609D100BFC0F38461AC
:100B100009E0C0F38461E3E7C0F38461EEE790FA93
:100B2000A0F1B1FA81F101F1010101F01F0146EAE2
:100B3000816102D1C0F3846003E090FAA0F0B0FAC2
:100B400080F000F1010000F01F0000EB400041EADE
:100B5000005132E000290ED090FAA0F1B1FA81F1F3
:100B600001F1010101F01F0106FA01F606D100BFF3
:100B7000C0F3846106E0C0F38461F1E790FAA0F16C
:100B8000B1FA81F101F1010101F01F0146EA816131
:100B900002D1C0F3846003E090FAA0F0B0FA80F0D4
:100BA00000F1010000F01F003B4A00EB400002EBA7
:100BB000005041EA000141F00071AA68206801F08C
:100BC000B2FF36482B6803423FF46AAE22684FF00A
:100BD000A04C3348334E344D624501D0AA4201D176
:100BE000014600E031468968DFF8C08001F0E0711D
:100BF000434503D0DFF8B880434521D15FEA01289F
:100C00001ED4624506D02B4B9A427FF449AEAA42CD
:100C100000D0304641F40001826822F0E0720A43BD
:100C20008260254825490068B0FBF1F0401C00EBCC
:100C30004000800000E0401E00900028FBD12FE61D
:100C4000DFF87C8043450FD15FEAC1180CD4AA427B
:100C500002D11C4B9A42F2D0624502D0AA4200D087
:100C6000304641F080710CE0DFF85C804345E6D10E
:100C70004B02E4D4AA42E2D0624500D0304641F4AF
:100C80008001826822F0E0720A43826008E6000078
:100C900000007F4000F0FF03000020FE00000880FD
:100CA000000300500007005000010050000021C365
:100CB0001000C0900006005034000020400D0300DA
:100CC000000052C700050050000084CB0068006C93
:100CD00070470000F8B54FF0000504002E4600955F
:100CE00002D0E06D10B107E00120F8BD204600F011
:100CF0000DF9266684F8586020688168C1F3407158
:100D000019B18168754A1140816020688168C1F31A
:100D1000007189B98168724A114041F08051816047
:100D2000704871490068B0FBF1F04000801C00E0A1
:100D3000401E00900028FBD120688168C1F300713B
:100D400041B9E16D41F01001E165216E41F0010111
:100D50002166012501F0DFFEE16DC90600D430B146
:100D6000E06D40F01000E06501252846F8BDE06D1B
:100D700020F4807040F00200E0652068816811F086
:100D8000010F27D14FF0A043584A984201D090421A
:100D900004D19968966801F001010AE05449896814
:100DA000544E01F00101B66806F001063143524E7F
:100DB000B66806F0010631430CD1984201D090424A
:100DC00001D14E4800E04E486168826822F47C12EE
:100DD0000A438260E168E06B627F0843A16841EAF0
:100DE0004231084394F8241040EA0140012904D11B
:100DF000218D444A02EB41410843E16A29B101F4E3
:100E00007871226B014342EA01002168CA683E4BB7
:100E10001A400243CA6020680169626B21F0406198
:100E200011430161206801F076FE0646206801F05A
:100E30006EFE30432ED1207F94F83810800340EAB4
:100E400041012068C26844F202039A430A43C26027
:100E500020690028206801690AD041F480310161CD
:100E6000206850F8C01F22696FF30D01114307E09D
:100E700021F480310161206850F8C01F6FF30D012B
:100E8000016094F8400001280CD02068016921F02D
:100E900001010161606901282068016B21F00F01E7
:100EA00011D013E0D4E911010843D4E9131211431E
:100EB000084321680A6940F2FC739A43104340F0EA
:100EC00001000861E6E7226A521E11430163E06DEA
:100ED00020F0020040F00100E06546E7C0FFFF5F40
:100EE000C0FFFF7F34000020400D030000010050D0
:100EF00000040050000500500006005000030050A0
:100F0000000700500000FEFF0740F0FF30B59BB027
:100F10000446142115A8FFF72FFA54216846FFF75D
:100F20002BFA2068B0F1A04F35D14FF4004000906B
:100F300080031190684600F027FB08B1FFF79AFB89
:100F40001648C16C41F40051C164C16C01F40051F8
:100F50001A91C16C41F00101C164C16C01F0010141
:100F60001A91C16C41F00201C164C06C15A900F076
:100F700002001A900F200324002581E831004FF071
:100F8000904000F0CBF815A94FF4804081E8310083
:100F9000034800F0C3F81BB030BD00000010024051
:100FA000000400482DE9F041044600684FF0A045D8
:100FB000444FA84201D0B84201D1434900E043491F
:100FC000896801F01F0601F0A6FD18B1022108464C
:100FD000BDE8F08194F8580001280CD0012084F875
:100FE00058002046FFF7D6FA01004FF0000204D067
:100FF00084F85820EBE70220EAE7E06D40F6016351
:10100000984340F48070E0652068314BDFF8C4C03D
:10101000B84201D1AE4604E0984201D1E64600E074
:101020008646864500D02EB9D4F85CE02EF4801EAA
:10103000C4F85CE0D4F85CE05FEACE4E06D5D4F8A4
:1010400060E02EF0060EC4F860E000E022664FF08B
:101050001C0EC0F800E084F858202068B84201D186
:101060002A4604E0984201D1624600E002468242EC
:101070000ED06EB1052E0BD0092E09D0E26D42F4D0
:101080008012E265B84213D0984210D165460FE055
:10109000C268920105D5E26D22F4005242F48052FA
:1010A000E26582680C4B1A40121D82608FE705468C
:1010B000E86880018BD5E06D20F4005040F480504A
:1010C000E06584E700010050000300500007005075
:1010D0000005005000040050C0FFFF7F10B504461B
:1010E00090F85800012808D0012084F85800032106
:1010F0002046FFF7A5F910B10BE0022010BD2046F5
:10110000FFF710FA28B9E16D21F4885141F001018F
:10111000E165002184F8581010BD00002DE9F04F62
:10112000DFF82092002301260324A9F1040B85B0E7
:101130000F2709F1040AABF1040EFAE006FA03F5F1
:101140002A407CD091F804C00CF0030CBCF1010FD4
:1011500002D0BCF1020F26D1D0F808C0CDF800C0F3
:101160004FEA430C04FA0CF8CDF810C0DDF800C0CB
:101170002CEA080CCDF800C0D1F80C80DDF810C0C6
:1011800008FA0CF8DDF800C048EA0C08C0F808803E
:10119000D0F804C02CEA050C0D79C5F300159D406C
:1011A00045EA0C0545600D79ED43AD070ED0C568E5
:1011B0004FEA430804FA08FC25EA0C05D1F808C0F8
:1011C0000CFA08FC4CEA050CC0F80CC00D7905F0CF
:1011D0000305022D16D1DD0800EB850CCDF808C003
:1011E000DCF820805D074FEAD56C07FA0CF528EA99
:1011F00005080D6905FA0CF5DDF808C045EA080593
:10120000CCF8205005684FEA430CCDF808C004FA2A
:101210000CFC25EA0C0591F804C00CF00308DDF87D
:1012200008C008FA0CF848EA0508C0F800804D68C4
:1012300015F4403F7CD0444DD5F860C000E077E025
:101240004CF0010CC5F860C02D6E23F0030C05F0C6
:10125000010500953D4D65440295AD684FEA837CDC
:101260004FEA1C7807FA08FC25EA0C05B0F1904F0C
:1012700006D0DFF8DCC0604505D14FF0010C20E05E
:101280004FF0000C1DE0DFF8CCC0604502D14FF0FC
:10129000020C16E0DFF8C0C0604502D14FF0030C2D
:1012A0000FE0DFF8B8C0604502D14FF0040C08E051
:1012B000DFF8ACC0604502D14FF0050C01E04FF003
:1012C000060C0CFA08FC4CEA050C029DC5F808C097
:1012D000D9F80050CC46D1F8048095435FEAC8287D
:1012E00000D51543CCF80050DAF80050D446D1F8B8
:1012F000048095435FEA882800D51543CCF8005058
:10130000DBF80050DC46D1F8048095435FEA88386A
:1013100000D51543CCF80050DEF80050F446D1F863
:10132000048095435FEAC83800D51543CCF80050D7
:101330005B1C0A6832FA03F57FF400AF05B0BDE824
:10134000F08F00000804014000100240000001403E
:101350000004004800080048000C00480010004845
:1013600000140048426921EA02030A4043EA0241AC
:10137000816170470AB181617047816270470000E6
:1013800001488068704700002800002002488168FA
:1013900042681144816070472800002010B5002485
:1013A000032000F079F80F2000F008F808B10124BC
:1013B00001E000F025F8204610BD000070B50E4E8B
:1013C00005460024706898B14FF47A71B1FBF0F0D3
:1013D0000A490968B1FBF0F000F080FD40B9102D1A
:1013E00006D200222946501E00F036F8356000E093
:1013F0000124204670BD0000280000203400002099
:101400000D4808B5016E41F001010166016E01F061
:1014100001010091816D41F080518165806D002254
:1014200000F0805000900F21901E00F015F8BDE8EC
:10143000084000F0A1B8000000100240002809DBBD
:1014400000F01F02012191404009800000F1E020DE
:10145000C0F8001170470000F0B40E4B1B680C463A
:10146000C3F30223C3F10705042D00D90425191D78
:10147000072901D2002300E0DB1E012606FA05F150
:10148000491E214099409E40761E16403143F0BCD3
:1014900002F056B80CED00E0064900F007020868BB
:1014A0004FF6FF03184040EA0220034A1043086049
:1014B000704700000CED00E00000FA052B492C4BB2
:1014C0000A6832214A432B4940B1B0F5007F0868D1
:1014D00029D020F4C06040F480602CE00868C0F39C
:1014E0004120022804D051F8800F20F4807022E0BF
:1014F000D1F8800020F48070C1F88000086820F4E2
:10150000C06040F400700860B2FBF3F0401C00E0E3
:10151000401E4A69520501D50028F9D148694005A5
:101520000AD503207047C0F34120022806D051F8A5
:10153000800F40F48070086000207047D1F8800070
:1015400040F48070C1F88000086820F4C06040F466
:1015500000700860B2FBF3F0401C00E0401E4A69D6
:101560005205DBD50028F9D1D8E70000340000206F
:1015700040420F00007000400248816841F4804101
:1015800081607047007000402DE9F8430446006810
:101590000026BB4D00035ED5A86D0027C00008D40F
:1015A000A86D40F08050A865A86D012700F080501C
:1015B0000090DFF8D092D9F8001041F48071C9F89A
:1015C0000010FFF7DDFE804606E000BFFFF7D8FE03
:1015D000A0EB080002282BD8D9F80000C005F5D5EB
:1015E000D5F8900010F4407014D0216D814211D0D4
:1015F000D5F89000D5F8901020F4407041F4803177
:10160000C5F89010D5F8901021F48031C5F89010ED
:10161000C5F89000C00711D0FFF7B2FE804641F236
:10162000883907E0FFF7ACFEA0EB0801494501D976
:1016300003260BE0D5F890008007F3D5D5F890008D
:10164000216D20F440700843C5F890001FB1A86DCB
:1016500020F08050A8652078C00707D0D5F8880012
:10166000616820F003000843C5F8880020788007EF
:1016700007D5D5F88800A16820F00C000843C5F80C
:1016800088002078400707D5D5F88800E16820F069
:1016900030000843C5F888002078000707D5D5F842
:1016A0008800216920F0C0000843C5F88800207830
:1016B000C00607D5D5F88800616920F4407008435A
:1016C000C5F888002078800607D5D5F88800A1697C
:1016D00020F440600843C5F888002078400607D50C
:1016E000D5F88800E16920F440500843C5F8880027
:1016F0002078000607D5D5F88800216A20F44040FC
:101700000843C5F888002088C00507D5D5F88800AB
:10171000616A20F440300843C5F8880020688003DF
:1017200007D5D5F89C00A16A20F003000843C5F84E
:101730009C002088800507D5D5F88800E16A20F450
:1017400040200843C5F88800208840050FD5D5F80B
:101750008800216B20F440100843C5F88800206BF6
:10176000B0F5801F03D1E86840F48010E86020885D
:1017700000050FD5D5F88800616B20F440000843C0
:10178000C5F88800606BB0F5800F03D1E86840F4BD
:101790008010E8602088C0040FD5D5F88800A16BC0
:1017A00020F040700843C5F88800A06BB0F1807F3E
:1017B00003D1E86840F48010E86020884FF00061B1
:1017C00080040ED5D5F88800E26B20F0406010430D
:1017D000C5F88800E06B884203D1E86840F48010C7
:1017E000E860208840040ED5D5F88800226C20F0EF
:1017F00040601043C5F88800206C884203D1E86837
:1018000040F48010E860208800040FD5D5F88800E7
:10181000616C20F040500843C5F88800606CB0F15E
:10182000805F03D1E86840F48030E8602068C0033E
:101830000FD5D5F88800A16C20F040400843C5F8CA
:101840008800A06CB0F1804F03D1E86840F480308C
:10185000E860206840030FD5D5F89C00E16C20F4C7
:1018600040100843C5F89C00E06CB0F5001F03D1A0
:10187000E86840F48010E8603046BDE8F883000076
:1018800000100240007000402DE9F0470E460500B0
:101890004FF0000725D0DFF8AC81D8F8000000F049
:1018A0000F00B0420CD2D8F8001021F00F013143E4
:1018B000C8F80010D8F8000000F00F00B04210D1B6
:1018C0002968614CC80741F2883A5AD06868DFF845
:1018D0007C91032808D0022820682DD040050028DC
:1018E0002CDB0120BDE8F08720688001F9D5E06895
:1018F00000F00302E068C0F30310401C032A19D073
:10190000534A00BFB2FBF0F0E268C2F30622504334
:10191000E268C2F34162521C5200B0FBF2F048454B
:1019200017D9A06810F0F00F0CD0880711D5A8685F
:1019300040B10EE0474AE5E78003D0E700F092F8B7
:10194000484506D9A06820F0F00040F08000A06073
:101950008027A068696820F003000843A060FFF7B3
:101960000FFD814606E000BFFFF70AFDA0EB09016D
:1019700051453AD8A068696800F00C00B0EB810FBF
:10198000F2D12868810714D5400703D5A06840F438
:10199000E060A0602878000705D5A06820F46050BA
:1019A00040F4E060A060A068A96820F0F00008435F
:1019B00004E0802F03D1A06820F0F000A060D8F8E8
:1019C0000010404601F00F01B14216D9016821F024
:1019D0000F0131430160FFF7D3FC074607E000BF6A
:1019E000FFF7CEFCC11B514501D903207AE7D8F897
:1019F000000000F00F00B042F2D12878400705D572
:101A0000A068E96820F4E0600843A0602878000737
:101A100006D5A068296920F4605040EAC100A060A2
:101A200000F020F8A1680C4AC1F30311515C01F0E9
:101A30001F01C8400949086009480068BDE8F0472F
:101A4000FFF7BCBC002002400010024000B4C404F8
:101A50000024F40000127A007A47000834000020C5
:101A600028000020184910B58868C0F38102174883
:101A7000012A0BD08A684310C2F38102022A06D0E1
:101A80008A68C2F38102032A03D0002010BD1846E1
:101A900010BDCA6802F00304CA68C2F30312521CE4
:101AA000032C02D0B0FBF2F001E0B3FBF2F0CA6805
:101AB000C968C2F306225043C1F34161491C490081
:101AC000B0FBF1F010BD0000001002400024F40053
:101AD0002DE9F84304007AD02078FA4DC00747D0AA
:101AE000A868E96800F00C0001F003010C2802D09E
:101AF000082817D001E0032914D06068B0F5803FB2
:101B000017D0B0F5A02F286817D020F480302860B7
:101B1000286820F4802028606068E0B1FFF730FC7E
:101B2000064614E02868800322D560680028D2D0D9
:101B30001EE0286840F48030EDE740F48020286003
:101B4000F7E700BFFFF71CFC801B642870D82868EB
:101B50008003F7D50CE0FFF713FC064605E000BF55
:101B6000FFF70EFC801B6428F0D828688003F7D4A8
:101B7000207880074CD5A868E96800F00C0001F0D7
:101B800003010C2802D004280DD001E002290AD05C
:101B9000E068002828682BD040F480702860FFF7A8
:101BA000EFFB064619E02868400502D5E0680028EA
:101BB00091D06868217C20F0FE4040EA01606860B6
:101BC000C1480068FFF7FAFB002800D120E076E169
:101BD000FFF7D6FB801B0228B8D828684005F7D548
:101BE0006868217C20F0FE4040EA016068600FE0F8
:101BF00020F480702860FFF7C3FB064605E000BFB5
:101C0000FFF7BEFB801B0228A0D828684005F7D448
:101C10002078000729D560690028D5F8940013D0F2
:101C200040F00100C5F89400FFF7AAFB064606E065
:101C300090E000BFFFF7A4FB801B022886D8D5F8F0
:101C400094008007F6D510E020F00100C5F894005C
:101C5000FFF796FB064604E0FFF792FB801B022885
:101C600078D8D5F894008007F6D42078400761D55D
:101C7000A86D0026C00008D4A86D40F08050A8656B
:101C8000A86D012600F08050009090480168C905B9
:101C900011D40168804641F480710160FFF770FB48
:101CA000074604E0FFF76CFBC01B022852D8D8F8A7
:101CB0000000C005F6D5A068012815D00528D5F884
:101CC000900016D020F00100C5F89000D5F89000E3
:101CD00020F00400C5F89000A06841F28838B8B13F
:101CE000FFF74EFB07460EE0D5F8900040F00100EC
:101CF000F0E740F00400C5F89000F5E7FFF740FB7F
:101D0000C11B414526D8D5F890008007F6D50CE0D8
:101D1000FFF736FB074604E0FFF732FBC11B4145E6
:101D200018D8D5F890008007F6D41EB1A86D20F021
:101D30008050A8652078800629D5A0690028D5F8AC
:101D4000980013D040F00100C5F89800FFF718FB89
:101D5000064606E077E000BFFFF712FB801B022873
:101D600077D8D5F898008007F6D510E020F001006C
:101D7000C5F89800FFF704FB064604E0FFF700FBF8
:101D8000801B022865D8D5F898008007F6D4E06952
:101D9000F0B3A968C1F38101032961D00228286842
:101DA00020F0807028600BD0E86820F00300E86025
:101DB000E86847490840E860FFF7E2FA04464BE06C
:101DC000FFF7DEFA064604E0FFF7DAFA801B022886
:101DD0003FD828688001F7D4F4E908016FF00F02BA
:101DE00002EB01110843218A5204490802EB4151D8
:101DF000A26841EA02210843217D4FF07E42490852
:101E000002EB41610843217B40EAC160E96800E0E0
:101E100062E0304A11400843E860286840F0807072
:101E20002860E86840F08070E860FFF7A9FA04468F
:101E300005E000BFFFF7A4FA001B022809D82868B4
:101E40008001F7D548E004E0FFF79AFA001B02286A
:101E500002D90320BDE8F88328688001F4D43BE070
:101E60000128F7D0E868226A00F00301914226D1E8
:101E7000616A00F0F0020901103991421FD1A26A93
:101E800000F4FE41B1EB022F19D194F82C2000F0A0
:101E90007841B1EBC26F12D1218E00F4C002490823
:101EA0004905A1F50011914209D194F8341000F0D0
:101EB000C06049084906A1F1007181420CD001209F
:101EC000C8E7000000100240280000200070004019
:101ED000FFFFEEFE0C809F010020BBE710B5401E07
:101EE000B0F1807F01D3012010BD4FF0E02460618C
:101EF0000F21601701F024FB0020A0610720206162
:101F0000002010BD7047704770470000F0B590F892
:101F10003C20012A58D0012280F83C20CA688B68F6
:101F200022F440721A434B6822F480621A430B6811
:101F300022F400621A430B6922F480521A434B695F
:101F400022F400521A430B6B22F480421A430B8B8B
:101F500022F4702242EA03421C4C036800271C4D05
:101F60001C4EA34203D0AB4201D0B34205D1D1F8FD
:101F70001CC022F0805242EA0C02A34203D0AB42C2
:101F800001D0B3421BD1B1F828C022F4700242EA5A
:101F90000C52D1F820C022F0807242EA0C02D1F833
:101FA00024C022F0007242EA0C02A34203D0AB42EA
:101FB00001D0B34203D1C96A22F000520A435A64E5
:101FC00080F83C700020F0BD0220F0BD002C0140E4
:101FD00000340140005001407047704770470000D6
:101FE000F0B590F83C20012A43D0012580F83C5000
:101FF000022280F83D2003685A689C681E4E1F4FDD
:10200000DFF87CC0B34203D0BB4201D0634504D1AA
:1020100022F4700E4A6842EA0E02DFF868E002EA33
:102020000E02D1F800E04EEA020EC3F804E00268A6
:10203000B24212D0B2F1804F0FD0134B9A420CD063
:10204000124B9A4209D0124B9A4206D0BA4204D09F
:10205000104B9A4201D0624504D1896824F0800374
:102060001943916080F83D50002180F83C100846EB
:10207000F0BD0220F0BD0000002C01400034014002
:10208000005001408FFFFFFD0004004000080040A9
:10209000000C004000400140704710B5040003D020
:1020A00094F83D0010B107E0012010BD002084F835
:1020B0003C00204600F022F8022084F83D00211D5B
:1020C000206800F051FF012084F8480084F83E00A9
:1020D00084F83F0084F8400084F8410084F842000E
:1020E00084F8430084F8440084F8450084F84600EE
:1020F00084F8470084F83D00002010BD08B5114A5F
:1021000001681148914208D1016E41F40051016605
:10211000006E00F40050009008BD0C4A9142FBD1C3
:10212000016E41F400310166006E002200F40030BF
:10213000009011461920FFF78FF9BDE808401920DB
:10214000FFF77CB900340140001002400044014018
:1021500090F83D10012901D001207047022180F83C
:102160003D100168CA6842F00102CA600068134964
:10217000884214D0B0F1804F11D0114988420ED05E
:10218000104988420BD01049884208D00F49884234
:1021900005D00F49884202D00E49884207D1816894
:1021A0000D4A1140062906D0B1F5803F03D00168E1
:1021B00041F001010160002070470000002C014047
:1021C0000004004000080040000C004000340140C2
:1021D000004001400050014007000100704770B509
:1021E0000446006801694FF00005C943890715D40A
:1021F000C168C943890711D4E91E01610120207714
:10220000206880698007204602D0FFF7E7FF04E0DE
:1022100000F057F9204600F045FB2577206801695A
:10222000C943490717D4C168C943490713D46FF09C
:1022300004010161022020772068806910F4407F4A
:10224000204602D0FFF7CAFF04E000F03AF920462A
:1022500000F028FB257720680169C943090716D4D7
:10226000C168C943090712D46FF008010161042055
:1022700020772068C0698007204602D0FFF7AEFFB4
:1022800004E000F01EF9204600F00CFB25772068E2
:102290000169C943C90617D4C168C943C90613D423
:1022A0006FF010010161082020772068C06910F4E8
:1022B000407F204602D0FFF791FF04E000F001F9D3
:1022C000204600F0EFFA257720680169C943C90765
:1022D00008D1C168C943C90704D1891E01612046DC
:1022E00000F0C8FB20680169C943090609D4C16828
:1022F000C943090605D46FF0800101612046FFF74C
:1023000002FE20680169C943C90509D4C168C943EF
:10231000090605D46FF4807101612046FFF7F2FDD4
:1023200020680169C943490609D4C168C9434906FF
:1023300005D46FF040010161204600F0E0FB206809
:102340000169C943890609D4C168C943890605D40E
:102350006FF0200101612046FFF7D6FD206801697A
:10236000C943C90209D4C168C943C90205D46FF47D
:10237000801101612046FFF730FE20680169C943E2
:10238000890209D4C168C943890205D46FF40011D8
:1023900001612046FFF720FE20680169C943490218
:1023A00009D4C168C943490205D46FF480010161B1
:1023B0002046FFF713FE20680169C94309020BD4C8
:1023C000C168C943090207D46FF4000101612046C6
:1023D000BDE87040FFF760BE70BD000030B587B04B
:1023E000044614216846FDF7C7FF2468154D0023F5
:1023F000154902221548AC420ED1CC6C44F00404BD
:10240000CC64C96C01F00401059101218DE80E0036
:10241000CDE90332694611E00D4DAC4210D1CC6CD0
:1024200044F00404CC64C96C01F00401059140211E
:102430008DE80E000421CDE903316946FEF76EFEFA
:1024400007B030BD002C01400010024000080048D9
:102450000034014070B5044690F83C000025012886
:102460000BD0012084F83C000C2A1ED007DC82B17E
:10247000042A12D0082A06D113E0022070BD102AC7
:1024800017D0142A19D00125002084F83C002846D2
:1024900070BD206800F0EAFDF6E7206800F03CFE21
:1024A000F2E7206800F088FEEEE7206800F0D4FE36
:1024B000EAE7206800F020FFE6E7206800F058FF18
:1024C000E2E7704710B5040003D094F83D0010B166
:1024D00007E0012010BD002084F83C00204600F0F9
:1024E00022F8022084F83D00211D206800F03CFD08
:1024F000012084F8480084F83E0084F83F0084F806
:10250000400084F8410084F8420084F8430084F8D5
:10251000440084F8450084F8460084F8470084F8B5
:102520003D00002010BD704770B50446022269B11D
:10253000042912D0082917D00C291CD0102921D029
:1025400094F84300012824D0012070BD94F83E0087
:102550000128F9D184F83E201DE094F83F000128BD
:10256000F2D184F83F2016E094F840000128EBD126
:1025700084F840200FE094F841000128E4D184F869
:10258000412008E094F842000128DDD184F842207F
:1025900001E084F843200122206800F04FFD1D492E
:1025A00020681D4A1D4B1E4D88420BD0904209D019
:1025B000984207D01B4EB04204D01B4EB04201D00F
:1025C000A84203D1466C46F400464664206888421F
:1025D00011D0B0F1804F0ED0144988420BD014496D
:1025E000884208D01349884205D0904203D09842CF
:1025F00001D0A84207D181680F4A1140062906D0B0
:10260000B1F5803F03D0016841F001010160002075
:1026100070BD0000002C014000340140004001402A
:1026200000500140004401400048014000040040C7
:1026300000080040000C00400700010030B50446CF
:102640000D460068002200F0F9FC244B41F2111104
:1026500020688A0098420ED0214B98420BD0214B23
:10266000984208D0204B984205D0204B984202D087
:102670001F4B984209D1036A0B4206D1036A1342E9
:1026800003D1436C23F4004343642068036A0B4284
:1026900006D1016A114203D1016821F001010160F4
:1026A00001205DB1042D0CD0082D0DD00C2D0ED0C5
:1026B000102D0FD084F84300002030BD84F83E0078
:1026C000FAE784F83F00F7E784F84000F4E784F87D
:1026D0004100F1E784F84200EEE70000002C0140E1
:1026E00000340140004001400044014000480140E6
:1026F0000050014070B5044690F83C0000260D469D
:1027000001280BD0012084F83C000C2A4AD007DCB9
:1027100082B1042A20D0082A06D131E0022070BDFF
:10272000102A53D0142A63D00126002084F83C00DC
:10273000304670BD206800F099FC2068816941F046
:10274000080181612068816921F0040181612068AC
:1027500081692A69114311E0206800F0DDFC2068DE
:10276000816941F4006181612068816921F480619F
:102770008161206881692A6941EA02218161D4E787
:10278000206800F019FD2068C16941F00801C161AD
:102790002068C16921F00401C1612068C1692A690A
:1027A000114311E0206800F057FD2068C16941F431
:1027B0000061C1612068C16921F48061C161206844
:1027C000C1692A6941EA0221C161AEE7206800F0CF
:1027D00093FD2068016D41F0080101652068016DDD
:1027E00021F0040101652068016D2A69114311E09F
:1027F000206800F0BDFD2068016D41F400610165B5
:102800002068016D21F4806101652068016D2A69ED
:1028100041EA0221016588E710B5040003D094F86D
:102820003D0010B107E0012010BD002084F83C00FD
:10283000204600F023F8022084F83D00211D206886
:1028400000F092FB012084F8480084F83E0084F8F0
:102850003F0084F8400084F8410084F8420084F886
:10286000430084F8440084F8450084F8460084F866
:10287000470084F83D00002010BD000008B5006846
:102880000649884208D10648016E41F4006101669C
:10289000006E00F40060009008BD0000002C0140B4
:1028A000001002407047000070B50446022269B172
:1028B000042912D0082917D00C291CD0102921D0A6
:1028C00094F84300012824D0012070BD94F83E0004
:1028D0000128F9D184F83E201DE094F83F0001283A
:1028E000F2D184F83F2016E094F840000128EBD1A3
:1028F00084F840200FE094F841000128E4D184F8E6
:10290000412008E094F842000128DDD184F84220FB
:1029100001E084F843200122206800F08FFB1D496C
:1029200020681D4A1D4B1E4D88420BD0904209D095
:10293000984207D01B4EB04204D01B4EB04201D08B
:10294000A84203D1466C46F400464664206888429B
:1029500011D0B0F1804F0ED0144988420BD01449E9
:10296000884208D01349884205D0904203D098424B
:1029700001D0A84207D181680F4A1140062906D02C
:10298000B1F5803F03D0016841F0010101600020F2
:1029900070BD0000002C01400034014000400140A7
:1029A0000050014000440140004801400004004044
:1029B00000080040000C00400700010030B504464C
:1029C0000D460068002200F039FB244B41F2111142
:1029D00020688A0098420ED0214B98420BD0214BA0
:1029E000984208D0204B984205D0204B984202D004
:1029F0001F4B984209D1036A0B4206D1036A134266
:102A000003D1436C23F4004343642068036A0B4200
:102A100006D1016A114203D1016821F00101016070
:102A200001205DB1042D0CD0082D0DD00C2D0ED041
:102A3000102D0FD084F84300002030BD84F83E00F4
:102A4000FAE784F83F00F7E784F84000F4E784F8F9
:102A50004100F1E784F84200EEE70000002C01405D
:102A60000034014000400140004401400048014062
:102A7000005001400A4910B5884210D120214FF082
:102A80009040FEF76FFC7F210648FDF7F5FD00F052
:102A9000CFF901F059F8BDE8104000F0EFB910BDD2
:102AA000A4010020A000002070B5044690F83C006E
:102AB000012812D0012584F83C50022084F83D0002
:102AC000204600F093FC01004FF0000007D084F88E
:102AD0003D5084F83C00012070BD022070BD21688B
:102AE000CA6822F04002CA602168CA6822F48042A3
:102AF000CA6084F83D5084F83C00002070BD7047E7
:102B0000FEE700EB8100006E00F0F840704780683F
:102B1000C0F3C00070478068C0F3800070478068D1
:102B2000C0F380007047042303EAD15310B5184462
:102B30004369C1F3045107248C40A3438A401343E3
:102B4000436110BD00EB8100016E21F00041114393
:102B50000166704710B58CB00024009401942021C8
:102B600003A80294FDF708FC14484FF0A04101604F
:102B70004FF44031C0E90114C46004210461C0E98C
:102B80000541047744770121016280F82440C46242
:102B9000046380F83840C46380F84040FEF79AF838
:102BA00008B172B6FEE7694604480094FDF7AEFD31
:102BB000002801D072B6FEE70CB010BDA0000020C6
:102BC000F0B587B014216846FDF7D6FB1E48C16CEE
:102BD00041F00401C164C16C01F004010591C16CB4
:102BE00041F00101C164C16C01F001010591C16CAA
:102BF00041F00201C164C06C144E00F002004FF4B9
:102C000000540590002221463046FEF7B3FB4FF0FA
:102C10009047002220213846FEF7ACFB0125CDE984
:102C2000004500240294694630460394FEF776FA84
:102C300020200090CDE90154694638460394FEF700
:102C40006DFA07B0F0BD0000001002400008004817
:102C500030B597B00024149415941C210DA8169437
:102C6000FDF78AFB34216846FDF786FB30482F4983
:102C7000314A01602F490968B1FBF2F1491EC0E9F0
:102C8000011440F2E731C0E9031444618461FFF7A5
:102C9000C3FD08B172B6FEE72548FFF713FC08B183
:102CA00072B6FEE75020CDE9140414A9204816940A
:102CB000FFF796F908B172B6FEE74FF4FA75602097
:102CC000CDE90E540D9010941194129400220DA988
:102CD00017481394FFF70EFD08B172B6FEE71020F7
:102CE000CDE90D0504220DA91148FFF7B3FB08B18A
:102CF00072B6FEE700944FF40050CDE9044003940F
:102D00000003CDE9084001940294069407940A94C4
:102D10000B94694606480C94FFF7F8F808B172B6B0
:102D2000FEE70348FFF75AFB17B030BD002C014007
:102D30000C0100203400002040FF100510B59CB0AD
:102D4000142114A8FDF718FB002419941A941C21CF
:102D50000DA81B94FDF710FB34216846FDF70CFB12
:102D60002F482E49304A01602E490968B1FBF2F123
:102D7000491EC0E9011440F2E731C0E9031444617F
:102D80008461FFF78AF908B172B6FEE72448FFF7BD
:102D900043FD08B172B6FEE70620CDE9140414A97C
:102DA0001F48FFF781FE08B172B6FEE719941A9426
:102DB00019A91B481B94FFF713F908B172B6FEE777
:102DC00060200D904FF4FA70CDE90E041094119428
:102DD000129400220DA912481394FFF78BFC08B13E
:102DE00072B6FEE700944FF40050CDE9044003941E
:102DF0000003CDE9084001940294069407940A94D4
:102E00000B94694606480C94FFF780F808B172B637
:102E1000FEE70348FFF7E2FA1CB010BD00340140A2
:102E2000580100203400002040FF1005FEE700009C
:102E300070B50E4C01200E4D2070C0B2FDF7E4FBC2
:102E40000C48FEF7AFF80B48FDF740FF217805EB83
:102E5000810141F8040C0748FEF740F92078401C36
:102E6000C0B220700528E8D970BD00002400002001
:102E7000F0010020A0000020FEE7000070B50E4C1D
:102E800094F8690028B101280BD00025042810D13E
:102E90000DE0A068A0F21260404200F0FBFB0120B0
:102EA00002E000F05DFB042084F8690070BD00F0D2
:102EB000BBFE84F8695070BDF001002010B5FEF72C
:102EC00065FA01F095F8012803D0BDE8104001F043
:102ED0004DB810BD00B593B038216846FDF74CFAE7
:102EE00014210EA8FDF748FA0020FEF7E7FA0220A9
:102EF000C1010391402104910421CDE90801009012
:102F00005521CDE90A1007900C900D906846FEF708
:102F1000DFFD08B172B6FEE70F200E9003200F9080
:102F2000002010901190129004210EA8FEF7ACFC26
:102F3000002801D072B6FEE713B000BD0248016858
:102F400041F470010160704788ED00E010B504485D
:102F5000FFF745F9BDE810400248FFF740B900000F
:102F60000C010020A40100202DE9F04F02682A4B3B
:102F70002A4E2B4FDFF8ACC02B4C2C4D4FF0804B22
:102F800098420BD0584509D0B04207D0B84205D07E
:102F9000604503D0A04201D0A84204D122F07008BD
:102FA0004A6842EA0802DFF88880DFF88890DFF894
:102FB00088A0984211D058450FD0B0420DD0B842E9
:102FC0000BD0604509D0A04207D0404505D0484508
:102FD00003D0504501D0A84203D122F44076CA68FC
:102FE00032434E6922F08002324302608A68C26234
:102FF0000A688262984209D0A04207D0404505D0B5
:10300000484503D0504501D0A84201D10969016368
:1030100001214161BDE8F08F002C01400004004017
:1030200000080040000C0040003401400050014006
:1030300000400140004401400048014010B501F04B
:103040001F030121046A99408C430462016A9A407B
:103050001143016210BD10B5846842EA032224F4D2
:103060007F440A432243826010BD00002DE9F047EF
:10307000026A22F001020262056A436882691F4CFB
:1030800025F0020522400C6822F0030214438A68EE
:103090001C4E2A431A4D1C4FDFF870C0DFF87090A9
:1030A000DFF870A0A84209D0B04207D0B84205D0DE
:1030B000604503D0484501D0504506D122F00808AC
:1030C000CA6842EA080222F00402A84209D0B042CB
:1030D00007D0B84205D0604503D0484501D05045DF
:1030E00005D14D6923F440731D438B692B43436025
:1030F0008461496841630262BDE8F0878FFFFEFF8B
:10310000002C0140003401400040014000440140D7
:103110000048014000500140F0B5026A22F0100260
:103120000262056A426883691C4C1E4E23400C688B
:1031300023F4407343EA042425F020038D681A4FDA
:1031400043EA0513164DA84203D0B04201D0B8425D
:1031500007D1D1F80CC023F0800343EA0C1323F00D
:103160004003A8420CD0B0420AD0104DA84207D06C
:103170000F4DA84204D00F4DA84201D0B84207D14C
:103180004D6922F4406242EA85028D6942EA850275
:1031900042608461496881630362F0BDFF8FFFFE76
:1031A000002C01400034014000500140004001402B
:1031B0000044014000480140F0B5026A22F48072E8
:1031C0000262056A4268C3691C4C1E4E23400C68AB
:1031D00023F003031C4325F400738D681A4F43EA60
:1031E0000523174DA84203D0B04201D0B84207D101
:1031F000D1F80CC023F4006343EA0C2323F480636A
:10320000A8420CD0B0420AD0104DA84207D0104DB1
:10321000A84204D00F4DA84201D0B84207D14D6951
:1032200022F4405242EA05128D6942EA05124260D8
:10323000C4614968C1630362F0BD00008FFFFEFFF7
:10324000002C01400034014000500140004001408A
:103250000044014000480140F0B5026A22F4805267
:103260000262056A4268C3691C4C1E4E23400C680A
:1032700023F4407343EA042425F400538D681A4F65
:1032800043EA0533164DA84203D0B04201D0B842FC
:1032900007D1D1F80CC023F4004343EA0C3323F4E4
:1032A0008043A8420CD0B0420AD0104DA84207D0AB
:1032B0000F4DA84204D00F4DA84201D0B84207D10B
:1032C0004D6922F4404242EA85128D6942EA851234
:1032D0004260C461496801640362F0BDFF8FFFFE74
:1032E000002C0140003401400050014000400140EA
:1032F000004401400048014030B5026A22F48032A7
:103300000262046A4268036D124D2B400D681D4332
:1033100024F400330C8943EA04430F4CA0420ED03E
:103320000E4CA0420BD00E4CA04208D00D4CA04237
:1033300005D00D4CA04202D00C4CA04204D14C69E7
:1033400022F4803242EA04224260056549688164C1
:10335000036230BD8FFFFEFF002C014000340140AE
:10336000004001400044014000480140005001403D
:1033700030B5026A22F480120262046A4268036D68
:10338000134D24F400142B400D6843EA05230D89E6
:1033900044EA05540F4DA8420ED00F4DA8420BD061
:1033A0000E4DA84208D00E4DA84205D00D4DA842A2
:1033B00002D00D4DA84204D14D6922F4802242EA88
:1033C0008522426003654968C164046230BD000023
:1033D000FF8FFFFE002C01400034014000400140FF
:1033E00000440140004801400050014070B50568AC
:1033F0000024AA682F4B1A404B6813432E4A1340EF
:103400000A681A43AA604A68B2F5801F23D00CDC10
:1034100012F00F0F1ED14FEA2212082A1AD2DFE84B
:1034200002F01A1A1A1A233C421C2449501A8A42E2
:1034300011D009DCB2F1101F0DD0203AB2F5801284
:1034400009D0102A06D106E0102804D0202802D086
:10345000302800D00124204670BD0B69D1E902213B
:103460000068FFF7F8FDF6E70A68052A13D0B2F105
:10347000011F10D00268136A156A25F00105156254
:1034800002689569096925F0F00545EA0111916125
:1034900000680362DFE7012070BD0A69896800687F
:1034A00000F00EF8D7E70A698968006800F019F89B
:1034B000D1E700008FFFCFFFF8FFFEFF40001000B4
:1034C00010B5036A046A24F001040462846924F0DC
:1034D000F00444EA021423F00A020A4384610262FF
:1034E00010BD10B5036A23F0100303628369046AF8
:1034F00023F4704343EA023224F0A00343EA0111AB
:103500008261016210BD4FF09044012220212046CB
:10351000FDF730FF20212046FDF724FFFFF788FC50
:10352000142000F071FCF0E74FF0904400222021BD
:103530002046FDF71FFF142000F066FCF6E7FEE7CB
:103540000907090E002804DB00F1E02080F80014D0
:10355000704700F00F0000F1E02080F8141D704764
:103560000B480022DFED0C0A90F868300948C1884A
:103570008180C28088B200EB4010C00000EE100ACB
:103580000648B8EE400A80EE201A80ED001A704717
:10359000F00100200C000020004003452000002026
:1035A0000A4840F27923002182889A420BD9027896
:1035B000521CD2B20270012A04D1017004490120C8
:1035C00081F86A0070470170704700000C0000200D
:1035D000F00100201CB5FDF7E1FEFFF77BFCFFF7D3
:1035E000EFFAFFF7B7FAFFF733FBFFF7A7FB134834
:1035F0001149144A016012490968B1FBF2F1491EF0
:103600004160002142F60312C0E9021201614161EA
:103610008161FEF742FD08B172B6FEE70748FEF78A
:1036200097FD09490120CDE900010023802207A16F
:10363000094800F0B1FCFEE700440140A40100206D
:103640003400002040A5AE020000002073746172B7
:10365000745F7461736B0000CD3B000810B50B4CB8
:1036600040F27C61A068884204D900F0F9FA062093
:1036700084F86A00064840F22B218088884204D2F0
:1036800000F0EEFA002084F86A0010BDF00100207E
:103690000C00002070B5214C214E2DED028BA06056
:1036A000B5684543E56000F050FE41EC180BF0684A
:1036B00000F062FE9FED1B1B53EC112B00F070FE1F
:1036C00053EC182B00F06CFE41EC180B206900F055
:1036D0003CFE53EC182B00F061FD00F007FE40F6B5
:1036E000EA212061884201DD216103E0002801DA3E
:1036F0000020206120694FF42A71284440F30F30E4
:10370000884201DD084602E0432800DA43200749E9
:10371000086007490860BDEC028B70BD0C000020FA
:103720005C020020C1C647DD20ACE83E342C0140DD
:10373000343401402DE9F041184C0F460546E66847
:103740002068001D00F0B4FA38B9206890F82C10F9
:1037500001208840216981432161681C07D137B16C
:103760002168BDE8F0410E48091D00F0DABA206872
:103770003544B5424560216805D2A06BBDE8F041F3
:10378000091D00F0B6BA606B091D00F0B2FAA06A1C
:10379000854200D2A562BDE8F0810000380000201B
:1037A0004C0300202DE9F041054600F0C7FA2E4CED
:1037B000A068401CA06020682C4F10B1606940B325
:1037C0002DE02560A068012829D1002606EB86009F
:1037D00007EB800000F07FFA761C072EF6D3234813
:1037E0008C3000F078FA2148A03000F074FA1F48BD
:1037F000B43000F070FA1D48C83000F06CFA1B4875
:10380000DC3000F068FA19488C3060631430A06333
:1038100005E02068E96AC06A884200D82560606ACD
:10382000401C6062E96A01202269884010432061DF
:1038300001EB810007EB8000291D00F072FA00F017
:103840009DFA606900280CD02068E96AC06A884245
:1038500007D207494FF080500860BFF34F8FBFF386
:103860006F8FBDE8F081000038000020700200205A
:1038700004ED00E010B50446006B00F093FA20461A
:10388000BDE8104000F08EBA10484FF44061420786
:1038900006D0C01D0D4920F00700411AC1F5406156
:1038A0000B4A00230144C2E900030839183A21F009
:1038B000070111604B600B600B1AC0E900139360A5
:1038C0004FF00040536050617047000060030020DB
:1038D0008C0000202DE9F0479A46DDE909848146F5
:1038E0006FF00303206B03EB82021044089E20F06C
:1038F0000707780707D0502080F31188BFF34F8F58
:10390000BFF36F8FFEE7002561B1002023180A5C2A
:1039100083F834200A5C12B1401C1028F6D384F8D6
:10392000435001E084F83450072E00D30626E662A7
:10393000C4E91165201D00F0D9F904F1180000F068
:10394000D5F92461C6F107006462A061E56484F8DA
:10395000505052464946384600F0C0F82060B8F151
:10396000000F01D0C8F80040BDE8F08730B511491C
:1039700000E011460A688242FBD34B685C1884421F
:1039800003D1406818444860084643681C189442B4
:1039900009D1084C183C2468A24209D052681A4444
:1039A00042600A6812680260814200D0086030BD3F
:1039B0000460F9E78C0000200648416B096829B1D2
:1039C000416BC968C9684968816270474FF0FF312F
:1039D000FAE700003800002008484068401C4FF01B
:1039E000500080F3118804D0BFF34F8FBFF36F8F67
:1039F000FEE7BFF34F8FBFF36F8FFEE79400002009
:103A00002DE9F0410546002700F07AFA324E306881
:103A100008B9FFF739FF706905424ED1C5B30835C3
:103A200068070ED005F00700C0F1080005446807DC
:103A300007D0502080F31188BFF34F8FBFF36F8FF3
:103A4000FEE72DB37068854237D823481830014609
:103A50000C6801E020460C466168A94202D2216848
:103A60000029F7D131688C4227D0076821680160AE
:103A700060680837411B10290FD96019420708D028
:103A8000502080F31188BFF34F8FBFF36F8FFEE795
:103A900013E041606560FFF769FF61687068401A74
:103AA0007060B268904200D2B0607069014300203B
:103AB000C4E90001F068401CF06000F00DFB7807DD
:103AC00007D0502080F31188BFF34F8FBFF36F8F63
:103AD000FEE73846BDE8F0817400002010B5031FF2
:103AE0004FF080741C601B1F21F001011960191F29
:103AF000044B0B6014390A60091F6FF0020244384E
:103B00000A6010BDD939000810B50D4C40F27C6137
:103B1000A068884204D900F0A3F8062084F86A005F
:103B2000084840F279218088884208D94FF09041B6
:103B30000420886100F0A8F8032084F86A0010BD12
:103B4000F00100200C0000200D48D0E900128A424C
:103B500003D9511A8162012102E0891A8162002190
:103B600080F86810D0E90A210A44A2EB1111C16261
:103B7000090901630348C288914200D9C180704796
:103B8000F00100200C0000200E4810B5828840F2A1
:103B9000792300219A4208D94288521C92B242806D
:103BA0000A2A03D90122027003E041800278012A27
:103BB00007D14180017000F067F80349022081F8C5
:103BC0006A0010BD0C000020F00100201CB50E4959
:103BD0000220CDE90001002380220CA10D4800F055
:103BE000DBF909490320091DCDE9000100238022EA
:103BF00009A10B4800F0D0F90A48006800F02AF942
:103C0000BDE81C4000F0BAB8040000205461736B9A
:103C10005F310000073500085461736B5F320000AC
:103C200029350008000000200C4890F86A10072988
:103C300012D2DFE801F00406080A11110C00FFF7A8
:103C4000AFBCFFF7A1BFFFF75FBFFFF707BD0621BE
:103C500080F86A1000F004B870470000F0010020FE
:103C600010B500210648FEF7A9FE00210548FEF721
:103C7000A5FEBDE8104004210148FEF7DFBC0000AE
:103C80000C0100205801002010B500210648FEF765
:103C90000BFE04210448FEF747FCBDE8104000215C
:103CA0000248FEF701BE00000C0100205801002070
:103CB000D0E9013201699A60D0E901235A604A686B
:103CC000824201D182684A60002202610868401E77
:103CD00008600868704700F108014FF0FF32C0E942
:103CE0000112C16001610021016070470021016182
:103CF000704730B50B685A1C02D000F1080202E090
:103D0000026904E02246546825689D42FAD9536846
:103D10004B6099608A60516008610168491C0160CC
:103D200030BD42684A6093688B60936859609160C7
:103D300008610168491C016070470000502080F351
:103D40001188BFF34F8FBFF36F8F0A494868401C3B
:103D5000486001280CD10848006810F0FF0F07D018
:103D6000502080F31188BFF34F8FBFF36F8FFEE7B2
:103D7000704700009400002004ED00E00849486806
:103D800028B1401E486001D180F31188704750204F
:103D900080F31188BFF34F8FBFF36F8FFEE70000F2
:103DA0009400002070B500282AD0164DA0F1080418
:103DB00060686969084207D1502080F31188BFF319
:103DC0004F8FBFF36F8FFEE722683AB1502080F328
:103DD0001188BFF34F8FBFF36F8FFEE7884360609A
:103DE00000F08EF860686968084468602046FFF754
:103DF000BDFD2869401C2861BDE8704000F06CB929
:103E000070BD00007400002010B5020014D00F48EF
:103E1000006B38B1502080F31188BFF34F8FBFF390
:103E20006F8FFEE700F06CF800211046FFF782FC70
:103E300000F052F9002807D105494FF08050086082
:103E4000BFF34F8FBFF36F8F10BD0000380000200D
:103E500004ED00E070B50546FFF770FF254C05B98D
:103E60002568281DFFF724FF58B9E86A224A00EBAD
:103E7000800152F8211021B9012181402069884335
:103E80002061A86A18B105F11800FFF711FF606AF8
:103E9000401C60622068854208D11748291DC8303F
:103EA000FFF73FFF6068401C606007E0A068401EAD
:103EB000A0602846FFF7DEFCFFF77EFDFFF75EFF00
:103EC0006069002814D02068854211D1206B38B178
:103ED000502080F31188BFF34F8FBFF36F8FFEE741
:103EE00006494FF080500860BFF34F8FBFF36F8FCC
:103EF00070BD0000380000207002002004ED00E0DA
:103F00000248016B491C0163704700003800002023
:103F10001448016B11B10121C16170470021C161D9
:103F20000169B1FA81F1C1F11F0101EB81020E4972
:103F300051F822306BB101EB820101F108034A68AC
:103F400052684A609A4201D152684A60D168016061
:103F50007047502080F31188BFF34F8FBFF36F8FEE
:103F6000FEE70000380000207002002010B550204D
:103F700080F31188BFF34F8FBFF36F8F00F046F8C7
:103F800018B104494FF080500860002080F3118878
:103F900010BD000004ED00E02DE9FF5F8346DDE980
:103FA0000E87994616468A469000FFF729FD0500C0
:103FB0001AD05420FFF724FD040012D025630021FD
:103FC000CDE90241CDE900874B463246514658467D
:103FD000FFF780FC2046FFF7E5FB012004B0BDE8B9
:103FE000F09F2846FFF7DEFE4FF0FF30F6E70000B7
:103FF0000548416919B1006B18B1002070470120D4
:104000007047022070470000380000202DE9F04181
:104010002F4C0026206B28B1A069401CA0613046BF
:10402000BDE8F081E5686D1CE56013D1606B006848
:1040300038B1502080F31188BFF34F8FBFF36F8FDB
:10404000FEE7606BA16B6163A063206A401C206285
:10405000FFF7B2FCA06ADFF87C80854209D3606B71
:104060000068A0B1606BC068C7687868854211D2EB
:10407000A0622068C06A00EB800158F82100012886
:1040800000D90126E0690028C9D00126C7E74FF012
:10409000FF30EDE7381DFFF70BFEB86A18B107F1E6
:1040A0001800FFF705FEF96A0120226988401043D5
:1040B000206101EB810108EB8100391DFFF731FE22
:1040C000F86A2168C96A8842C9D30126C7E7000097
:1040D00038000020700200202DE9F0472C4D00240C
:1040E0002746286B38B1FFF729FE286B401E28634E
:1040F000286B40B146E0502080F31188BFF34F8F0A
:10410000BFF36F8FFEE7A968224E0120D1B3A6F15D
:10411000B40980463068E8B1F068C46804F118005A
:10412000FFF7C6FD201DFFF7C3FDE06A2A6908FA04
:1041300000F11143296100EB800109EB8100211D91
:10414000FFF7EFFDE06A2968C96A8842E2D3C5F843
:104150001C80DFE70CB1FFF72FFCAC6944B1464689
:10416000FFF754FF00B1EE61641EF9D10020A86191
:10417000E86938B10849012738070860BFF34F8F55
:10418000BFF36F8FFFF7FAFD3846BDE8F0870000F8
:10419000380000202403002004ED00E010B591EA6F
:1041A000030F48BF83F0004300F10082841A71EBD3
:1041B000030C05D2121943EB0C03001B61EB0C013D
:1041C000DFF824E14FEA1154A4EB135C1EEA430F1D
:1041D00018BF9EEA445F73D023EA0E03DCF1200E81
:1041E00021EA045143F4801332D322FA0CFE10EB7F
:1041F0000E0023FA0CFE41EB0E01CCF1200E03FA67
:104200000EFE10EB0E0051F10001B1F5801FCCF154
:10421000200E32D201EB045112FA0EF2BDE810402A
:1042200058BF7047401C38BF5FEA420218BF704752
:10423000002814BF20F0010041F100014FEA4103C2
:1042400013F5001F38BF7047A1F1C04100F0A0B9BD
:10425000012A43EB0302ACF1200CDCF11F0E32BF4C
:104260004FF0000E23FA0CF310EB030041EB045166
:10427000B4EB115FD0D0A1EB045101F580114908D6
:104280005FEA300001EB04510ED350F1000038BF5B
:1042900012FA0EFE08D1BDE81040C9E7401C38BF35
:1042A0005FEA4202CAD1C3E7BDE810404FEA4103CA
:1042B00013F5001F38BF7047A1F1C04100F068B985
:1042C0009EEA445F08D011EA5E0FBDE8104004BFCB
:1042D00001F0004100207047BDE8104070B500F0CB
:1042E00009F900BF64FBBE3E0000E0FF4FEA410356
:1042F0004FEA5353A3F58063D3F11E03C8BFD3F134
:10430000210C0CDD4FF0004242EAC12242EA505239
:1043100032FA03FC8CEAE17CACEBE1707047102BC5
:10432000C4BF0020704703F5787CBCF1FF3F04D088
:104330006FF0004282EA2100704770B500F0DAF8B1
:104340004992248000207047F2E710F0004248BFF5
:104350004042B0FA80F310FA03F10AD0C3F11D0312
:1043600003F580634FEA415002EB035202EBD12187
:1043700070474FF000007047B0FA80F310FA03F175
:104380000AD0C3F11D0303F580634FEA41504FEAA1
:10439000035202EBD12170474FF00000704700003C
:1043A000DFF848C170B51CEA111E1EBF1CEA1315C8
:1043B0009EEA0C0F95EA0C0F00F06F8081EA03046F
:1043C00023EA4C134EEAD47E21EA4C1141F48011C9
:1043D00043F48013AE44A1FB024CA0FB0365AEF195
:1043E0007F7E361955EB0C05A1FB034C4CF1000305
:1043F000A0FB021C16EB0C06654153F100030942B9
:1044000018BF46F0010613F4007F0BD14FEA0331C9
:104410004FEA0530340341EA155140EA16506FF077
:1044200003020AE04FEAC3214FEAC520F40241EA41
:10443000555140EA56506FF0020202EB2E4201EB5A
:10444000025585EACE710AD05FEA440C18BF24F009
:10445000004450F1000041F1000120EAD47040F224
:10446000FE7C624500D270BDA84214BF4FF080446C
:104470004FF04044002E08BF0024BEF1806FA8BF5B
:10448000A1F1C041BDE8704080F282804FF0000091
:1044900001F1C04101F0004170479EEA0C0F0CEAA7
:1044A000131518BF95EA0C0F06D04FF0000081EAF3
:1044B000030E0EF0004170BD00F01CF88900013EB3
:1044C00000F007B800F009B84FEA430C5FEA5C5C03
:1044D00008D081EA030100F05BB84FEA410C5FEAC3
:1044E0005C5CF6D14FF00000014970470000FF0707
:1044F0000000F87F0EF1020E2EF0030E5EF8046B42
:10450000364205D4012A43EB030515F5001F12D8E6
:10451000012841EB010C1CF5001F0CD80ED14FEA0D
:10452000D17C15F5001F0CEB4C0C0CF1020C08BFF4
:104530004CEBD37C04E04FF0080C01E04FEAD37C55
:104540000CEB4C0526FA05F606F00706B6F1040C4E
:1045500006D20EEB860CBDE870404CF0010C6047B3
:10456000DFE80CF0090B02024FF000414FF00000B1
:10457000A1F5002170BD19461046012851EB010438
:1045800018BFD4F5001484BF002001F0004170BDB5
:104590000808A0F500114FEA3101704710B591EA03
:1045A000030F48BF83F000433FF500AE841A71EB60
:1045B000030C07D212198CF0004C43EB0C03001BC8
:1045C00061EB0C01DFF8A4E14FEA1154A4EB135C9A
:1045D0001EEA430F18BF9EEA445F00F0B08023EA52
:1045E0006E03524221EA0451C3EB6E0338BF5B1ED7
:1045F000DCF1200E25D322FA0CFE10EB0E0043FA5C
:104600000CFE41EB0E01CCF1200E03FA0EFE10EB76
:104610000E0051F10001CCF1200E29D412FA0EF255
:1046200001EB0451BDE8104058BF7047401C1CBF4F
:10463000B2F1004F704700280CBF491C20F0010068
:10464000704712EB020E43EB030218BF4FF0010E4E
:104650004EEA4202ACF1200CDCF11E0E54D943FAB2
:104660000CFE10EB0E0051F1FF31CCF11E0ED5D532
:104670000EF1010E12FA0EFE404141EB010101EB79
:10468000445C5FEA5C5C10D910EBDE7001EB045116
:1046900038BFBEF1004FBDE8104018BF704700287A
:1046A0000CBF491C20F00100704730D24FEAD42CD7
:1046B00011F5001124F400641BD0B1FA81F20B3A19
:1046C000A41AA41ED2F12003914030FA03F3194337
:1046D000904001EBCC71002C01EB0451BDE810407F
:1046E000A8BF704701F1C0414FF0000001F0004148
:1046F0007047B0FA80F310FA03F100D110BDE41A4C
:10470000173C4805C90AE4E701EB045110BD491004
:1047100001EB0451BDE810404FEA300002E04FF0D9
:10472000000170474A0008BF0042F8D0B2F5001FF0
:1047300028BF704701F000414FF0000070479EEA2B
:10474000445F07D011EA5E0FBDE8104004BF0021AE
:1047500000207047BDE8104070B5FFF7CBFE00BFEA
:1047600040DFF63E83F00041104670470000E0FF56
:104770004FF04070E1EE100A7047000000000000AA
:10478000000001020304060708090000AC47000806
:1047900000000020A0000000140200084C4800089F
:1047A000A0000020201500003002000800000000DA
:1047B00000000000000000000000000000000000F9
:1047C00000000000000000000000000000000000E9
:1047D00000000000100000000100000000000000C8
:1047E0000024F400000000000000000000000000B1
:1047F00000000000000000000000000000000000B9
:1048000000000000000000000000000000000000A8
:104810000000000000000000000000000000000098
:104820000000000000000000000000000000000088
:104830000000000000000000000000000000000078
:0C48400000000000AAAAAAAA00000000C4
:04000005080001D915
:00000001FF
