:020000040800F2
:1000000060150020390300082D270008B3230008DD
:10001000E126000871060008632D000800000000BA
:10002000000000000000000000000000790200084D
:100030007306000800000000D50200082F27000802
:100040005303000853030008530300085303000838
:100050005303000853030008530300085303000828
:100060005303000853030008530300085303000818
:100070005303000853030008530300085303000808
:1000800053030008530300085303000853030008F8
:1000900053030008530300085303000853030008E8
:1000A00053030008530300085303000853030008D8
:1000B00053030008530300085303000853030008C8
:1000C00053030008530300085303000853030008B8
:1000D00053030008530300085303000853030008A8
:1000E0005303000853030008530300085303000898
:1000F0005303000853030008530300085303000888
:100100005303000853030008530300085303000877
:100110005303000853030008530300085303000867
:100120005303000853030008530300085303000857
:100130005303000853030008530300085303000847
:100140005303000853030008530300085303000837
:100150005303000853030008530300085303000827
:100160005303000853030008530300085303000817
:100170005303000853030008530300085303000807
:1001800053030008530300085303000853030008F7
:100190005303000800000000530300085303000845
:1001A00053030008530300085303000853030008D7
:1001B00053030008530300085303000853030008C7
:1001C00053030008530300085303000853030008B7
:1001D000530300085303000800F002F800F03CF855
:1001E0000AA090E8000C82448344AAF10107DA4592
:1001F00001D100F031F8AFF2090EBAE80F0013F0A8
:10020000010F18BFFB1A43F001031847E436000042
:1002100004370000103A24BF78C878C1FAD85207D2
:1002200024BF30C830C144BF04680C607047000070
:100230000023002400250026103A28BF78C1FBD8EF
:10024000520728BF30C148BF0B6070471FB503F08D
:1002500041FB1FBD10B510BD00F0B8F81146FFF707
:10026000F5FF02F08FFD00F0D6F803B4FFF7F2FFC0
:1002700003BC00F0DDF800002C4B19680868B0E8FA
:10028000F04F80F30988BFF36F8F4FF0000080F3C9
:10029000118870470000000008480068006880F37B
:1002A00008884FF0000080F3148862B661B6BFF38F
:1002B0004F8FBFF36F8F00DF00BF00BF08ED00E07E
:1002C000DFF80C00016841F470010160704700BF65
:1002D00088ED00E0EFF30980BFF36F8F134B1A68CE
:1002E0001EF0100F08BF20ED108A20E9F04F1060BB
:1002F00009B44FF0500080F31188BFF34F8FBFF364
:100300006F8F03F027F94FF0000080F3118809BCCC
:1003100019680868B0E8F04F1EF0100F08BFB0EC85
:10032000108A80F30988BFF36F8F70472000002088
:10033000EFF30580704700000948804709480047EF
:10034000FEE7FEE7FEE7FEE7FEE7FEE7FEE7FEE785
:10035000FEE7FEE704480549054A064B70470000E2
:10036000B1270008D9010008600F002060150020A7
:1003700060110020601100204FF0000200B513460C
:1003800094469646203922BFA0E80C50A0E80C50B5
:10039000B1F12001BFF4F7AF090728BFA0E80C5066
:1003A00048BF0CC05DF804EB890028BF40F8042B5F
:1003B00008BF704748BF20F8022B11F0804F18BFCC
:1003C00000F8012B7047704770477047754600F082
:1003D0002BF8AE4605006946534620F007008546D7
:1003E00018B020B5FFF7B6FFBDE820404FF000067B
:1003F0004FF000074FF000084FF0000B21F007010D
:10040000AC46ACE8C009ACE8C009ACE8C009ACE84F
:10041000C0098D46704710B50446AFF300802046F2
:10042000BDE81040FFF721BF00487047FC0E0020D8
:1004300001491820ABBEFEE726000200704700000D
:100440002DE9F041044600270D46006801F0BCFF8D
:100450000646206801F0B4FF30435DD02068C168D3
:100460002E4E890105D5617F012902D1217F012905
:100470000BD0022D1DD0206801F0A6FFB8B1206876
:100480008168C1F3400169B111E00125244902E00E
:100490008F4232D27F1C0268D2435206F8D44021E8
:1004A0000160E8E78168314041F010018160012D71
:1004B00011D0206801F084FF48B120688168C1F341
:1004C000400121B98168314041F020018160022D55
:1004D00008D0032D04D0042500F008FF064617E0DD
:1004E0000C25F9E70825F7E700F000FF801B052839
:1004F0000ED92068806828420AD0E06D40F01000D4
:10050000E065206E40F0010020660120BDE8F0812A
:10051000206880682842E7D10020F7E7C0FFFF7F0E
:10052000000040A370B50446006881688268C1F38A
:10053000400112F0010F28D039BB816801F00D0194
:10054000012914D18168124A1140891C81602168F7
:100550000320086000F0CAFE054612E000F0C6FE67
:10056000401B02280DD920688068C00709D0E06DC3
:1005700040F01000E065206E40F001002066012090
:1005800070BD20688068C007E8D1002070BD000001
:10059000C0FFFF7F70B504460068816811F0010F4D
:1005A0002DD18168174A11421AD18168D54329405B
:1005B000491C816000F09AFE06461BE0816811F03C
:1005C000010F03D181682940491C816000F08EFE33
:1005D000801B02280ED920680068C043C00709D0DC
:1005E000E06D40F01000E065206E40F001002066F4
:1005F000012070BD20680168C943C907DED1002011
:1006000070BD00003F00008030B5002104220624A8
:100610007F2389B0062809D2DFE800F008030A1812
:100620001A1C0D4805E000BF00F024F809B030BDE9
:100630000A48CDE90421CDE90213CDE90004694659
:10064000074800F0C9F80028EED1EFE70548F0E7C9
:100650000548EEE70548ECE70200300404006008B6
:10066000880000200800900C1000C0102000F0143A
:10067000FEE7704772B6FEE72DE9F04F044690F8AA
:1006800058009BB00F464FF0000B012812D00120FC
:1006900084F8580000261796189620684FF0A04856
:1006A000DFF81C91DFF81CA1474D404506D12846D4
:1006B000009508E002201BB0BDE8F08F48450AD144
:1006C0005046CDF800A001F083FE0090206801F0B4
:1006D0007FFE40B109E0E06D40F02000E06584F865
:1006E00058600120E7E7009850B1E06D40F020002D
:1006F000E0654FF0010B00BF84F858605846DAE718
:1007000020684146884201D0A84201D12F4800E02C
:100710002F48D7F800C02F4B40F61F72BCF1000FD6
:100720002DD0D0F808C094F838802CF4604C4CEAF6
:10073000483CD7F804804CEA080CC0F808C0D4F84C
:1007400000C08C4501D0AC4504D18968AB6801F08C
:10075000010109E0D9F80810DAF8085001F00101A8
:1007600005F001059B68294303F001031943C3D138
:10077000BB68396819438368934319431DE0876850
:1007800027F46047876027688F4201D0AF4204D1C9
:100790008968AB6801F0010109E0D9F80810DAF8BE
:1007A000085001F0010105F001059B68294303F0A1
:1007B00001031943A0D18168914381609CE7000047
:1007C00000040050000500500001005000030050DC
:1007D00000070050000600502DE9F84F002704469E
:1007E000009790F85800DFF814840D46B9460128A8
:1007F00011D0012684F85860206801F0E5FD60B151
:10080000E06D40F02000E0655FF0010784F858904B
:100810003846BDE8F88F0220FBE7D5E900210C231C
:10082000206803EA91131844036B01F01F014FF095
:100830001F0C0CFA01FCC2F3846223EA0C038A4009
:1008400013430363206801F0BFFD8246206801F076
:10085000B7FD5AEA00003CD1AA6829682068B2F1C5
:10086000004F37D001F0B8FD2068416921F0004108
:10087000416120686969C268C2F3C10252009140B7
:100880002A69042A31D000EB82002B68026EDFF85F
:1008900070C303F0F84302EA0C020B431A4342F020
:1008A0000041016622682869A96902EB8000026E96
:1008B00022F080720A430266297F20682A69012992
:1008C00010D0002100EB8200026E22F000720A4379
:1008D00002667DE0002201F07FFD2068416941F061
:1008E0000041C5E74FF00071ECE7002101F062FD27
:1008F000400320684FF0000172D001F05BFD90FAD8
:10090000A0F0B0FA80F1286842036ED090FAA0F00F
:10091000B0FA80F0814204D100221146206801F033
:100920006AFD0121206801F045FD400320684FF079
:1009300001015DD001F03EFD90FAA0F0B0FA80F127
:100940002868420359D090FAA0F0B0FA80F08142B2
:1009500004D100220121206801F04DFD0221206810
:1009600001F028FD400320684FF0020148D001F05B
:1009700021FD90FAA0F0B0FA80F12868420344D03B
:1009800090FAA0F0B0FA80F0814204D10022022156
:10099000206801F030FD0321206801F00BFD4003C9
:1009A00020684FF0030133D001F004FD90FAA0F06D
:1009B000B0FA80F1286842032FD090FAA0F0B0FA84
:1009C00080F0814204D100220321206801F013FD50
:1009D0002068816811F0010F22D0A8E000E004E057
:1009E00001F0E8FCC0F384618DE7C0F3846091E717
:1009F00001F0E0FCC0F38461A2E7C0F38460A6E7E5
:100A000001F0D8FCC0F38461B7E7C0F38460BBE7B2
:100A100001F0D0FCC0F38461CCE7C0F38460D0E780
:100A2000EB682968434550F8B03FC1F3120101D18A
:100A30000B4300E08B430360E868404577D12868AA
:100A400041031CD090FAA0F1B1FA81F1491C01F0E8
:100A50001F0109294FEA403132D8002912D000BFC6
:100A600090FAA0F1B1FA81F101F1010101F01F0149
:100A700006FA01F609D100BFC0F3846109E0C0F3B2
:100A80008461E3E7C0F38461EEE790FAA0F1B1FA84
:100A900081F101F1010101F01F0146EA816102D1FA
:100AA000C0F3846003E090FAA0F0B0FA80F000F1A7
:100AB000010000F01F0000EB400041EA005132E06D
:100AC00000290ED090FAA0F1B1FA81F101F10101F3
:100AD00001F01F0106FA01F606D100BFC0F38461E0
:100AE00006E0C0F38461F1E790FAA0F1B1FA81F178
:100AF00001F1010101F01F0146EA816102D1C0F359
:100B0000846003E090FAA0F0B0FA80F000F10100F8
:100B100000F01F003B4A00EB400002EB005041EAAE
:100B2000000141F00071AA68206801F055FC3648C8
:100B30002B6803423FF46AAE22684FF0A04C334862
:100B4000334E344D624501D0AA4201D1014600E046
:100B500031468968DFF8C08001F0E071434503D079
:100B6000DFF8B880434521D15FEA01281ED46245F1
:100B700006D02B4B9A427FF449AEAA4200D03046B1
:100B800041F40001826822F0E0720A438260254845
:100B900025490068B0FBF1F0401C00EB40008000EC
:100BA00000E0401E00900028FBD12FE6DFF87C809B
:100BB00043450FD15FEAC1180CD4AA4202D11C4BA5
:100BC0009A42F2D0624502D0AA4200D0304641F0AB
:100BD00080710CE0DFF85C804345E6D14B02E4D441
:100BE000AA42E2D0624500D0304641F480018268DA
:100BF00022F0E0720A43826008E6000000007F40B5
:100C000000F0FF03000020FE0000088000030050F9
:100C10000007005000010050000021C31000C090E8
:100C2000000600501C000020400D0300000052C7C9
:100C300000050050000084CB0068006C7047000085
:100C4000F8B54FF0000504002E46009502D0E06D87
:100C500010B107E00120F8BD204600F00DF926662E
:100C600084F8586020688168C1F3407119B18168C7
:100C7000754A1140816020688168C1F3007189B9AB
:100C80008168724A114041F0805181607048714919
:100C90000068B0FBF1F04000801C00E0401E0090B6
:100CA0000028FBD120688168C1F3007141B9E16D72
:100CB00041F01001E165216E41F00101216601253D
:100CC00001F082FBE16DC90600D430B1E06D40F067
:100CD0001000E06501252846F8BDE06D20F4807025
:100CE00040F00200E0652068816811F0010F27D113
:100CF0004FF0A043584A984201D0904204D19968DD
:100D0000966801F001010AE054498968544E01F0E7
:100D10000101B66806F001063143524EB66806F08E
:100D2000010631430CD1984201D0904201D14E4886
:100D300000E04E486168826822F47C120A438260B7
:100D4000E168E06B627F0843A16841EA42310843F1
:100D500094F8241040EA0140012904D1218D444A2D
:100D600002EB41410843E16A29B101F47871226B39
:100D7000014342EA01002168CA683E4B1A4002431F
:100D8000CA6020680169626B21F040611143016112
:100D9000206801F019FB0646206801F011FB304382
:100DA0002ED1207F94F83810800340EA410120685A
:100DB000C26844F202039A430A43C26020690028D1
:100DC000206801690AD041F480310161206850F83F
:100DD000C01F22696FF30D01114307E021F4803138
:100DE0000161206850F8C01F6FF30D01016094F895
:100DF000400001280CD02068016921F00101016147
:100E0000606901282068016B21F00F0111D013E007
:100E1000D4E911010843D4E91312114308432168AE
:100E20000A6940F2FC739A43104340F001000861E4
:100E3000E6E7226A521E11430163E06D20F00200D2
:100E400040F00100E06546E7C0FFFF5FC0FFFF7FA5
:100E50001C000020400D0300000100500004005061
:100E6000000500500006005000030050000700502D
:100E70000000FEFF0740F0FF30B59BB00446142190
:100E800015A8FFF779FA54216846FFF775FA20682C
:100E9000B0F1A04F35D14FF4004000908003119085
:100EA000684600F019FB08B1FFF7E4FB1648C16C77
:100EB00041F40051C164C16C01F400511A91C16C3C
:100EC00041F00101C164C16C01F001011A91C16CD2
:100ED00041F00201C164C06C15A900F002001A9033
:100EE0000F200324002581E831004FF0904000F0EE
:100EF000CBF815A94FF4804081E83100034800F099
:100F0000C3F81BB030BD00000010024000040048D0
:100F10002DE9F041044600684FF0A045444FA84237
:100F200001D0B84201D1434900E04349896801F04A
:100F30001F0601F049FA18B102210846BDE8F08108
:100F400094F8580001280CD0012084F8580020465D
:100F5000FFF720FB01004FF0000204D084F8582076
:100F6000EBE70220EAE7E06D40F60163984340F4C6
:100F70008070E0652068314BDFF8C4C0B84201D111
:100F8000AE4604E0984201D1E64600E0864686453A
:100F900000D02EB9D4F85CE02EF4801EC4F85CE0DA
:100FA000D4F85CE05FEACE4E06D5D4F860E02EF0CF
:100FB000060EC4F860E000E022664FF01C0EC0F898
:100FC00000E084F858202068B84201D12A4604E0A5
:100FD000984201D1624600E0024682420ED06EB1D4
:100FE000052E0BD0092E09D0E26D42F48012E26585
:100FF000B84213D0984210D165460FE0C268920102
:1010000005D5E26D22F4005242F48052E265826816
:101010000C4B1A40121D82608FE70546E86880017C
:101020008BD5E06D20F4005040F48050E06584E7FB
:101030000001005000030050000700500005005060
:1010400000040050C0FFFF7F10B5044690F8580020
:10105000012808D0012084F8580003212046FFF71A
:10106000EFF910B10BE0022010BD2046FFF75AFA4D
:1010700028B9E16D21F4885141F00101E1650021B9
:1010800084F8581010BD00002DE9F04FDFF82092D1
:10109000002301260324A9F1040B85B00F2709F1D1
:1010A000040AABF1040EFAE006FA03F52A407CD0FC
:1010B00091F804C00CF0030CBCF1010F02D0BCF19C
:1010C000020F26D1D0F808C0CDF800C04FEA430C7B
:1010D00004FA0CF8CDF810C0DDF800C02CEA080CBA
:1010E000CDF800C0D1F80C80DDF810C008FA0CF87B
:1010F000DDF800C048EA0C08C0F80880D0F804C049
:101100002CEA050C0D79C5F300159D4045EA0C0548
:1011100045600D79ED43AD070ED0C5684FEA430831
:1011200004FA08FC25EA0C05D1F808C00CFA08FC02
:101130004CEA050CC0F80CC00D7905F00305022D32
:1011400016D1DD0800EB850CCDF808C0DCF8208056
:101150005D074FEAD56C07FA0CF528EA05080D691A
:1011600005FA0CF5DDF808C045EA0805CCF8205072
:1011700005684FEA430CCDF808C004FA0CFC25EAD8
:101180000C0591F804C00CF00308DDF808C008FA5B
:101190000CF848EA0508C0F800804D6815F4403F97
:1011A0007CD0444DD5F860C000E077E04CF0010CF5
:1011B000C5F860C02D6E23F0030C05F00105009505
:1011C0003D4D65440295AD684FEA837C4FEA1C783B
:1011D00007FA08FC25EA0C05B0F1904F06D0DFF8BD
:1011E000DCC0604505D14FF0010C20E04FF0000C51
:1011F0001DE0DFF8CCC0604502D14FF0020C16E0D4
:10120000DFF8C0C0604502D14FF0030C0FE0DFF8FB
:10121000B8C0604502D14FF0040C08E0DFF8ACC064
:10122000604502D14FF0050C01E04FF0060C0CFABE
:1012300008FC4CEA050C029DC5F808C0D9F800501E
:10124000CC46D1F8048095435FEAC82800D5154301
:10125000CCF80050DAF80050D446D1F80480954319
:101260005FEA882800D51543CCF80050DBF8005021
:10127000DC46D1F8048095435FEA883800D51543F1
:10128000CCF80050DEF80050F446D1F804809543C5
:101290005FEAC83800D51543CCF800505B1C0A68DB
:1012A00032FA03F57FF400AF05B0BDE8F08F00001F
:1012B0000804014000100240000001400004004802
:1012C00000080048000C00480010004800140048C6
:1012D000426921EA02030A4043EA02418161704700
:1012E0000AB18161704781627047000001488068DF
:1012F00070470000100000200248816842681144D5
:10130000816070471000002010B50024032000F019
:101310006BF80F2000F008F808B1012401E000F09C
:1013200025F8204610BD000070B50E4E054600247D
:10133000706898B14FF47A71B1FBF0F00A4909680E
:10134000B1FBF0F000F072FD40B9102D06D2002282
:101350002946501E00F028F8356000E001242046A0
:1013600070BD0000100000201C0000200D4808B5D2
:10137000016E41F001010166016E01F00101009171
:10138000816D41F080518165806D002200F08050B8
:1013900000900F21901E00F007F8BDE8084000F013
:1013A00093B8000000100240F0B40E4B1B680C46CE
:1013B000C3F30223C3F10705042D00D90425191D29
:1013C000072901D2002300E0DB1E012606FA05F101
:1013D000491E214099409E40761E16403143F0BC84
:1013E00001F0C0BC0CED00E0064900F007020868FF
:1013F0004FF6FF03184040EA0220034A10430860FA
:10140000704700000CED00E00000FA052B492C4B62
:101410000A6832214A432B4940B1B0F5007F086881
:1014200029D020F4C06040F480602CE00868C0F34C
:101430004120022804D051F8800F20F4807022E06F
:10144000D1F8800020F48070C1F88000086820F492
:10145000C06040F400700860B2FBF3F0401C00E094
:10146000401E4A69520501D50028F9D14869400556
:101470000AD503207047C0F34120022806D051F856
:10148000800F40F48070086000207047D1F8800021
:1014900040F48070C1F88000086820F4C06040F417
:1014A00000700860B2FBF3F0401C00E0401E4A6987
:1014B0005205DBD50028F9D1D8E700001C00002038
:1014C00040420F00007000400248816841F48041B2
:1014D00081607047007000402DE9F84304460068C1
:1014E0000026BB4D00035ED5A86D0027C00008D4C0
:1014F000A86D40F08050A865A86D012700F08050CD
:101500000090DFF8D092D9F8001041F48071C9F84A
:101510000010FFF7EBFE804606E000BFFFF7E6FE97
:10152000A0EB080002282BD8D9F80000C005F5D59B
:10153000D5F8900010F4407014D0216D814211D084
:10154000D5F89000D5F8901020F4407041F4803127
:10155000C5F89010D5F8901021F48031C5F890109E
:10156000C5F89000C00711D0FFF7C0FE804641F2D9
:10157000883907E0FFF7BAFEA0EB0801494501D919
:1015800003260BE0D5F890008007F3D5D5F890003E
:10159000216D20F440700843C5F890001FB1A86D7C
:1015A00020F08050A8652078C00707D0D5F88800C3
:1015B000616820F003000843C5F8880020788007A0
:1015C00007D5D5F88800A16820F00C000843C5F8BD
:1015D00088002078400707D5D5F88800E16820F01A
:1015E00030000843C5F888002078000707D5D5F8F3
:1015F0008800216920F0C0000843C5F888002078E1
:10160000C00607D5D5F88800616920F4407008430A
:10161000C5F888002078800607D5D5F88800A1692C
:1016200020F440600843C5F888002078400607D5BC
:10163000D5F88800E16920F440500843C5F88800D7
:101640002078000607D5D5F88800216A20F44040AC
:101650000843C5F888002088C00507D5D5F888005C
:10166000616A20F440300843C5F888002068800390
:1016700007D5D5F89C00A16A20F003000843C5F8FF
:101680009C002088800507D5D5F88800E16A20F401
:1016900040200843C5F88800208840050FD5D5F8BC
:1016A0008800216B20F440100843C5F88800206BA7
:1016B000B0F5801F03D1E86840F48010E86020880E
:1016C00000050FD5D5F88800616B20F44000084371
:1016D000C5F88800606BB0F5800F03D1E86840F46E
:1016E0008010E8602088C0040FD5D5F88800A16B71
:1016F00020F040700843C5F88800A06BB0F1807FEF
:1017000003D1E86840F48010E86020884FF0006161
:1017100080040ED5D5F88800E26B20F040601043BD
:10172000C5F88800E06B884203D1E86840F4801077
:10173000E860208840040ED5D5F88800226C20F09F
:1017400040601043C5F88800206C884203D1E868E7
:1017500040F48010E860208800040FD5D5F8880098
:10176000616C20F040500843C5F88800606CB0F10F
:10177000805F03D1E86840F48030E8602068C003EF
:101780000FD5D5F88800A16C20F040400843C5F87B
:101790008800A06CB0F1804F03D1E86840F480303D
:1017A000E860206840030FD5D5F89C00E16C20F478
:1017B00040100843C5F89C00E06CB0F5001F03D151
:1017C000E86840F48010E8603046BDE8F883000027
:1017D00000100240007000402DE9F0470E46050061
:1017E0004FF0000725D0DFF8AC81D8F8000000F0FA
:1017F0000F00B0420CD2D8F8001021F00F01314395
:10180000C8F80010D8F8000000F00F00B04210D166
:101810002968614CC80741F2883A5AD06868DFF8F5
:101820007C91032808D0022820682DD0400500288C
:101830002CDB0120BDE8F08720688001F9D5E06845
:1018400000F00302E068C0F30310401C032A19D023
:10185000534A00BFB2FBF0F0E268C2F306225043E5
:10186000E268C2F34162521C5200B0FBF2F04845FC
:1018700017D9A06810F0F00F0CD0880711D5A86810
:1018800040B10EE0474AE5E78003D0E700F092F868
:10189000484506D9A06820F0F00040F08000A06024
:1018A0008027A068696820F003000843A060FFF764
:1018B0001DFD814606E000BFFFF718FDA0EB090102
:1018C00051453AD8A068696800F00C00B0EB810F70
:1018D000F2D12868810714D5400703D5A06840F4E9
:1018E000E060A0602878000705D5A06820F460506B
:1018F00040F4E060A060A068A96820F0F000084310
:1019000004E0802F03D1A06820F0F000A060D8F898
:101910000010404601F00F01B14216D9016821F0D4
:101920000F0131430160FFF7E1FC074607E000BF0C
:10193000FFF7DCFCC11B514501D903207AE7D8F839
:10194000000000F00F00B042F2D12878400705D522
:10195000A068E96820F4E0600843A06028780007E8
:1019600006D5A068296920F4605040EAC100A06053
:1019700000F020F8A1680C4AC1F30311515C01F09A
:101980001F01C8400949086009480068BDE8F047E0
:10199000FFF7CABC002002400010024000B4C4049B
:1019A0000024F40000127A00DE3800081C00002039
:1019B00010000020184910B58868C0F3810217484C
:1019C000012A0BD08A684310C2F38102022A06D092
:1019D0008A68C2F38102032A03D0002010BD184692
:1019E00010BDCA6802F00304CA68C2F30312521C95
:1019F000032C02D0B0FBF2F001E0B3FBF2F0CA68B6
:101A0000C968C2F306225043C1F34161491C490031
:101A1000B0FBF1F010BD0000001002400024F40003
:101A20002DE9F84304007AD02078FA4DC00747D05A
:101A3000A868E96800F00C0001F003010C2802D04E
:101A4000082817D001E0032914D06068B0F5803F62
:101A500017D0B0F5A02F286817D020F48030286068
:101A6000286820F4802028606068E0B1FFF73EFC21
:101A7000064614E02868800322D560680028D2D08A
:101A80001EE0286840F48030EDE740F480202860B4
:101A9000F7E700BFFFF72AFC801B642870D828688E
:101AA0008003F7D50CE0FFF721FC064605E000BFF8
:101AB000FFF71CFC801B6428F0D828688003F7D44B
:101AC000207880074CD5A868E96800F00C0001F088
:101AD00003010C2802D004280DD001E002290AD00D
:101AE000E068002828682BD040F480702860FFF759
:101AF000FDFB064619E02868400502D5E06800288D
:101B000091D06868217C20F0FE4040EA0160686066
:101B1000C1480068FFF708FC002800D120E076E10A
:101B2000FFF7E4FB801B0228B8D828684005F7D5EA
:101B30006868217C20F0FE4040EA016068600FE0A8
:101B400020F480702860FFF7D1FB064605E000BF57
:101B5000FFF7CCFB801B0228A0D828684005F7D4EB
:101B60002078000729D560690028D5F8940013D0A3
:101B700040F00100C5F89400FFF7B8FB064606E008
:101B800090E000BFFFF7B2FB801B022886D8D5F893
:101B900094008007F6D510E020F00100C5F894000D
:101BA000FFF7A4FB064604E0FFF7A0FB801B02281A
:101BB00078D8D5F894008007F6D42078400761D50E
:101BC000A86D0026C00008D4A86D40F08050A8651C
:101BD000A86D012600F08050009090480168C9056A
:101BE00011D40168804641F480710160FFF77EFBEB
:101BF000074604E0FFF77AFBC01B022852D8D8F84A
:101C00000000C005F6D5A068012815D00528D5F834
:101C1000900016D020F00100C5F89000D5F8900093
:101C200020F00400C5F89000A06841F28838B8B1EF
:101C3000FFF75CFB07460EE0D5F8900040F001008E
:101C4000F0E740F00400C5F89000F5E7FFF74EFB21
:101C5000C11B414526D8D5F890008007F6D50CE089
:101C6000FFF744FB074604E0FFF740FBC11B41457B
:101C700018D8D5F890008007F6D41EB1A86D20F0D2
:101C80008050A8652078800629D5A0690028D5F85D
:101C9000980013D040F00100C5F89800FFF726FB2C
:101CA000064606E077E000BFFFF720FB801B022816
:101CB00077D8D5F898008007F6D510E020F001001D
:101CC000C5F89800FFF712FB064604E0FFF70EFB8D
:101CD000801B022865D8D5F898008007F6D4E06903
:101CE000F0B3A968C1F38101032961D002282868F3
:101CF00020F0807028600BD0E86820F00300E860D6
:101D0000E86847490840E860FFF7F0FA04464BE00E
:101D1000FFF7ECFA064604E0FFF7E8FA801B02281A
:101D20003FD828688001F7D4F4E908016FF00F026A
:101D300002EB01110843218A5204490802EB415188
:101D4000A26841EA02210843217D4FF07E42490802
:101D500002EB41610843217B40EAC160E96800E091
:101D600062E0304A11400843E860286840F0807023
:101D70002860E86840F08070E860FFF7B7FA044632
:101D800005E000BFFFF7B2FA001B022809D8286857
:101D90008001F7D548E004E0FFF7A8FA001B02280D
:101DA00002D90320BDE8F88328688001F4D43BE021
:101DB0000128F7D0E868226A00F00301914226D199
:101DC000616A00F0F0020901103991421FD1A26A44
:101DD00000F4FE41B1EB022F19D194F82C2000F051
:101DE0007841B1EBC26F12D1218E00F4C0024908D4
:101DF0004905A1F50011914209D194F8341000F081
:101E0000C06049084906A1F1007181420CD001204F
:101E1000C8E70000001002401000002000700040E1
:101E2000FFFFEEFE0C809F010020BBE710B5401EB7
:101E3000B0F1807F01D3012010BD4FF0E02460613C
:101E40000F21601700F08EFF0020A06107202061A5
:101E5000002010BDF0B590F83C20012A58D0012296
:101E600080F83C20CA688B6822F440721A434B68A1
:101E700022F480621A430B6822F400621A430B6951
:101E800022F480521A434B6922F400521A430B6B1E
:101E900022F480421A430B8B22F4702242EA03425E
:101EA0001C4C036800271C4D1C4EA34203D0AB42C0
:101EB00001D0B34205D1D1F81CC022F0805242EAD1
:101EC0000C02A34203D0AB4201D0B3421BD1B1F804
:101ED00028C022F4700242EA0C52D1F820C022F04D
:101EE000807242EA0C02D1F824C022F0007242EA69
:101EF0000C02A34203D0AB4201D0B34203D1C96A62
:101F000022F000520A435A6480F83C700020F0BD71
:101F10000220F0BD002C014000340140005001407F
:101F2000F0B590F83C20012A43D0012580F83C50C0
:101F3000022280F83D2003685A689C681E4E1F4F9D
:101F4000DFF87CC0B34203D0BB4201D0634504D16B
:101F500022F4700E4A6842EA0E02DFF868E002EAF4
:101F60000E02D1F800E04EEA020EC3F804E0026867
:101F7000B24212D0B2F1804F0FD0134B9A420CD024
:101F8000124B9A4209D0124B9A4206D0BA4204D060
:101F9000104B9A4201D0624504D1896824F0800335
:101FA0001943916080F83D50002180F83C100846AC
:101FB000F0BD0220F0BD0000002C014000340140C3
:101FC000005001408FFFFFFD00040040000800406A
:101FD000000C00400040014010B5040003D094F80C
:101FE0003D0010B107E0012010BD002084F83C0046
:101FF000204600F023F8022084F83D00211D2068CF
:1020000000F0DEFB012084F8480084F83E0084F8EC
:102010003F0084F8400084F8410084F8420084F8CE
:10202000430084F8440084F8450084F8460084F8AE
:10203000470084F83D00002010BD000008B500688E
:102040000649884208D10648016E41F400510166F4
:10205000006E00F40050009008BD00000034014004
:102060000010024030B587B0044614216846FEF7E0
:1020700083F92468154D0023154902221548AC4206
:102080000ED1CC6C44F00404CC64C96C01F00401A2
:10209000059101218DE80E00CDE90332694611E07A
:1020A0000D4DAC4210D1CC6C44F00404CC64C96C2E
:1020B00001F00401059140218DE80E000421CDE9D5
:1020C00003316946FEF7E0FF07B030BD002C014048
:1020D00000100240000800480034014070B504467A
:1020E00090F83C00002501280BD0012084F83C002A
:1020F0000C2A1ED007DC82B1042A12D0082A06D18D
:1021000013E0022070BD102A17D0142A19D001251F
:10211000002084F83C00284670BD206800F0C4FB15
:10212000F6E7206800F016FCF2E7206800F062FC99
:10213000EEE7206800F0AEFCEAE7206800F0FAFC69
:10214000E6E7206800F032FDE2E710B5040003D0B6
:1021500094F83D0010B107E0012010BD002084F884
:102160003C00204600F022F8022084F83D00211DAA
:10217000206800F025FB012084F8480084F83E0028
:1021800084F83F0084F8400084F8410084F842005D
:1021900084F8430084F8440084F8450084F846003D
:1021A00084F8470084F83D00002010BD704770B5EA
:1021B000044690F83C0000260D4601280BD0012073
:1021C00084F83C000C2A4AD007DC82B1042A20D0D3
:1021D000082A06D131E0022070BD102A53D0142AFB
:1021E00063D00126002084F83C00304670BD206892
:1021F00000F05AFB2068816941F008018161206884
:10220000816921F004018161206881692A69114393
:1022100011E0206800F09EFB2068816941F40061B4
:1022200081612068816921F4806181612068816910
:102230002A6941EA02218161D4E7206800F0DAFBD3
:102240002068C16941F00801C1612068C16921F0BD
:102250000401C1612068C1692A69114311E0206845
:1022600000F018FC2068C16941F40061C161206878
:10227000C16921F48061C1612068C1692A6941EAAC
:102280000221C161AEE7206800F054FC2068016DB6
:1022900041F0080101652068016D21F0040101652C
:1022A0002068016D2A69114311E0206800F07EFC6E
:1022B0002068016D41F4006101652068016D21F421
:1022C000806101652068016D2A6941EA022101658A
:1022D00088E710B5040003D094F83D0010B107E082
:1022E000012010BD002084F83C00204600F022F8B8
:1022F000022084F83D00211D206800F061FA0120D1
:1023000084F8480084F83E0084F83F0084F84000D8
:1023100084F8410084F8420084F8430084F84400C3
:1023200084F8450084F8460084F8470084F83D00AE
:10233000002010BD08B500680649884208D106484B
:10234000016E41F400610166006E00F400600090CF
:1023500008BD0000002C01400010024070B504468A
:1023600090F83C00012812D0012584F83C5002204E
:1023700084F83D00204600F057FC01004FF00000BB
:1023800007D084F83D5084F83C00012070BD022045
:1023900070BD2168CA6822F04002CA602168CA681C
:1023A00022F48042CA6084F83D5084F83C0000204A
:1023B00070BDFEE700EB8100006E00F0F840704752
:1023C0008068C0F3C00070478068C0F38000704729
:1023D0008068C0F380007047042303EAD15310B52E
:1023E00018444369C1F3045107248C40A3438A4035
:1023F0001343436110BD00EB8100016E21F00041E9
:10240000114301667047000010B58CB000240094A1
:102410000194202103A80294FDF7AEFF14484FF069
:10242000A04101604FF44031C0E90114C4600421AF
:102430000461C0E90541047744770121016280F815
:102440002440C462046380F83840C46380F840408C
:10245000FEF7F6FB08B172B6FEE769460448009441
:10246000FEF70AF9002801D072B6FEE70CB010BDE5
:1024700088000020F0B587B014216846FDF77CFF86
:102480001E48C16C41F00401C164C16C01F004013B
:102490000591C16C41F00101C164C16C01F0010101
:1024A0000591C16C41F00201C164C06C144E00F092
:1024B00002004FF400540590002221463046FEF7FA
:1024C0000FFF4FF09047002220213846FEF708FF0B
:1024D0000125CDE900450024029469463046039465
:1024E000FEF7D2FD20200090CDE901546946384620
:1024F0000394FEF7C9FD07B0F0BD000000100240D4
:102500000008004830B597B00024149415941C219D
:102510000DA81694FDF730FF34216846FDF72CFF17
:1025200030482F49314A01602F490968B1FBF2F167
:10253000491EC0E9011440F2E731C0E903144461C7
:102540008461FFF7C6FE08B172B6FEE72548FFF7C3
:10255000FCFD08B172B6FEE75020CDE9140414A9C1
:1025600020481694FFF7DCFC08B172B6FEE74FF482
:10257000FA756020CDE90E540D90109411941294C8
:1025800000220DA917481394FFF711FE08B172B687
:10259000FEE71020CDE90D0504220DA91148FFF733
:1025A0009DFD08B172B6FEE700944FF40050CDE9EE
:1025B000044003940003CDE908400194029406947A
:1025C00007940A940B94694606480C94FFF742FC62
:1025D00008B172B6FEE70348FFF744FD17B030BDFF
:1025E000002C0140F40000201C00002040FF1005DA
:1025F00010B59CB0142114A8FDF7BEFE0024199458
:102600001A941C210DA81B94FDF7B6FE34216846D0
:10261000FDF7B2FE2F482E49304A01602E49096865
:10262000B1FBF2F1491EC0E9011440F2E731C0E903
:10263000031444618461FFF7CFFC08B172B6FEE772
:102640002448FFF746FE08B172B6FEE70620CDE942
:10265000140414A91F48FFF781FE08B172B6FEE703
:1026600019941A9419A91B481B94FFF759FC08B137
:1026700072B6FEE760200D904FF4FA70CDE90E04BB
:1026800010941194129400220DA912481394FFF78C
:102690008EFD08B172B6FEE700944FF40050CDE90C
:1026A000044003940003CDE9084001940294069489
:1026B00007940A940B94694606480C94FFF7CAFBEA
:1026C00008B172B6FEE70348FFF7CCFC1CB010BDA2
:1026D00000340140400100201C00002040FF100594
:1026E000FEE7000070B50E4C01200E4D2070C0B208
:1026F000FDF78AFF0C48FEF70BFC0B48FEF79CFA2F
:10270000217805EB810141F8040C0748FEF79CFC99
:102710002078401CC0B220700528E8D970BD0000A8
:102720000C0000208C01002088000020FEE710B57E
:10273000FEF7E2FD00F0F8FF012803D0BDE81040ED
:1027400000F0B0BF10BD00B593B038216846FDF76A
:1027500013FE14210EA8FDF70FFE0020FEF756FE13
:102760000220C1010391402104910421CDE9080117
:1027700000905521CDE90A1007900C900D90684605
:10278000FFF74EF908B172B6FEE70F200E90032056
:102790000F90002010901190129004210EA8FFF7C6
:1027A0001BF8002801D072B6FEE713B000BD000090
:1027B0000248016841F470010160704788ED00E053
:1027C0002DE9F04F02682A4B2A4E2B4FDFF8ACC0A0
:1027D0002B4C2C4D4FF0804B98420BD0584509D0D4
:1027E000B04207D0B84205D0604503D0A04201D026
:1027F000A84204D122F070084A6842EA0802DFF8D1
:102800008880DFF88890DFF888A0984211D058457A
:102810000FD0B0420DD0B8420BD0604509D0A042D5
:1028200007D0404505D0484503D0504501D0A842C7
:1028300003D122F44076CA6832434E6922F0800206
:10284000324302608A68C2620A688262984209D092
:10285000A04207D0404505D0484503D0504501D09F
:10286000A84201D10969016301214161BDE8F08FEE
:10287000002C01400004004000080040000C004013
:10288000003401400050014000400140004401403C
:102890000048014010B5846842EA032224F47F44D2
:1028A0000A432243826010BD2DE9F047026A22F0FC
:1028B00001020262056A436882691F4C25F0020525
:1028C00022400C6822F0030214438A681C4E2A43FB
:1028D0001A4D1C4FDFF870C0DFF87090DFF870A061
:1028E000A84209D0B04207D0B84205D0604503D015
:1028F000484501D0504506D122F00808CA6842EA8E
:10290000080222F00402A84209D0B04207D0B8421F
:1029100005D0604503D0484501D0504505D14D69EB
:1029200023F440731D438B692B43436084614968E2
:1029300041630262BDE8F0878FFFFEFF002C01407B
:102940000034014000400140004401400048014083
:1029500000500140F0B5026A22F010020262056ADE
:10296000426883691C4C1E4E23400C6823F440735C
:1029700043EA042425F020038D681A4F43EA051327
:10298000164DA84203D0B04201D0B84207D1D1F8C9
:102990000CC023F0800343EA0C1323F04003A84249
:1029A0000CD0B0420AD0104DA84207D00F4DA8421B
:1029B00004D00F4DA84201D0B84207D14D6922F48E
:1029C000406242EA85028D6942EA85024260846182
:1029D000496881630362F0BDFF8FFFFE002C014058
:1029E00000340140005001400040014000440140DB
:1029F00000480140F0B5026A22F480720262056A62
:102A00004268C3691C4C1E4E23400C6823F003032C
:102A10001C4325F400738D681A4F43EA0523174DB4
:102A2000A84203D0B04201D0B84207D1D1F80CC0BF
:102A300023F4006343EA0C2323F48063A8420CD000
:102A4000B0420AD0104DA84207D0104DA84204D081
:102A50000F4DA84201D0B84207D14D6922F440522F
:102A600042EA05128D6942EA05124260C461496872
:102A7000C1630362F0BD00008FFFFEFF002C014028
:102A8000003401400050014000400140004401403A
:102A900000480140F0B5026A22F480520262056AE1
:102AA0004268C3691C4C1E4E23400C6823F44073DB
:102AB00043EA042425F400538D681A4F43EA053392
:102AC000164DA84203D0B04201D0B84207D1D1F888
:102AD0000CC023F4004343EA0C3323F48043A842A0
:102AE0000CD0B0420AD0104DA84207D00F4DA842DA
:102AF00004D00F4DA84201D0B84207D14D6922F44D
:102B0000404242EA85128D6942EA85124260C46100
:102B1000496801640362F0BDFF8FFFFE002C014095
:102B20000034014000500140004001400044014099
:102B30000048014030B5026A22F480320262046A21
:102B40004268036D124D2B400D681D4324F4003381
:102B50000C8943EA04430F4CA0420ED00E4CA04215
:102B60000BD00E4CA04208D00D4CA04205D00D4C0D
:102B7000A04202D00C4CA04204D14C6922F4803215
:102B800042EA04224260056549688164036230BDFF
:102B90008FFFFEFF002C0140003401400040014047
:102BA00000440140004801400050014030B5026A35
:102BB00022F480120262046A4268036D134D24F409
:102BC00000142B400D6843EA05230D8944EA05549F
:102BD0000F4DA8420ED00F4DA8420BD00E4DA8426B
:102BE00008D00E4DA84205D00D4DA84202D00D4D83
:102BF000A84204D14D6922F4802242EA8522426033
:102C000003654968C164046230BD0000FF8FFFFEA8
:102C1000002C0140003401400040014000440140CC
:102C2000004801400050014070B505680024AA68C2
:102C30002F4B1A404B6813432E4A13400A681A431D
:102C4000AA604A68B2F5801F23D00CDC12F00F0F87
:102C50001ED14FEA2212082A1AD2DFE802F01A1A0D
:102C60001A1A233C421C2449501A8A4211D009DC0A
:102C7000B2F1101F0DD0203AB2F5801209D0102AFF
:102C800006D106E0102804D0202802D0302800D039
:102C90000124204670BD0B69D1E902210068FFF7CD
:102CA000F9FDF6E70A68052A13D0B2F1011F10D02A
:102CB0000268136A156A25F00105156202689569B4
:102CC000096925F0F00545EA011191610068036288
:102CD000DFE7012070BD0A698968006800F00EF81E
:102CE000D7E70A698968006800F019F8D1E70000A1
:102CF0008FFFCFFFF8FFFEFF4000100010B5036A02
:102D0000046A24F001040462846924F0F00444EAB3
:102D1000021423F00A020A438461026210BD10B556
:102D2000036A23F0100303628369046A23F4704387
:102D300043EA023224F0A00343EA011182610162F6
:102D400010BD4FF0904420212046FEF7C1FAFFF756
:102D5000C9FC142000F046FBF5E7642000F042FBBC
:102D6000FBE7FEE70907090E002804DB00F1E0207D
:102D700080F80014704700F00F0000F1E02080F8A8
:102D8000141D70471CB5FEF7BFFAFFF7DCFCFFF718
:102D900071FBFFF739FBFFF7B5FBFFF729FC06498D
:102DA0000120CDE900010023802204A1064800F0A3
:102DB0008FFC00F00BF8FEE70000002073746172D6
:102DC000745F7461736B00000D32000810B500F081
:102DD00085FB002010BD00002DE9F041184C0F4686
:102DE0000546E6682068001D00F03EFA38B9206804
:102DF00090F82C1001208840216981432161681CD2
:102E000007D137B12168BDE8F0410E48091D00F037
:102E100064BA20683544B5424560216805D2A06B8C
:102E2000BDE8F041091D00F040BA606B091D00F0DB
:102E30003CFAA06A854200D2A562BDE8F08100009C
:102E400020000020E80200202DE9F041054600F0B6
:102E500051FA2E4CA068401CA06020682C4F10B185
:102E6000606940B32DE02560A068012829D10026C3
:102E700006EB860007EB800000F009FA761C072EAF
:102E8000F6D323488C3000F002FA2148A03000F03D
:102E9000FEF91F48B43000F0FAF91D48C83000F0C0
:102EA000F6F91B48DC3000F0F2F919488C30606309
:102EB0001430A06305E02068E96AC06A884200D83F
:102EC0002560606A401C6062E96A012022698840CE
:102ED0001043206101EB810007EB8000291D00F009
:102EE000FCF900F027FA606900280CD02068E96A34
:102EF000C06A884207D207494FF080500860BFF38C
:102F00004F8FBFF36F8FBDE8F081000020000020DD
:102F10000C02002004ED00E010B50446006B00F048
:102F20001DFA2046BDE8104000F018BA10484FF4D2
:102F30004061420706D0C01D0D4920F00700411A2C
:102F4000C1F540610B4A00230144C2E9000308397E
:102F5000183A21F0070111604B600B600B1AC0E9B1
:102F6000001393604FF000405360506170470000C1
:102F7000FC02002074000020144E154CA6F1C80776
:102F80004FF08058DFF84C9012E000BF00F0B2F92B
:102F9000F068C568281D00F067F9A068401EA060B1
:102FA0006068401E606000F0C5F92846FFF7B4FF76
:102FB00060680028EAD138680128F9D9C9F800808A
:102FC000BFF34F8FBFF36F8FF2E70000D4020020F2
:102FD0002000002004ED00E02DE9F0479A46DDE9ED
:102FE000098481466FF00303206B03EB82021044D7
:102FF000089E20F00707780707D0502080F311883B
:10300000BFF34F8FBFF36F8FFEE7002561B1002044
:1030100023180A5C83F834200A5C12B1401C102883
:10302000F6D384F8435001E084F83450072E00D3DF
:103030000626E662C4E91165201D00F033F904F1AB
:10304000180000F02FF92461C6F107006462A06146
:10305000E56484F8505052464946384600F0C0F8BE
:103060002060B8F1000F01D0C8F80040BDE8F0873B
:1030700030B5114900E011460A688242FBD34B6823
:103080005C18844203D1406818444860084643688D
:103090001C18944209D1084C183C2468A24209D05B
:1030A00052681A4442600A6812680260814200D085
:1030B000086030BD0460F9E7740000200648416BE9
:1030C000096829B1416BC968C9684968816270475C
:1030D0004FF0FF31FAE70000200000200848406868
:1030E000401C4FF0500080F3118804D0BFF34F8F85
:1030F000BFF36F8FFEE7BFF34F8FBFF36F8FFEE716
:103100007C0000202DE9F0410546002700F01AFA66
:10311000324E306808B9FFF709FF706905424ED199
:10312000C5B3083568070ED005F00700C0F10800E8
:103130000544680707D0502080F31188BFF34F8FF4
:10314000BFF36F8FFEE72DB37068854237D82348F1
:10315000183001460C6801E020460C466168A9421F
:1031600002D221680029F7D131688C4227D0076844
:103170002168016060680837411B10290FD9601968
:10318000420708D0502080F31188BFF34F8FBFF360
:103190006F8FFEE713E041606560FFF769FF6168CC
:1031A0007068401A7060B268904200D2B060706976
:1031B00001430020C4E90001F068401CF06000F009
:1031C00027FB780707D0502080F31188BFF34F8F7B
:1031D000BFF36F8FFEE73846BDE8F0815C0000204A
:1031E00010B5031F4FF080741C601B1F21F00101FC
:1031F0001960191F044B0B6014390A60091F6FF026
:10320000020244380A6010BDDD3000081CB50E49CA
:103210000220CDE90001002380220CA10D4800F01E
:1032200057FA09490320091DCDE900010023802236
:1032300009A10B4800F04CFA0A48006800F0F8F8C1
:10324000BDE81C4000F076B8040000205461736BA8
:103250005F310000432D00085461736B5F32000042
:103260005B2D000800000020D0E9013201699A605E
:10327000D0E901235A604A68824201D182684A60DB
:10328000002202610868401E08600868704700F16B
:1032900008014FF0FF32C0E90112C1600161002155
:1032A0000160704700210161704730B50B685A1CFE
:1032B00002D000F1080202E0026904E022465468EC
:1032C00025689D42FAD953684B6099608A605160C5
:1032D00008610168491C016030BD42684A6093681A
:1032E0008B6093685960916008610168491C0160B6
:1032F00070470000502080F31188BFF34F8FBFF359
:103300006F8F0A494868401C486001280CD1084862
:10331000006810F0FF0F07D0502080F31188BFF332
:103320004F8FBFF36F8FFEE7704700007C000020D7
:1033300004ED00E00849486828B1401E486001D10A
:1033400080F311887047502080F31188BFF34F8FAE
:10335000BFF36F8FFEE700007C00002070B50028EF
:103360002AD0164DA0F1080460686969084207D1A7
:10337000502080F31188BFF34F8FBFF36F8FFEE7AC
:1033800022683AB1502080F31188BFF34F8FBFF30A
:103390006F8FFEE78843606000F0D4F8606869686A
:1033A000084468602046FFF763FE2869401C2861D6
:1033B000BDE8704000F02CBA70BD00005C00002039
:1033C0004FF0E02000210161816105494FF47A72DC
:1033D0000968B1FBF2F1491E4161072101617047A3
:1033E0001C00002010B5020014D00F48006B38B14B
:1033F000502080F31188BFF34F8FBFF36F8FFEE72C
:1034000000F0A0F800211046FFF7E6FC00F000FAFB
:10341000002807D105494FF080500860BFF34F8F57
:10342000BFF36F8F10BD00002000002004ED00E00E
:1034300070B50546FFF75EFF254C05B92568281DC8
:10344000FFF712FF58B9E86A224A00EB800152F8F0
:10345000211021B901218140206988432061A86A97
:1034600018B105F11800FFF7FFFE606A401C6062AA
:103470002068854208D11748291DC830FFF72DFF65
:103480006068401C606007E0A068401EA06028469D
:10349000FFF742FDFFF712FEFFF74CFF60690028BF
:1034A00014D02068854211D1206B38B1502080F3B0
:1034B0001188BFF34F8FBFF36F8FFEE706494FF0C0
:1034C00080500860BFF34F8FBFF36F8F70BD000057
:1034D000200000200C02002004ED00E01CB515487F
:1034E0000024CDE900402346802213A1144800F0B7
:1034F000EFF8012809D0401C1AD1502080F3118820
:10350000BFF34F8FBFF36F8FFEE7502080F311881A
:10351000BFF34F8FBFF36F8F06484FF0FF312C384A
:10352000816201214161C460BDE81C4000F040B8E7
:103530001CBD00004C00002049444C450000000028
:10354000792F00080248016B491C01637047000095
:10355000200000201448016B11B10121C1617047A6
:103560000021C1610169B1FA81F1C1F11F0101EBD3
:1035700081020E4951F822306BB101EB820101F159
:1035800008034A6852684A609A4201D152684A6008
:10359000D16801607047502080F31188BFF34F8FCE
:1035A000BFF36F8FFEE70000200000200C02002018
:1035B0001CB537480168374A914207D1502080F343
:1035C0001188BFF34F8FBFF36F8FFEE7006831495B
:1035D000491E884207D1502080F31188BFF34F8FD6
:1035E000BFF36F8FFEE72C4908780190FF20087029
:1035F00008788DF800009DF800009DF8002000F08C
:10360000F000904207D0502080F31188BFF34F8F15
:10361000BFF36F8FFEE79DF80000204C00F05000D4
:1036200020700720A06005E09DF8002052008DF872
:103630000020401E9DF800201206F5D4A06003284B
:1036400007D0502080F31188BFF34F8FBFF36F8FE7
:10365000FEE74FF44070A060019808700C482030DD
:10366000016841F470010160016841F0704101603E
:10367000FFF7A6FE00206060FCF722FE0848016804
:1036800041F040410160FCF707FE00201CBD000036
:1036900000ED00E071C20F4100E400E07C0000207A
:1036A00034EF00E010B5502080F31188BFF34F8F46
:1036B000BFF36F8F00F046F818B104494FF0805007
:1036C0000860002080F3118810BD000004ED00E0C8
:1036D0002DE9FF5F8346DDE90E87994616468A4647
:1036E0009000FFF70FFD05001AD05420FFF70AFDE8
:1036F000040012D025630021CDE90241CDE9008705
:103700004B46324651465846FFF766FC2046FFF7C7
:103710009BFB012004B0BDE8F09F2846FFF71EFE8A
:103720004FF0FF30F6E700000548416919B1006B22
:1037300018B1002070470120704702207047000038
:10374000200000202DE9F0412F4C0026206B28B1ED
:10375000A069401CA0613046BDE8F081E5686D1CA1
:10376000E56013D1606B006838B1502080F3118898
:10377000BFF34F8FBFF36F8FFEE7606BA16B616389
:10378000A063206A401C2062FFF798FCA06ADFF863
:103790007C80854209D3606B0068A0B1606BC06813
:1037A000C7687868854211D2A0622068C06A00EBC1
:1037B000800158F82100012800D90126E06900287D
:1037C000C9D00126C7E74FF0FF30EDE7381DFFF7FE
:1037D0004BFDB86A18B107F11800FFF745FDF96A0B
:1037E0000120226988401043206101EB810108EB30
:1037F0008100391DFFF771FDF86A2168C96A8842A6
:10380000C9D30126C7E70000200000200C020020D9
:103810002DE9F0472C4D00242746286B38B1FFF7DF
:1038200069FD286B401E2863286B40B146E050209C
:1038300080F31188BFF34F8FBFF36F8FFEE7A96846
:10384000224E0120D1B3A6F1B40980463068E8B118
:10385000F068C46804F11800FFF706FD201DFFF7AB
:1038600003FDE06A2A6908FA00F11143296100EBBF
:10387000800109EB8100211DFFF72FFDE06A296817
:10388000C96A8842E2D3C5F81C80DFE70CB1FFF7B4
:1038900015FCAC6944B14646FFF754FF00B1EE6138
:1038A000641EF9D10020A861E86938B108490127F0
:1038B00038070860BFF34F8FBFF36F8FFFF73AFDF4
:1038C0003846BDE8F087000020000020C00200203C
:1038D00004ED00E04FF04070E1EE100A7047000088
:1038E00000000000000001020304060708090000B0
:1038F00010390008000000208800000014020008B1
:103900009839000888000020D81400003002000810
:1039100000000000000000000000000000000000A7
:103920001000000001000000000000000024F4006E
:103930000000000000000000000000000000000087
:103940000000000000000000000000000000000077
:103950000000000000000000000000000000000067
:103960000000000000000000000000000000000057
:103970000000000000000000000000000000000047
:103980000000000000000000000000000000000037
:08399000AAAAAAAA0000000087
:04000005080001D915
:00000001FF
